{
	"contracts/Tweet-require.sol": {
		"TwitterStruct": {
			"abi": [
				{
					"inputs": [
						{
							"internalType": "string",
							"name": "_tweet",
							"type": "string"
						}
					],
					"name": "createTweet",
					"outputs": [],
					"stateMutability": "nonpayable",
					"type": "function"
				},
				{
					"inputs": [
						{
							"internalType": "address",
							"name": "_owner",
							"type": "address"
						}
					],
					"name": "getAllTweets",
					"outputs": [
						{
							"components": [
								{
									"internalType": "address",
									"name": "author",
									"type": "address"
								},
								{
									"internalType": "string",
									"name": "content",
									"type": "string"
								},
								{
									"internalType": "uint256",
									"name": "timestamp",
									"type": "uint256"
								},
								{
									"internalType": "uint128",
									"name": "likes",
									"type": "uint128"
								}
							],
							"internalType": "struct TwitterStruct.Tweet[]",
							"name": "",
							"type": "tuple[]"
						}
					],
					"stateMutability": "view",
					"type": "function"
				},
				{
					"inputs": [
						{
							"internalType": "uint128",
							"name": "_i",
							"type": "uint128"
						}
					],
					"name": "getTweet",
					"outputs": [
						{
							"components": [
								{
									"internalType": "address",
									"name": "author",
									"type": "address"
								},
								{
									"internalType": "string",
									"name": "content",
									"type": "string"
								},
								{
									"internalType": "uint256",
									"name": "timestamp",
									"type": "uint256"
								},
								{
									"internalType": "uint128",
									"name": "likes",
									"type": "uint128"
								}
							],
							"internalType": "struct TwitterStruct.Tweet",
							"name": "",
							"type": "tuple"
						}
					],
					"stateMutability": "view",
					"type": "function"
				},
				{
					"inputs": [
						{
							"internalType": "address",
							"name": "",
							"type": "address"
						},
						{
							"internalType": "uint256",
							"name": "",
							"type": "uint256"
						}
					],
					"name": "tweets",
					"outputs": [
						{
							"internalType": "address",
							"name": "author",
							"type": "address"
						},
						{
							"internalType": "string",
							"name": "content",
							"type": "string"
						},
						{
							"internalType": "uint256",
							"name": "timestamp",
							"type": "uint256"
						},
						{
							"internalType": "uint128",
							"name": "likes",
							"type": "uint128"
						}
					],
					"stateMutability": "view",
					"type": "function"
				}
			],
			"devdoc": {
				"kind": "dev",
				"methods": {},
				"version": 1
			},
			"evm": {
				"assembly": "    /* \"contracts/Tweet-require.sol\":61:1131  contract TwitterStruct {... */\n  mstore(0x40, 0x80)\n  callvalue\n  dup1\n  iszero\n  tag_1\n  jumpi\n  0x00\n  dup1\n  revert\ntag_1:\n  pop\n  dataSize(sub_0)\n  dup1\n  dataOffset(sub_0)\n  0x00\n  codecopy\n  0x00\n  return\nstop\n\nsub_0: assembly {\n        /* \"contracts/Tweet-require.sol\":61:1131  contract TwitterStruct {... */\n      mstore(0x40, 0x80)\n      callvalue\n      dup1\n      iszero\n      tag_1\n      jumpi\n      0x00\n      dup1\n      revert\n    tag_1:\n      pop\n      jumpi(tag_2, lt(calldatasize, 0x04))\n      shr(0xe0, calldataload(0x00))\n      dup1\n      0x05a1b4a9\n      eq\n      tag_3\n      jumpi\n      dup1\n      0x12e7ee1c\n      eq\n      tag_4\n      jumpi\n      dup1\n      0x5dfd9be2\n      eq\n      tag_5\n      jumpi\n      dup1\n      0x7c9cd2bc\n      eq\n      tag_6\n      jumpi\n    tag_2:\n      0x00\n      dup1\n      revert\n        /* \"contracts/Tweet-require.sol\":332:373  mapping(address => Tweet[]) public tweets */\n    tag_3:\n      tag_7\n      0x04\n      dup1\n      calldatasize\n      sub\n      dup2\n      add\n      swap1\n      tag_8\n      swap2\n      swap1\n      tag_9\n      jump\t// in\n    tag_8:\n      tag_10\n      jump\t// in\n    tag_7:\n      mload(0x40)\n      tag_11\n      swap5\n      swap4\n      swap3\n      swap2\n      swap1\n      tag_12\n      jump\t// in\n    tag_11:\n      mload(0x40)\n      dup1\n      swap2\n      sub\n      swap1\n      return\n        /* \"contracts/Tweet-require.sol\":1013:1128  function getAllTweets(address _owner) public view returns (Tweet[] memory) {... */\n    tag_4:\n      tag_13\n      0x04\n      dup1\n      calldatasize\n      sub\n      dup2\n      add\n      swap1\n      tag_14\n      swap2\n      swap1\n      tag_15\n      jump\t// in\n    tag_14:\n      tag_16\n      jump\t// in\n    tag_13:\n      mload(0x40)\n      tag_17\n      swap2\n      swap1\n      tag_18\n      jump\t// in\n    tag_17:\n      mload(0x40)\n      dup1\n      swap2\n      sub\n      swap1\n      return\n        /* \"contracts/Tweet-require.sol\":868:982  function getTweet( uint128 _i) public view returns (Tweet memory) {... */\n    tag_5:\n      tag_19\n      0x04\n      dup1\n      calldatasize\n      sub\n      dup2\n      add\n      swap1\n      tag_20\n      swap2\n      swap1\n      tag_21\n      jump\t// in\n    tag_20:\n      tag_22\n      jump\t// in\n    tag_19:\n      mload(0x40)\n      tag_23\n      swap2\n      swap1\n      tag_24\n      jump\t// in\n    tag_23:\n      mload(0x40)\n      dup1\n      swap2\n      sub\n      swap1\n      return\n        /* \"contracts/Tweet-require.sol\":382:838  function createTweet(string memory _tweet) public {... */\n    tag_6:\n      tag_25\n      0x04\n      dup1\n      calldatasize\n      sub\n      dup2\n      add\n      swap1\n      tag_26\n      swap2\n      swap1\n      tag_27\n      jump\t// in\n    tag_26:\n      tag_28\n      jump\t// in\n    tag_25:\n      stop\n        /* \"contracts/Tweet-require.sol\":332:373  mapping(address => Tweet[]) public tweets */\n    tag_10:\n      mstore(0x20, 0x00)\n      dup2\n      0x00\n      mstore\n      keccak256(0x00, 0x40)\n      dup2\n      dup2\n      sload\n      dup2\n      lt\n      tag_29\n      jumpi\n      0x00\n      dup1\n      revert\n    tag_29:\n      swap1\n      0x00\n      mstore\n      keccak256(0x00, 0x20)\n      swap1\n      0x04\n      mul\n      add\n      0x00\n      swap2\n      pop\n      swap2\n      pop\n      pop\n      dup1\n      0x00\n      add\n      0x00\n      swap1\n      sload\n      swap1\n      0x0100\n      exp\n      swap1\n      div\n      0xffffffffffffffffffffffffffffffffffffffff\n      and\n      swap1\n      dup1\n      0x01\n      add\n      dup1\n      sload\n      tag_31\n      swap1\n      tag_32\n      jump\t// in\n    tag_31:\n      dup1\n      0x1f\n      add\n      0x20\n      dup1\n      swap2\n      div\n      mul\n      0x20\n      add\n      mload(0x40)\n      swap1\n      dup2\n      add\n      0x40\n      mstore\n      dup1\n      swap3\n      swap2\n      swap1\n      dup2\n      dup2\n      mstore\n      0x20\n      add\n      dup3\n      dup1\n      sload\n      tag_33\n      swap1\n      tag_32\n      jump\t// in\n    tag_33:\n      dup1\n      iszero\n      tag_34\n      jumpi\n      dup1\n      0x1f\n      lt\n      tag_35\n      jumpi\n      0x0100\n      dup1\n      dup4\n      sload\n      div\n      mul\n      dup4\n      mstore\n      swap2\n      0x20\n      add\n      swap2\n      jump(tag_34)\n    tag_35:\n      dup3\n      add\n      swap2\n      swap1\n      0x00\n      mstore\n      keccak256(0x00, 0x20)\n      swap1\n    tag_36:\n      dup2\n      sload\n      dup2\n      mstore\n      swap1\n      0x01\n      add\n      swap1\n      0x20\n      add\n      dup1\n      dup4\n      gt\n      tag_36\n      jumpi\n      dup3\n      swap1\n      sub\n      0x1f\n      and\n      dup3\n      add\n      swap2\n    tag_34:\n      pop\n      pop\n      pop\n      pop\n      pop\n      swap1\n      dup1\n      0x02\n      add\n      sload\n      swap1\n      dup1\n      0x03\n      add\n      0x00\n      swap1\n      sload\n      swap1\n      0x0100\n      exp\n      swap1\n      div\n      0xffffffffffffffffffffffffffffffff\n      and\n      swap1\n      pop\n      dup5\n      jump\t// out\n        /* \"contracts/Tweet-require.sol\":1013:1128  function getAllTweets(address _owner) public view returns (Tweet[] memory) {... */\n    tag_16:\n        /* \"contracts/Tweet-require.sol\":1072:1086  Tweet[] memory */\n      0x60\n        /* \"contracts/Tweet-require.sol\":1106:1112  tweets */\n      0x00\n        /* \"contracts/Tweet-require.sol\":1106:1120  tweets[_owner] */\n      dup1\n        /* \"contracts/Tweet-require.sol\":1113:1119  _owner */\n      dup4\n        /* \"contracts/Tweet-require.sol\":1106:1120  tweets[_owner] */\n      0xffffffffffffffffffffffffffffffffffffffff\n      and\n      0xffffffffffffffffffffffffffffffffffffffff\n      and\n      dup2\n      mstore\n      0x20\n      add\n      swap1\n      dup2\n      mstore\n      0x20\n      add\n      0x00\n      keccak256\n        /* \"contracts/Tweet-require.sol\":1099:1120  return tweets[_owner] */\n      dup1\n      sload\n      dup1\n      0x20\n      mul\n      0x20\n      add\n      mload(0x40)\n      swap1\n      dup2\n      add\n      0x40\n      mstore\n      dup1\n      swap3\n      swap2\n      swap1\n      dup2\n      dup2\n      mstore\n      0x20\n      add\n      0x00\n      swap1\n    tag_38:\n      dup3\n      dup3\n      lt\n      iszero\n      tag_39\n      jumpi\n      dup4\n      dup3\n      swap1\n      0x00\n      mstore\n      keccak256(0x00, 0x20)\n      swap1\n      0x04\n      mul\n      add\n      mload(0x40)\n      dup1\n      0x80\n      add\n      0x40\n      mstore\n      swap1\n      dup2\n      0x00\n      dup3\n      add\n      0x00\n      swap1\n      sload\n      swap1\n      0x0100\n      exp\n      swap1\n      div\n      0xffffffffffffffffffffffffffffffffffffffff\n      and\n      0xffffffffffffffffffffffffffffffffffffffff\n      and\n      0xffffffffffffffffffffffffffffffffffffffff\n      and\n      dup2\n      mstore\n      0x20\n      add\n      0x01\n      dup3\n      add\n      dup1\n      sload\n      tag_41\n      swap1\n      tag_32\n      jump\t// in\n    tag_41:\n      dup1\n      0x1f\n      add\n      0x20\n      dup1\n      swap2\n      div\n      mul\n      0x20\n      add\n      mload(0x40)\n      swap1\n      dup2\n      add\n      0x40\n      mstore\n      dup1\n      swap3\n      swap2\n      swap1\n      dup2\n      dup2\n      mstore\n      0x20\n      add\n      dup3\n      dup1\n      sload\n      tag_42\n      swap1\n      tag_32\n      jump\t// in\n    tag_42:\n      dup1\n      iszero\n      tag_43\n      jumpi\n      dup1\n      0x1f\n      lt\n      tag_44\n      jumpi\n      0x0100\n      dup1\n      dup4\n      sload\n      div\n      mul\n      dup4\n      mstore\n      swap2\n      0x20\n      add\n      swap2\n      jump(tag_43)\n    tag_44:\n      dup3\n      add\n      swap2\n      swap1\n      0x00\n      mstore\n      keccak256(0x00, 0x20)\n      swap1\n    tag_45:\n      dup2\n      sload\n      dup2\n      mstore\n      swap1\n      0x01\n      add\n      swap1\n      0x20\n      add\n      dup1\n      dup4\n      gt\n      tag_45\n      jumpi\n      dup3\n      swap1\n      sub\n      0x1f\n      and\n      dup3\n      add\n      swap2\n    tag_43:\n      pop\n      pop\n      pop\n      pop\n      pop\n      dup2\n      mstore\n      0x20\n      add\n      0x02\n      dup3\n      add\n      sload\n      dup2\n      mstore\n      0x20\n      add\n      0x03\n      dup3\n      add\n      0x00\n      swap1\n      sload\n      swap1\n      0x0100\n      exp\n      swap1\n      div\n      0xffffffffffffffffffffffffffffffff\n      and\n      0xffffffffffffffffffffffffffffffff\n      and\n      0xffffffffffffffffffffffffffffffff\n      and\n      dup2\n      mstore\n      pop\n      pop\n      dup2\n      mstore\n      0x20\n      add\n      swap1\n      0x01\n      add\n      swap1\n      jump(tag_38)\n    tag_39:\n      pop\n      pop\n      pop\n      pop\n      swap1\n      pop\n        /* \"contracts/Tweet-require.sol\":1013:1128  function getAllTweets(address _owner) public view returns (Tweet[] memory) {... */\n      swap2\n      swap1\n      pop\n      jump\t// out\n        /* \"contracts/Tweet-require.sol\":868:982  function getTweet( uint128 _i) public view returns (Tweet memory) {... */\n    tag_22:\n        /* \"contracts/Tweet-require.sol\":920:932  Tweet memory */\n      tag_46\n      tag_47\n      jump\t// in\n    tag_46:\n        /* \"contracts/Tweet-require.sol\":952:958  tweets */\n      0x00\n        /* \"contracts/Tweet-require.sol\":952:970  tweets[msg.sender] */\n      dup1\n        /* \"contracts/Tweet-require.sol\":959:969  msg.sender */\n      caller\n        /* \"contracts/Tweet-require.sol\":952:970  tweets[msg.sender] */\n      0xffffffffffffffffffffffffffffffffffffffff\n      and\n      0xffffffffffffffffffffffffffffffffffffffff\n      and\n      dup2\n      mstore\n      0x20\n      add\n      swap1\n      dup2\n      mstore\n      0x20\n      add\n      0x00\n      keccak256\n        /* \"contracts/Tweet-require.sol\":971:973  _i */\n      dup3\n        /* \"contracts/Tweet-require.sol\":952:974  tweets[msg.sender][_i] */\n      0xffffffffffffffffffffffffffffffff\n      and\n      dup2\n      sload\n      dup2\n      lt\n      tag_49\n      jumpi\n      tag_50\n      tag_51\n      jump\t// in\n    tag_50:\n    tag_49:\n      swap1\n      0x00\n      mstore\n      keccak256(0x00, 0x20)\n      swap1\n      0x04\n      mul\n      add\n        /* \"contracts/Tweet-require.sol\":945:974  return tweets[msg.sender][_i] */\n      mload(0x40)\n      dup1\n      0x80\n      add\n      0x40\n      mstore\n      swap1\n      dup2\n      0x00\n      dup3\n      add\n      0x00\n      swap1\n      sload\n      swap1\n      0x0100\n      exp\n      swap1\n      div\n      0xffffffffffffffffffffffffffffffffffffffff\n      and\n      0xffffffffffffffffffffffffffffffffffffffff\n      and\n      0xffffffffffffffffffffffffffffffffffffffff\n      and\n      dup2\n      mstore\n      0x20\n      add\n      0x01\n      dup3\n      add\n      dup1\n      sload\n      tag_53\n      swap1\n      tag_32\n      jump\t// in\n    tag_53:\n      dup1\n      0x1f\n      add\n      0x20\n      dup1\n      swap2\n      div\n      mul\n      0x20\n      add\n      mload(0x40)\n      swap1\n      dup2\n      add\n      0x40\n      mstore\n      dup1\n      swap3\n      swap2\n      swap1\n      dup2\n      dup2\n      mstore\n      0x20\n      add\n      dup3\n      dup1\n      sload\n      tag_54\n      swap1\n      tag_32\n      jump\t// in\n    tag_54:\n      dup1\n      iszero\n      tag_55\n      jumpi\n      dup1\n      0x1f\n      lt\n      tag_56\n      jumpi\n      0x0100\n      dup1\n      dup4\n      sload\n      div\n      mul\n      dup4\n      mstore\n      swap2\n      0x20\n      add\n      swap2\n      jump(tag_55)\n    tag_56:\n      dup3\n      add\n      swap2\n      swap1\n      0x00\n      mstore\n      keccak256(0x00, 0x20)\n      swap1\n    tag_57:\n      dup2\n      sload\n      dup2\n      mstore\n      swap1\n      0x01\n      add\n      swap1\n      0x20\n      add\n      dup1\n      dup4\n      gt\n      tag_57\n      jumpi\n      dup3\n      swap1\n      sub\n      0x1f\n      and\n      dup3\n      add\n      swap2\n    tag_55:\n      pop\n      pop\n      pop\n      pop\n      pop\n      dup2\n      mstore\n      0x20\n      add\n      0x02\n      dup3\n      add\n      sload\n      dup2\n      mstore\n      0x20\n      add\n      0x03\n      dup3\n      add\n      0x00\n      swap1\n      sload\n      swap1\n      0x0100\n      exp\n      swap1\n      div\n      0xffffffffffffffffffffffffffffffff\n      and\n      0xffffffffffffffffffffffffffffffff\n      and\n      0xffffffffffffffffffffffffffffffff\n      and\n      dup2\n      mstore\n      pop\n      pop\n      swap1\n      pop\n        /* \"contracts/Tweet-require.sol\":868:982  function getTweet( uint128 _i) public view returns (Tweet memory) {... */\n      swap2\n      swap1\n      pop\n      jump\t// out\n        /* \"contracts/Tweet-require.sol\":382:838  function createTweet(string memory _tweet) public {... */\n    tag_28:\n        /* \"contracts/Tweet-require.sol\":320:323  280 */\n      0x0118\n        /* \"contracts/Tweet-require.sol\":520:560  bytes(_tweet).length <= MAX_TWEET_LENGTH */\n      0xffff\n      and\n        /* \"contracts/Tweet-require.sol\":526:532  _tweet */\n      dup2\n        /* \"contracts/Tweet-require.sol\":520:540  bytes(_tweet).length */\n      mload\n        /* \"contracts/Tweet-require.sol\":520:560  bytes(_tweet).length <= MAX_TWEET_LENGTH */\n      gt\n      iszero\n        /* \"contracts/Tweet-require.sol\":512:578  require(bytes(_tweet).length <= MAX_TWEET_LENGTH, \"Too long bro!\") */\n      tag_59\n      jumpi\n      mload(0x40)\n      0x08c379a000000000000000000000000000000000000000000000000000000000\n      dup2\n      mstore\n      0x04\n      add\n      tag_60\n      swap1\n      tag_61\n      jump\t// in\n    tag_60:\n      mload(0x40)\n      dup1\n      swap2\n      sub\n      swap1\n      revert\n    tag_59:\n        /* \"contracts/Tweet-require.sol\":591:612  Tweet memory newTweet */\n      0x00\n        /* \"contracts/Tweet-require.sol\":615:761  Tweet({... */\n      mload(0x40)\n      dup1\n      0x80\n      add\n      0x40\n      mstore\n      dup1\n        /* \"contracts/Tweet-require.sol\":644:654  msg.sender */\n      caller\n        /* \"contracts/Tweet-require.sol\":615:761  Tweet({... */\n      0xffffffffffffffffffffffffffffffffffffffff\n      and\n      dup2\n      mstore\n      0x20\n      add\n        /* \"contracts/Tweet-require.sol\":678:684  _tweet */\n      dup4\n        /* \"contracts/Tweet-require.sol\":615:761  Tweet({... */\n      dup2\n      mstore\n      0x20\n      add\n        /* \"contracts/Tweet-require.sol\":710:725  block.timestamp */\n      timestamp\n        /* \"contracts/Tweet-require.sol\":615:761  Tweet({... */\n      dup2\n      mstore\n      0x20\n      add\n        /* \"contracts/Tweet-require.sol\":748:749  0 */\n      0x00\n        /* \"contracts/Tweet-require.sol\":615:761  Tweet({... */\n      0xffffffffffffffffffffffffffffffff\n      and\n      dup2\n      mstore\n      pop\n        /* \"contracts/Tweet-require.sol\":591:761  Tweet memory newTweet = Tweet({... */\n      swap1\n      pop\n        /* \"contracts/Tweet-require.sol\":797:803  tweets */\n      0x00\n        /* \"contracts/Tweet-require.sol\":797:815  tweets[msg.sender] */\n      dup1\n        /* \"contracts/Tweet-require.sol\":804:814  msg.sender */\n      caller\n        /* \"contracts/Tweet-require.sol\":797:815  tweets[msg.sender] */\n      0xffffffffffffffffffffffffffffffffffffffff\n      and\n      0xffffffffffffffffffffffffffffffffffffffff\n      and\n      dup2\n      mstore\n      0x20\n      add\n      swap1\n      dup2\n      mstore\n      0x20\n      add\n      0x00\n      keccak256\n        /* \"contracts/Tweet-require.sol\":821:829  newTweet */\n      dup2\n        /* \"contracts/Tweet-require.sol\":797:830  tweets[msg.sender].push(newTweet) */\n      swap1\n      dup1\n      0x01\n      dup2\n      sload\n      add\n      dup1\n      dup3\n      sstore\n      dup1\n      swap2\n      pop\n      pop\n      0x01\n      swap1\n      sub\n      swap1\n      0x00\n      mstore\n      keccak256(0x00, 0x20)\n      swap1\n      0x04\n      mul\n      add\n      0x00\n      swap1\n      swap2\n      swap1\n      swap2\n      swap1\n      swap2\n      pop\n      0x00\n      dup3\n      add\n      mload\n      dup2\n      0x00\n      add\n      exp(0x0100, 0x00)\n      dup2\n      sload\n      dup2\n      0xffffffffffffffffffffffffffffffffffffffff\n      mul\n      not\n      and\n      swap1\n      dup4\n      0xffffffffffffffffffffffffffffffffffffffff\n      and\n      mul\n      or\n      swap1\n      sstore\n      pop\n      0x20\n      dup3\n      add\n      mload\n      dup2\n      0x01\n      add\n      swap1\n      dup2\n      tag_63\n      swap2\n      swap1\n      tag_64\n      jump\t// in\n    tag_63:\n      pop\n      0x40\n      dup3\n      add\n      mload\n      dup2\n      0x02\n      add\n      sstore\n      0x60\n      dup3\n      add\n      mload\n      dup2\n      0x03\n      add\n      exp(0x0100, 0x00)\n      dup2\n      sload\n      dup2\n      0xffffffffffffffffffffffffffffffff\n      mul\n      not\n      and\n      swap1\n      dup4\n      0xffffffffffffffffffffffffffffffff\n      and\n      mul\n      or\n      swap1\n      sstore\n      pop\n      pop\n      pop\n        /* \"contracts/Tweet-require.sol\":432:838  {... */\n      pop\n        /* \"contracts/Tweet-require.sol\":382:838  function createTweet(string memory _tweet) public {... */\n      pop\n      jump\t// out\n    tag_47:\n      mload(0x40)\n      dup1\n      0x80\n      add\n      0x40\n      mstore\n      dup1\n      and(0xffffffffffffffffffffffffffffffffffffffff, 0x00)\n      dup2\n      mstore\n      0x20\n      add\n      0x60\n      dup2\n      mstore\n      0x20\n      add\n      0x00\n      dup2\n      mstore\n      0x20\n      add\n      and(0xffffffffffffffffffffffffffffffff, 0x00)\n      dup2\n      mstore\n      pop\n      swap1\n      jump\t// out\n        /* \"#utility.yul\":7:82   */\n    tag_65:\n        /* \"#utility.yul\":40:46   */\n      0x00\n        /* \"#utility.yul\":73:75   */\n      0x40\n        /* \"#utility.yul\":67:76   */\n      mload\n        /* \"#utility.yul\":57:76   */\n      swap1\n      pop\n        /* \"#utility.yul\":7:82   */\n      swap1\n      jump\t// out\n        /* \"#utility.yul\":88:205   */\n    tag_66:\n        /* \"#utility.yul\":197:198   */\n      0x00\n        /* \"#utility.yul\":194:195   */\n      dup1\n        /* \"#utility.yul\":187:199   */\n      revert\n        /* \"#utility.yul\":211:328   */\n    tag_67:\n        /* \"#utility.yul\":320:321   */\n      0x00\n        /* \"#utility.yul\":317:318   */\n      dup1\n        /* \"#utility.yul\":310:322   */\n      revert\n        /* \"#utility.yul\":334:460   */\n    tag_68:\n        /* \"#utility.yul\":371:378   */\n      0x00\n        /* \"#utility.yul\":411:453   */\n      0xffffffffffffffffffffffffffffffffffffffff\n        /* \"#utility.yul\":404:409   */\n      dup3\n        /* \"#utility.yul\":400:454   */\n      and\n        /* \"#utility.yul\":389:454   */\n      swap1\n      pop\n        /* \"#utility.yul\":334:460   */\n      swap2\n      swap1\n      pop\n      jump\t// out\n        /* \"#utility.yul\":466:562   */\n    tag_69:\n        /* \"#utility.yul\":503:510   */\n      0x00\n        /* \"#utility.yul\":532:556   */\n      tag_132\n        /* \"#utility.yul\":550:555   */\n      dup3\n        /* \"#utility.yul\":532:556   */\n      tag_68\n      jump\t// in\n    tag_132:\n        /* \"#utility.yul\":521:556   */\n      swap1\n      pop\n        /* \"#utility.yul\":466:562   */\n      swap2\n      swap1\n      pop\n      jump\t// out\n        /* \"#utility.yul\":568:690   */\n    tag_70:\n        /* \"#utility.yul\":641:665   */\n      tag_134\n        /* \"#utility.yul\":659:664   */\n      dup2\n        /* \"#utility.yul\":641:665   */\n      tag_69\n      jump\t// in\n    tag_134:\n        /* \"#utility.yul\":634:639   */\n      dup2\n        /* \"#utility.yul\":631:666   */\n      eq\n        /* \"#utility.yul\":621:684   */\n      tag_135\n      jumpi\n        /* \"#utility.yul\":680:681   */\n      0x00\n        /* \"#utility.yul\":677:678   */\n      dup1\n        /* \"#utility.yul\":670:682   */\n      revert\n        /* \"#utility.yul\":621:684   */\n    tag_135:\n        /* \"#utility.yul\":568:690   */\n      pop\n      jump\t// out\n        /* \"#utility.yul\":696:835   */\n    tag_71:\n        /* \"#utility.yul\":742:747   */\n      0x00\n        /* \"#utility.yul\":780:786   */\n      dup2\n        /* \"#utility.yul\":767:787   */\n      calldataload\n        /* \"#utility.yul\":758:787   */\n      swap1\n      pop\n        /* \"#utility.yul\":796:829   */\n      tag_137\n        /* \"#utility.yul\":823:828   */\n      dup2\n        /* \"#utility.yul\":796:829   */\n      tag_70\n      jump\t// in\n    tag_137:\n        /* \"#utility.yul\":696:835   */\n      swap3\n      swap2\n      pop\n      pop\n      jump\t// out\n        /* \"#utility.yul\":841:918   */\n    tag_72:\n        /* \"#utility.yul\":878:885   */\n      0x00\n        /* \"#utility.yul\":907:912   */\n      dup2\n        /* \"#utility.yul\":896:912   */\n      swap1\n      pop\n        /* \"#utility.yul\":841:918   */\n      swap2\n      swap1\n      pop\n      jump\t// out\n        /* \"#utility.yul\":924:1046   */\n    tag_73:\n        /* \"#utility.yul\":997:1021   */\n      tag_140\n        /* \"#utility.yul\":1015:1020   */\n      dup2\n        /* \"#utility.yul\":997:1021   */\n      tag_72\n      jump\t// in\n    tag_140:\n        /* \"#utility.yul\":990:995   */\n      dup2\n        /* \"#utility.yul\":987:1022   */\n      eq\n        /* \"#utility.yul\":977:1040   */\n      tag_141\n      jumpi\n        /* \"#utility.yul\":1036:1037   */\n      0x00\n        /* \"#utility.yul\":1033:1034   */\n      dup1\n        /* \"#utility.yul\":1026:1038   */\n      revert\n        /* \"#utility.yul\":977:1040   */\n    tag_141:\n        /* \"#utility.yul\":924:1046   */\n      pop\n      jump\t// out\n        /* \"#utility.yul\":1052:1191   */\n    tag_74:\n        /* \"#utility.yul\":1098:1103   */\n      0x00\n        /* \"#utility.yul\":1136:1142   */\n      dup2\n        /* \"#utility.yul\":1123:1143   */\n      calldataload\n        /* \"#utility.yul\":1114:1143   */\n      swap1\n      pop\n        /* \"#utility.yul\":1152:1185   */\n      tag_143\n        /* \"#utility.yul\":1179:1184   */\n      dup2\n        /* \"#utility.yul\":1152:1185   */\n      tag_73\n      jump\t// in\n    tag_143:\n        /* \"#utility.yul\":1052:1191   */\n      swap3\n      swap2\n      pop\n      pop\n      jump\t// out\n        /* \"#utility.yul\":1197:1671   */\n    tag_9:\n        /* \"#utility.yul\":1265:1271   */\n      0x00\n        /* \"#utility.yul\":1273:1279   */\n      dup1\n        /* \"#utility.yul\":1322:1324   */\n      0x40\n        /* \"#utility.yul\":1310:1319   */\n      dup4\n        /* \"#utility.yul\":1301:1308   */\n      dup6\n        /* \"#utility.yul\":1297:1320   */\n      sub\n        /* \"#utility.yul\":1293:1325   */\n      slt\n        /* \"#utility.yul\":1290:1409   */\n      iszero\n      tag_145\n      jumpi\n        /* \"#utility.yul\":1328:1407   */\n      tag_146\n      tag_66\n      jump\t// in\n    tag_146:\n        /* \"#utility.yul\":1290:1409   */\n    tag_145:\n        /* \"#utility.yul\":1448:1449   */\n      0x00\n        /* \"#utility.yul\":1473:1526   */\n      tag_147\n        /* \"#utility.yul\":1518:1525   */\n      dup6\n        /* \"#utility.yul\":1509:1515   */\n      dup3\n        /* \"#utility.yul\":1498:1507   */\n      dup7\n        /* \"#utility.yul\":1494:1516   */\n      add\n        /* \"#utility.yul\":1473:1526   */\n      tag_71\n      jump\t// in\n    tag_147:\n        /* \"#utility.yul\":1463:1526   */\n      swap3\n      pop\n        /* \"#utility.yul\":1419:1536   */\n      pop\n        /* \"#utility.yul\":1575:1577   */\n      0x20\n        /* \"#utility.yul\":1601:1654   */\n      tag_148\n        /* \"#utility.yul\":1646:1653   */\n      dup6\n        /* \"#utility.yul\":1637:1643   */\n      dup3\n        /* \"#utility.yul\":1626:1635   */\n      dup7\n        /* \"#utility.yul\":1622:1644   */\n      add\n        /* \"#utility.yul\":1601:1654   */\n      tag_74\n      jump\t// in\n    tag_148:\n        /* \"#utility.yul\":1591:1654   */\n      swap2\n      pop\n        /* \"#utility.yul\":1546:1664   */\n      pop\n        /* \"#utility.yul\":1197:1671   */\n      swap3\n      pop\n      swap3\n      swap1\n      pop\n      jump\t// out\n        /* \"#utility.yul\":1677:1795   */\n    tag_75:\n        /* \"#utility.yul\":1764:1788   */\n      tag_150\n        /* \"#utility.yul\":1782:1787   */\n      dup2\n        /* \"#utility.yul\":1764:1788   */\n      tag_69\n      jump\t// in\n    tag_150:\n        /* \"#utility.yul\":1759:1762   */\n      dup3\n        /* \"#utility.yul\":1752:1789   */\n      mstore\n        /* \"#utility.yul\":1677:1795   */\n      pop\n      pop\n      jump\t// out\n        /* \"#utility.yul\":1801:1900   */\n    tag_76:\n        /* \"#utility.yul\":1853:1859   */\n      0x00\n        /* \"#utility.yul\":1887:1892   */\n      dup2\n        /* \"#utility.yul\":1881:1893   */\n      mload\n        /* \"#utility.yul\":1871:1893   */\n      swap1\n      pop\n        /* \"#utility.yul\":1801:1900   */\n      swap2\n      swap1\n      pop\n      jump\t// out\n        /* \"#utility.yul\":1906:2075   */\n    tag_77:\n        /* \"#utility.yul\":1990:2001   */\n      0x00\n        /* \"#utility.yul\":2024:2030   */\n      dup3\n        /* \"#utility.yul\":2019:2022   */\n      dup3\n        /* \"#utility.yul\":2012:2031   */\n      mstore\n        /* \"#utility.yul\":2064:2068   */\n      0x20\n        /* \"#utility.yul\":2059:2062   */\n      dup3\n        /* \"#utility.yul\":2055:2069   */\n      add\n        /* \"#utility.yul\":2040:2069   */\n      swap1\n      pop\n        /* \"#utility.yul\":1906:2075   */\n      swap3\n      swap2\n      pop\n      pop\n      jump\t// out\n        /* \"#utility.yul\":2081:2220   */\n    tag_78:\n        /* \"#utility.yul\":2170:2176   */\n      dup3\n        /* \"#utility.yul\":2165:2168   */\n      dup2\n        /* \"#utility.yul\":2160:2163   */\n      dup4\n        /* \"#utility.yul\":2154:2177   */\n      mcopy\n        /* \"#utility.yul\":2211:2212   */\n      0x00\n        /* \"#utility.yul\":2202:2208   */\n      dup4\n        /* \"#utility.yul\":2197:2200   */\n      dup4\n        /* \"#utility.yul\":2193:2209   */\n      add\n        /* \"#utility.yul\":2186:2213   */\n      mstore\n        /* \"#utility.yul\":2081:2220   */\n      pop\n      pop\n      pop\n      jump\t// out\n        /* \"#utility.yul\":2226:2328   */\n    tag_79:\n        /* \"#utility.yul\":2267:2273   */\n      0x00\n        /* \"#utility.yul\":2318:2320   */\n      0x1f\n        /* \"#utility.yul\":2314:2321   */\n      not\n        /* \"#utility.yul\":2309:2311   */\n      0x1f\n        /* \"#utility.yul\":2302:2307   */\n      dup4\n        /* \"#utility.yul\":2298:2312   */\n      add\n        /* \"#utility.yul\":2294:2322   */\n      and\n        /* \"#utility.yul\":2284:2322   */\n      swap1\n      pop\n        /* \"#utility.yul\":2226:2328   */\n      swap2\n      swap1\n      pop\n      jump\t// out\n        /* \"#utility.yul\":2334:2711   */\n    tag_80:\n        /* \"#utility.yul\":2422:2425   */\n      0x00\n        /* \"#utility.yul\":2450:2489   */\n      tag_156\n        /* \"#utility.yul\":2483:2488   */\n      dup3\n        /* \"#utility.yul\":2450:2489   */\n      tag_76\n      jump\t// in\n    tag_156:\n        /* \"#utility.yul\":2505:2576   */\n      tag_157\n        /* \"#utility.yul\":2569:2575   */\n      dup2\n        /* \"#utility.yul\":2564:2567   */\n      dup6\n        /* \"#utility.yul\":2505:2576   */\n      tag_77\n      jump\t// in\n    tag_157:\n        /* \"#utility.yul\":2498:2576   */\n      swap4\n      pop\n        /* \"#utility.yul\":2585:2650   */\n      tag_158\n        /* \"#utility.yul\":2643:2649   */\n      dup2\n        /* \"#utility.yul\":2638:2641   */\n      dup6\n        /* \"#utility.yul\":2631:2635   */\n      0x20\n        /* \"#utility.yul\":2624:2629   */\n      dup7\n        /* \"#utility.yul\":2620:2636   */\n      add\n        /* \"#utility.yul\":2585:2650   */\n      tag_78\n      jump\t// in\n    tag_158:\n        /* \"#utility.yul\":2675:2704   */\n      tag_159\n        /* \"#utility.yul\":2697:2703   */\n      dup2\n        /* \"#utility.yul\":2675:2704   */\n      tag_79\n      jump\t// in\n    tag_159:\n        /* \"#utility.yul\":2670:2673   */\n      dup5\n        /* \"#utility.yul\":2666:2705   */\n      add\n        /* \"#utility.yul\":2659:2705   */\n      swap2\n      pop\n        /* \"#utility.yul\":2426:2711   */\n      pop\n        /* \"#utility.yul\":2334:2711   */\n      swap3\n      swap2\n      pop\n      pop\n      jump\t// out\n        /* \"#utility.yul\":2717:2835   */\n    tag_81:\n        /* \"#utility.yul\":2804:2828   */\n      tag_161\n        /* \"#utility.yul\":2822:2827   */\n      dup2\n        /* \"#utility.yul\":2804:2828   */\n      tag_72\n      jump\t// in\n    tag_161:\n        /* \"#utility.yul\":2799:2802   */\n      dup3\n        /* \"#utility.yul\":2792:2829   */\n      mstore\n        /* \"#utility.yul\":2717:2835   */\n      pop\n      pop\n      jump\t// out\n        /* \"#utility.yul\":2841:2959   */\n    tag_82:\n        /* \"#utility.yul\":2878:2885   */\n      0x00\n        /* \"#utility.yul\":2918:2952   */\n      0xffffffffffffffffffffffffffffffff\n        /* \"#utility.yul\":2911:2916   */\n      dup3\n        /* \"#utility.yul\":2907:2953   */\n      and\n        /* \"#utility.yul\":2896:2953   */\n      swap1\n      pop\n        /* \"#utility.yul\":2841:2959   */\n      swap2\n      swap1\n      pop\n      jump\t// out\n        /* \"#utility.yul\":2965:3083   */\n    tag_83:\n        /* \"#utility.yul\":3052:3076   */\n      tag_164\n        /* \"#utility.yul\":3070:3075   */\n      dup2\n        /* \"#utility.yul\":3052:3076   */\n      tag_82\n      jump\t// in\n    tag_164:\n        /* \"#utility.yul\":3047:3050   */\n      dup3\n        /* \"#utility.yul\":3040:3077   */\n      mstore\n        /* \"#utility.yul\":2965:3083   */\n      pop\n      pop\n      jump\t// out\n        /* \"#utility.yul\":3089:3733   */\n    tag_12:\n        /* \"#utility.yul\":3286:3290   */\n      0x00\n        /* \"#utility.yul\":3324:3327   */\n      0x80\n        /* \"#utility.yul\":3313:3322   */\n      dup3\n        /* \"#utility.yul\":3309:3328   */\n      add\n        /* \"#utility.yul\":3301:3328   */\n      swap1\n      pop\n        /* \"#utility.yul\":3338:3409   */\n      tag_166\n        /* \"#utility.yul\":3406:3407   */\n      0x00\n        /* \"#utility.yul\":3395:3404   */\n      dup4\n        /* \"#utility.yul\":3391:3408   */\n      add\n        /* \"#utility.yul\":3382:3388   */\n      dup8\n        /* \"#utility.yul\":3338:3409   */\n      tag_75\n      jump\t// in\n    tag_166:\n        /* \"#utility.yul\":3456:3465   */\n      dup2\n        /* \"#utility.yul\":3450:3454   */\n      dup2\n        /* \"#utility.yul\":3446:3466   */\n      sub\n        /* \"#utility.yul\":3441:3443   */\n      0x20\n        /* \"#utility.yul\":3430:3439   */\n      dup4\n        /* \"#utility.yul\":3426:3444   */\n      add\n        /* \"#utility.yul\":3419:3467   */\n      mstore\n        /* \"#utility.yul\":3484:3562   */\n      tag_167\n        /* \"#utility.yul\":3557:3561   */\n      dup2\n        /* \"#utility.yul\":3548:3554   */\n      dup7\n        /* \"#utility.yul\":3484:3562   */\n      tag_80\n      jump\t// in\n    tag_167:\n        /* \"#utility.yul\":3476:3562   */\n      swap1\n      pop\n        /* \"#utility.yul\":3572:3644   */\n      tag_168\n        /* \"#utility.yul\":3640:3642   */\n      0x40\n        /* \"#utility.yul\":3629:3638   */\n      dup4\n        /* \"#utility.yul\":3625:3643   */\n      add\n        /* \"#utility.yul\":3616:3622   */\n      dup6\n        /* \"#utility.yul\":3572:3644   */\n      tag_81\n      jump\t// in\n    tag_168:\n        /* \"#utility.yul\":3654:3726   */\n      tag_169\n        /* \"#utility.yul\":3722:3724   */\n      0x60\n        /* \"#utility.yul\":3711:3720   */\n      dup4\n        /* \"#utility.yul\":3707:3725   */\n      add\n        /* \"#utility.yul\":3698:3704   */\n      dup5\n        /* \"#utility.yul\":3654:3726   */\n      tag_83\n      jump\t// in\n    tag_169:\n        /* \"#utility.yul\":3089:3733   */\n      swap6\n      swap5\n      pop\n      pop\n      pop\n      pop\n      pop\n      jump\t// out\n        /* \"#utility.yul\":3739:4068   */\n    tag_15:\n        /* \"#utility.yul\":3798:3804   */\n      0x00\n        /* \"#utility.yul\":3847:3849   */\n      0x20\n        /* \"#utility.yul\":3835:3844   */\n      dup3\n        /* \"#utility.yul\":3826:3833   */\n      dup5\n        /* \"#utility.yul\":3822:3845   */\n      sub\n        /* \"#utility.yul\":3818:3850   */\n      slt\n        /* \"#utility.yul\":3815:3934   */\n      iszero\n      tag_171\n      jumpi\n        /* \"#utility.yul\":3853:3932   */\n      tag_172\n      tag_66\n      jump\t// in\n    tag_172:\n        /* \"#utility.yul\":3815:3934   */\n    tag_171:\n        /* \"#utility.yul\":3973:3974   */\n      0x00\n        /* \"#utility.yul\":3998:4051   */\n      tag_173\n        /* \"#utility.yul\":4043:4050   */\n      dup5\n        /* \"#utility.yul\":4034:4040   */\n      dup3\n        /* \"#utility.yul\":4023:4032   */\n      dup6\n        /* \"#utility.yul\":4019:4041   */\n      add\n        /* \"#utility.yul\":3998:4051   */\n      tag_71\n      jump\t// in\n    tag_173:\n        /* \"#utility.yul\":3988:4051   */\n      swap2\n      pop\n        /* \"#utility.yul\":3944:4061   */\n      pop\n        /* \"#utility.yul\":3739:4068   */\n      swap3\n      swap2\n      pop\n      pop\n      jump\t// out\n        /* \"#utility.yul\":4074:4209   */\n    tag_84:\n        /* \"#utility.yul\":4162:4168   */\n      0x00\n        /* \"#utility.yul\":4196:4201   */\n      dup2\n        /* \"#utility.yul\":4190:4202   */\n      mload\n        /* \"#utility.yul\":4180:4202   */\n      swap1\n      pop\n        /* \"#utility.yul\":4074:4209   */\n      swap2\n      swap1\n      pop\n      jump\t// out\n        /* \"#utility.yul\":4215:4420   */\n    tag_85:\n        /* \"#utility.yul\":4335:4346   */\n      0x00\n        /* \"#utility.yul\":4369:4375   */\n      dup3\n        /* \"#utility.yul\":4364:4367   */\n      dup3\n        /* \"#utility.yul\":4357:4376   */\n      mstore\n        /* \"#utility.yul\":4409:4413   */\n      0x20\n        /* \"#utility.yul\":4404:4407   */\n      dup3\n        /* \"#utility.yul\":4400:4414   */\n      add\n        /* \"#utility.yul\":4385:4414   */\n      swap1\n      pop\n        /* \"#utility.yul\":4215:4420   */\n      swap3\n      swap2\n      pop\n      pop\n      jump\t// out\n        /* \"#utility.yul\":4426:4579   */\n    tag_86:\n        /* \"#utility.yul\":4514:4518   */\n      0x00\n        /* \"#utility.yul\":4537:4540   */\n      dup2\n        /* \"#utility.yul\":4529:4540   */\n      swap1\n      pop\n        /* \"#utility.yul\":4567:4571   */\n      0x20\n        /* \"#utility.yul\":4562:4565   */\n      dup3\n        /* \"#utility.yul\":4558:4572   */\n      add\n        /* \"#utility.yul\":4550:4572   */\n      swap1\n      pop\n        /* \"#utility.yul\":4426:4579   */\n      swap2\n      swap1\n      pop\n      jump\t// out\n        /* \"#utility.yul\":4585:4693   */\n    tag_87:\n        /* \"#utility.yul\":4662:4686   */\n      tag_178\n        /* \"#utility.yul\":4680:4685   */\n      dup2\n        /* \"#utility.yul\":4662:4686   */\n      tag_69\n      jump\t// in\n    tag_178:\n        /* \"#utility.yul\":4657:4660   */\n      dup3\n        /* \"#utility.yul\":4650:4687   */\n      mstore\n        /* \"#utility.yul\":4585:4693   */\n      pop\n      pop\n      jump\t// out\n        /* \"#utility.yul\":4699:4858   */\n    tag_88:\n        /* \"#utility.yul\":4773:4784   */\n      0x00\n        /* \"#utility.yul\":4807:4813   */\n      dup3\n        /* \"#utility.yul\":4802:4805   */\n      dup3\n        /* \"#utility.yul\":4795:4814   */\n      mstore\n        /* \"#utility.yul\":4847:4851   */\n      0x20\n        /* \"#utility.yul\":4842:4845   */\n      dup3\n        /* \"#utility.yul\":4838:4852   */\n      add\n        /* \"#utility.yul\":4823:4852   */\n      swap1\n      pop\n        /* \"#utility.yul\":4699:4858   */\n      swap3\n      swap2\n      pop\n      pop\n      jump\t// out\n        /* \"#utility.yul\":4864:5221   */\n    tag_89:\n        /* \"#utility.yul\":4942:4945   */\n      0x00\n        /* \"#utility.yul\":4970:5009   */\n      tag_181\n        /* \"#utility.yul\":5003:5008   */\n      dup3\n        /* \"#utility.yul\":4970:5009   */\n      tag_76\n      jump\t// in\n    tag_181:\n        /* \"#utility.yul\":5025:5086   */\n      tag_182\n        /* \"#utility.yul\":5079:5085   */\n      dup2\n        /* \"#utility.yul\":5074:5077   */\n      dup6\n        /* \"#utility.yul\":5025:5086   */\n      tag_88\n      jump\t// in\n    tag_182:\n        /* \"#utility.yul\":5018:5086   */\n      swap4\n      pop\n        /* \"#utility.yul\":5095:5160   */\n      tag_183\n        /* \"#utility.yul\":5153:5159   */\n      dup2\n        /* \"#utility.yul\":5148:5151   */\n      dup6\n        /* \"#utility.yul\":5141:5145   */\n      0x20\n        /* \"#utility.yul\":5134:5139   */\n      dup7\n        /* \"#utility.yul\":5130:5146   */\n      add\n        /* \"#utility.yul\":5095:5160   */\n      tag_78\n      jump\t// in\n    tag_183:\n        /* \"#utility.yul\":5185:5214   */\n      tag_184\n        /* \"#utility.yul\":5207:5213   */\n      dup2\n        /* \"#utility.yul\":5185:5214   */\n      tag_79\n      jump\t// in\n    tag_184:\n        /* \"#utility.yul\":5180:5183   */\n      dup5\n        /* \"#utility.yul\":5176:5215   */\n      add\n        /* \"#utility.yul\":5169:5215   */\n      swap2\n      pop\n        /* \"#utility.yul\":4946:5221   */\n      pop\n        /* \"#utility.yul\":4864:5221   */\n      swap3\n      swap2\n      pop\n      pop\n      jump\t// out\n        /* \"#utility.yul\":5227:5335   */\n    tag_90:\n        /* \"#utility.yul\":5304:5328   */\n      tag_186\n        /* \"#utility.yul\":5322:5327   */\n      dup2\n        /* \"#utility.yul\":5304:5328   */\n      tag_72\n      jump\t// in\n    tag_186:\n        /* \"#utility.yul\":5299:5302   */\n      dup3\n        /* \"#utility.yul\":5292:5329   */\n      mstore\n        /* \"#utility.yul\":5227:5335   */\n      pop\n      pop\n      jump\t// out\n        /* \"#utility.yul\":5341:5449   */\n    tag_91:\n        /* \"#utility.yul\":5418:5442   */\n      tag_188\n        /* \"#utility.yul\":5436:5441   */\n      dup2\n        /* \"#utility.yul\":5418:5442   */\n      tag_82\n      jump\t// in\n    tag_188:\n        /* \"#utility.yul\":5413:5416   */\n      dup3\n        /* \"#utility.yul\":5406:5443   */\n      mstore\n        /* \"#utility.yul\":5341:5449   */\n      pop\n      pop\n      jump\t// out\n        /* \"#utility.yul\":5519:6466   */\n    tag_92:\n        /* \"#utility.yul\":5620:5623   */\n      0x00\n        /* \"#utility.yul\":5656:5660   */\n      0x80\n        /* \"#utility.yul\":5651:5654   */\n      dup4\n        /* \"#utility.yul\":5647:5661   */\n      add\n        /* \"#utility.yul\":5745:5749   */\n      0x00\n        /* \"#utility.yul\":5738:5743   */\n      dup4\n        /* \"#utility.yul\":5734:5750   */\n      add\n        /* \"#utility.yul\":5728:5751   */\n      mload\n        /* \"#utility.yul\":5764:5827   */\n      tag_190\n        /* \"#utility.yul\":5821:5825   */\n      0x00\n        /* \"#utility.yul\":5816:5819   */\n      dup7\n        /* \"#utility.yul\":5812:5826   */\n      add\n        /* \"#utility.yul\":5798:5810   */\n      dup3\n        /* \"#utility.yul\":5764:5827   */\n      tag_87\n      jump\t// in\n    tag_190:\n        /* \"#utility.yul\":5671:5837   */\n      pop\n        /* \"#utility.yul\":5922:5926   */\n      0x20\n        /* \"#utility.yul\":5915:5920   */\n      dup4\n        /* \"#utility.yul\":5911:5927   */\n      add\n        /* \"#utility.yul\":5905:5928   */\n      mload\n        /* \"#utility.yul\":5975:5978   */\n      dup5\n        /* \"#utility.yul\":5969:5973   */\n      dup3\n        /* \"#utility.yul\":5965:5979   */\n      sub\n        /* \"#utility.yul\":5958:5962   */\n      0x20\n        /* \"#utility.yul\":5953:5956   */\n      dup7\n        /* \"#utility.yul\":5949:5963   */\n      add\n        /* \"#utility.yul\":5942:5980   */\n      mstore\n        /* \"#utility.yul\":6001:6074   */\n      tag_191\n        /* \"#utility.yul\":6069:6073   */\n      dup3\n        /* \"#utility.yul\":6055:6067   */\n      dup3\n        /* \"#utility.yul\":6001:6074   */\n      tag_89\n      jump\t// in\n    tag_191:\n        /* \"#utility.yul\":5993:6074   */\n      swap2\n      pop\n        /* \"#utility.yul\":5847:6085   */\n      pop\n        /* \"#utility.yul\":6172:6176   */\n      0x40\n        /* \"#utility.yul\":6165:6170   */\n      dup4\n        /* \"#utility.yul\":6161:6177   */\n      add\n        /* \"#utility.yul\":6155:6178   */\n      mload\n        /* \"#utility.yul\":6191:6254   */\n      tag_192\n        /* \"#utility.yul\":6248:6252   */\n      0x40\n        /* \"#utility.yul\":6243:6246   */\n      dup7\n        /* \"#utility.yul\":6239:6253   */\n      add\n        /* \"#utility.yul\":6225:6237   */\n      dup3\n        /* \"#utility.yul\":6191:6254   */\n      tag_90\n      jump\t// in\n    tag_192:\n        /* \"#utility.yul\":6095:6264   */\n      pop\n        /* \"#utility.yul\":6347:6351   */\n      0x60\n        /* \"#utility.yul\":6340:6345   */\n      dup4\n        /* \"#utility.yul\":6336:6352   */\n      add\n        /* \"#utility.yul\":6330:6353   */\n      mload\n        /* \"#utility.yul\":6366:6429   */\n      tag_193\n        /* \"#utility.yul\":6423:6427   */\n      0x60\n        /* \"#utility.yul\":6418:6421   */\n      dup7\n        /* \"#utility.yul\":6414:6428   */\n      add\n        /* \"#utility.yul\":6400:6412   */\n      dup3\n        /* \"#utility.yul\":6366:6429   */\n      tag_91\n      jump\t// in\n    tag_193:\n        /* \"#utility.yul\":6274:6439   */\n      pop\n        /* \"#utility.yul\":6456:6460   */\n      dup1\n        /* \"#utility.yul\":6449:6460   */\n      swap2\n      pop\n        /* \"#utility.yul\":5625:6466   */\n      pop\n        /* \"#utility.yul\":5519:6466   */\n      swap3\n      swap2\n      pop\n      pop\n      jump\t// out\n        /* \"#utility.yul\":6472:6712   */\n    tag_93:\n        /* \"#utility.yul\":6583:6593   */\n      0x00\n        /* \"#utility.yul\":6618:6706   */\n      tag_195\n        /* \"#utility.yul\":6702:6705   */\n      dup4\n        /* \"#utility.yul\":6694:6700   */\n      dup4\n        /* \"#utility.yul\":6618:6706   */\n      tag_92\n      jump\t// in\n    tag_195:\n        /* \"#utility.yul\":6604:6706   */\n      swap1\n      pop\n        /* \"#utility.yul\":6472:6712   */\n      swap3\n      swap2\n      pop\n      pop\n      jump\t// out\n        /* \"#utility.yul\":6718:6852   */\n    tag_94:\n        /* \"#utility.yul\":6809:6813   */\n      0x00\n        /* \"#utility.yul\":6841:6845   */\n      0x20\n        /* \"#utility.yul\":6836:6839   */\n      dup3\n        /* \"#utility.yul\":6832:6846   */\n      add\n        /* \"#utility.yul\":6824:6846   */\n      swap1\n      pop\n        /* \"#utility.yul\":6718:6852   */\n      swap2\n      swap1\n      pop\n      jump\t// out\n        /* \"#utility.yul\":6926:8005   */\n    tag_95:\n        /* \"#utility.yul\":7087:7090   */\n      0x00\n        /* \"#utility.yul\":7116:7191   */\n      tag_198\n        /* \"#utility.yul\":7185:7190   */\n      dup3\n        /* \"#utility.yul\":7116:7191   */\n      tag_84\n      jump\t// in\n    tag_198:\n        /* \"#utility.yul\":7207:7314   */\n      tag_199\n        /* \"#utility.yul\":7307:7313   */\n      dup2\n        /* \"#utility.yul\":7302:7305   */\n      dup6\n        /* \"#utility.yul\":7207:7314   */\n      tag_85\n      jump\t// in\n    tag_199:\n        /* \"#utility.yul\":7200:7314   */\n      swap4\n      pop\n        /* \"#utility.yul\":7340:7343   */\n      dup4\n        /* \"#utility.yul\":7385:7389   */\n      0x20\n        /* \"#utility.yul\":7377:7383   */\n      dup3\n        /* \"#utility.yul\":7373:7390   */\n      mul\n        /* \"#utility.yul\":7368:7371   */\n      dup6\n        /* \"#utility.yul\":7364:7391   */\n      add\n        /* \"#utility.yul\":7415:7492   */\n      tag_200\n        /* \"#utility.yul\":7486:7491   */\n      dup6\n        /* \"#utility.yul\":7415:7492   */\n      tag_86\n      jump\t// in\n    tag_200:\n        /* \"#utility.yul\":7515:7522   */\n      dup1\n        /* \"#utility.yul\":7546:7547   */\n      0x00\n        /* \"#utility.yul\":7531:7960   */\n    tag_201:\n        /* \"#utility.yul\":7556:7562   */\n      dup6\n        /* \"#utility.yul\":7553:7554   */\n      dup2\n        /* \"#utility.yul\":7550:7563   */\n      lt\n        /* \"#utility.yul\":7531:7960   */\n      iszero\n      tag_203\n      jumpi\n        /* \"#utility.yul\":7627:7636   */\n      dup5\n        /* \"#utility.yul\":7621:7625   */\n      dup5\n        /* \"#utility.yul\":7617:7637   */\n      sub\n        /* \"#utility.yul\":7612:7615   */\n      dup10\n        /* \"#utility.yul\":7605:7638   */\n      mstore\n        /* \"#utility.yul\":7678:7684   */\n      dup2\n        /* \"#utility.yul\":7672:7685   */\n      mload\n        /* \"#utility.yul\":7706:7812   */\n      tag_204\n        /* \"#utility.yul\":7807:7811   */\n      dup6\n        /* \"#utility.yul\":7792:7805   */\n      dup3\n        /* \"#utility.yul\":7706:7812   */\n      tag_93\n      jump\t// in\n    tag_204:\n        /* \"#utility.yul\":7698:7812   */\n      swap5\n      pop\n        /* \"#utility.yul\":7835:7916   */\n      tag_205\n        /* \"#utility.yul\":7909:7915   */\n      dup4\n        /* \"#utility.yul\":7835:7916   */\n      tag_94\n      jump\t// in\n    tag_205:\n        /* \"#utility.yul\":7825:7916   */\n      swap3\n      pop\n        /* \"#utility.yul\":7945:7949   */\n      0x20\n        /* \"#utility.yul\":7940:7943   */\n      dup11\n        /* \"#utility.yul\":7936:7950   */\n      add\n        /* \"#utility.yul\":7929:7950   */\n      swap10\n      pop\n        /* \"#utility.yul\":7591:7960   */\n      pop\n        /* \"#utility.yul\":7578:7579   */\n      0x01\n        /* \"#utility.yul\":7575:7576   */\n      dup2\n        /* \"#utility.yul\":7571:7580   */\n      add\n        /* \"#utility.yul\":7566:7580   */\n      swap1\n      pop\n        /* \"#utility.yul\":7531:7960   */\n      jump(tag_201)\n    tag_203:\n        /* \"#utility.yul\":7535:7549   */\n      pop\n        /* \"#utility.yul\":7976:7980   */\n      dup3\n        /* \"#utility.yul\":7969:7980   */\n      swap8\n      pop\n        /* \"#utility.yul\":7996:7999   */\n      dup8\n        /* \"#utility.yul\":7989:7999   */\n      swap6\n      pop\n        /* \"#utility.yul\":7092:8005   */\n      pop\n      pop\n      pop\n      pop\n      pop\n        /* \"#utility.yul\":6926:8005   */\n      swap3\n      swap2\n      pop\n      pop\n      jump\t// out\n        /* \"#utility.yul\":8011:8468   */\n    tag_18:\n        /* \"#utility.yul\":8196:8200   */\n      0x00\n        /* \"#utility.yul\":8234:8236   */\n      0x20\n        /* \"#utility.yul\":8223:8232   */\n      dup3\n        /* \"#utility.yul\":8219:8237   */\n      add\n        /* \"#utility.yul\":8211:8237   */\n      swap1\n      pop\n        /* \"#utility.yul\":8283:8292   */\n      dup2\n        /* \"#utility.yul\":8277:8281   */\n      dup2\n        /* \"#utility.yul\":8273:8293   */\n      sub\n        /* \"#utility.yul\":8269:8270   */\n      0x00\n        /* \"#utility.yul\":8258:8267   */\n      dup4\n        /* \"#utility.yul\":8254:8271   */\n      add\n        /* \"#utility.yul\":8247:8294   */\n      mstore\n        /* \"#utility.yul\":8311:8461   */\n      tag_207\n        /* \"#utility.yul\":8456:8460   */\n      dup2\n        /* \"#utility.yul\":8447:8453   */\n      dup5\n        /* \"#utility.yul\":8311:8461   */\n      tag_95\n      jump\t// in\n    tag_207:\n        /* \"#utility.yul\":8303:8461   */\n      swap1\n      pop\n        /* \"#utility.yul\":8011:8468   */\n      swap3\n      swap2\n      pop\n      pop\n      jump\t// out\n        /* \"#utility.yul\":8474:8596   */\n    tag_96:\n        /* \"#utility.yul\":8547:8571   */\n      tag_209\n        /* \"#utility.yul\":8565:8570   */\n      dup2\n        /* \"#utility.yul\":8547:8571   */\n      tag_82\n      jump\t// in\n    tag_209:\n        /* \"#utility.yul\":8540:8545   */\n      dup2\n        /* \"#utility.yul\":8537:8572   */\n      eq\n        /* \"#utility.yul\":8527:8590   */\n      tag_210\n      jumpi\n        /* \"#utility.yul\":8586:8587   */\n      0x00\n        /* \"#utility.yul\":8583:8584   */\n      dup1\n        /* \"#utility.yul\":8576:8588   */\n      revert\n        /* \"#utility.yul\":8527:8590   */\n    tag_210:\n        /* \"#utility.yul\":8474:8596   */\n      pop\n      jump\t// out\n        /* \"#utility.yul\":8602:8741   */\n    tag_97:\n        /* \"#utility.yul\":8648:8653   */\n      0x00\n        /* \"#utility.yul\":8686:8692   */\n      dup2\n        /* \"#utility.yul\":8673:8693   */\n      calldataload\n        /* \"#utility.yul\":8664:8693   */\n      swap1\n      pop\n        /* \"#utility.yul\":8702:8735   */\n      tag_212\n        /* \"#utility.yul\":8729:8734   */\n      dup2\n        /* \"#utility.yul\":8702:8735   */\n      tag_96\n      jump\t// in\n    tag_212:\n        /* \"#utility.yul\":8602:8741   */\n      swap3\n      swap2\n      pop\n      pop\n      jump\t// out\n        /* \"#utility.yul\":8747:9076   */\n    tag_21:\n        /* \"#utility.yul\":8806:8812   */\n      0x00\n        /* \"#utility.yul\":8855:8857   */\n      0x20\n        /* \"#utility.yul\":8843:8852   */\n      dup3\n        /* \"#utility.yul\":8834:8841   */\n      dup5\n        /* \"#utility.yul\":8830:8853   */\n      sub\n        /* \"#utility.yul\":8826:8858   */\n      slt\n        /* \"#utility.yul\":8823:8942   */\n      iszero\n      tag_214\n      jumpi\n        /* \"#utility.yul\":8861:8940   */\n      tag_215\n      tag_66\n      jump\t// in\n    tag_215:\n        /* \"#utility.yul\":8823:8942   */\n    tag_214:\n        /* \"#utility.yul\":8981:8982   */\n      0x00\n        /* \"#utility.yul\":9006:9059   */\n      tag_216\n        /* \"#utility.yul\":9051:9058   */\n      dup5\n        /* \"#utility.yul\":9042:9048   */\n      dup3\n        /* \"#utility.yul\":9031:9040   */\n      dup6\n        /* \"#utility.yul\":9027:9049   */\n      add\n        /* \"#utility.yul\":9006:9059   */\n      tag_97\n      jump\t// in\n    tag_216:\n        /* \"#utility.yul\":8996:9059   */\n      swap2\n      pop\n        /* \"#utility.yul\":8952:9069   */\n      pop\n        /* \"#utility.yul\":8747:9076   */\n      swap3\n      swap2\n      pop\n      pop\n      jump\t// out\n        /* \"#utility.yul\":9146:10103   */\n    tag_98:\n        /* \"#utility.yul\":9257:9260   */\n      0x00\n        /* \"#utility.yul\":9293:9297   */\n      0x80\n        /* \"#utility.yul\":9288:9291   */\n      dup4\n        /* \"#utility.yul\":9284:9298   */\n      add\n        /* \"#utility.yul\":9382:9386   */\n      0x00\n        /* \"#utility.yul\":9375:9380   */\n      dup4\n        /* \"#utility.yul\":9371:9387   */\n      add\n        /* \"#utility.yul\":9365:9388   */\n      mload\n        /* \"#utility.yul\":9401:9464   */\n      tag_218\n        /* \"#utility.yul\":9458:9462   */\n      0x00\n        /* \"#utility.yul\":9453:9456   */\n      dup7\n        /* \"#utility.yul\":9449:9463   */\n      add\n        /* \"#utility.yul\":9435:9447   */\n      dup3\n        /* \"#utility.yul\":9401:9464   */\n      tag_87\n      jump\t// in\n    tag_218:\n        /* \"#utility.yul\":9308:9474   */\n      pop\n        /* \"#utility.yul\":9559:9563   */\n      0x20\n        /* \"#utility.yul\":9552:9557   */\n      dup4\n        /* \"#utility.yul\":9548:9564   */\n      add\n        /* \"#utility.yul\":9542:9565   */\n      mload\n        /* \"#utility.yul\":9612:9615   */\n      dup5\n        /* \"#utility.yul\":9606:9610   */\n      dup3\n        /* \"#utility.yul\":9602:9616   */\n      sub\n        /* \"#utility.yul\":9595:9599   */\n      0x20\n        /* \"#utility.yul\":9590:9593   */\n      dup7\n        /* \"#utility.yul\":9586:9600   */\n      add\n        /* \"#utility.yul\":9579:9617   */\n      mstore\n        /* \"#utility.yul\":9638:9711   */\n      tag_219\n        /* \"#utility.yul\":9706:9710   */\n      dup3\n        /* \"#utility.yul\":9692:9704   */\n      dup3\n        /* \"#utility.yul\":9638:9711   */\n      tag_89\n      jump\t// in\n    tag_219:\n        /* \"#utility.yul\":9630:9711   */\n      swap2\n      pop\n        /* \"#utility.yul\":9484:9722   */\n      pop\n        /* \"#utility.yul\":9809:9813   */\n      0x40\n        /* \"#utility.yul\":9802:9807   */\n      dup4\n        /* \"#utility.yul\":9798:9814   */\n      add\n        /* \"#utility.yul\":9792:9815   */\n      mload\n        /* \"#utility.yul\":9828:9891   */\n      tag_220\n        /* \"#utility.yul\":9885:9889   */\n      0x40\n        /* \"#utility.yul\":9880:9883   */\n      dup7\n        /* \"#utility.yul\":9876:9890   */\n      add\n        /* \"#utility.yul\":9862:9874   */\n      dup3\n        /* \"#utility.yul\":9828:9891   */\n      tag_90\n      jump\t// in\n    tag_220:\n        /* \"#utility.yul\":9732:9901   */\n      pop\n        /* \"#utility.yul\":9984:9988   */\n      0x60\n        /* \"#utility.yul\":9977:9982   */\n      dup4\n        /* \"#utility.yul\":9973:9989   */\n      add\n        /* \"#utility.yul\":9967:9990   */\n      mload\n        /* \"#utility.yul\":10003:10066   */\n      tag_221\n        /* \"#utility.yul\":10060:10064   */\n      0x60\n        /* \"#utility.yul\":10055:10058   */\n      dup7\n        /* \"#utility.yul\":10051:10065   */\n      add\n        /* \"#utility.yul\":10037:10049   */\n      dup3\n        /* \"#utility.yul\":10003:10066   */\n      tag_91\n      jump\t// in\n    tag_221:\n        /* \"#utility.yul\":9911:10076   */\n      pop\n        /* \"#utility.yul\":10093:10097   */\n      dup1\n        /* \"#utility.yul\":10086:10097   */\n      swap2\n      pop\n        /* \"#utility.yul\":9262:10103   */\n      pop\n        /* \"#utility.yul\":9146:10103   */\n      swap3\n      swap2\n      pop\n      pop\n      jump\t// out\n        /* \"#utility.yul\":10109:10466   */\n    tag_24:\n        /* \"#utility.yul\":10244:10248   */\n      0x00\n        /* \"#utility.yul\":10282:10284   */\n      0x20\n        /* \"#utility.yul\":10271:10280   */\n      dup3\n        /* \"#utility.yul\":10267:10285   */\n      add\n        /* \"#utility.yul\":10259:10285   */\n      swap1\n      pop\n        /* \"#utility.yul\":10331:10340   */\n      dup2\n        /* \"#utility.yul\":10325:10329   */\n      dup2\n        /* \"#utility.yul\":10321:10341   */\n      sub\n        /* \"#utility.yul\":10317:10318   */\n      0x00\n        /* \"#utility.yul\":10306:10315   */\n      dup4\n        /* \"#utility.yul\":10302:10319   */\n      add\n        /* \"#utility.yul\":10295:10342   */\n      mstore\n        /* \"#utility.yul\":10359:10459   */\n      tag_223\n        /* \"#utility.yul\":10454:10458   */\n      dup2\n        /* \"#utility.yul\":10445:10451   */\n      dup5\n        /* \"#utility.yul\":10359:10459   */\n      tag_98\n      jump\t// in\n    tag_223:\n        /* \"#utility.yul\":10351:10459   */\n      swap1\n      pop\n        /* \"#utility.yul\":10109:10466   */\n      swap3\n      swap2\n      pop\n      pop\n      jump\t// out\n        /* \"#utility.yul\":10472:10589   */\n    tag_99:\n        /* \"#utility.yul\":10581:10582   */\n      0x00\n        /* \"#utility.yul\":10578:10579   */\n      dup1\n        /* \"#utility.yul\":10571:10583   */\n      revert\n        /* \"#utility.yul\":10595:10712   */\n    tag_100:\n        /* \"#utility.yul\":10704:10705   */\n      0x00\n        /* \"#utility.yul\":10701:10702   */\n      dup1\n        /* \"#utility.yul\":10694:10706   */\n      revert\n        /* \"#utility.yul\":10718:10898   */\n    tag_101:\n        /* \"#utility.yul\":10766:10843   */\n      0x4e487b7100000000000000000000000000000000000000000000000000000000\n        /* \"#utility.yul\":10763:10764   */\n      0x00\n        /* \"#utility.yul\":10756:10844   */\n      mstore\n        /* \"#utility.yul\":10863:10867   */\n      0x41\n        /* \"#utility.yul\":10860:10861   */\n      0x04\n        /* \"#utility.yul\":10853:10868   */\n      mstore\n        /* \"#utility.yul\":10887:10891   */\n      0x24\n        /* \"#utility.yul\":10884:10885   */\n      0x00\n        /* \"#utility.yul\":10877:10892   */\n      revert\n        /* \"#utility.yul\":10904:11185   */\n    tag_102:\n        /* \"#utility.yul\":10987:11014   */\n      tag_228\n        /* \"#utility.yul\":11009:11013   */\n      dup3\n        /* \"#utility.yul\":10987:11014   */\n      tag_79\n      jump\t// in\n    tag_228:\n        /* \"#utility.yul\":10979:10985   */\n      dup2\n        /* \"#utility.yul\":10975:11015   */\n      add\n        /* \"#utility.yul\":11117:11123   */\n      dup2\n        /* \"#utility.yul\":11105:11115   */\n      dup2\n        /* \"#utility.yul\":11102:11124   */\n      lt\n        /* \"#utility.yul\":11081:11099   */\n      0xffffffffffffffff\n        /* \"#utility.yul\":11069:11079   */\n      dup3\n        /* \"#utility.yul\":11066:11100   */\n      gt\n        /* \"#utility.yul\":11063:11125   */\n      or\n        /* \"#utility.yul\":11060:11148   */\n      iszero\n      tag_229\n      jumpi\n        /* \"#utility.yul\":11128:11146   */\n      tag_230\n      tag_101\n      jump\t// in\n    tag_230:\n        /* \"#utility.yul\":11060:11148   */\n    tag_229:\n        /* \"#utility.yul\":11168:11178   */\n      dup1\n        /* \"#utility.yul\":11164:11166   */\n      0x40\n        /* \"#utility.yul\":11157:11179   */\n      mstore\n        /* \"#utility.yul\":10947:11185   */\n      pop\n        /* \"#utility.yul\":10904:11185   */\n      pop\n      pop\n      jump\t// out\n        /* \"#utility.yul\":11191:11320   */\n    tag_103:\n        /* \"#utility.yul\":11225:11231   */\n      0x00\n        /* \"#utility.yul\":11252:11272   */\n      tag_232\n      tag_65\n      jump\t// in\n    tag_232:\n        /* \"#utility.yul\":11242:11272   */\n      swap1\n      pop\n        /* \"#utility.yul\":11281:11314   */\n      tag_233\n        /* \"#utility.yul\":11309:11313   */\n      dup3\n        /* \"#utility.yul\":11301:11307   */\n      dup3\n        /* \"#utility.yul\":11281:11314   */\n      tag_102\n      jump\t// in\n    tag_233:\n        /* \"#utility.yul\":11191:11320   */\n      swap2\n      swap1\n      pop\n      jump\t// out\n        /* \"#utility.yul\":11326:11634   */\n    tag_104:\n        /* \"#utility.yul\":11388:11392   */\n      0x00\n        /* \"#utility.yul\":11478:11496   */\n      0xffffffffffffffff\n        /* \"#utility.yul\":11470:11476   */\n      dup3\n        /* \"#utility.yul\":11467:11497   */\n      gt\n        /* \"#utility.yul\":11464:11520   */\n      iszero\n      tag_235\n      jumpi\n        /* \"#utility.yul\":11500:11518   */\n      tag_236\n      tag_101\n      jump\t// in\n    tag_236:\n        /* \"#utility.yul\":11464:11520   */\n    tag_235:\n        /* \"#utility.yul\":11538:11567   */\n      tag_237\n        /* \"#utility.yul\":11560:11566   */\n      dup3\n        /* \"#utility.yul\":11538:11567   */\n      tag_79\n      jump\t// in\n    tag_237:\n        /* \"#utility.yul\":11530:11567   */\n      swap1\n      pop\n        /* \"#utility.yul\":11622:11626   */\n      0x20\n        /* \"#utility.yul\":11616:11620   */\n      dup2\n        /* \"#utility.yul\":11612:11627   */\n      add\n        /* \"#utility.yul\":11604:11627   */\n      swap1\n      pop\n        /* \"#utility.yul\":11326:11634   */\n      swap2\n      swap1\n      pop\n      jump\t// out\n        /* \"#utility.yul\":11640:11788   */\n    tag_105:\n        /* \"#utility.yul\":11738:11744   */\n      dup3\n        /* \"#utility.yul\":11733:11736   */\n      dup2\n        /* \"#utility.yul\":11728:11731   */\n      dup4\n        /* \"#utility.yul\":11715:11745   */\n      calldatacopy\n        /* \"#utility.yul\":11779:11780   */\n      0x00\n        /* \"#utility.yul\":11770:11776   */\n      dup4\n        /* \"#utility.yul\":11765:11768   */\n      dup4\n        /* \"#utility.yul\":11761:11777   */\n      add\n        /* \"#utility.yul\":11754:11781   */\n      mstore\n        /* \"#utility.yul\":11640:11788   */\n      pop\n      pop\n      pop\n      jump\t// out\n        /* \"#utility.yul\":11794:12219   */\n    tag_106:\n        /* \"#utility.yul\":11872:11877   */\n      0x00\n        /* \"#utility.yul\":11897:11963   */\n      tag_240\n        /* \"#utility.yul\":11913:11962   */\n      tag_241\n        /* \"#utility.yul\":11955:11961   */\n      dup5\n        /* \"#utility.yul\":11913:11962   */\n      tag_104\n      jump\t// in\n    tag_241:\n        /* \"#utility.yul\":11897:11963   */\n      tag_103\n      jump\t// in\n    tag_240:\n        /* \"#utility.yul\":11888:11963   */\n      swap1\n      pop\n        /* \"#utility.yul\":11986:11992   */\n      dup3\n        /* \"#utility.yul\":11979:11984   */\n      dup2\n        /* \"#utility.yul\":11972:11993   */\n      mstore\n        /* \"#utility.yul\":12024:12028   */\n      0x20\n        /* \"#utility.yul\":12017:12022   */\n      dup2\n        /* \"#utility.yul\":12013:12029   */\n      add\n        /* \"#utility.yul\":12062:12065   */\n      dup5\n        /* \"#utility.yul\":12053:12059   */\n      dup5\n        /* \"#utility.yul\":12048:12051   */\n      dup5\n        /* \"#utility.yul\":12044:12060   */\n      add\n        /* \"#utility.yul\":12041:12066   */\n      gt\n        /* \"#utility.yul\":12038:12150   */\n      iszero\n      tag_242\n      jumpi\n        /* \"#utility.yul\":12069:12148   */\n      tag_243\n      tag_100\n      jump\t// in\n    tag_243:\n        /* \"#utility.yul\":12038:12150   */\n    tag_242:\n        /* \"#utility.yul\":12159:12213   */\n      tag_244\n        /* \"#utility.yul\":12206:12212   */\n      dup5\n        /* \"#utility.yul\":12201:12204   */\n      dup3\n        /* \"#utility.yul\":12196:12199   */\n      dup6\n        /* \"#utility.yul\":12159:12213   */\n      tag_105\n      jump\t// in\n    tag_244:\n        /* \"#utility.yul\":11878:12219   */\n      pop\n        /* \"#utility.yul\":11794:12219   */\n      swap4\n      swap3\n      pop\n      pop\n      pop\n      jump\t// out\n        /* \"#utility.yul\":12239:12579   */\n    tag_107:\n        /* \"#utility.yul\":12295:12300   */\n      0x00\n        /* \"#utility.yul\":12344:12347   */\n      dup3\n        /* \"#utility.yul\":12337:12341   */\n      0x1f\n        /* \"#utility.yul\":12329:12335   */\n      dup4\n        /* \"#utility.yul\":12325:12342   */\n      add\n        /* \"#utility.yul\":12321:12348   */\n      slt\n        /* \"#utility.yul\":12311:12433   */\n      tag_246\n      jumpi\n        /* \"#utility.yul\":12352:12431   */\n      tag_247\n      tag_99\n      jump\t// in\n    tag_247:\n        /* \"#utility.yul\":12311:12433   */\n    tag_246:\n        /* \"#utility.yul\":12469:12475   */\n      dup2\n        /* \"#utility.yul\":12456:12476   */\n      calldataload\n        /* \"#utility.yul\":12494:12573   */\n      tag_248\n        /* \"#utility.yul\":12569:12572   */\n      dup5\n        /* \"#utility.yul\":12561:12567   */\n      dup3\n        /* \"#utility.yul\":12554:12558   */\n      0x20\n        /* \"#utility.yul\":12546:12552   */\n      dup7\n        /* \"#utility.yul\":12542:12559   */\n      add\n        /* \"#utility.yul\":12494:12573   */\n      tag_106\n      jump\t// in\n    tag_248:\n        /* \"#utility.yul\":12485:12573   */\n      swap2\n      pop\n        /* \"#utility.yul\":12301:12579   */\n      pop\n        /* \"#utility.yul\":12239:12579   */\n      swap3\n      swap2\n      pop\n      pop\n      jump\t// out\n        /* \"#utility.yul\":12585:13094   */\n    tag_27:\n        /* \"#utility.yul\":12654:12660   */\n      0x00\n        /* \"#utility.yul\":12703:12705   */\n      0x20\n        /* \"#utility.yul\":12691:12700   */\n      dup3\n        /* \"#utility.yul\":12682:12689   */\n      dup5\n        /* \"#utility.yul\":12678:12701   */\n      sub\n        /* \"#utility.yul\":12674:12706   */\n      slt\n        /* \"#utility.yul\":12671:12790   */\n      iszero\n      tag_250\n      jumpi\n        /* \"#utility.yul\":12709:12788   */\n      tag_251\n      tag_66\n      jump\t// in\n    tag_251:\n        /* \"#utility.yul\":12671:12790   */\n    tag_250:\n        /* \"#utility.yul\":12857:12858   */\n      0x00\n        /* \"#utility.yul\":12846:12855   */\n      dup3\n        /* \"#utility.yul\":12842:12859   */\n      add\n        /* \"#utility.yul\":12829:12860   */\n      calldataload\n        /* \"#utility.yul\":12887:12905   */\n      0xffffffffffffffff\n        /* \"#utility.yul\":12879:12885   */\n      dup2\n        /* \"#utility.yul\":12876:12906   */\n      gt\n        /* \"#utility.yul\":12873:12990   */\n      iszero\n      tag_252\n      jumpi\n        /* \"#utility.yul\":12909:12988   */\n      tag_253\n      tag_67\n      jump\t// in\n    tag_253:\n        /* \"#utility.yul\":12873:12990   */\n    tag_252:\n        /* \"#utility.yul\":13014:13077   */\n      tag_254\n        /* \"#utility.yul\":13069:13076   */\n      dup5\n        /* \"#utility.yul\":13060:13066   */\n      dup3\n        /* \"#utility.yul\":13049:13058   */\n      dup6\n        /* \"#utility.yul\":13045:13067   */\n      add\n        /* \"#utility.yul\":13014:13077   */\n      tag_107\n      jump\t// in\n    tag_254:\n        /* \"#utility.yul\":13004:13077   */\n      swap2\n      pop\n        /* \"#utility.yul\":12800:13087   */\n      pop\n        /* \"#utility.yul\":12585:13094   */\n      swap3\n      swap2\n      pop\n      pop\n      jump\t// out\n        /* \"#utility.yul\":13100:13280   */\n    tag_108:\n        /* \"#utility.yul\":13148:13225   */\n      0x4e487b7100000000000000000000000000000000000000000000000000000000\n        /* \"#utility.yul\":13145:13146   */\n      0x00\n        /* \"#utility.yul\":13138:13226   */\n      mstore\n        /* \"#utility.yul\":13245:13249   */\n      0x22\n        /* \"#utility.yul\":13242:13243   */\n      0x04\n        /* \"#utility.yul\":13235:13250   */\n      mstore\n        /* \"#utility.yul\":13269:13273   */\n      0x24\n        /* \"#utility.yul\":13266:13267   */\n      0x00\n        /* \"#utility.yul\":13259:13274   */\n      revert\n        /* \"#utility.yul\":13286:13606   */\n    tag_32:\n        /* \"#utility.yul\":13330:13336   */\n      0x00\n        /* \"#utility.yul\":13367:13368   */\n      0x02\n        /* \"#utility.yul\":13361:13365   */\n      dup3\n        /* \"#utility.yul\":13357:13369   */\n      div\n        /* \"#utility.yul\":13347:13369   */\n      swap1\n      pop\n        /* \"#utility.yul\":13414:13415   */\n      0x01\n        /* \"#utility.yul\":13408:13412   */\n      dup3\n        /* \"#utility.yul\":13404:13416   */\n      and\n        /* \"#utility.yul\":13435:13453   */\n      dup1\n        /* \"#utility.yul\":13425:13506   */\n      tag_257\n      jumpi\n        /* \"#utility.yul\":13491:13495   */\n      0x7f\n        /* \"#utility.yul\":13483:13489   */\n      dup3\n        /* \"#utility.yul\":13479:13496   */\n      and\n        /* \"#utility.yul\":13469:13496   */\n      swap2\n      pop\n        /* \"#utility.yul\":13425:13506   */\n    tag_257:\n        /* \"#utility.yul\":13553:13555   */\n      0x20\n        /* \"#utility.yul\":13545:13551   */\n      dup3\n        /* \"#utility.yul\":13542:13556   */\n      lt\n        /* \"#utility.yul\":13522:13540   */\n      dup2\n        /* \"#utility.yul\":13519:13557   */\n      sub\n        /* \"#utility.yul\":13516:13600   */\n      tag_258\n      jumpi\n        /* \"#utility.yul\":13572:13590   */\n      tag_259\n      tag_108\n      jump\t// in\n    tag_259:\n        /* \"#utility.yul\":13516:13600   */\n    tag_258:\n        /* \"#utility.yul\":13337:13606   */\n      pop\n        /* \"#utility.yul\":13286:13606   */\n      swap2\n      swap1\n      pop\n      jump\t// out\n        /* \"#utility.yul\":13612:13792   */\n    tag_51:\n        /* \"#utility.yul\":13660:13737   */\n      0x4e487b7100000000000000000000000000000000000000000000000000000000\n        /* \"#utility.yul\":13657:13658   */\n      0x00\n        /* \"#utility.yul\":13650:13738   */\n      mstore\n        /* \"#utility.yul\":13757:13761   */\n      0x32\n        /* \"#utility.yul\":13754:13755   */\n      0x04\n        /* \"#utility.yul\":13747:13762   */\n      mstore\n        /* \"#utility.yul\":13781:13785   */\n      0x24\n        /* \"#utility.yul\":13778:13779   */\n      0x00\n        /* \"#utility.yul\":13771:13786   */\n      revert\n        /* \"#utility.yul\":13798:13961   */\n    tag_109:\n        /* \"#utility.yul\":13938:13953   */\n      0x546f6f206c6f6e672062726f2100000000000000000000000000000000000000\n        /* \"#utility.yul\":13934:13935   */\n      0x00\n        /* \"#utility.yul\":13926:13932   */\n      dup3\n        /* \"#utility.yul\":13922:13936   */\n      add\n        /* \"#utility.yul\":13915:13954   */\n      mstore\n        /* \"#utility.yul\":13798:13961   */\n      pop\n      jump\t// out\n        /* \"#utility.yul\":13967:14333   */\n    tag_110:\n        /* \"#utility.yul\":14109:14112   */\n      0x00\n        /* \"#utility.yul\":14130:14197   */\n      tag_263\n        /* \"#utility.yul\":14194:14196   */\n      0x0d\n        /* \"#utility.yul\":14189:14192   */\n      dup4\n        /* \"#utility.yul\":14130:14197   */\n      tag_77\n      jump\t// in\n    tag_263:\n        /* \"#utility.yul\":14123:14197   */\n      swap2\n      pop\n        /* \"#utility.yul\":14206:14299   */\n      tag_264\n        /* \"#utility.yul\":14295:14298   */\n      dup3\n        /* \"#utility.yul\":14206:14299   */\n      tag_109\n      jump\t// in\n    tag_264:\n        /* \"#utility.yul\":14324:14326   */\n      0x20\n        /* \"#utility.yul\":14319:14322   */\n      dup3\n        /* \"#utility.yul\":14315:14327   */\n      add\n        /* \"#utility.yul\":14308:14327   */\n      swap1\n      pop\n        /* \"#utility.yul\":13967:14333   */\n      swap2\n      swap1\n      pop\n      jump\t// out\n        /* \"#utility.yul\":14339:14758   */\n    tag_61:\n        /* \"#utility.yul\":14505:14509   */\n      0x00\n        /* \"#utility.yul\":14543:14545   */\n      0x20\n        /* \"#utility.yul\":14532:14541   */\n      dup3\n        /* \"#utility.yul\":14528:14546   */\n      add\n        /* \"#utility.yul\":14520:14546   */\n      swap1\n      pop\n        /* \"#utility.yul\":14592:14601   */\n      dup2\n        /* \"#utility.yul\":14586:14590   */\n      dup2\n        /* \"#utility.yul\":14582:14602   */\n      sub\n        /* \"#utility.yul\":14578:14579   */\n      0x00\n        /* \"#utility.yul\":14567:14576   */\n      dup4\n        /* \"#utility.yul\":14563:14580   */\n      add\n        /* \"#utility.yul\":14556:14603   */\n      mstore\n        /* \"#utility.yul\":14620:14751   */\n      tag_266\n        /* \"#utility.yul\":14746:14750   */\n      dup2\n        /* \"#utility.yul\":14620:14751   */\n      tag_110\n      jump\t// in\n    tag_266:\n        /* \"#utility.yul\":14612:14751   */\n      swap1\n      pop\n        /* \"#utility.yul\":14339:14758   */\n      swap2\n      swap1\n      pop\n      jump\t// out\n        /* \"#utility.yul\":14764:14905   */\n    tag_111:\n        /* \"#utility.yul\":14813:14817   */\n      0x00\n        /* \"#utility.yul\":14836:14839   */\n      dup2\n        /* \"#utility.yul\":14828:14839   */\n      swap1\n      pop\n        /* \"#utility.yul\":14859:14862   */\n      dup2\n        /* \"#utility.yul\":14856:14857   */\n      0x00\n        /* \"#utility.yul\":14849:14863   */\n      mstore\n        /* \"#utility.yul\":14893:14897   */\n      0x20\n        /* \"#utility.yul\":14890:14891   */\n      0x00\n        /* \"#utility.yul\":14880:14898   */\n      keccak256\n        /* \"#utility.yul\":14872:14898   */\n      swap1\n      pop\n        /* \"#utility.yul\":14764:14905   */\n      swap2\n      swap1\n      pop\n      jump\t// out\n        /* \"#utility.yul\":14911:15004   */\n    tag_112:\n        /* \"#utility.yul\":14948:14954   */\n      0x00\n        /* \"#utility.yul\":14995:14997   */\n      0x20\n        /* \"#utility.yul\":14990:14992   */\n      0x1f\n        /* \"#utility.yul\":14983:14988   */\n      dup4\n        /* \"#utility.yul\":14979:14993   */\n      add\n        /* \"#utility.yul\":14975:14998   */\n      div\n        /* \"#utility.yul\":14965:14998   */\n      swap1\n      pop\n        /* \"#utility.yul\":14911:15004   */\n      swap2\n      swap1\n      pop\n      jump\t// out\n        /* \"#utility.yul\":15010:15117   */\n    tag_113:\n        /* \"#utility.yul\":15054:15062   */\n      0x00\n        /* \"#utility.yul\":15104:15109   */\n      dup3\n        /* \"#utility.yul\":15098:15102   */\n      dup3\n        /* \"#utility.yul\":15094:15110   */\n      shl\n        /* \"#utility.yul\":15073:15110   */\n      swap1\n      pop\n        /* \"#utility.yul\":15010:15117   */\n      swap3\n      swap2\n      pop\n      pop\n      jump\t// out\n        /* \"#utility.yul\":15123:15516   */\n    tag_114:\n        /* \"#utility.yul\":15192:15198   */\n      0x00\n        /* \"#utility.yul\":15242:15243   */\n      0x08\n        /* \"#utility.yul\":15230:15240   */\n      dup4\n        /* \"#utility.yul\":15226:15244   */\n      mul\n        /* \"#utility.yul\":15265:15362   */\n      tag_271\n        /* \"#utility.yul\":15295:15361   */\n      0xffffffffffffffffffffffffffffffffffffffffffffffffffffffffffffffff\n        /* \"#utility.yul\":15284:15293   */\n      dup3\n        /* \"#utility.yul\":15265:15362   */\n      tag_113\n      jump\t// in\n    tag_271:\n        /* \"#utility.yul\":15383:15422   */\n      tag_272\n        /* \"#utility.yul\":15413:15421   */\n      dup7\n        /* \"#utility.yul\":15402:15411   */\n      dup4\n        /* \"#utility.yul\":15383:15422   */\n      tag_113\n      jump\t// in\n    tag_272:\n        /* \"#utility.yul\":15371:15422   */\n      swap6\n      pop\n        /* \"#utility.yul\":15455:15459   */\n      dup1\n        /* \"#utility.yul\":15451:15460   */\n      not\n        /* \"#utility.yul\":15444:15449   */\n      dup5\n        /* \"#utility.yul\":15440:15461   */\n      and\n        /* \"#utility.yul\":15431:15461   */\n      swap4\n      pop\n        /* \"#utility.yul\":15504:15508   */\n      dup1\n        /* \"#utility.yul\":15494:15502   */\n      dup7\n        /* \"#utility.yul\":15490:15509   */\n      and\n        /* \"#utility.yul\":15483:15488   */\n      dup5\n        /* \"#utility.yul\":15480:15510   */\n      or\n        /* \"#utility.yul\":15470:15510   */\n      swap3\n      pop\n        /* \"#utility.yul\":15199:15516   */\n      pop\n      pop\n        /* \"#utility.yul\":15123:15516   */\n      swap4\n      swap3\n      pop\n      pop\n      pop\n      jump\t// out\n        /* \"#utility.yul\":15522:15582   */\n    tag_115:\n        /* \"#utility.yul\":15550:15553   */\n      0x00\n        /* \"#utility.yul\":15571:15576   */\n      dup2\n        /* \"#utility.yul\":15564:15576   */\n      swap1\n      pop\n        /* \"#utility.yul\":15522:15582   */\n      swap2\n      swap1\n      pop\n      jump\t// out\n        /* \"#utility.yul\":15588:15730   */\n    tag_116:\n        /* \"#utility.yul\":15638:15647   */\n      0x00\n        /* \"#utility.yul\":15671:15724   */\n      tag_275\n        /* \"#utility.yul\":15689:15723   */\n      tag_276\n        /* \"#utility.yul\":15698:15722   */\n      tag_277\n        /* \"#utility.yul\":15716:15721   */\n      dup5\n        /* \"#utility.yul\":15698:15722   */\n      tag_72\n      jump\t// in\n    tag_277:\n        /* \"#utility.yul\":15689:15723   */\n      tag_115\n      jump\t// in\n    tag_276:\n        /* \"#utility.yul\":15671:15724   */\n      tag_72\n      jump\t// in\n    tag_275:\n        /* \"#utility.yul\":15658:15724   */\n      swap1\n      pop\n        /* \"#utility.yul\":15588:15730   */\n      swap2\n      swap1\n      pop\n      jump\t// out\n        /* \"#utility.yul\":15736:15811   */\n    tag_117:\n        /* \"#utility.yul\":15779:15782   */\n      0x00\n        /* \"#utility.yul\":15800:15805   */\n      dup2\n        /* \"#utility.yul\":15793:15805   */\n      swap1\n      pop\n        /* \"#utility.yul\":15736:15811   */\n      swap2\n      swap1\n      pop\n      jump\t// out\n        /* \"#utility.yul\":15817:16086   */\n    tag_118:\n        /* \"#utility.yul\":15927:15966   */\n      tag_280\n        /* \"#utility.yul\":15958:15965   */\n      dup4\n        /* \"#utility.yul\":15927:15966   */\n      tag_116\n      jump\t// in\n    tag_280:\n        /* \"#utility.yul\":15988:16079   */\n      tag_281\n        /* \"#utility.yul\":16037:16078   */\n      tag_282\n        /* \"#utility.yul\":16061:16077   */\n      dup3\n        /* \"#utility.yul\":16037:16078   */\n      tag_117\n      jump\t// in\n    tag_282:\n        /* \"#utility.yul\":16029:16035   */\n      dup5\n        /* \"#utility.yul\":16022:16026   */\n      dup5\n        /* \"#utility.yul\":16016:16027   */\n      sload\n        /* \"#utility.yul\":15988:16079   */\n      tag_114\n      jump\t// in\n    tag_281:\n        /* \"#utility.yul\":15982:15986   */\n      dup3\n        /* \"#utility.yul\":15975:16080   */\n      sstore\n        /* \"#utility.yul\":15893:16086   */\n      pop\n        /* \"#utility.yul\":15817:16086   */\n      pop\n      pop\n      pop\n      jump\t// out\n        /* \"#utility.yul\":16092:16165   */\n    tag_119:\n        /* \"#utility.yul\":16137:16140   */\n      0x00\n        /* \"#utility.yul\":16092:16165   */\n      swap1\n      jump\t// out\n        /* \"#utility.yul\":16171:16360   */\n    tag_120:\n        /* \"#utility.yul\":16248:16280   */\n      tag_285\n      tag_119\n      jump\t// in\n    tag_285:\n        /* \"#utility.yul\":16289:16354   */\n      tag_286\n        /* \"#utility.yul\":16347:16353   */\n      dup2\n        /* \"#utility.yul\":16339:16345   */\n      dup5\n        /* \"#utility.yul\":16333:16337   */\n      dup5\n        /* \"#utility.yul\":16289:16354   */\n      tag_118\n      jump\t// in\n    tag_286:\n        /* \"#utility.yul\":16224:16360   */\n      pop\n        /* \"#utility.yul\":16171:16360   */\n      pop\n      pop\n      jump\t// out\n        /* \"#utility.yul\":16366:16552   */\n    tag_121:\n        /* \"#utility.yul\":16426:16546   */\n    tag_288:\n        /* \"#utility.yul\":16443:16446   */\n      dup2\n        /* \"#utility.yul\":16436:16441   */\n      dup2\n        /* \"#utility.yul\":16433:16447   */\n      lt\n        /* \"#utility.yul\":16426:16546   */\n      iszero\n      tag_290\n      jumpi\n        /* \"#utility.yul\":16497:16536   */\n      tag_291\n        /* \"#utility.yul\":16534:16535   */\n      0x00\n        /* \"#utility.yul\":16527:16532   */\n      dup3\n        /* \"#utility.yul\":16497:16536   */\n      tag_120\n      jump\t// in\n    tag_291:\n        /* \"#utility.yul\":16470:16471   */\n      0x01\n        /* \"#utility.yul\":16463:16468   */\n      dup2\n        /* \"#utility.yul\":16459:16472   */\n      add\n        /* \"#utility.yul\":16450:16472   */\n      swap1\n      pop\n        /* \"#utility.yul\":16426:16546   */\n      jump(tag_288)\n    tag_290:\n        /* \"#utility.yul\":16366:16552   */\n      pop\n      pop\n      jump\t// out\n        /* \"#utility.yul\":16558:17101   */\n    tag_122:\n        /* \"#utility.yul\":16659:16661   */\n      0x1f\n        /* \"#utility.yul\":16654:16657   */\n      dup3\n        /* \"#utility.yul\":16651:16662   */\n      gt\n        /* \"#utility.yul\":16648:17094   */\n      iszero\n      tag_293\n      jumpi\n        /* \"#utility.yul\":16693:16731   */\n      tag_294\n        /* \"#utility.yul\":16725:16730   */\n      dup2\n        /* \"#utility.yul\":16693:16731   */\n      tag_111\n      jump\t// in\n    tag_294:\n        /* \"#utility.yul\":16777:16806   */\n      tag_295\n        /* \"#utility.yul\":16795:16805   */\n      dup5\n        /* \"#utility.yul\":16777:16806   */\n      tag_112\n      jump\t// in\n    tag_295:\n        /* \"#utility.yul\":16767:16775   */\n      dup2\n        /* \"#utility.yul\":16763:16807   */\n      add\n        /* \"#utility.yul\":16960:16962   */\n      0x20\n        /* \"#utility.yul\":16948:16958   */\n      dup6\n        /* \"#utility.yul\":16945:16963   */\n      lt\n        /* \"#utility.yul\":16942:16991   */\n      iszero\n      tag_296\n      jumpi\n        /* \"#utility.yul\":16981:16989   */\n      dup2\n        /* \"#utility.yul\":16966:16989   */\n      swap1\n      pop\n        /* \"#utility.yul\":16942:16991   */\n    tag_296:\n        /* \"#utility.yul\":17004:17084   */\n      tag_297\n        /* \"#utility.yul\":17060:17082   */\n      tag_298\n        /* \"#utility.yul\":17078:17081   */\n      dup6\n        /* \"#utility.yul\":17060:17082   */\n      tag_112\n      jump\t// in\n    tag_298:\n        /* \"#utility.yul\":17050:17058   */\n      dup4\n        /* \"#utility.yul\":17046:17083   */\n      add\n        /* \"#utility.yul\":17033:17044   */\n      dup3\n        /* \"#utility.yul\":17004:17084   */\n      tag_121\n      jump\t// in\n    tag_297:\n        /* \"#utility.yul\":16663:17094   */\n      pop\n      pop\n        /* \"#utility.yul\":16648:17094   */\n    tag_293:\n        /* \"#utility.yul\":16558:17101   */\n      pop\n      pop\n      pop\n      jump\t// out\n        /* \"#utility.yul\":17107:17224   */\n    tag_123:\n        /* \"#utility.yul\":17161:17169   */\n      0x00\n        /* \"#utility.yul\":17211:17216   */\n      dup3\n        /* \"#utility.yul\":17205:17209   */\n      dup3\n        /* \"#utility.yul\":17201:17217   */\n      shr\n        /* \"#utility.yul\":17180:17217   */\n      swap1\n      pop\n        /* \"#utility.yul\":17107:17224   */\n      swap3\n      swap2\n      pop\n      pop\n      jump\t// out\n        /* \"#utility.yul\":17230:17399   */\n    tag_124:\n        /* \"#utility.yul\":17274:17280   */\n      0x00\n        /* \"#utility.yul\":17307:17358   */\n      tag_301\n        /* \"#utility.yul\":17355:17356   */\n      0x00\n        /* \"#utility.yul\":17351:17357   */\n      not\n        /* \"#utility.yul\":17343:17348   */\n      dup5\n        /* \"#utility.yul\":17340:17341   */\n      0x08\n        /* \"#utility.yul\":17336:17349   */\n      mul\n        /* \"#utility.yul\":17307:17358   */\n      tag_123\n      jump\t// in\n    tag_301:\n        /* \"#utility.yul\":17303:17359   */\n      not\n        /* \"#utility.yul\":17388:17392   */\n      dup1\n        /* \"#utility.yul\":17382:17386   */\n      dup4\n        /* \"#utility.yul\":17378:17393   */\n      and\n        /* \"#utility.yul\":17368:17393   */\n      swap2\n      pop\n        /* \"#utility.yul\":17281:17399   */\n      pop\n        /* \"#utility.yul\":17230:17399   */\n      swap3\n      swap2\n      pop\n      pop\n      jump\t// out\n        /* \"#utility.yul\":17404:17699   */\n    tag_125:\n        /* \"#utility.yul\":17480:17484   */\n      0x00\n        /* \"#utility.yul\":17626:17655   */\n      tag_303\n        /* \"#utility.yul\":17651:17654   */\n      dup4\n        /* \"#utility.yul\":17645:17649   */\n      dup4\n        /* \"#utility.yul\":17626:17655   */\n      tag_124\n      jump\t// in\n    tag_303:\n        /* \"#utility.yul\":17618:17655   */\n      swap2\n      pop\n        /* \"#utility.yul\":17688:17691   */\n      dup3\n        /* \"#utility.yul\":17685:17686   */\n      0x02\n        /* \"#utility.yul\":17681:17692   */\n      mul\n        /* \"#utility.yul\":17675:17679   */\n      dup3\n        /* \"#utility.yul\":17672:17693   */\n      or\n        /* \"#utility.yul\":17664:17693   */\n      swap1\n      pop\n        /* \"#utility.yul\":17404:17699   */\n      swap3\n      swap2\n      pop\n      pop\n      jump\t// out\n        /* \"#utility.yul\":17704:19099   */\n    tag_64:\n        /* \"#utility.yul\":17821:17858   */\n      tag_305\n        /* \"#utility.yul\":17854:17857   */\n      dup3\n        /* \"#utility.yul\":17821:17858   */\n      tag_76\n      jump\t// in\n    tag_305:\n        /* \"#utility.yul\":17923:17941   */\n      0xffffffffffffffff\n        /* \"#utility.yul\":17915:17921   */\n      dup2\n        /* \"#utility.yul\":17912:17942   */\n      gt\n        /* \"#utility.yul\":17909:17965   */\n      iszero\n      tag_306\n      jumpi\n        /* \"#utility.yul\":17945:17963   */\n      tag_307\n      tag_101\n      jump\t// in\n    tag_307:\n        /* \"#utility.yul\":17909:17965   */\n    tag_306:\n        /* \"#utility.yul\":17989:18027   */\n      tag_308\n        /* \"#utility.yul\":18021:18025   */\n      dup3\n        /* \"#utility.yul\":18015:18026   */\n      sload\n        /* \"#utility.yul\":17989:18027   */\n      tag_32\n      jump\t// in\n    tag_308:\n        /* \"#utility.yul\":18074:18141   */\n      tag_309\n        /* \"#utility.yul\":18134:18140   */\n      dup3\n        /* \"#utility.yul\":18126:18132   */\n      dup3\n        /* \"#utility.yul\":18120:18124   */\n      dup6\n        /* \"#utility.yul\":18074:18141   */\n      tag_122\n      jump\t// in\n    tag_309:\n        /* \"#utility.yul\":18168:18169   */\n      0x00\n        /* \"#utility.yul\":18192:18196   */\n      0x20\n        /* \"#utility.yul\":18179:18196   */\n      swap1\n      pop\n        /* \"#utility.yul\":18224:18226   */\n      0x1f\n        /* \"#utility.yul\":18216:18222   */\n      dup4\n        /* \"#utility.yul\":18213:18227   */\n      gt\n        /* \"#utility.yul\":18241:18242   */\n      0x01\n        /* \"#utility.yul\":18236:18854   */\n      dup2\n      eq\n      tag_311\n      jumpi\n        /* \"#utility.yul\":18898:18899   */\n      0x00\n        /* \"#utility.yul\":18915:18921   */\n      dup5\n        /* \"#utility.yul\":18912:18989   */\n      iszero\n      tag_312\n      jumpi\n        /* \"#utility.yul\":18964:18973   */\n      dup3\n        /* \"#utility.yul\":18959:18962   */\n      dup8\n        /* \"#utility.yul\":18955:18974   */\n      add\n        /* \"#utility.yul\":18949:18975   */\n      mload\n        /* \"#utility.yul\":18940:18975   */\n      swap1\n      pop\n        /* \"#utility.yul\":18912:18989   */\n    tag_312:\n        /* \"#utility.yul\":19015:19082   */\n      tag_313\n        /* \"#utility.yul\":19075:19081   */\n      dup6\n        /* \"#utility.yul\":19068:19073   */\n      dup3\n        /* \"#utility.yul\":19015:19082   */\n      tag_125\n      jump\t// in\n    tag_313:\n        /* \"#utility.yul\":19009:19013   */\n      dup7\n        /* \"#utility.yul\":19002:19083   */\n      sstore\n        /* \"#utility.yul\":18871:19093   */\n      pop\n        /* \"#utility.yul\":18206:19093   */\n      jump(tag_310)\n        /* \"#utility.yul\":18236:18854   */\n    tag_311:\n        /* \"#utility.yul\":18288:18292   */\n      0x1f\n        /* \"#utility.yul\":18284:18293   */\n      not\n        /* \"#utility.yul\":18276:18282   */\n      dup5\n        /* \"#utility.yul\":18272:18294   */\n      and\n        /* \"#utility.yul\":18322:18359   */\n      tag_314\n        /* \"#utility.yul\":18354:18358   */\n      dup7\n        /* \"#utility.yul\":18322:18359   */\n      tag_111\n      jump\t// in\n    tag_314:\n        /* \"#utility.yul\":18381:18382   */\n      0x00\n        /* \"#utility.yul\":18395:18603   */\n    tag_315:\n        /* \"#utility.yul\":18409:18416   */\n      dup3\n        /* \"#utility.yul\":18406:18407   */\n      dup2\n        /* \"#utility.yul\":18403:18417   */\n      lt\n        /* \"#utility.yul\":18395:18603   */\n      iszero\n      tag_317\n      jumpi\n        /* \"#utility.yul\":18488:18497   */\n      dup5\n        /* \"#utility.yul\":18483:18486   */\n      dup10\n        /* \"#utility.yul\":18479:18498   */\n      add\n        /* \"#utility.yul\":18473:18499   */\n      mload\n        /* \"#utility.yul\":18465:18471   */\n      dup3\n        /* \"#utility.yul\":18458:18500   */\n      sstore\n        /* \"#utility.yul\":18539:18540   */\n      0x01\n        /* \"#utility.yul\":18531:18537   */\n      dup3\n        /* \"#utility.yul\":18527:18541   */\n      add\n        /* \"#utility.yul\":18517:18541   */\n      swap2\n      pop\n        /* \"#utility.yul\":18586:18588   */\n      0x20\n        /* \"#utility.yul\":18575:18584   */\n      dup6\n        /* \"#utility.yul\":18571:18589   */\n      add\n        /* \"#utility.yul\":18558:18589   */\n      swap5\n      pop\n        /* \"#utility.yul\":18432:18436   */\n      0x20\n        /* \"#utility.yul\":18429:18430   */\n      dup2\n        /* \"#utility.yul\":18425:18437   */\n      add\n        /* \"#utility.yul\":18420:18437   */\n      swap1\n      pop\n        /* \"#utility.yul\":18395:18603   */\n      jump(tag_315)\n    tag_317:\n        /* \"#utility.yul\":18631:18637   */\n      dup7\n        /* \"#utility.yul\":18622:18629   */\n      dup4\n        /* \"#utility.yul\":18619:18638   */\n      lt\n        /* \"#utility.yul\":18616:18795   */\n      iszero\n      tag_318\n      jumpi\n        /* \"#utility.yul\":18689:18698   */\n      dup5\n        /* \"#utility.yul\":18684:18687   */\n      dup10\n        /* \"#utility.yul\":18680:18699   */\n      add\n        /* \"#utility.yul\":18674:18700   */\n      mload\n        /* \"#utility.yul\":18732:18780   */\n      tag_319\n        /* \"#utility.yul\":18774:18778   */\n      0x1f\n        /* \"#utility.yul\":18766:18772   */\n      dup10\n        /* \"#utility.yul\":18762:18779   */\n      and\n        /* \"#utility.yul\":18751:18760   */\n      dup3\n        /* \"#utility.yul\":18732:18780   */\n      tag_124\n      jump\t// in\n    tag_319:\n        /* \"#utility.yul\":18724:18730   */\n      dup4\n        /* \"#utility.yul\":18717:18781   */\n      sstore\n        /* \"#utility.yul\":18639:18795   */\n      pop\n        /* \"#utility.yul\":18616:18795   */\n    tag_318:\n        /* \"#utility.yul\":18841:18842   */\n      0x01\n        /* \"#utility.yul\":18837:18838   */\n      0x02\n        /* \"#utility.yul\":18829:18835   */\n      dup9\n        /* \"#utility.yul\":18825:18839   */\n      mul\n        /* \"#utility.yul\":18821:18843   */\n      add\n        /* \"#utility.yul\":18815:18819   */\n      dup9\n        /* \"#utility.yul\":18808:18844   */\n      sstore\n        /* \"#utility.yul\":18243:18854   */\n      pop\n      pop\n      pop\n        /* \"#utility.yul\":18206:19093   */\n    tag_310:\n      pop\n        /* \"#utility.yul\":17796:19099   */\n      pop\n      pop\n      pop\n        /* \"#utility.yul\":17704:19099   */\n      pop\n      pop\n      jump\t// out\n\n    auxdata: 0xa2646970667358221220774d48bef50a2e3f663b59b541086eca3da6226d79489809fe5b43002eb1f81964736f6c634300081a0033\n}\n",
				"bytecode": {
					"linkReferences": {},
					"object": "6080604052348015600e575f80fd5b506111118061001c5f395ff3fe608060405234801561000f575f80fd5b506004361061004a575f3560e01c806305a1b4a91461004e57806312e7ee1c146100815780635dfd9be2146100b15780637c9cd2bc146100e1575b5f80fd5b6100686004803603810190610063919061081a565b6100fd565b6040516100789493929190610910565b60405180910390f35b61009b6004803603810190610096919061095a565b610202565b6040516100a89190610b15565b60405180910390f35b6100cb60048036038101906100c69190610b5f565b6103d1565b6040516100d89190610bea565b60405180910390f35b6100fb60048036038101906100f69190610d36565b61058e565b005b5f602052815f5260405f208181548110610115575f80fd5b905f5260205f2090600402015f9150915050805f015f9054906101000a900473ffffffffffffffffffffffffffffffffffffffff169080600101805461015a90610daa565b80601f016020809104026020016040519081016040528092919081815260200182805461018690610daa565b80156101d15780601f106101a8576101008083540402835291602001916101d1565b820191905f5260205f20905b8154815290600101906020018083116101b457829003601f168201915b505050505090806002015490806003015f9054906101000a90046fffffffffffffffffffffffffffffffff16905084565b60605f808373ffffffffffffffffffffffffffffffffffffffff1673ffffffffffffffffffffffffffffffffffffffff1681526020019081526020015f20805480602002602001604051908101604052809291908181526020015f905b828210156103c6578382905f5260205f2090600402016040518060800160405290815f82015f9054906101000a900473ffffffffffffffffffffffffffffffffffffffff1673ffffffffffffffffffffffffffffffffffffffff1673ffffffffffffffffffffffffffffffffffffffff1681526020016001820180546102e490610daa565b80601f016020809104026020016040519081016040528092919081815260200182805461031090610daa565b801561035b5780601f106103325761010080835404028352916020019161035b565b820191905f5260205f20905b81548152906001019060200180831161033e57829003601f168201915b5050505050815260200160028201548152602001600382015f9054906101000a90046fffffffffffffffffffffffffffffffff166fffffffffffffffffffffffffffffffff166fffffffffffffffffffffffffffffffff16815250508152602001906001019061025f565b505050509050919050565b6103d961072f565b5f803373ffffffffffffffffffffffffffffffffffffffff1673ffffffffffffffffffffffffffffffffffffffff1681526020019081526020015f20826fffffffffffffffffffffffffffffffff168154811061043957610438610dda565b5b905f5260205f2090600402016040518060800160405290815f82015f9054906101000a900473ffffffffffffffffffffffffffffffffffffffff1673ffffffffffffffffffffffffffffffffffffffff1673ffffffffffffffffffffffffffffffffffffffff1681526020016001820180546104b490610daa565b80601f01602080910402602001604051908101604052809291908181526020018280546104e090610daa565b801561052b5780601f106105025761010080835404028352916020019161052b565b820191905f5260205f20905b81548152906001019060200180831161050e57829003601f168201915b5050505050815260200160028201548152602001600382015f9054906101000a90046fffffffffffffffffffffffffffffffff166fffffffffffffffffffffffffffffffff166fffffffffffffffffffffffffffffffff16815250509050919050565b61011861ffff16815111156105d8576040517f08c379a00000000000000000000000000000000000000000000000000000000081526004016105cf90610e51565b60405180910390fd5b5f60405180608001604052803373ffffffffffffffffffffffffffffffffffffffff1681526020018381526020014281526020015f6fffffffffffffffffffffffffffffffff1681525090505f803373ffffffffffffffffffffffffffffffffffffffff1673ffffffffffffffffffffffffffffffffffffffff1681526020019081526020015f2081908060018154018082558091505060019003905f5260205f2090600402015f909190919091505f820151815f015f6101000a81548173ffffffffffffffffffffffffffffffffffffffff021916908373ffffffffffffffffffffffffffffffffffffffff16021790555060208201518160010190816106e0919061100c565b50604082015181600201556060820151816003015f6101000a8154816fffffffffffffffffffffffffffffffff02191690836fffffffffffffffffffffffffffffffff16021790555050505050565b60405180608001604052805f73ffffffffffffffffffffffffffffffffffffffff168152602001606081526020015f81526020015f6fffffffffffffffffffffffffffffffff1681525090565b5f604051905090565b5f80fd5b5f80fd5b5f73ffffffffffffffffffffffffffffffffffffffff82169050919050565b5f6107b68261078d565b9050919050565b6107c6816107ac565b81146107d0575f80fd5b50565b5f813590506107e1816107bd565b92915050565b5f819050919050565b6107f9816107e7565b8114610803575f80fd5b50565b5f81359050610814816107f0565b92915050565b5f80604083850312156108305761082f610785565b5b5f61083d858286016107d3565b925050602061084e85828601610806565b9150509250929050565b610861816107ac565b82525050565b5f81519050919050565b5f82825260208201905092915050565b8281835e5f83830152505050565b5f601f19601f8301169050919050565b5f6108a982610867565b6108b38185610871565b93506108c3818560208601610881565b6108cc8161088f565b840191505092915050565b6108e0816107e7565b82525050565b5f6fffffffffffffffffffffffffffffffff82169050919050565b61090a816108e6565b82525050565b5f6080820190506109235f830187610858565b8181036020830152610935818661089f565b905061094460408301856108d7565b6109516060830184610901565b95945050505050565b5f6020828403121561096f5761096e610785565b5b5f61097c848285016107d3565b91505092915050565b5f81519050919050565b5f82825260208201905092915050565b5f819050602082019050919050565b6109b7816107ac565b82525050565b5f82825260208201905092915050565b5f6109d782610867565b6109e181856109bd565b93506109f1818560208601610881565b6109fa8161088f565b840191505092915050565b610a0e816107e7565b82525050565b610a1d816108e6565b82525050565b5f608083015f830151610a385f8601826109ae565b5060208301518482036020860152610a5082826109cd565b9150506040830151610a656040860182610a05565b506060830151610a786060860182610a14565b508091505092915050565b5f610a8e8383610a23565b905092915050565b5f602082019050919050565b5f610aac82610985565b610ab6818561098f565b935083602082028501610ac88561099f565b805f5b85811015610b035784840389528151610ae48582610a83565b9450610aef83610a96565b925060208a01995050600181019050610acb565b50829750879550505050505092915050565b5f6020820190508181035f830152610b2d8184610aa2565b905092915050565b610b3e816108e6565b8114610b48575f80fd5b50565b5f81359050610b5981610b35565b92915050565b5f60208284031215610b7457610b73610785565b5b5f610b8184828501610b4b565b91505092915050565b5f608083015f830151610b9f5f8601826109ae565b5060208301518482036020860152610bb782826109cd565b9150506040830151610bcc6040860182610a05565b506060830151610bdf6060860182610a14565b508091505092915050565b5f6020820190508181035f830152610c028184610b8a565b905092915050565b5f80fd5b5f80fd5b7f4e487b71000000000000000000000000000000000000000000000000000000005f52604160045260245ffd5b610c488261088f565b810181811067ffffffffffffffff82111715610c6757610c66610c12565b5b80604052505050565b5f610c7961077c565b9050610c858282610c3f565b919050565b5f67ffffffffffffffff821115610ca457610ca3610c12565b5b610cad8261088f565b9050602081019050919050565b828183375f83830152505050565b5f610cda610cd584610c8a565b610c70565b905082815260208101848484011115610cf657610cf5610c0e565b5b610d01848285610cba565b509392505050565b5f82601f830112610d1d57610d1c610c0a565b5b8135610d2d848260208601610cc8565b91505092915050565b5f60208284031215610d4b57610d4a610785565b5b5f82013567ffffffffffffffff811115610d6857610d67610789565b5b610d7484828501610d09565b91505092915050565b7f4e487b71000000000000000000000000000000000000000000000000000000005f52602260045260245ffd5b5f6002820490506001821680610dc157607f821691505b602082108103610dd457610dd3610d7d565b5b50919050565b7f4e487b71000000000000000000000000000000000000000000000000000000005f52603260045260245ffd5b7f546f6f206c6f6e672062726f21000000000000000000000000000000000000005f82015250565b5f610e3b600d83610871565b9150610e4682610e07565b602082019050919050565b5f6020820190508181035f830152610e6881610e2f565b9050919050565b5f819050815f5260205f209050919050565b5f6020601f8301049050919050565b5f82821b905092915050565b5f60088302610ecb7fffffffffffffffffffffffffffffffffffffffffffffffffffffffffffffffff82610e90565b610ed58683610e90565b95508019841693508086168417925050509392505050565b5f819050919050565b5f610f10610f0b610f06846107e7565b610eed565b6107e7565b9050919050565b5f819050919050565b610f2983610ef6565b610f3d610f3582610f17565b848454610e9c565b825550505050565b5f90565b610f51610f45565b610f5c818484610f20565b505050565b5b81811015610f7f57610f745f82610f49565b600181019050610f62565b5050565b601f821115610fc457610f9581610e6f565b610f9e84610e81565b81016020851015610fad578190505b610fc1610fb985610e81565b830182610f61565b50505b505050565b5f82821c905092915050565b5f610fe45f1984600802610fc9565b1980831691505092915050565b5f610ffc8383610fd5565b9150826002028217905092915050565b61101582610867565b67ffffffffffffffff81111561102e5761102d610c12565b5b6110388254610daa565b611043828285610f83565b5f60209050601f831160018114611074575f8415611062578287015190505b61106c8582610ff1565b8655506110d3565b601f19841661108286610e6f565b5f5b828110156110a957848901518255600182019150602085019450602081019050611084565b868310156110c657848901516110c2601f891682610fd5565b8355505b6001600288020188555050505b50505050505056fea2646970667358221220774d48bef50a2e3f663b59b541086eca3da6226d79489809fe5b43002eb1f81964736f6c634300081a0033",
					"opcodes": "PUSH1 0x80 PUSH1 0x40 MSTORE CALLVALUE DUP1 ISZERO PUSH1 0xE JUMPI PUSH0 DUP1 REVERT JUMPDEST POP PUSH2 0x1111 DUP1 PUSH2 0x1C PUSH0 CODECOPY PUSH0 RETURN INVALID PUSH1 0x80 PUSH1 0x40 MSTORE CALLVALUE DUP1 ISZERO PUSH2 0xF JUMPI PUSH0 DUP1 REVERT JUMPDEST POP PUSH1 0x4 CALLDATASIZE LT PUSH2 0x4A JUMPI PUSH0 CALLDATALOAD PUSH1 0xE0 SHR DUP1 PUSH4 0x5A1B4A9 EQ PUSH2 0x4E JUMPI DUP1 PUSH4 0x12E7EE1C EQ PUSH2 0x81 JUMPI DUP1 PUSH4 0x5DFD9BE2 EQ PUSH2 0xB1 JUMPI DUP1 PUSH4 0x7C9CD2BC EQ PUSH2 0xE1 JUMPI JUMPDEST PUSH0 DUP1 REVERT JUMPDEST PUSH2 0x68 PUSH1 0x4 DUP1 CALLDATASIZE SUB DUP2 ADD SWAP1 PUSH2 0x63 SWAP2 SWAP1 PUSH2 0x81A JUMP JUMPDEST PUSH2 0xFD JUMP JUMPDEST PUSH1 0x40 MLOAD PUSH2 0x78 SWAP5 SWAP4 SWAP3 SWAP2 SWAP1 PUSH2 0x910 JUMP JUMPDEST PUSH1 0x40 MLOAD DUP1 SWAP2 SUB SWAP1 RETURN JUMPDEST PUSH2 0x9B PUSH1 0x4 DUP1 CALLDATASIZE SUB DUP2 ADD SWAP1 PUSH2 0x96 SWAP2 SWAP1 PUSH2 0x95A JUMP JUMPDEST PUSH2 0x202 JUMP JUMPDEST PUSH1 0x40 MLOAD PUSH2 0xA8 SWAP2 SWAP1 PUSH2 0xB15 JUMP JUMPDEST PUSH1 0x40 MLOAD DUP1 SWAP2 SUB SWAP1 RETURN JUMPDEST PUSH2 0xCB PUSH1 0x4 DUP1 CALLDATASIZE SUB DUP2 ADD SWAP1 PUSH2 0xC6 SWAP2 SWAP1 PUSH2 0xB5F JUMP JUMPDEST PUSH2 0x3D1 JUMP JUMPDEST PUSH1 0x40 MLOAD PUSH2 0xD8 SWAP2 SWAP1 PUSH2 0xBEA JUMP JUMPDEST PUSH1 0x40 MLOAD DUP1 SWAP2 SUB SWAP1 RETURN JUMPDEST PUSH2 0xFB PUSH1 0x4 DUP1 CALLDATASIZE SUB DUP2 ADD SWAP1 PUSH2 0xF6 SWAP2 SWAP1 PUSH2 0xD36 JUMP JUMPDEST PUSH2 0x58E JUMP JUMPDEST STOP JUMPDEST PUSH0 PUSH1 0x20 MSTORE DUP2 PUSH0 MSTORE PUSH1 0x40 PUSH0 KECCAK256 DUP2 DUP2 SLOAD DUP2 LT PUSH2 0x115 JUMPI PUSH0 DUP1 REVERT JUMPDEST SWAP1 PUSH0 MSTORE PUSH1 0x20 PUSH0 KECCAK256 SWAP1 PUSH1 0x4 MUL ADD PUSH0 SWAP2 POP SWAP2 POP POP DUP1 PUSH0 ADD PUSH0 SWAP1 SLOAD SWAP1 PUSH2 0x100 EXP SWAP1 DIV PUSH20 0xFFFFFFFFFFFFFFFFFFFFFFFFFFFFFFFFFFFFFFFF AND SWAP1 DUP1 PUSH1 0x1 ADD DUP1 SLOAD PUSH2 0x15A SWAP1 PUSH2 0xDAA JUMP JUMPDEST DUP1 PUSH1 0x1F ADD PUSH1 0x20 DUP1 SWAP2 DIV MUL PUSH1 0x20 ADD PUSH1 0x40 MLOAD SWAP1 DUP2 ADD PUSH1 0x40 MSTORE DUP1 SWAP3 SWAP2 SWAP1 DUP2 DUP2 MSTORE PUSH1 0x20 ADD DUP3 DUP1 SLOAD PUSH2 0x186 SWAP1 PUSH2 0xDAA JUMP JUMPDEST DUP1 ISZERO PUSH2 0x1D1 JUMPI DUP1 PUSH1 0x1F LT PUSH2 0x1A8 JUMPI PUSH2 0x100 DUP1 DUP4 SLOAD DIV MUL DUP4 MSTORE SWAP2 PUSH1 0x20 ADD SWAP2 PUSH2 0x1D1 JUMP JUMPDEST DUP3 ADD SWAP2 SWAP1 PUSH0 MSTORE PUSH1 0x20 PUSH0 KECCAK256 SWAP1 JUMPDEST DUP2 SLOAD DUP2 MSTORE SWAP1 PUSH1 0x1 ADD SWAP1 PUSH1 0x20 ADD DUP1 DUP4 GT PUSH2 0x1B4 JUMPI DUP3 SWAP1 SUB PUSH1 0x1F AND DUP3 ADD SWAP2 JUMPDEST POP POP POP POP POP SWAP1 DUP1 PUSH1 0x2 ADD SLOAD SWAP1 DUP1 PUSH1 0x3 ADD PUSH0 SWAP1 SLOAD SWAP1 PUSH2 0x100 EXP SWAP1 DIV PUSH16 0xFFFFFFFFFFFFFFFFFFFFFFFFFFFFFFFF AND SWAP1 POP DUP5 JUMP JUMPDEST PUSH1 0x60 PUSH0 DUP1 DUP4 PUSH20 0xFFFFFFFFFFFFFFFFFFFFFFFFFFFFFFFFFFFFFFFF AND PUSH20 0xFFFFFFFFFFFFFFFFFFFFFFFFFFFFFFFFFFFFFFFF AND DUP2 MSTORE PUSH1 0x20 ADD SWAP1 DUP2 MSTORE PUSH1 0x20 ADD PUSH0 KECCAK256 DUP1 SLOAD DUP1 PUSH1 0x20 MUL PUSH1 0x20 ADD PUSH1 0x40 MLOAD SWAP1 DUP2 ADD PUSH1 0x40 MSTORE DUP1 SWAP3 SWAP2 SWAP1 DUP2 DUP2 MSTORE PUSH1 0x20 ADD PUSH0 SWAP1 JUMPDEST DUP3 DUP3 LT ISZERO PUSH2 0x3C6 JUMPI DUP4 DUP3 SWAP1 PUSH0 MSTORE PUSH1 0x20 PUSH0 KECCAK256 SWAP1 PUSH1 0x4 MUL ADD PUSH1 0x40 MLOAD DUP1 PUSH1 0x80 ADD PUSH1 0x40 MSTORE SWAP1 DUP2 PUSH0 DUP3 ADD PUSH0 SWAP1 SLOAD SWAP1 PUSH2 0x100 EXP SWAP1 DIV PUSH20 0xFFFFFFFFFFFFFFFFFFFFFFFFFFFFFFFFFFFFFFFF AND PUSH20 0xFFFFFFFFFFFFFFFFFFFFFFFFFFFFFFFFFFFFFFFF AND PUSH20 0xFFFFFFFFFFFFFFFFFFFFFFFFFFFFFFFFFFFFFFFF AND DUP2 MSTORE PUSH1 0x20 ADD PUSH1 0x1 DUP3 ADD DUP1 SLOAD PUSH2 0x2E4 SWAP1 PUSH2 0xDAA JUMP JUMPDEST DUP1 PUSH1 0x1F ADD PUSH1 0x20 DUP1 SWAP2 DIV MUL PUSH1 0x20 ADD PUSH1 0x40 MLOAD SWAP1 DUP2 ADD PUSH1 0x40 MSTORE DUP1 SWAP3 SWAP2 SWAP1 DUP2 DUP2 MSTORE PUSH1 0x20 ADD DUP3 DUP1 SLOAD PUSH2 0x310 SWAP1 PUSH2 0xDAA JUMP JUMPDEST DUP1 ISZERO PUSH2 0x35B JUMPI DUP1 PUSH1 0x1F LT PUSH2 0x332 JUMPI PUSH2 0x100 DUP1 DUP4 SLOAD DIV MUL DUP4 MSTORE SWAP2 PUSH1 0x20 ADD SWAP2 PUSH2 0x35B JUMP JUMPDEST DUP3 ADD SWAP2 SWAP1 PUSH0 MSTORE PUSH1 0x20 PUSH0 KECCAK256 SWAP1 JUMPDEST DUP2 SLOAD DUP2 MSTORE SWAP1 PUSH1 0x1 ADD SWAP1 PUSH1 0x20 ADD DUP1 DUP4 GT PUSH2 0x33E JUMPI DUP3 SWAP1 SUB PUSH1 0x1F AND DUP3 ADD SWAP2 JUMPDEST POP POP POP POP POP DUP2 MSTORE PUSH1 0x20 ADD PUSH1 0x2 DUP3 ADD SLOAD DUP2 MSTORE PUSH1 0x20 ADD PUSH1 0x3 DUP3 ADD PUSH0 SWAP1 SLOAD SWAP1 PUSH2 0x100 EXP SWAP1 DIV PUSH16 0xFFFFFFFFFFFFFFFFFFFFFFFFFFFFFFFF AND PUSH16 0xFFFFFFFFFFFFFFFFFFFFFFFFFFFFFFFF AND PUSH16 0xFFFFFFFFFFFFFFFFFFFFFFFFFFFFFFFF AND DUP2 MSTORE POP POP DUP2 MSTORE PUSH1 0x20 ADD SWAP1 PUSH1 0x1 ADD SWAP1 PUSH2 0x25F JUMP JUMPDEST POP POP POP POP SWAP1 POP SWAP2 SWAP1 POP JUMP JUMPDEST PUSH2 0x3D9 PUSH2 0x72F JUMP JUMPDEST PUSH0 DUP1 CALLER PUSH20 0xFFFFFFFFFFFFFFFFFFFFFFFFFFFFFFFFFFFFFFFF AND PUSH20 0xFFFFFFFFFFFFFFFFFFFFFFFFFFFFFFFFFFFFFFFF AND DUP2 MSTORE PUSH1 0x20 ADD SWAP1 DUP2 MSTORE PUSH1 0x20 ADD PUSH0 KECCAK256 DUP3 PUSH16 0xFFFFFFFFFFFFFFFFFFFFFFFFFFFFFFFF AND DUP2 SLOAD DUP2 LT PUSH2 0x439 JUMPI PUSH2 0x438 PUSH2 0xDDA JUMP JUMPDEST JUMPDEST SWAP1 PUSH0 MSTORE PUSH1 0x20 PUSH0 KECCAK256 SWAP1 PUSH1 0x4 MUL ADD PUSH1 0x40 MLOAD DUP1 PUSH1 0x80 ADD PUSH1 0x40 MSTORE SWAP1 DUP2 PUSH0 DUP3 ADD PUSH0 SWAP1 SLOAD SWAP1 PUSH2 0x100 EXP SWAP1 DIV PUSH20 0xFFFFFFFFFFFFFFFFFFFFFFFFFFFFFFFFFFFFFFFF AND PUSH20 0xFFFFFFFFFFFFFFFFFFFFFFFFFFFFFFFFFFFFFFFF AND PUSH20 0xFFFFFFFFFFFFFFFFFFFFFFFFFFFFFFFFFFFFFFFF AND DUP2 MSTORE PUSH1 0x20 ADD PUSH1 0x1 DUP3 ADD DUP1 SLOAD PUSH2 0x4B4 SWAP1 PUSH2 0xDAA JUMP JUMPDEST DUP1 PUSH1 0x1F ADD PUSH1 0x20 DUP1 SWAP2 DIV MUL PUSH1 0x20 ADD PUSH1 0x40 MLOAD SWAP1 DUP2 ADD PUSH1 0x40 MSTORE DUP1 SWAP3 SWAP2 SWAP1 DUP2 DUP2 MSTORE PUSH1 0x20 ADD DUP3 DUP1 SLOAD PUSH2 0x4E0 SWAP1 PUSH2 0xDAA JUMP JUMPDEST DUP1 ISZERO PUSH2 0x52B JUMPI DUP1 PUSH1 0x1F LT PUSH2 0x502 JUMPI PUSH2 0x100 DUP1 DUP4 SLOAD DIV MUL DUP4 MSTORE SWAP2 PUSH1 0x20 ADD SWAP2 PUSH2 0x52B JUMP JUMPDEST DUP3 ADD SWAP2 SWAP1 PUSH0 MSTORE PUSH1 0x20 PUSH0 KECCAK256 SWAP1 JUMPDEST DUP2 SLOAD DUP2 MSTORE SWAP1 PUSH1 0x1 ADD SWAP1 PUSH1 0x20 ADD DUP1 DUP4 GT PUSH2 0x50E JUMPI DUP3 SWAP1 SUB PUSH1 0x1F AND DUP3 ADD SWAP2 JUMPDEST POP POP POP POP POP DUP2 MSTORE PUSH1 0x20 ADD PUSH1 0x2 DUP3 ADD SLOAD DUP2 MSTORE PUSH1 0x20 ADD PUSH1 0x3 DUP3 ADD PUSH0 SWAP1 SLOAD SWAP1 PUSH2 0x100 EXP SWAP1 DIV PUSH16 0xFFFFFFFFFFFFFFFFFFFFFFFFFFFFFFFF AND PUSH16 0xFFFFFFFFFFFFFFFFFFFFFFFFFFFFFFFF AND PUSH16 0xFFFFFFFFFFFFFFFFFFFFFFFFFFFFFFFF AND DUP2 MSTORE POP POP SWAP1 POP SWAP2 SWAP1 POP JUMP JUMPDEST PUSH2 0x118 PUSH2 0xFFFF AND DUP2 MLOAD GT ISZERO PUSH2 0x5D8 JUMPI PUSH1 0x40 MLOAD PUSH32 0x8C379A000000000000000000000000000000000000000000000000000000000 DUP2 MSTORE PUSH1 0x4 ADD PUSH2 0x5CF SWAP1 PUSH2 0xE51 JUMP JUMPDEST PUSH1 0x40 MLOAD DUP1 SWAP2 SUB SWAP1 REVERT JUMPDEST PUSH0 PUSH1 0x40 MLOAD DUP1 PUSH1 0x80 ADD PUSH1 0x40 MSTORE DUP1 CALLER PUSH20 0xFFFFFFFFFFFFFFFFFFFFFFFFFFFFFFFFFFFFFFFF AND DUP2 MSTORE PUSH1 0x20 ADD DUP4 DUP2 MSTORE PUSH1 0x20 ADD TIMESTAMP DUP2 MSTORE PUSH1 0x20 ADD PUSH0 PUSH16 0xFFFFFFFFFFFFFFFFFFFFFFFFFFFFFFFF AND DUP2 MSTORE POP SWAP1 POP PUSH0 DUP1 CALLER PUSH20 0xFFFFFFFFFFFFFFFFFFFFFFFFFFFFFFFFFFFFFFFF AND PUSH20 0xFFFFFFFFFFFFFFFFFFFFFFFFFFFFFFFFFFFFFFFF AND DUP2 MSTORE PUSH1 0x20 ADD SWAP1 DUP2 MSTORE PUSH1 0x20 ADD PUSH0 KECCAK256 DUP2 SWAP1 DUP1 PUSH1 0x1 DUP2 SLOAD ADD DUP1 DUP3 SSTORE DUP1 SWAP2 POP POP PUSH1 0x1 SWAP1 SUB SWAP1 PUSH0 MSTORE PUSH1 0x20 PUSH0 KECCAK256 SWAP1 PUSH1 0x4 MUL ADD PUSH0 SWAP1 SWAP2 SWAP1 SWAP2 SWAP1 SWAP2 POP PUSH0 DUP3 ADD MLOAD DUP2 PUSH0 ADD PUSH0 PUSH2 0x100 EXP DUP2 SLOAD DUP2 PUSH20 0xFFFFFFFFFFFFFFFFFFFFFFFFFFFFFFFFFFFFFFFF MUL NOT AND SWAP1 DUP4 PUSH20 0xFFFFFFFFFFFFFFFFFFFFFFFFFFFFFFFFFFFFFFFF AND MUL OR SWAP1 SSTORE POP PUSH1 0x20 DUP3 ADD MLOAD DUP2 PUSH1 0x1 ADD SWAP1 DUP2 PUSH2 0x6E0 SWAP2 SWAP1 PUSH2 0x100C JUMP JUMPDEST POP PUSH1 0x40 DUP3 ADD MLOAD DUP2 PUSH1 0x2 ADD SSTORE PUSH1 0x60 DUP3 ADD MLOAD DUP2 PUSH1 0x3 ADD PUSH0 PUSH2 0x100 EXP DUP2 SLOAD DUP2 PUSH16 0xFFFFFFFFFFFFFFFFFFFFFFFFFFFFFFFF MUL NOT AND SWAP1 DUP4 PUSH16 0xFFFFFFFFFFFFFFFFFFFFFFFFFFFFFFFF AND MUL OR SWAP1 SSTORE POP POP POP POP POP JUMP JUMPDEST PUSH1 0x40 MLOAD DUP1 PUSH1 0x80 ADD PUSH1 0x40 MSTORE DUP1 PUSH0 PUSH20 0xFFFFFFFFFFFFFFFFFFFFFFFFFFFFFFFFFFFFFFFF AND DUP2 MSTORE PUSH1 0x20 ADD PUSH1 0x60 DUP2 MSTORE PUSH1 0x20 ADD PUSH0 DUP2 MSTORE PUSH1 0x20 ADD PUSH0 PUSH16 0xFFFFFFFFFFFFFFFFFFFFFFFFFFFFFFFF AND DUP2 MSTORE POP SWAP1 JUMP JUMPDEST PUSH0 PUSH1 0x40 MLOAD SWAP1 POP SWAP1 JUMP JUMPDEST PUSH0 DUP1 REVERT JUMPDEST PUSH0 DUP1 REVERT JUMPDEST PUSH0 PUSH20 0xFFFFFFFFFFFFFFFFFFFFFFFFFFFFFFFFFFFFFFFF DUP3 AND SWAP1 POP SWAP2 SWAP1 POP JUMP JUMPDEST PUSH0 PUSH2 0x7B6 DUP3 PUSH2 0x78D JUMP JUMPDEST SWAP1 POP SWAP2 SWAP1 POP JUMP JUMPDEST PUSH2 0x7C6 DUP2 PUSH2 0x7AC JUMP JUMPDEST DUP2 EQ PUSH2 0x7D0 JUMPI PUSH0 DUP1 REVERT JUMPDEST POP JUMP JUMPDEST PUSH0 DUP2 CALLDATALOAD SWAP1 POP PUSH2 0x7E1 DUP2 PUSH2 0x7BD JUMP JUMPDEST SWAP3 SWAP2 POP POP JUMP JUMPDEST PUSH0 DUP2 SWAP1 POP SWAP2 SWAP1 POP JUMP JUMPDEST PUSH2 0x7F9 DUP2 PUSH2 0x7E7 JUMP JUMPDEST DUP2 EQ PUSH2 0x803 JUMPI PUSH0 DUP1 REVERT JUMPDEST POP JUMP JUMPDEST PUSH0 DUP2 CALLDATALOAD SWAP1 POP PUSH2 0x814 DUP2 PUSH2 0x7F0 JUMP JUMPDEST SWAP3 SWAP2 POP POP JUMP JUMPDEST PUSH0 DUP1 PUSH1 0x40 DUP4 DUP6 SUB SLT ISZERO PUSH2 0x830 JUMPI PUSH2 0x82F PUSH2 0x785 JUMP JUMPDEST JUMPDEST PUSH0 PUSH2 0x83D DUP6 DUP3 DUP7 ADD PUSH2 0x7D3 JUMP JUMPDEST SWAP3 POP POP PUSH1 0x20 PUSH2 0x84E DUP6 DUP3 DUP7 ADD PUSH2 0x806 JUMP JUMPDEST SWAP2 POP POP SWAP3 POP SWAP3 SWAP1 POP JUMP JUMPDEST PUSH2 0x861 DUP2 PUSH2 0x7AC JUMP JUMPDEST DUP3 MSTORE POP POP JUMP JUMPDEST PUSH0 DUP2 MLOAD SWAP1 POP SWAP2 SWAP1 POP JUMP JUMPDEST PUSH0 DUP3 DUP3 MSTORE PUSH1 0x20 DUP3 ADD SWAP1 POP SWAP3 SWAP2 POP POP JUMP JUMPDEST DUP3 DUP2 DUP4 MCOPY PUSH0 DUP4 DUP4 ADD MSTORE POP POP POP JUMP JUMPDEST PUSH0 PUSH1 0x1F NOT PUSH1 0x1F DUP4 ADD AND SWAP1 POP SWAP2 SWAP1 POP JUMP JUMPDEST PUSH0 PUSH2 0x8A9 DUP3 PUSH2 0x867 JUMP JUMPDEST PUSH2 0x8B3 DUP2 DUP6 PUSH2 0x871 JUMP JUMPDEST SWAP4 POP PUSH2 0x8C3 DUP2 DUP6 PUSH1 0x20 DUP7 ADD PUSH2 0x881 JUMP JUMPDEST PUSH2 0x8CC DUP2 PUSH2 0x88F JUMP JUMPDEST DUP5 ADD SWAP2 POP POP SWAP3 SWAP2 POP POP JUMP JUMPDEST PUSH2 0x8E0 DUP2 PUSH2 0x7E7 JUMP JUMPDEST DUP3 MSTORE POP POP JUMP JUMPDEST PUSH0 PUSH16 0xFFFFFFFFFFFFFFFFFFFFFFFFFFFFFFFF DUP3 AND SWAP1 POP SWAP2 SWAP1 POP JUMP JUMPDEST PUSH2 0x90A DUP2 PUSH2 0x8E6 JUMP JUMPDEST DUP3 MSTORE POP POP JUMP JUMPDEST PUSH0 PUSH1 0x80 DUP3 ADD SWAP1 POP PUSH2 0x923 PUSH0 DUP4 ADD DUP8 PUSH2 0x858 JUMP JUMPDEST DUP2 DUP2 SUB PUSH1 0x20 DUP4 ADD MSTORE PUSH2 0x935 DUP2 DUP7 PUSH2 0x89F JUMP JUMPDEST SWAP1 POP PUSH2 0x944 PUSH1 0x40 DUP4 ADD DUP6 PUSH2 0x8D7 JUMP JUMPDEST PUSH2 0x951 PUSH1 0x60 DUP4 ADD DUP5 PUSH2 0x901 JUMP JUMPDEST SWAP6 SWAP5 POP POP POP POP POP JUMP JUMPDEST PUSH0 PUSH1 0x20 DUP3 DUP5 SUB SLT ISZERO PUSH2 0x96F JUMPI PUSH2 0x96E PUSH2 0x785 JUMP JUMPDEST JUMPDEST PUSH0 PUSH2 0x97C DUP5 DUP3 DUP6 ADD PUSH2 0x7D3 JUMP JUMPDEST SWAP2 POP POP SWAP3 SWAP2 POP POP JUMP JUMPDEST PUSH0 DUP2 MLOAD SWAP1 POP SWAP2 SWAP1 POP JUMP JUMPDEST PUSH0 DUP3 DUP3 MSTORE PUSH1 0x20 DUP3 ADD SWAP1 POP SWAP3 SWAP2 POP POP JUMP JUMPDEST PUSH0 DUP2 SWAP1 POP PUSH1 0x20 DUP3 ADD SWAP1 POP SWAP2 SWAP1 POP JUMP JUMPDEST PUSH2 0x9B7 DUP2 PUSH2 0x7AC JUMP JUMPDEST DUP3 MSTORE POP POP JUMP JUMPDEST PUSH0 DUP3 DUP3 MSTORE PUSH1 0x20 DUP3 ADD SWAP1 POP SWAP3 SWAP2 POP POP JUMP JUMPDEST PUSH0 PUSH2 0x9D7 DUP3 PUSH2 0x867 JUMP JUMPDEST PUSH2 0x9E1 DUP2 DUP6 PUSH2 0x9BD JUMP JUMPDEST SWAP4 POP PUSH2 0x9F1 DUP2 DUP6 PUSH1 0x20 DUP7 ADD PUSH2 0x881 JUMP JUMPDEST PUSH2 0x9FA DUP2 PUSH2 0x88F JUMP JUMPDEST DUP5 ADD SWAP2 POP POP SWAP3 SWAP2 POP POP JUMP JUMPDEST PUSH2 0xA0E DUP2 PUSH2 0x7E7 JUMP JUMPDEST DUP3 MSTORE POP POP JUMP JUMPDEST PUSH2 0xA1D DUP2 PUSH2 0x8E6 JUMP JUMPDEST DUP3 MSTORE POP POP JUMP JUMPDEST PUSH0 PUSH1 0x80 DUP4 ADD PUSH0 DUP4 ADD MLOAD PUSH2 0xA38 PUSH0 DUP7 ADD DUP3 PUSH2 0x9AE JUMP JUMPDEST POP PUSH1 0x20 DUP4 ADD MLOAD DUP5 DUP3 SUB PUSH1 0x20 DUP7 ADD MSTORE PUSH2 0xA50 DUP3 DUP3 PUSH2 0x9CD JUMP JUMPDEST SWAP2 POP POP PUSH1 0x40 DUP4 ADD MLOAD PUSH2 0xA65 PUSH1 0x40 DUP7 ADD DUP3 PUSH2 0xA05 JUMP JUMPDEST POP PUSH1 0x60 DUP4 ADD MLOAD PUSH2 0xA78 PUSH1 0x60 DUP7 ADD DUP3 PUSH2 0xA14 JUMP JUMPDEST POP DUP1 SWAP2 POP POP SWAP3 SWAP2 POP POP JUMP JUMPDEST PUSH0 PUSH2 0xA8E DUP4 DUP4 PUSH2 0xA23 JUMP JUMPDEST SWAP1 POP SWAP3 SWAP2 POP POP JUMP JUMPDEST PUSH0 PUSH1 0x20 DUP3 ADD SWAP1 POP SWAP2 SWAP1 POP JUMP JUMPDEST PUSH0 PUSH2 0xAAC DUP3 PUSH2 0x985 JUMP JUMPDEST PUSH2 0xAB6 DUP2 DUP6 PUSH2 0x98F JUMP JUMPDEST SWAP4 POP DUP4 PUSH1 0x20 DUP3 MUL DUP6 ADD PUSH2 0xAC8 DUP6 PUSH2 0x99F JUMP JUMPDEST DUP1 PUSH0 JUMPDEST DUP6 DUP2 LT ISZERO PUSH2 0xB03 JUMPI DUP5 DUP5 SUB DUP10 MSTORE DUP2 MLOAD PUSH2 0xAE4 DUP6 DUP3 PUSH2 0xA83 JUMP JUMPDEST SWAP5 POP PUSH2 0xAEF DUP4 PUSH2 0xA96 JUMP JUMPDEST SWAP3 POP PUSH1 0x20 DUP11 ADD SWAP10 POP POP PUSH1 0x1 DUP2 ADD SWAP1 POP PUSH2 0xACB JUMP JUMPDEST POP DUP3 SWAP8 POP DUP8 SWAP6 POP POP POP POP POP POP SWAP3 SWAP2 POP POP JUMP JUMPDEST PUSH0 PUSH1 0x20 DUP3 ADD SWAP1 POP DUP2 DUP2 SUB PUSH0 DUP4 ADD MSTORE PUSH2 0xB2D DUP2 DUP5 PUSH2 0xAA2 JUMP JUMPDEST SWAP1 POP SWAP3 SWAP2 POP POP JUMP JUMPDEST PUSH2 0xB3E DUP2 PUSH2 0x8E6 JUMP JUMPDEST DUP2 EQ PUSH2 0xB48 JUMPI PUSH0 DUP1 REVERT JUMPDEST POP JUMP JUMPDEST PUSH0 DUP2 CALLDATALOAD SWAP1 POP PUSH2 0xB59 DUP2 PUSH2 0xB35 JUMP JUMPDEST SWAP3 SWAP2 POP POP JUMP JUMPDEST PUSH0 PUSH1 0x20 DUP3 DUP5 SUB SLT ISZERO PUSH2 0xB74 JUMPI PUSH2 0xB73 PUSH2 0x785 JUMP JUMPDEST JUMPDEST PUSH0 PUSH2 0xB81 DUP5 DUP3 DUP6 ADD PUSH2 0xB4B JUMP JUMPDEST SWAP2 POP POP SWAP3 SWAP2 POP POP JUMP JUMPDEST PUSH0 PUSH1 0x80 DUP4 ADD PUSH0 DUP4 ADD MLOAD PUSH2 0xB9F PUSH0 DUP7 ADD DUP3 PUSH2 0x9AE JUMP JUMPDEST POP PUSH1 0x20 DUP4 ADD MLOAD DUP5 DUP3 SUB PUSH1 0x20 DUP7 ADD MSTORE PUSH2 0xBB7 DUP3 DUP3 PUSH2 0x9CD JUMP JUMPDEST SWAP2 POP POP PUSH1 0x40 DUP4 ADD MLOAD PUSH2 0xBCC PUSH1 0x40 DUP7 ADD DUP3 PUSH2 0xA05 JUMP JUMPDEST POP PUSH1 0x60 DUP4 ADD MLOAD PUSH2 0xBDF PUSH1 0x60 DUP7 ADD DUP3 PUSH2 0xA14 JUMP JUMPDEST POP DUP1 SWAP2 POP POP SWAP3 SWAP2 POP POP JUMP JUMPDEST PUSH0 PUSH1 0x20 DUP3 ADD SWAP1 POP DUP2 DUP2 SUB PUSH0 DUP4 ADD MSTORE PUSH2 0xC02 DUP2 DUP5 PUSH2 0xB8A JUMP JUMPDEST SWAP1 POP SWAP3 SWAP2 POP POP JUMP JUMPDEST PUSH0 DUP1 REVERT JUMPDEST PUSH0 DUP1 REVERT JUMPDEST PUSH32 0x4E487B7100000000000000000000000000000000000000000000000000000000 PUSH0 MSTORE PUSH1 0x41 PUSH1 0x4 MSTORE PUSH1 0x24 PUSH0 REVERT JUMPDEST PUSH2 0xC48 DUP3 PUSH2 0x88F JUMP JUMPDEST DUP2 ADD DUP2 DUP2 LT PUSH8 0xFFFFFFFFFFFFFFFF DUP3 GT OR ISZERO PUSH2 0xC67 JUMPI PUSH2 0xC66 PUSH2 0xC12 JUMP JUMPDEST JUMPDEST DUP1 PUSH1 0x40 MSTORE POP POP POP JUMP JUMPDEST PUSH0 PUSH2 0xC79 PUSH2 0x77C JUMP JUMPDEST SWAP1 POP PUSH2 0xC85 DUP3 DUP3 PUSH2 0xC3F JUMP JUMPDEST SWAP2 SWAP1 POP JUMP JUMPDEST PUSH0 PUSH8 0xFFFFFFFFFFFFFFFF DUP3 GT ISZERO PUSH2 0xCA4 JUMPI PUSH2 0xCA3 PUSH2 0xC12 JUMP JUMPDEST JUMPDEST PUSH2 0xCAD DUP3 PUSH2 0x88F JUMP JUMPDEST SWAP1 POP PUSH1 0x20 DUP2 ADD SWAP1 POP SWAP2 SWAP1 POP JUMP JUMPDEST DUP3 DUP2 DUP4 CALLDATACOPY PUSH0 DUP4 DUP4 ADD MSTORE POP POP POP JUMP JUMPDEST PUSH0 PUSH2 0xCDA PUSH2 0xCD5 DUP5 PUSH2 0xC8A JUMP JUMPDEST PUSH2 0xC70 JUMP JUMPDEST SWAP1 POP DUP3 DUP2 MSTORE PUSH1 0x20 DUP2 ADD DUP5 DUP5 DUP5 ADD GT ISZERO PUSH2 0xCF6 JUMPI PUSH2 0xCF5 PUSH2 0xC0E JUMP JUMPDEST JUMPDEST PUSH2 0xD01 DUP5 DUP3 DUP6 PUSH2 0xCBA JUMP JUMPDEST POP SWAP4 SWAP3 POP POP POP JUMP JUMPDEST PUSH0 DUP3 PUSH1 0x1F DUP4 ADD SLT PUSH2 0xD1D JUMPI PUSH2 0xD1C PUSH2 0xC0A JUMP JUMPDEST JUMPDEST DUP2 CALLDATALOAD PUSH2 0xD2D DUP5 DUP3 PUSH1 0x20 DUP7 ADD PUSH2 0xCC8 JUMP JUMPDEST SWAP2 POP POP SWAP3 SWAP2 POP POP JUMP JUMPDEST PUSH0 PUSH1 0x20 DUP3 DUP5 SUB SLT ISZERO PUSH2 0xD4B JUMPI PUSH2 0xD4A PUSH2 0x785 JUMP JUMPDEST JUMPDEST PUSH0 DUP3 ADD CALLDATALOAD PUSH8 0xFFFFFFFFFFFFFFFF DUP2 GT ISZERO PUSH2 0xD68 JUMPI PUSH2 0xD67 PUSH2 0x789 JUMP JUMPDEST JUMPDEST PUSH2 0xD74 DUP5 DUP3 DUP6 ADD PUSH2 0xD09 JUMP JUMPDEST SWAP2 POP POP SWAP3 SWAP2 POP POP JUMP JUMPDEST PUSH32 0x4E487B7100000000000000000000000000000000000000000000000000000000 PUSH0 MSTORE PUSH1 0x22 PUSH1 0x4 MSTORE PUSH1 0x24 PUSH0 REVERT JUMPDEST PUSH0 PUSH1 0x2 DUP3 DIV SWAP1 POP PUSH1 0x1 DUP3 AND DUP1 PUSH2 0xDC1 JUMPI PUSH1 0x7F DUP3 AND SWAP2 POP JUMPDEST PUSH1 0x20 DUP3 LT DUP2 SUB PUSH2 0xDD4 JUMPI PUSH2 0xDD3 PUSH2 0xD7D JUMP JUMPDEST JUMPDEST POP SWAP2 SWAP1 POP JUMP JUMPDEST PUSH32 0x4E487B7100000000000000000000000000000000000000000000000000000000 PUSH0 MSTORE PUSH1 0x32 PUSH1 0x4 MSTORE PUSH1 0x24 PUSH0 REVERT JUMPDEST PUSH32 0x546F6F206C6F6E672062726F2100000000000000000000000000000000000000 PUSH0 DUP3 ADD MSTORE POP JUMP JUMPDEST PUSH0 PUSH2 0xE3B PUSH1 0xD DUP4 PUSH2 0x871 JUMP JUMPDEST SWAP2 POP PUSH2 0xE46 DUP3 PUSH2 0xE07 JUMP JUMPDEST PUSH1 0x20 DUP3 ADD SWAP1 POP SWAP2 SWAP1 POP JUMP JUMPDEST PUSH0 PUSH1 0x20 DUP3 ADD SWAP1 POP DUP2 DUP2 SUB PUSH0 DUP4 ADD MSTORE PUSH2 0xE68 DUP2 PUSH2 0xE2F JUMP JUMPDEST SWAP1 POP SWAP2 SWAP1 POP JUMP JUMPDEST PUSH0 DUP2 SWAP1 POP DUP2 PUSH0 MSTORE PUSH1 0x20 PUSH0 KECCAK256 SWAP1 POP SWAP2 SWAP1 POP JUMP JUMPDEST PUSH0 PUSH1 0x20 PUSH1 0x1F DUP4 ADD DIV SWAP1 POP SWAP2 SWAP1 POP JUMP JUMPDEST PUSH0 DUP3 DUP3 SHL SWAP1 POP SWAP3 SWAP2 POP POP JUMP JUMPDEST PUSH0 PUSH1 0x8 DUP4 MUL PUSH2 0xECB PUSH32 0xFFFFFFFFFFFFFFFFFFFFFFFFFFFFFFFFFFFFFFFFFFFFFFFFFFFFFFFFFFFFFFFF DUP3 PUSH2 0xE90 JUMP JUMPDEST PUSH2 0xED5 DUP7 DUP4 PUSH2 0xE90 JUMP JUMPDEST SWAP6 POP DUP1 NOT DUP5 AND SWAP4 POP DUP1 DUP7 AND DUP5 OR SWAP3 POP POP POP SWAP4 SWAP3 POP POP POP JUMP JUMPDEST PUSH0 DUP2 SWAP1 POP SWAP2 SWAP1 POP JUMP JUMPDEST PUSH0 PUSH2 0xF10 PUSH2 0xF0B PUSH2 0xF06 DUP5 PUSH2 0x7E7 JUMP JUMPDEST PUSH2 0xEED JUMP JUMPDEST PUSH2 0x7E7 JUMP JUMPDEST SWAP1 POP SWAP2 SWAP1 POP JUMP JUMPDEST PUSH0 DUP2 SWAP1 POP SWAP2 SWAP1 POP JUMP JUMPDEST PUSH2 0xF29 DUP4 PUSH2 0xEF6 JUMP JUMPDEST PUSH2 0xF3D PUSH2 0xF35 DUP3 PUSH2 0xF17 JUMP JUMPDEST DUP5 DUP5 SLOAD PUSH2 0xE9C JUMP JUMPDEST DUP3 SSTORE POP POP POP POP JUMP JUMPDEST PUSH0 SWAP1 JUMP JUMPDEST PUSH2 0xF51 PUSH2 0xF45 JUMP JUMPDEST PUSH2 0xF5C DUP2 DUP5 DUP5 PUSH2 0xF20 JUMP JUMPDEST POP POP POP JUMP JUMPDEST JUMPDEST DUP2 DUP2 LT ISZERO PUSH2 0xF7F JUMPI PUSH2 0xF74 PUSH0 DUP3 PUSH2 0xF49 JUMP JUMPDEST PUSH1 0x1 DUP2 ADD SWAP1 POP PUSH2 0xF62 JUMP JUMPDEST POP POP JUMP JUMPDEST PUSH1 0x1F DUP3 GT ISZERO PUSH2 0xFC4 JUMPI PUSH2 0xF95 DUP2 PUSH2 0xE6F JUMP JUMPDEST PUSH2 0xF9E DUP5 PUSH2 0xE81 JUMP JUMPDEST DUP2 ADD PUSH1 0x20 DUP6 LT ISZERO PUSH2 0xFAD JUMPI DUP2 SWAP1 POP JUMPDEST PUSH2 0xFC1 PUSH2 0xFB9 DUP6 PUSH2 0xE81 JUMP JUMPDEST DUP4 ADD DUP3 PUSH2 0xF61 JUMP JUMPDEST POP POP JUMPDEST POP POP POP JUMP JUMPDEST PUSH0 DUP3 DUP3 SHR SWAP1 POP SWAP3 SWAP2 POP POP JUMP JUMPDEST PUSH0 PUSH2 0xFE4 PUSH0 NOT DUP5 PUSH1 0x8 MUL PUSH2 0xFC9 JUMP JUMPDEST NOT DUP1 DUP4 AND SWAP2 POP POP SWAP3 SWAP2 POP POP JUMP JUMPDEST PUSH0 PUSH2 0xFFC DUP4 DUP4 PUSH2 0xFD5 JUMP JUMPDEST SWAP2 POP DUP3 PUSH1 0x2 MUL DUP3 OR SWAP1 POP SWAP3 SWAP2 POP POP JUMP JUMPDEST PUSH2 0x1015 DUP3 PUSH2 0x867 JUMP JUMPDEST PUSH8 0xFFFFFFFFFFFFFFFF DUP2 GT ISZERO PUSH2 0x102E JUMPI PUSH2 0x102D PUSH2 0xC12 JUMP JUMPDEST JUMPDEST PUSH2 0x1038 DUP3 SLOAD PUSH2 0xDAA JUMP JUMPDEST PUSH2 0x1043 DUP3 DUP3 DUP6 PUSH2 0xF83 JUMP JUMPDEST PUSH0 PUSH1 0x20 SWAP1 POP PUSH1 0x1F DUP4 GT PUSH1 0x1 DUP2 EQ PUSH2 0x1074 JUMPI PUSH0 DUP5 ISZERO PUSH2 0x1062 JUMPI DUP3 DUP8 ADD MLOAD SWAP1 POP JUMPDEST PUSH2 0x106C DUP6 DUP3 PUSH2 0xFF1 JUMP JUMPDEST DUP7 SSTORE POP PUSH2 0x10D3 JUMP JUMPDEST PUSH1 0x1F NOT DUP5 AND PUSH2 0x1082 DUP7 PUSH2 0xE6F JUMP JUMPDEST PUSH0 JUMPDEST DUP3 DUP2 LT ISZERO PUSH2 0x10A9 JUMPI DUP5 DUP10 ADD MLOAD DUP3 SSTORE PUSH1 0x1 DUP3 ADD SWAP2 POP PUSH1 0x20 DUP6 ADD SWAP5 POP PUSH1 0x20 DUP2 ADD SWAP1 POP PUSH2 0x1084 JUMP JUMPDEST DUP7 DUP4 LT ISZERO PUSH2 0x10C6 JUMPI DUP5 DUP10 ADD MLOAD PUSH2 0x10C2 PUSH1 0x1F DUP10 AND DUP3 PUSH2 0xFD5 JUMP JUMPDEST DUP4 SSTORE POP JUMPDEST PUSH1 0x1 PUSH1 0x2 DUP9 MUL ADD DUP9 SSTORE POP POP POP JUMPDEST POP POP POP POP POP POP JUMP INVALID LOG2 PUSH5 0x6970667358 0x22 SLT KECCAK256 PUSH24 0x4D48BEF50A2E3F663B59B541086ECA3DA6226D79489809FE JUMPDEST NUMBER STOP 0x2E 0xB1 0xF8 NOT PUSH5 0x736F6C6343 STOP ADDMOD BYTE STOP CALLER "
				},
				"gasEstimates": {
					"creation": {
						"codeDepositCost": "873800",
						"executionCost": "907",
						"totalCost": "874707"
					},
					"external": {
						"createTweet(string)": "infinite",
						"getAllTweets(address)": "infinite",
						"getTweet(uint128)": "infinite",
						"tweets(address,uint256)": "infinite"
					}
				},
				"methodIdentifiers": {
					"createTweet(string)": "7c9cd2bc",
					"getAllTweets(address)": "12e7ee1c",
					"getTweet(uint128)": "5dfd9be2",
					"tweets(address,uint256)": "05a1b4a9"
				}
			},
			"storageLayout": {
				"storage": [
					{
						"astId": 19,
						"contract": "contracts/Tweet-require.sol:TwitterStruct",
						"label": "tweets",
						"offset": 0,
						"slot": "0",
						"type": "t_mapping(t_address,t_array(t_struct(Tweet)10_storage)dyn_storage)"
					}
				],
				"types": {
					"t_address": {
						"encoding": "inplace",
						"label": "address",
						"numberOfBytes": "20"
					},
					"t_array(t_struct(Tweet)10_storage)dyn_storage": {
						"base": "t_struct(Tweet)10_storage",
						"encoding": "dynamic_array",
						"label": "struct TwitterStruct.Tweet[]",
						"numberOfBytes": "32"
					},
					"t_mapping(t_address,t_array(t_struct(Tweet)10_storage)dyn_storage)": {
						"encoding": "mapping",
						"key": "t_address",
						"label": "mapping(address => struct TwitterStruct.Tweet[])",
						"numberOfBytes": "32",
						"value": "t_array(t_struct(Tweet)10_storage)dyn_storage"
					},
					"t_string_storage": {
						"encoding": "bytes",
						"label": "string",
						"numberOfBytes": "32"
					},
					"t_struct(Tweet)10_storage": {
						"encoding": "inplace",
						"label": "struct TwitterStruct.Tweet",
						"members": [
							{
								"astId": 3,
								"contract": "contracts/Tweet-require.sol:TwitterStruct",
								"label": "author",
								"offset": 0,
								"slot": "0",
								"type": "t_address"
							},
							{
								"astId": 5,
								"contract": "contracts/Tweet-require.sol:TwitterStruct",
								"label": "content",
								"offset": 0,
								"slot": "1",
								"type": "t_string_storage"
							},
							{
								"astId": 7,
								"contract": "contracts/Tweet-require.sol:TwitterStruct",
								"label": "timestamp",
								"offset": 0,
								"slot": "2",
								"type": "t_uint256"
							},
							{
								"astId": 9,
								"contract": "contracts/Tweet-require.sol:TwitterStruct",
								"label": "likes",
								"offset": 0,
								"slot": "3",
								"type": "t_uint128"
							}
						],
						"numberOfBytes": "128"
					},
					"t_uint128": {
						"encoding": "inplace",
						"label": "uint128",
						"numberOfBytes": "16"
					},
					"t_uint256": {
						"encoding": "inplace",
						"label": "uint256",
						"numberOfBytes": "32"
					}
				}
			},
			"userdoc": {
				"kind": "user",
				"methods": {},
				"version": 1
			}
		}
	}
}