{
	"contracts/06TwitterEvents.sol": {
		"TwitterStruct": {
			"abi": [
				{
					"inputs": [],
					"stateMutability": "nonpayable",
					"type": "constructor"
				},
				{
					"anonymous": false,
					"inputs": [
						{
							"indexed": false,
							"internalType": "uint256",
							"name": "_id",
							"type": "uint256"
						},
						{
							"indexed": false,
							"internalType": "address",
							"name": "_author",
							"type": "address"
						},
						{
							"indexed": false,
							"internalType": "string",
							"name": "_content",
							"type": "string"
						},
						{
							"indexed": false,
							"internalType": "uint256",
							"name": "_timestamp",
							"type": "uint256"
						}
					],
					"name": "TweetCreated",
					"type": "event"
				},
				{
					"anonymous": false,
					"inputs": [
						{
							"indexed": false,
							"internalType": "address",
							"name": "liker",
							"type": "address"
						},
						{
							"indexed": false,
							"internalType": "uint256",
							"name": "_Tid",
							"type": "uint256"
						},
						{
							"indexed": false,
							"internalType": "uint256",
							"name": "_likeCount",
							"type": "uint256"
						}
					],
					"name": "TweetLiked",
					"type": "event"
				},
				{
					"inputs": [
						{
							"internalType": "uint16",
							"name": "_newMaxTweetLength",
							"type": "uint16"
						}
					],
					"name": "changeTweetLength",
					"outputs": [],
					"stateMutability": "nonpayable",
					"type": "function"
				},
				{
					"inputs": [
						{
							"internalType": "string",
							"name": "_tweet",
							"type": "string"
						}
					],
					"name": "createTweet",
					"outputs": [],
					"stateMutability": "nonpayable",
					"type": "function"
				},
				{
					"inputs": [
						{
							"internalType": "address",
							"name": "_owner",
							"type": "address"
						}
					],
					"name": "getAllTweets",
					"outputs": [
						{
							"components": [
								{
									"internalType": "uint256",
									"name": "id",
									"type": "uint256"
								},
								{
									"internalType": "address",
									"name": "author",
									"type": "address"
								},
								{
									"internalType": "string",
									"name": "content",
									"type": "string"
								},
								{
									"internalType": "uint256",
									"name": "timestamp",
									"type": "uint256"
								},
								{
									"internalType": "uint128",
									"name": "likes",
									"type": "uint128"
								}
							],
							"internalType": "struct TwitterStruct.Tweet[]",
							"name": "",
							"type": "tuple[]"
						}
					],
					"stateMutability": "view",
					"type": "function"
				},
				{
					"inputs": [
						{
							"internalType": "uint128",
							"name": "_i",
							"type": "uint128"
						}
					],
					"name": "getTweet",
					"outputs": [
						{
							"components": [
								{
									"internalType": "uint256",
									"name": "id",
									"type": "uint256"
								},
								{
									"internalType": "address",
									"name": "author",
									"type": "address"
								},
								{
									"internalType": "string",
									"name": "content",
									"type": "string"
								},
								{
									"internalType": "uint256",
									"name": "timestamp",
									"type": "uint256"
								},
								{
									"internalType": "uint128",
									"name": "likes",
									"type": "uint128"
								}
							],
							"internalType": "struct TwitterStruct.Tweet",
							"name": "",
							"type": "tuple"
						}
					],
					"stateMutability": "view",
					"type": "function"
				},
				{
					"inputs": [
						{
							"internalType": "address",
							"name": "author",
							"type": "address"
						},
						{
							"internalType": "uint256",
							"name": "id",
							"type": "uint256"
						}
					],
					"name": "likeTweet",
					"outputs": [],
					"stateMutability": "nonpayable",
					"type": "function"
				},
				{
					"inputs": [],
					"name": "owner",
					"outputs": [
						{
							"internalType": "address",
							"name": "",
							"type": "address"
						}
					],
					"stateMutability": "view",
					"type": "function"
				},
				{
					"inputs": [
						{
							"internalType": "address",
							"name": "",
							"type": "address"
						},
						{
							"internalType": "uint256",
							"name": "",
							"type": "uint256"
						}
					],
					"name": "tweets",
					"outputs": [
						{
							"internalType": "uint256",
							"name": "id",
							"type": "uint256"
						},
						{
							"internalType": "address",
							"name": "author",
							"type": "address"
						},
						{
							"internalType": "string",
							"name": "content",
							"type": "string"
						},
						{
							"internalType": "uint256",
							"name": "timestamp",
							"type": "uint256"
						},
						{
							"internalType": "uint128",
							"name": "likes",
							"type": "uint128"
						}
					],
					"stateMutability": "view",
					"type": "function"
				},
				{
					"inputs": [
						{
							"internalType": "address",
							"name": "author",
							"type": "address"
						},
						{
							"internalType": "uint256",
							"name": "id",
							"type": "uint256"
						}
					],
					"name": "unlikeTweet",
					"outputs": [],
					"stateMutability": "nonpayable",
					"type": "function"
				}
			],
			"devdoc": {
				"kind": "dev",
				"methods": {},
				"version": 1
			},
			"evm": {
				"assembly": "    /* \"contracts/06TwitterEvents.sol\":60:3142  contract TwitterStruct {... */\n  mstore(0x40, 0x80)\n    /* \"contracts/06TwitterEvents.sol\":361:364  280 */\n  0x0118\n    /* \"contracts/06TwitterEvents.sol\":335:364  uint16 MAX_TWEET_LENGTH = 280 */\n  0x00\n  dup1\n  0x0100\n  exp\n  dup2\n  sload\n  dup2\n  0xffff\n  mul\n  not\n  and\n  swap1\n  dup4\n  0xffff\n  and\n  mul\n  or\n  swap1\n  sstore\n  pop\n    /* \"contracts/06TwitterEvents.sol\":556:607  constructor() {... */\n  callvalue\n  dup1\n  iszero\n  tag_1\n  jumpi\n  0x00\n  dup1\n  revert\ntag_1:\n  pop\n    /* \"contracts/06TwitterEvents.sol\":589:599  msg.sender */\n  caller\n    /* \"contracts/06TwitterEvents.sol\":581:586  owner */\n  0x02\n  0x00\n    /* \"contracts/06TwitterEvents.sol\":581:599  owner = msg.sender */\n  0x0100\n  exp\n  dup2\n  sload\n  dup2\n  0xffffffffffffffffffffffffffffffffffffffff\n  mul\n  not\n  and\n  swap1\n  dup4\n  0xffffffffffffffffffffffffffffffffffffffff\n  and\n  mul\n  or\n  swap1\n  sstore\n  pop\n    /* \"contracts/06TwitterEvents.sol\":60:3142  contract TwitterStruct {... */\n  dataSize(sub_0)\n  dup1\n  dataOffset(sub_0)\n  0x00\n  codecopy\n  0x00\n  return\nstop\n\nsub_0: assembly {\n        /* \"contracts/06TwitterEvents.sol\":60:3142  contract TwitterStruct {... */\n      mstore(0x40, 0x80)\n      callvalue\n      dup1\n      iszero\n      tag_1\n      jumpi\n      0x00\n      dup1\n      revert\n    tag_1:\n      pop\n      jumpi(tag_2, lt(calldatasize, 0x04))\n      shr(0xe0, calldataload(0x00))\n      dup1\n      0x5dfd9be2\n      gt\n      tag_11\n      jumpi\n      dup1\n      0x5dfd9be2\n      eq\n      tag_7\n      jumpi\n      dup1\n      0x63378216\n      eq\n      tag_8\n      jumpi\n      dup1\n      0x7c9cd2bc\n      eq\n      tag_9\n      jumpi\n      dup1\n      0x8da5cb5b\n      eq\n      tag_10\n      jumpi\n      jump(tag_2)\n    tag_11:\n      dup1\n      0x05a1b4a9\n      eq\n      tag_3\n      jumpi\n      dup1\n      0x12e7ee1c\n      eq\n      tag_4\n      jumpi\n      dup1\n      0x3d9b569f\n      eq\n      tag_5\n      jumpi\n      dup1\n      0x58bfa4ab\n      eq\n      tag_6\n      jumpi\n    tag_2:\n      0x00\n      dup1\n      revert\n        /* \"contracts/06TwitterEvents.sol\":407:448  mapping(address => Tweet[]) public tweets */\n    tag_3:\n      tag_12\n      0x04\n      dup1\n      calldatasize\n      sub\n      dup2\n      add\n      swap1\n      tag_13\n      swap2\n      swap1\n      tag_14\n      jump\t// in\n    tag_13:\n      tag_15\n      jump\t// in\n    tag_12:\n      mload(0x40)\n      tag_16\n      swap6\n      swap5\n      swap4\n      swap3\n      swap2\n      swap1\n      tag_17\n      jump\t// in\n    tag_16:\n      mload(0x40)\n      dup1\n      swap2\n      sub\n      swap1\n      return\n        /* \"contracts/06TwitterEvents.sol\":3024:3139  function getAllTweets(address _owner) public view returns (Tweet[] memory) {... */\n    tag_4:\n      tag_18\n      0x04\n      dup1\n      calldatasize\n      sub\n      dup2\n      add\n      swap1\n      tag_19\n      swap2\n      swap1\n      tag_20\n      jump\t// in\n    tag_19:\n      tag_21\n      jump\t// in\n    tag_18:\n      mload(0x40)\n      tag_22\n      swap2\n      swap1\n      tag_23\n      jump\t// in\n    tag_22:\n      mload(0x40)\n      dup1\n      swap2\n      sub\n      swap1\n      return\n        /* \"contracts/06TwitterEvents.sol\":2545:2780  function unlikeTweet(address author, uint256 id) external {... */\n    tag_5:\n      tag_24\n      0x04\n      dup1\n      calldatasize\n      sub\n      dup2\n      add\n      swap1\n      tag_25\n      swap2\n      swap1\n      tag_14\n      jump\t// in\n    tag_25:\n      tag_26\n      jump\t// in\n    tag_24:\n      stop\n        /* \"contracts/06TwitterEvents.sol\":1208:1335  function changeTweetLength(uint16 _newMaxTweetLength) public onlyOwner {... */\n    tag_6:\n      tag_27\n      0x04\n      dup1\n      calldatasize\n      sub\n      dup2\n      add\n      swap1\n      tag_28\n      swap2\n      swap1\n      tag_29\n      jump\t// in\n    tag_28:\n      tag_30\n      jump\t// in\n    tag_27:\n      stop\n        /* \"contracts/06TwitterEvents.sol\":2840:2953  function getTweet(uint128 _i) public view returns (Tweet memory) {... */\n    tag_7:\n      tag_31\n      0x04\n      dup1\n      calldatasize\n      sub\n      dup2\n      add\n      swap1\n      tag_32\n      swap2\n      swap1\n      tag_33\n      jump\t// in\n    tag_32:\n      tag_34\n      jump\t// in\n    tag_31:\n      mload(0x40)\n      tag_35\n      swap2\n      swap1\n      tag_36\n      jump\t// in\n    tag_35:\n      mload(0x40)\n      dup1\n      swap2\n      sub\n      swap1\n      return\n        /* \"contracts/06TwitterEvents.sol\":2133:2404  function likeTweet(address author, uint256 id) external {... */\n    tag_8:\n      tag_37\n      0x04\n      dup1\n      calldatasize\n      sub\n      dup2\n      add\n      swap1\n      tag_38\n      swap2\n      swap1\n      tag_14\n      jump\t// in\n    tag_38:\n      tag_39\n      jump\t// in\n    tag_37:\n      stop\n        /* \"contracts/06TwitterEvents.sol\":1400:2018  function createTweet(string memory _tweet) public {... */\n    tag_9:\n      tag_40\n      0x04\n      dup1\n      calldatasize\n      sub\n      dup2\n      add\n      swap1\n      tag_41\n      swap2\n      swap1\n      tag_42\n      jump\t// in\n    tag_41:\n      tag_43\n      jump\t// in\n    tag_40:\n      stop\n        /* \"contracts/06TwitterEvents.sol\":455:475  address public owner */\n    tag_10:\n      tag_44\n      tag_45\n      jump\t// in\n    tag_44:\n      mload(0x40)\n      tag_46\n      swap2\n      swap1\n      tag_47\n      jump\t// in\n    tag_46:\n      mload(0x40)\n      dup1\n      swap2\n      sub\n      swap1\n      return\n        /* \"contracts/06TwitterEvents.sol\":407:448  mapping(address => Tweet[]) public tweets */\n    tag_15:\n      mstore(0x20, 0x01)\n      dup2\n      0x00\n      mstore\n      keccak256(0x00, 0x40)\n      dup2\n      dup2\n      sload\n      dup2\n      lt\n      tag_48\n      jumpi\n      0x00\n      dup1\n      revert\n    tag_48:\n      swap1\n      0x00\n      mstore\n      keccak256(0x00, 0x20)\n      swap1\n      0x05\n      mul\n      add\n      0x00\n      swap2\n      pop\n      swap2\n      pop\n      pop\n      dup1\n      0x00\n      add\n      sload\n      swap1\n      dup1\n      0x01\n      add\n      0x00\n      swap1\n      sload\n      swap1\n      0x0100\n      exp\n      swap1\n      div\n      0xffffffffffffffffffffffffffffffffffffffff\n      and\n      swap1\n      dup1\n      0x02\n      add\n      dup1\n      sload\n      tag_50\n      swap1\n      tag_51\n      jump\t// in\n    tag_50:\n      dup1\n      0x1f\n      add\n      0x20\n      dup1\n      swap2\n      div\n      mul\n      0x20\n      add\n      mload(0x40)\n      swap1\n      dup2\n      add\n      0x40\n      mstore\n      dup1\n      swap3\n      swap2\n      swap1\n      dup2\n      dup2\n      mstore\n      0x20\n      add\n      dup3\n      dup1\n      sload\n      tag_52\n      swap1\n      tag_51\n      jump\t// in\n    tag_52:\n      dup1\n      iszero\n      tag_53\n      jumpi\n      dup1\n      0x1f\n      lt\n      tag_54\n      jumpi\n      0x0100\n      dup1\n      dup4\n      sload\n      div\n      mul\n      dup4\n      mstore\n      swap2\n      0x20\n      add\n      swap2\n      jump(tag_53)\n    tag_54:\n      dup3\n      add\n      swap2\n      swap1\n      0x00\n      mstore\n      keccak256(0x00, 0x20)\n      swap1\n    tag_55:\n      dup2\n      sload\n      dup2\n      mstore\n      swap1\n      0x01\n      add\n      swap1\n      0x20\n      add\n      dup1\n      dup4\n      gt\n      tag_55\n      jumpi\n      dup3\n      swap1\n      sub\n      0x1f\n      and\n      dup3\n      add\n      swap2\n    tag_53:\n      pop\n      pop\n      pop\n      pop\n      pop\n      swap1\n      dup1\n      0x03\n      add\n      sload\n      swap1\n      dup1\n      0x04\n      add\n      0x00\n      swap1\n      sload\n      swap1\n      0x0100\n      exp\n      swap1\n      div\n      0xffffffffffffffffffffffffffffffff\n      and\n      swap1\n      pop\n      dup6\n      jump\t// out\n        /* \"contracts/06TwitterEvents.sol\":3024:3139  function getAllTweets(address _owner) public view returns (Tweet[] memory) {... */\n    tag_21:\n        /* \"contracts/06TwitterEvents.sol\":3083:3097  Tweet[] memory */\n      0x60\n        /* \"contracts/06TwitterEvents.sol\":3117:3123  tweets */\n      0x01\n        /* \"contracts/06TwitterEvents.sol\":3117:3131  tweets[_owner] */\n      0x00\n        /* \"contracts/06TwitterEvents.sol\":3124:3130  _owner */\n      dup4\n        /* \"contracts/06TwitterEvents.sol\":3117:3131  tweets[_owner] */\n      0xffffffffffffffffffffffffffffffffffffffff\n      and\n      0xffffffffffffffffffffffffffffffffffffffff\n      and\n      dup2\n      mstore\n      0x20\n      add\n      swap1\n      dup2\n      mstore\n      0x20\n      add\n      0x00\n      keccak256\n        /* \"contracts/06TwitterEvents.sol\":3110:3131  return tweets[_owner] */\n      dup1\n      sload\n      dup1\n      0x20\n      mul\n      0x20\n      add\n      mload(0x40)\n      swap1\n      dup2\n      add\n      0x40\n      mstore\n      dup1\n      swap3\n      swap2\n      swap1\n      dup2\n      dup2\n      mstore\n      0x20\n      add\n      0x00\n      swap1\n    tag_57:\n      dup3\n      dup3\n      lt\n      iszero\n      tag_58\n      jumpi\n      dup4\n      dup3\n      swap1\n      0x00\n      mstore\n      keccak256(0x00, 0x20)\n      swap1\n      0x05\n      mul\n      add\n      mload(0x40)\n      dup1\n      0xa0\n      add\n      0x40\n      mstore\n      swap1\n      dup2\n      0x00\n      dup3\n      add\n      sload\n      dup2\n      mstore\n      0x20\n      add\n      0x01\n      dup3\n      add\n      0x00\n      swap1\n      sload\n      swap1\n      0x0100\n      exp\n      swap1\n      div\n      0xffffffffffffffffffffffffffffffffffffffff\n      and\n      0xffffffffffffffffffffffffffffffffffffffff\n      and\n      0xffffffffffffffffffffffffffffffffffffffff\n      and\n      dup2\n      mstore\n      0x20\n      add\n      0x02\n      dup3\n      add\n      dup1\n      sload\n      tag_60\n      swap1\n      tag_51\n      jump\t// in\n    tag_60:\n      dup1\n      0x1f\n      add\n      0x20\n      dup1\n      swap2\n      div\n      mul\n      0x20\n      add\n      mload(0x40)\n      swap1\n      dup2\n      add\n      0x40\n      mstore\n      dup1\n      swap3\n      swap2\n      swap1\n      dup2\n      dup2\n      mstore\n      0x20\n      add\n      dup3\n      dup1\n      sload\n      tag_61\n      swap1\n      tag_51\n      jump\t// in\n    tag_61:\n      dup1\n      iszero\n      tag_62\n      jumpi\n      dup1\n      0x1f\n      lt\n      tag_63\n      jumpi\n      0x0100\n      dup1\n      dup4\n      sload\n      div\n      mul\n      dup4\n      mstore\n      swap2\n      0x20\n      add\n      swap2\n      jump(tag_62)\n    tag_63:\n      dup3\n      add\n      swap2\n      swap1\n      0x00\n      mstore\n      keccak256(0x00, 0x20)\n      swap1\n    tag_64:\n      dup2\n      sload\n      dup2\n      mstore\n      swap1\n      0x01\n      add\n      swap1\n      0x20\n      add\n      dup1\n      dup4\n      gt\n      tag_64\n      jumpi\n      dup3\n      swap1\n      sub\n      0x1f\n      and\n      dup3\n      add\n      swap2\n    tag_62:\n      pop\n      pop\n      pop\n      pop\n      pop\n      dup2\n      mstore\n      0x20\n      add\n      0x03\n      dup3\n      add\n      sload\n      dup2\n      mstore\n      0x20\n      add\n      0x04\n      dup3\n      add\n      0x00\n      swap1\n      sload\n      swap1\n      0x0100\n      exp\n      swap1\n      div\n      0xffffffffffffffffffffffffffffffff\n      and\n      0xffffffffffffffffffffffffffffffff\n      and\n      0xffffffffffffffffffffffffffffffff\n      and\n      dup2\n      mstore\n      pop\n      pop\n      dup2\n      mstore\n      0x20\n      add\n      swap1\n      0x01\n      add\n      swap1\n      jump(tag_57)\n    tag_58:\n      pop\n      pop\n      pop\n      pop\n      swap1\n      pop\n        /* \"contracts/06TwitterEvents.sol\":3024:3139  function getAllTweets(address _owner) public view returns (Tweet[] memory) {... */\n      swap2\n      swap1\n      pop\n      jump\t// out\n        /* \"contracts/06TwitterEvents.sol\":2545:2780  function unlikeTweet(address author, uint256 id) external {... */\n    tag_26:\n        /* \"contracts/06TwitterEvents.sol\":2646:2648  id */\n      dup1\n        /* \"contracts/06TwitterEvents.sol\":2622:2628  tweets */\n      0x01\n        /* \"contracts/06TwitterEvents.sol\":2622:2635  tweets[owner] */\n      0x00\n        /* \"contracts/06TwitterEvents.sol\":2629:2634  owner */\n      0x02\n      0x00\n      swap1\n      sload\n      swap1\n      0x0100\n      exp\n      swap1\n      div\n      0xffffffffffffffffffffffffffffffffffffffff\n      and\n        /* \"contracts/06TwitterEvents.sol\":2622:2635  tweets[owner] */\n      0xffffffffffffffffffffffffffffffffffffffff\n      and\n      0xffffffffffffffffffffffffffffffffffffffff\n      and\n      dup2\n      mstore\n      0x20\n      add\n      swap1\n      dup2\n      mstore\n      0x20\n      add\n      0x00\n      keccak256\n        /* \"contracts/06TwitterEvents.sol\":2636:2638  id */\n      dup3\n        /* \"contracts/06TwitterEvents.sol\":2622:2639  tweets[owner][id] */\n      dup2\n      sload\n      dup2\n      lt\n      tag_66\n      jumpi\n      tag_67\n      tag_68\n      jump\t// in\n    tag_67:\n    tag_66:\n      swap1\n      0x00\n      mstore\n      keccak256(0x00, 0x20)\n      swap1\n      0x05\n      mul\n      add\n        /* \"contracts/06TwitterEvents.sol\":2622:2642  tweets[owner][id].id */\n      0x00\n      add\n      sload\n        /* \"contracts/06TwitterEvents.sol\":2622:2648  tweets[owner][id].id == id */\n      eq\n        /* \"contracts/06TwitterEvents.sol\":2614:2668  require(tweets[owner][id].id == id, \"Tweet not found\") */\n      tag_70\n      jumpi\n      mload(0x40)\n      0x08c379a000000000000000000000000000000000000000000000000000000000\n      dup2\n      mstore\n      0x04\n      add\n      tag_71\n      swap1\n      tag_72\n      jump\t// in\n    tag_71:\n      mload(0x40)\n      dup1\n      swap2\n      sub\n      swap1\n      revert\n    tag_70:\n        /* \"contracts/06TwitterEvents.sol\":2714:2715  0 */\n      0x00\n        /* \"contracts/06TwitterEvents.sol\":2687:2693  tweets */\n      0x01\n        /* \"contracts/06TwitterEvents.sol\":2687:2701  tweets[author] */\n      0x00\n        /* \"contracts/06TwitterEvents.sol\":2694:2700  author */\n      dup5\n        /* \"contracts/06TwitterEvents.sol\":2687:2701  tweets[author] */\n      0xffffffffffffffffffffffffffffffffffffffff\n      and\n      0xffffffffffffffffffffffffffffffffffffffff\n      and\n      dup2\n      mstore\n      0x20\n      add\n      swap1\n      dup2\n      mstore\n      0x20\n      add\n      0x00\n      keccak256\n        /* \"contracts/06TwitterEvents.sol\":2702:2704  id */\n      dup3\n        /* \"contracts/06TwitterEvents.sol\":2687:2705  tweets[author][id] */\n      dup2\n      sload\n      dup2\n      lt\n      tag_73\n      jumpi\n      tag_74\n      tag_68\n      jump\t// in\n    tag_74:\n    tag_73:\n      swap1\n      0x00\n      mstore\n      keccak256(0x00, 0x20)\n      swap1\n      0x05\n      mul\n      add\n        /* \"contracts/06TwitterEvents.sol\":2687:2711  tweets[author][id].likes */\n      0x04\n      add\n      0x00\n      swap1\n      sload\n      swap1\n      0x0100\n      exp\n      swap1\n      div\n      0xffffffffffffffffffffffffffffffff\n      and\n        /* \"contracts/06TwitterEvents.sol\":2687:2715  tweets[author][id].likes > 0 */\n      0xffffffffffffffffffffffffffffffff\n      and\n      gt\n        /* \"contracts/06TwitterEvents.sol\":2679:2735  require(tweets[author][id].likes > 0, \"Mannn! Really??\") */\n      tag_76\n      jumpi\n      mload(0x40)\n      0x08c379a000000000000000000000000000000000000000000000000000000000\n      dup2\n      mstore\n      0x04\n      add\n      tag_77\n      swap1\n      tag_78\n      jump\t// in\n    tag_77:\n      mload(0x40)\n      dup1\n      swap2\n      sub\n      swap1\n      revert\n    tag_76:\n        /* \"contracts/06TwitterEvents.sol\":2746:2752  tweets */\n      0x01\n        /* \"contracts/06TwitterEvents.sol\":2746:2760  tweets[author] */\n      0x00\n        /* \"contracts/06TwitterEvents.sol\":2753:2759  author */\n      dup4\n        /* \"contracts/06TwitterEvents.sol\":2746:2760  tweets[author] */\n      0xffffffffffffffffffffffffffffffffffffffff\n      and\n      0xffffffffffffffffffffffffffffffffffffffff\n      and\n      dup2\n      mstore\n      0x20\n      add\n      swap1\n      dup2\n      mstore\n      0x20\n      add\n      0x00\n      keccak256\n        /* \"contracts/06TwitterEvents.sol\":2761:2763  id */\n      dup2\n        /* \"contracts/06TwitterEvents.sol\":2746:2764  tweets[author][id] */\n      dup2\n      sload\n      dup2\n      lt\n      tag_79\n      jumpi\n      tag_80\n      tag_68\n      jump\t// in\n    tag_80:\n    tag_79:\n      swap1\n      0x00\n      mstore\n      keccak256(0x00, 0x20)\n      swap1\n      0x05\n      mul\n      add\n        /* \"contracts/06TwitterEvents.sol\":2746:2770  tweets[author][id].likes */\n      0x04\n      add\n      0x00\n        /* \"contracts/06TwitterEvents.sol\":2746:2772  tweets[author][id].likes-- */\n      dup2\n      dup2\n      swap1\n      sload\n      swap1\n      0x0100\n      exp\n      swap1\n      div\n      0xffffffffffffffffffffffffffffffff\n      and\n      dup1\n      swap3\n      swap2\n      swap1\n      tag_82\n      swap1\n      tag_83\n      jump\t// in\n    tag_82:\n      swap2\n      swap1\n      0x0100\n      exp\n      dup2\n      sload\n      dup2\n      0xffffffffffffffffffffffffffffffff\n      mul\n      not\n      and\n      swap1\n      dup4\n      0xffffffffffffffffffffffffffffffff\n      and\n      mul\n      or\n      swap1\n      sstore\n      pop\n      pop\n        /* \"contracts/06TwitterEvents.sol\":2545:2780  function unlikeTweet(address author, uint256 id) external {... */\n      pop\n      pop\n      jump\t// out\n        /* \"contracts/06TwitterEvents.sol\":1208:1335  function changeTweetLength(uint16 _newMaxTweetLength) public onlyOwner {... */\n    tag_30:\n        /* \"contracts/06TwitterEvents.sol\":1064:1074  msg.sender */\n      caller\n        /* \"contracts/06TwitterEvents.sol\":1055:1074  owner == msg.sender */\n      0xffffffffffffffffffffffffffffffffffffffff\n      and\n        /* \"contracts/06TwitterEvents.sol\":1055:1060  owner */\n      0x02\n      0x00\n      swap1\n      sload\n      swap1\n      0x0100\n      exp\n      swap1\n      div\n      0xffffffffffffffffffffffffffffffffffffffff\n      and\n        /* \"contracts/06TwitterEvents.sol\":1055:1074  owner == msg.sender */\n      0xffffffffffffffffffffffffffffffffffffffff\n      and\n      eq\n        /* \"contracts/06TwitterEvents.sol\":1047:1106  require(owner == msg.sender, \"You are not the owner dude!\") */\n      tag_85\n      jumpi\n      mload(0x40)\n      0x08c379a000000000000000000000000000000000000000000000000000000000\n      dup2\n      mstore\n      0x04\n      add\n      tag_86\n      swap1\n      tag_87\n      jump\t// in\n    tag_86:\n      mload(0x40)\n      dup1\n      swap2\n      sub\n      swap1\n      revert\n    tag_85:\n        /* \"contracts/06TwitterEvents.sol\":1309:1327  _newMaxTweetLength */\n      dup1\n        /* \"contracts/06TwitterEvents.sol\":1290:1306  MAX_TWEET_LENGTH */\n      0x00\n      dup1\n        /* \"contracts/06TwitterEvents.sol\":1290:1327  MAX_TWEET_LENGTH = _newMaxTweetLength */\n      0x0100\n      exp\n      dup2\n      sload\n      dup2\n      0xffff\n      mul\n      not\n      and\n      swap1\n      dup4\n      0xffff\n      and\n      mul\n      or\n      swap1\n      sstore\n      pop\n        /* \"contracts/06TwitterEvents.sol\":1208:1335  function changeTweetLength(uint16 _newMaxTweetLength) public onlyOwner {... */\n      pop\n      jump\t// out\n        /* \"contracts/06TwitterEvents.sol\":2840:2953  function getTweet(uint128 _i) public view returns (Tweet memory) {... */\n    tag_34:\n        /* \"contracts/06TwitterEvents.sol\":2891:2903  Tweet memory */\n      tag_89\n      tag_90\n      jump\t// in\n    tag_89:\n        /* \"contracts/06TwitterEvents.sol\":2923:2929  tweets */\n      0x01\n        /* \"contracts/06TwitterEvents.sol\":2923:2941  tweets[msg.sender] */\n      0x00\n        /* \"contracts/06TwitterEvents.sol\":2930:2940  msg.sender */\n      caller\n        /* \"contracts/06TwitterEvents.sol\":2923:2941  tweets[msg.sender] */\n      0xffffffffffffffffffffffffffffffffffffffff\n      and\n      0xffffffffffffffffffffffffffffffffffffffff\n      and\n      dup2\n      mstore\n      0x20\n      add\n      swap1\n      dup2\n      mstore\n      0x20\n      add\n      0x00\n      keccak256\n        /* \"contracts/06TwitterEvents.sol\":2942:2944  _i */\n      dup3\n        /* \"contracts/06TwitterEvents.sol\":2923:2945  tweets[msg.sender][_i] */\n      0xffffffffffffffffffffffffffffffff\n      and\n      dup2\n      sload\n      dup2\n      lt\n      tag_92\n      jumpi\n      tag_93\n      tag_68\n      jump\t// in\n    tag_93:\n    tag_92:\n      swap1\n      0x00\n      mstore\n      keccak256(0x00, 0x20)\n      swap1\n      0x05\n      mul\n      add\n        /* \"contracts/06TwitterEvents.sol\":2916:2945  return tweets[msg.sender][_i] */\n      mload(0x40)\n      dup1\n      0xa0\n      add\n      0x40\n      mstore\n      swap1\n      dup2\n      0x00\n      dup3\n      add\n      sload\n      dup2\n      mstore\n      0x20\n      add\n      0x01\n      dup3\n      add\n      0x00\n      swap1\n      sload\n      swap1\n      0x0100\n      exp\n      swap1\n      div\n      0xffffffffffffffffffffffffffffffffffffffff\n      and\n      0xffffffffffffffffffffffffffffffffffffffff\n      and\n      0xffffffffffffffffffffffffffffffffffffffff\n      and\n      dup2\n      mstore\n      0x20\n      add\n      0x02\n      dup3\n      add\n      dup1\n      sload\n      tag_95\n      swap1\n      tag_51\n      jump\t// in\n    tag_95:\n      dup1\n      0x1f\n      add\n      0x20\n      dup1\n      swap2\n      div\n      mul\n      0x20\n      add\n      mload(0x40)\n      swap1\n      dup2\n      add\n      0x40\n      mstore\n      dup1\n      swap3\n      swap2\n      swap1\n      dup2\n      dup2\n      mstore\n      0x20\n      add\n      dup3\n      dup1\n      sload\n      tag_96\n      swap1\n      tag_51\n      jump\t// in\n    tag_96:\n      dup1\n      iszero\n      tag_97\n      jumpi\n      dup1\n      0x1f\n      lt\n      tag_98\n      jumpi\n      0x0100\n      dup1\n      dup4\n      sload\n      div\n      mul\n      dup4\n      mstore\n      swap2\n      0x20\n      add\n      swap2\n      jump(tag_97)\n    tag_98:\n      dup3\n      add\n      swap2\n      swap1\n      0x00\n      mstore\n      keccak256(0x00, 0x20)\n      swap1\n    tag_99:\n      dup2\n      sload\n      dup2\n      mstore\n      swap1\n      0x01\n      add\n      swap1\n      0x20\n      add\n      dup1\n      dup4\n      gt\n      tag_99\n      jumpi\n      dup3\n      swap1\n      sub\n      0x1f\n      and\n      dup3\n      add\n      swap2\n    tag_97:\n      pop\n      pop\n      pop\n      pop\n      pop\n      dup2\n      mstore\n      0x20\n      add\n      0x03\n      dup3\n      add\n      sload\n      dup2\n      mstore\n      0x20\n      add\n      0x04\n      dup3\n      add\n      0x00\n      swap1\n      sload\n      swap1\n      0x0100\n      exp\n      swap1\n      div\n      0xffffffffffffffffffffffffffffffff\n      and\n      0xffffffffffffffffffffffffffffffff\n      and\n      0xffffffffffffffffffffffffffffffff\n      and\n      dup2\n      mstore\n      pop\n      pop\n      swap1\n      pop\n        /* \"contracts/06TwitterEvents.sol\":2840:2953  function getTweet(uint128 _i) public view returns (Tweet memory) {... */\n      swap2\n      swap1\n      pop\n      jump\t// out\n        /* \"contracts/06TwitterEvents.sol\":2133:2404  function likeTweet(address author, uint256 id) external {... */\n    tag_39:\n        /* \"contracts/06TwitterEvents.sol\":2233:2235  id */\n      dup1\n        /* \"contracts/06TwitterEvents.sol\":2208:2214  tweets */\n      0x01\n        /* \"contracts/06TwitterEvents.sol\":2208:2222  tweets[author] */\n      0x00\n        /* \"contracts/06TwitterEvents.sol\":2215:2221  author */\n      dup5\n        /* \"contracts/06TwitterEvents.sol\":2208:2222  tweets[author] */\n      0xffffffffffffffffffffffffffffffffffffffff\n      and\n      0xffffffffffffffffffffffffffffffffffffffff\n      and\n      dup2\n      mstore\n      0x20\n      add\n      swap1\n      dup2\n      mstore\n      0x20\n      add\n      0x00\n      keccak256\n        /* \"contracts/06TwitterEvents.sol\":2223:2225  id */\n      dup3\n        /* \"contracts/06TwitterEvents.sol\":2208:2226  tweets[author][id] */\n      dup2\n      sload\n      dup2\n      lt\n      tag_101\n      jumpi\n      tag_102\n      tag_68\n      jump\t// in\n    tag_102:\n    tag_101:\n      swap1\n      0x00\n      mstore\n      keccak256(0x00, 0x20)\n      swap1\n      0x05\n      mul\n      add\n        /* \"contracts/06TwitterEvents.sol\":2208:2229  tweets[author][id].id */\n      0x00\n      add\n      sload\n        /* \"contracts/06TwitterEvents.sol\":2208:2235  tweets[author][id].id == id */\n      eq\n        /* \"contracts/06TwitterEvents.sol\":2200:2255  require(tweets[author][id].id == id, \"Tweet not found\") */\n      tag_104\n      jumpi\n      mload(0x40)\n      0x08c379a000000000000000000000000000000000000000000000000000000000\n      dup2\n      mstore\n      0x04\n      add\n      tag_105\n      swap1\n      tag_72\n      jump\t// in\n    tag_105:\n      mload(0x40)\n      dup1\n      swap2\n      sub\n      swap1\n      revert\n    tag_104:\n        /* \"contracts/06TwitterEvents.sol\":2266:2272  tweets */\n      0x01\n        /* \"contracts/06TwitterEvents.sol\":2266:2280  tweets[author] */\n      0x00\n        /* \"contracts/06TwitterEvents.sol\":2273:2279  author */\n      dup4\n        /* \"contracts/06TwitterEvents.sol\":2266:2280  tweets[author] */\n      0xffffffffffffffffffffffffffffffffffffffff\n      and\n      0xffffffffffffffffffffffffffffffffffffffff\n      and\n      dup2\n      mstore\n      0x20\n      add\n      swap1\n      dup2\n      mstore\n      0x20\n      add\n      0x00\n      keccak256\n        /* \"contracts/06TwitterEvents.sol\":2281:2283  id */\n      dup2\n        /* \"contracts/06TwitterEvents.sol\":2266:2284  tweets[author][id] */\n      dup2\n      sload\n      dup2\n      lt\n      tag_106\n      jumpi\n      tag_107\n      tag_68\n      jump\t// in\n    tag_107:\n    tag_106:\n      swap1\n      0x00\n      mstore\n      keccak256(0x00, 0x20)\n      swap1\n      0x05\n      mul\n      add\n        /* \"contracts/06TwitterEvents.sol\":2266:2290  tweets[author][id].likes */\n      0x04\n      add\n      0x00\n        /* \"contracts/06TwitterEvents.sol\":2266:2292  tweets[author][id].likes++ */\n      dup2\n      dup2\n      swap1\n      sload\n      swap1\n      0x0100\n      exp\n      swap1\n      div\n      0xffffffffffffffffffffffffffffffff\n      and\n      dup1\n      swap3\n      swap2\n      swap1\n      tag_109\n      swap1\n      tag_110\n      jump\t// in\n    tag_109:\n      swap2\n      swap1\n      0x0100\n      exp\n      dup2\n      sload\n      dup2\n      0xffffffffffffffffffffffffffffffff\n      mul\n      not\n      and\n      swap1\n      dup4\n      0xffffffffffffffffffffffffffffffff\n      and\n      mul\n      or\n      swap1\n      sstore\n      pop\n      pop\n        /* \"contracts/06TwitterEvents.sol\":2344:2396  TweetLiked(msg.sender, id, tweets[author][id].likes) */\n      0xe6b0cbccb8d65ef5d85320d23fe25d0bac1845950ee8a2379b37a67c3e18836e\n        /* \"contracts/06TwitterEvents.sol\":2355:2365  msg.sender */\n      caller\n        /* \"contracts/06TwitterEvents.sol\":2367:2369  id */\n      dup3\n        /* \"contracts/06TwitterEvents.sol\":2371:2377  tweets */\n      0x01\n        /* \"contracts/06TwitterEvents.sol\":2371:2385  tweets[author] */\n      0x00\n        /* \"contracts/06TwitterEvents.sol\":2378:2384  author */\n      dup7\n        /* \"contracts/06TwitterEvents.sol\":2371:2385  tweets[author] */\n      0xffffffffffffffffffffffffffffffffffffffff\n      and\n      0xffffffffffffffffffffffffffffffffffffffff\n      and\n      dup2\n      mstore\n      0x20\n      add\n      swap1\n      dup2\n      mstore\n      0x20\n      add\n      0x00\n      keccak256\n        /* \"contracts/06TwitterEvents.sol\":2386:2388  id */\n      dup5\n        /* \"contracts/06TwitterEvents.sol\":2371:2389  tweets[author][id] */\n      dup2\n      sload\n      dup2\n      lt\n      tag_111\n      jumpi\n      tag_112\n      tag_68\n      jump\t// in\n    tag_112:\n    tag_111:\n      swap1\n      0x00\n      mstore\n      keccak256(0x00, 0x20)\n      swap1\n      0x05\n      mul\n      add\n        /* \"contracts/06TwitterEvents.sol\":2371:2395  tweets[author][id].likes */\n      0x04\n      add\n      0x00\n      swap1\n      sload\n      swap1\n      0x0100\n      exp\n      swap1\n      div\n      0xffffffffffffffffffffffffffffffff\n      and\n        /* \"contracts/06TwitterEvents.sol\":2344:2396  TweetLiked(msg.sender, id, tweets[author][id].likes) */\n      mload(0x40)\n      tag_114\n      swap4\n      swap3\n      swap2\n      swap1\n      tag_115\n      jump\t// in\n    tag_114:\n      mload(0x40)\n      dup1\n      swap2\n      sub\n      swap1\n      log1\n        /* \"contracts/06TwitterEvents.sol\":2133:2404  function likeTweet(address author, uint256 id) external {... */\n      pop\n      pop\n      jump\t// out\n        /* \"contracts/06TwitterEvents.sol\":1400:2018  function createTweet(string memory _tweet) public {... */\n    tag_43:\n        /* \"contracts/06TwitterEvents.sol\":1560:1576  MAX_TWEET_LENGTH */\n      0x00\n      dup1\n      sload\n      swap1\n      0x0100\n      exp\n      swap1\n      div\n      0xffff\n      and\n        /* \"contracts/06TwitterEvents.sol\":1536:1576  bytes(_tweet).length <= MAX_TWEET_LENGTH */\n      0xffff\n      and\n        /* \"contracts/06TwitterEvents.sol\":1542:1548  _tweet */\n      dup2\n        /* \"contracts/06TwitterEvents.sol\":1536:1556  bytes(_tweet).length */\n      mload\n        /* \"contracts/06TwitterEvents.sol\":1536:1576  bytes(_tweet).length <= MAX_TWEET_LENGTH */\n      gt\n      iszero\n        /* \"contracts/06TwitterEvents.sol\":1528:1594  require(bytes(_tweet).length <= MAX_TWEET_LENGTH, \"Too long bro!\") */\n      tag_117\n      jumpi\n      mload(0x40)\n      0x08c379a000000000000000000000000000000000000000000000000000000000\n      dup2\n      mstore\n      0x04\n      add\n      tag_118\n      swap1\n      tag_119\n      jump\t// in\n    tag_118:\n      mload(0x40)\n      dup1\n      swap2\n      sub\n      swap1\n      revert\n    tag_117:\n        /* \"contracts/06TwitterEvents.sol\":1607:1628  Tweet memory newTweet */\n      0x00\n        /* \"contracts/06TwitterEvents.sol\":1631:1820  Tweet({... */\n      mload(0x40)\n      dup1\n      0xa0\n      add\n      0x40\n      mstore\n      dup1\n        /* \"contracts/06TwitterEvents.sol\":1656:1662  tweets */\n      0x01\n        /* \"contracts/06TwitterEvents.sol\":1656:1674  tweets[msg.sender] */\n      0x00\n        /* \"contracts/06TwitterEvents.sol\":1663:1673  msg.sender */\n      caller\n        /* \"contracts/06TwitterEvents.sol\":1656:1674  tweets[msg.sender] */\n      0xffffffffffffffffffffffffffffffffffffffff\n      and\n      0xffffffffffffffffffffffffffffffffffffffff\n      and\n      dup2\n      mstore\n      0x20\n      add\n      swap1\n      dup2\n      mstore\n      0x20\n      add\n      0x00\n      keccak256\n        /* \"contracts/06TwitterEvents.sol\":1656:1681  tweets[msg.sender].length */\n      dup1\n      sload\n      swap1\n      pop\n        /* \"contracts/06TwitterEvents.sol\":1631:1820  Tweet({... */\n      dup2\n      mstore\n      0x20\n      add\n        /* \"contracts/06TwitterEvents.sol\":1704:1714  msg.sender */\n      caller\n        /* \"contracts/06TwitterEvents.sol\":1631:1820  Tweet({... */\n      0xffffffffffffffffffffffffffffffffffffffff\n      and\n      dup2\n      mstore\n      0x20\n      add\n        /* \"contracts/06TwitterEvents.sol\":1738:1744  _tweet */\n      dup4\n        /* \"contracts/06TwitterEvents.sol\":1631:1820  Tweet({... */\n      dup2\n      mstore\n      0x20\n      add\n        /* \"contracts/06TwitterEvents.sol\":1770:1785  block.timestamp */\n      timestamp\n        /* \"contracts/06TwitterEvents.sol\":1631:1820  Tweet({... */\n      dup2\n      mstore\n      0x20\n      add\n        /* \"contracts/06TwitterEvents.sol\":1807:1808  0 */\n      0x00\n        /* \"contracts/06TwitterEvents.sol\":1631:1820  Tweet({... */\n      0xffffffffffffffffffffffffffffffff\n      and\n      dup2\n      mstore\n      pop\n        /* \"contracts/06TwitterEvents.sol\":1607:1820  Tweet memory newTweet = Tweet({... */\n      swap1\n      pop\n        /* \"contracts/06TwitterEvents.sol\":1856:1862  tweets */\n      0x01\n        /* \"contracts/06TwitterEvents.sol\":1856:1874  tweets[msg.sender] */\n      0x00\n        /* \"contracts/06TwitterEvents.sol\":1863:1873  msg.sender */\n      caller\n        /* \"contracts/06TwitterEvents.sol\":1856:1874  tweets[msg.sender] */\n      0xffffffffffffffffffffffffffffffffffffffff\n      and\n      0xffffffffffffffffffffffffffffffffffffffff\n      and\n      dup2\n      mstore\n      0x20\n      add\n      swap1\n      dup2\n      mstore\n      0x20\n      add\n      0x00\n      keccak256\n        /* \"contracts/06TwitterEvents.sol\":1880:1888  newTweet */\n      dup2\n        /* \"contracts/06TwitterEvents.sol\":1856:1889  tweets[msg.sender].push(newTweet) */\n      swap1\n      dup1\n      0x01\n      dup2\n      sload\n      add\n      dup1\n      dup3\n      sstore\n      dup1\n      swap2\n      pop\n      pop\n      0x01\n      swap1\n      sub\n      swap1\n      0x00\n      mstore\n      keccak256(0x00, 0x20)\n      swap1\n      0x05\n      mul\n      add\n      0x00\n      swap1\n      swap2\n      swap1\n      swap2\n      swap1\n      swap2\n      pop\n      0x00\n      dup3\n      add\n      mload\n      dup2\n      0x00\n      add\n      sstore\n      0x20\n      dup3\n      add\n      mload\n      dup2\n      0x01\n      add\n      exp(0x0100, 0x00)\n      dup2\n      sload\n      dup2\n      0xffffffffffffffffffffffffffffffffffffffff\n      mul\n      not\n      and\n      swap1\n      dup4\n      0xffffffffffffffffffffffffffffffffffffffff\n      and\n      mul\n      or\n      swap1\n      sstore\n      pop\n      0x40\n      dup3\n      add\n      mload\n      dup2\n      0x02\n      add\n      swap1\n      dup2\n      tag_121\n      swap2\n      swap1\n      tag_122\n      jump\t// in\n    tag_121:\n      pop\n      0x60\n      dup3\n      add\n      mload\n      dup2\n      0x03\n      add\n      sstore\n      0x80\n      dup3\n      add\n      mload\n      dup2\n      0x04\n      add\n      exp(0x0100, 0x00)\n      dup2\n      sload\n      dup2\n      0xffffffffffffffffffffffffffffffff\n      mul\n      not\n      and\n      swap1\n      dup4\n      0xffffffffffffffffffffffffffffffff\n      and\n      mul\n      or\n      swap1\n      sstore\n      pop\n      pop\n      pop\n        /* \"contracts/06TwitterEvents.sol\":1930:2010  TweetCreated(newTweet.id, newTweet.author, newTweet.content, newTweet.timestamp) */\n      0x16fd3c13e9d46923e0a8bce11c7b473ec508a72e6c96cd2404b29ce972afc29e\n        /* \"contracts/06TwitterEvents.sol\":1943:1951  newTweet */\n      dup2\n        /* \"contracts/06TwitterEvents.sol\":1943:1954  newTweet.id */\n      0x00\n      add\n      mload\n        /* \"contracts/06TwitterEvents.sol\":1956:1964  newTweet */\n      dup3\n        /* \"contracts/06TwitterEvents.sol\":1956:1971  newTweet.author */\n      0x20\n      add\n      mload\n        /* \"contracts/06TwitterEvents.sol\":1973:1981  newTweet */\n      dup4\n        /* \"contracts/06TwitterEvents.sol\":1973:1989  newTweet.content */\n      0x40\n      add\n      mload\n        /* \"contracts/06TwitterEvents.sol\":1991:1999  newTweet */\n      dup5\n        /* \"contracts/06TwitterEvents.sol\":1991:2009  newTweet.timestamp */\n      0x60\n      add\n      mload\n        /* \"contracts/06TwitterEvents.sol\":1930:2010  TweetCreated(newTweet.id, newTweet.author, newTweet.content, newTweet.timestamp) */\n      mload(0x40)\n      tag_123\n      swap5\n      swap4\n      swap3\n      swap2\n      swap1\n      tag_124\n      jump\t// in\n    tag_123:\n      mload(0x40)\n      dup1\n      swap2\n      sub\n      swap1\n      log1\n        /* \"contracts/06TwitterEvents.sol\":1450:2018  {... */\n      pop\n        /* \"contracts/06TwitterEvents.sol\":1400:2018  function createTweet(string memory _tweet) public {... */\n      pop\n      jump\t// out\n        /* \"contracts/06TwitterEvents.sol\":455:475  address public owner */\n    tag_45:\n      0x02\n      0x00\n      swap1\n      sload\n      swap1\n      0x0100\n      exp\n      swap1\n      div\n      0xffffffffffffffffffffffffffffffffffffffff\n      and\n      dup2\n      jump\t// out\n    tag_90:\n      mload(0x40)\n      dup1\n      0xa0\n      add\n      0x40\n      mstore\n      dup1\n      0x00\n      dup2\n      mstore\n      0x20\n      add\n      and(0xffffffffffffffffffffffffffffffffffffffff, 0x00)\n      dup2\n      mstore\n      0x20\n      add\n      0x60\n      dup2\n      mstore\n      0x20\n      add\n      0x00\n      dup2\n      mstore\n      0x20\n      add\n      and(0xffffffffffffffffffffffffffffffff, 0x00)\n      dup2\n      mstore\n      pop\n      swap1\n      jump\t// out\n        /* \"#utility.yul\":7:82   */\n    tag_125:\n        /* \"#utility.yul\":40:46   */\n      0x00\n        /* \"#utility.yul\":73:75   */\n      0x40\n        /* \"#utility.yul\":67:76   */\n      mload\n        /* \"#utility.yul\":57:76   */\n      swap1\n      pop\n        /* \"#utility.yul\":7:82   */\n      swap1\n      jump\t// out\n        /* \"#utility.yul\":88:205   */\n    tag_126:\n        /* \"#utility.yul\":197:198   */\n      0x00\n        /* \"#utility.yul\":194:195   */\n      dup1\n        /* \"#utility.yul\":187:199   */\n      revert\n        /* \"#utility.yul\":211:328   */\n    tag_127:\n        /* \"#utility.yul\":320:321   */\n      0x00\n        /* \"#utility.yul\":317:318   */\n      dup1\n        /* \"#utility.yul\":310:322   */\n      revert\n        /* \"#utility.yul\":334:460   */\n    tag_128:\n        /* \"#utility.yul\":371:378   */\n      0x00\n        /* \"#utility.yul\":411:453   */\n      0xffffffffffffffffffffffffffffffffffffffff\n        /* \"#utility.yul\":404:409   */\n      dup3\n        /* \"#utility.yul\":400:454   */\n      and\n        /* \"#utility.yul\":389:454   */\n      swap1\n      pop\n        /* \"#utility.yul\":334:460   */\n      swap2\n      swap1\n      pop\n      jump\t// out\n        /* \"#utility.yul\":466:562   */\n    tag_129:\n        /* \"#utility.yul\":503:510   */\n      0x00\n        /* \"#utility.yul\":532:556   */\n      tag_204\n        /* \"#utility.yul\":550:555   */\n      dup3\n        /* \"#utility.yul\":532:556   */\n      tag_128\n      jump\t// in\n    tag_204:\n        /* \"#utility.yul\":521:556   */\n      swap1\n      pop\n        /* \"#utility.yul\":466:562   */\n      swap2\n      swap1\n      pop\n      jump\t// out\n        /* \"#utility.yul\":568:690   */\n    tag_130:\n        /* \"#utility.yul\":641:665   */\n      tag_206\n        /* \"#utility.yul\":659:664   */\n      dup2\n        /* \"#utility.yul\":641:665   */\n      tag_129\n      jump\t// in\n    tag_206:\n        /* \"#utility.yul\":634:639   */\n      dup2\n        /* \"#utility.yul\":631:666   */\n      eq\n        /* \"#utility.yul\":621:684   */\n      tag_207\n      jumpi\n        /* \"#utility.yul\":680:681   */\n      0x00\n        /* \"#utility.yul\":677:678   */\n      dup1\n        /* \"#utility.yul\":670:682   */\n      revert\n        /* \"#utility.yul\":621:684   */\n    tag_207:\n        /* \"#utility.yul\":568:690   */\n      pop\n      jump\t// out\n        /* \"#utility.yul\":696:835   */\n    tag_131:\n        /* \"#utility.yul\":742:747   */\n      0x00\n        /* \"#utility.yul\":780:786   */\n      dup2\n        /* \"#utility.yul\":767:787   */\n      calldataload\n        /* \"#utility.yul\":758:787   */\n      swap1\n      pop\n        /* \"#utility.yul\":796:829   */\n      tag_209\n        /* \"#utility.yul\":823:828   */\n      dup2\n        /* \"#utility.yul\":796:829   */\n      tag_130\n      jump\t// in\n    tag_209:\n        /* \"#utility.yul\":696:835   */\n      swap3\n      swap2\n      pop\n      pop\n      jump\t// out\n        /* \"#utility.yul\":841:918   */\n    tag_132:\n        /* \"#utility.yul\":878:885   */\n      0x00\n        /* \"#utility.yul\":907:912   */\n      dup2\n        /* \"#utility.yul\":896:912   */\n      swap1\n      pop\n        /* \"#utility.yul\":841:918   */\n      swap2\n      swap1\n      pop\n      jump\t// out\n        /* \"#utility.yul\":924:1046   */\n    tag_133:\n        /* \"#utility.yul\":997:1021   */\n      tag_212\n        /* \"#utility.yul\":1015:1020   */\n      dup2\n        /* \"#utility.yul\":997:1021   */\n      tag_132\n      jump\t// in\n    tag_212:\n        /* \"#utility.yul\":990:995   */\n      dup2\n        /* \"#utility.yul\":987:1022   */\n      eq\n        /* \"#utility.yul\":977:1040   */\n      tag_213\n      jumpi\n        /* \"#utility.yul\":1036:1037   */\n      0x00\n        /* \"#utility.yul\":1033:1034   */\n      dup1\n        /* \"#utility.yul\":1026:1038   */\n      revert\n        /* \"#utility.yul\":977:1040   */\n    tag_213:\n        /* \"#utility.yul\":924:1046   */\n      pop\n      jump\t// out\n        /* \"#utility.yul\":1052:1191   */\n    tag_134:\n        /* \"#utility.yul\":1098:1103   */\n      0x00\n        /* \"#utility.yul\":1136:1142   */\n      dup2\n        /* \"#utility.yul\":1123:1143   */\n      calldataload\n        /* \"#utility.yul\":1114:1143   */\n      swap1\n      pop\n        /* \"#utility.yul\":1152:1185   */\n      tag_215\n        /* \"#utility.yul\":1179:1184   */\n      dup2\n        /* \"#utility.yul\":1152:1185   */\n      tag_133\n      jump\t// in\n    tag_215:\n        /* \"#utility.yul\":1052:1191   */\n      swap3\n      swap2\n      pop\n      pop\n      jump\t// out\n        /* \"#utility.yul\":1197:1671   */\n    tag_14:\n        /* \"#utility.yul\":1265:1271   */\n      0x00\n        /* \"#utility.yul\":1273:1279   */\n      dup1\n        /* \"#utility.yul\":1322:1324   */\n      0x40\n        /* \"#utility.yul\":1310:1319   */\n      dup4\n        /* \"#utility.yul\":1301:1308   */\n      dup6\n        /* \"#utility.yul\":1297:1320   */\n      sub\n        /* \"#utility.yul\":1293:1325   */\n      slt\n        /* \"#utility.yul\":1290:1409   */\n      iszero\n      tag_217\n      jumpi\n        /* \"#utility.yul\":1328:1407   */\n      tag_218\n      tag_126\n      jump\t// in\n    tag_218:\n        /* \"#utility.yul\":1290:1409   */\n    tag_217:\n        /* \"#utility.yul\":1448:1449   */\n      0x00\n        /* \"#utility.yul\":1473:1526   */\n      tag_219\n        /* \"#utility.yul\":1518:1525   */\n      dup6\n        /* \"#utility.yul\":1509:1515   */\n      dup3\n        /* \"#utility.yul\":1498:1507   */\n      dup7\n        /* \"#utility.yul\":1494:1516   */\n      add\n        /* \"#utility.yul\":1473:1526   */\n      tag_131\n      jump\t// in\n    tag_219:\n        /* \"#utility.yul\":1463:1526   */\n      swap3\n      pop\n        /* \"#utility.yul\":1419:1536   */\n      pop\n        /* \"#utility.yul\":1575:1577   */\n      0x20\n        /* \"#utility.yul\":1601:1654   */\n      tag_220\n        /* \"#utility.yul\":1646:1653   */\n      dup6\n        /* \"#utility.yul\":1637:1643   */\n      dup3\n        /* \"#utility.yul\":1626:1635   */\n      dup7\n        /* \"#utility.yul\":1622:1644   */\n      add\n        /* \"#utility.yul\":1601:1654   */\n      tag_134\n      jump\t// in\n    tag_220:\n        /* \"#utility.yul\":1591:1654   */\n      swap2\n      pop\n        /* \"#utility.yul\":1546:1664   */\n      pop\n        /* \"#utility.yul\":1197:1671   */\n      swap3\n      pop\n      swap3\n      swap1\n      pop\n      jump\t// out\n        /* \"#utility.yul\":1677:1795   */\n    tag_135:\n        /* \"#utility.yul\":1764:1788   */\n      tag_222\n        /* \"#utility.yul\":1782:1787   */\n      dup2\n        /* \"#utility.yul\":1764:1788   */\n      tag_132\n      jump\t// in\n    tag_222:\n        /* \"#utility.yul\":1759:1762   */\n      dup3\n        /* \"#utility.yul\":1752:1789   */\n      mstore\n        /* \"#utility.yul\":1677:1795   */\n      pop\n      pop\n      jump\t// out\n        /* \"#utility.yul\":1801:1919   */\n    tag_136:\n        /* \"#utility.yul\":1888:1912   */\n      tag_224\n        /* \"#utility.yul\":1906:1911   */\n      dup2\n        /* \"#utility.yul\":1888:1912   */\n      tag_129\n      jump\t// in\n    tag_224:\n        /* \"#utility.yul\":1883:1886   */\n      dup3\n        /* \"#utility.yul\":1876:1913   */\n      mstore\n        /* \"#utility.yul\":1801:1919   */\n      pop\n      pop\n      jump\t// out\n        /* \"#utility.yul\":1925:2024   */\n    tag_137:\n        /* \"#utility.yul\":1977:1983   */\n      0x00\n        /* \"#utility.yul\":2011:2016   */\n      dup2\n        /* \"#utility.yul\":2005:2017   */\n      mload\n        /* \"#utility.yul\":1995:2017   */\n      swap1\n      pop\n        /* \"#utility.yul\":1925:2024   */\n      swap2\n      swap1\n      pop\n      jump\t// out\n        /* \"#utility.yul\":2030:2199   */\n    tag_138:\n        /* \"#utility.yul\":2114:2125   */\n      0x00\n        /* \"#utility.yul\":2148:2154   */\n      dup3\n        /* \"#utility.yul\":2143:2146   */\n      dup3\n        /* \"#utility.yul\":2136:2155   */\n      mstore\n        /* \"#utility.yul\":2188:2192   */\n      0x20\n        /* \"#utility.yul\":2183:2186   */\n      dup3\n        /* \"#utility.yul\":2179:2193   */\n      add\n        /* \"#utility.yul\":2164:2193   */\n      swap1\n      pop\n        /* \"#utility.yul\":2030:2199   */\n      swap3\n      swap2\n      pop\n      pop\n      jump\t// out\n        /* \"#utility.yul\":2205:2344   */\n    tag_139:\n        /* \"#utility.yul\":2294:2300   */\n      dup3\n        /* \"#utility.yul\":2289:2292   */\n      dup2\n        /* \"#utility.yul\":2284:2287   */\n      dup4\n        /* \"#utility.yul\":2278:2301   */\n      mcopy\n        /* \"#utility.yul\":2335:2336   */\n      0x00\n        /* \"#utility.yul\":2326:2332   */\n      dup4\n        /* \"#utility.yul\":2321:2324   */\n      dup4\n        /* \"#utility.yul\":2317:2333   */\n      add\n        /* \"#utility.yul\":2310:2337   */\n      mstore\n        /* \"#utility.yul\":2205:2344   */\n      pop\n      pop\n      pop\n      jump\t// out\n        /* \"#utility.yul\":2350:2452   */\n    tag_140:\n        /* \"#utility.yul\":2391:2397   */\n      0x00\n        /* \"#utility.yul\":2442:2444   */\n      0x1f\n        /* \"#utility.yul\":2438:2445   */\n      not\n        /* \"#utility.yul\":2433:2435   */\n      0x1f\n        /* \"#utility.yul\":2426:2431   */\n      dup4\n        /* \"#utility.yul\":2422:2436   */\n      add\n        /* \"#utility.yul\":2418:2446   */\n      and\n        /* \"#utility.yul\":2408:2446   */\n      swap1\n      pop\n        /* \"#utility.yul\":2350:2452   */\n      swap2\n      swap1\n      pop\n      jump\t// out\n        /* \"#utility.yul\":2458:2835   */\n    tag_141:\n        /* \"#utility.yul\":2546:2549   */\n      0x00\n        /* \"#utility.yul\":2574:2613   */\n      tag_230\n        /* \"#utility.yul\":2607:2612   */\n      dup3\n        /* \"#utility.yul\":2574:2613   */\n      tag_137\n      jump\t// in\n    tag_230:\n        /* \"#utility.yul\":2629:2700   */\n      tag_231\n        /* \"#utility.yul\":2693:2699   */\n      dup2\n        /* \"#utility.yul\":2688:2691   */\n      dup6\n        /* \"#utility.yul\":2629:2700   */\n      tag_138\n      jump\t// in\n    tag_231:\n        /* \"#utility.yul\":2622:2700   */\n      swap4\n      pop\n        /* \"#utility.yul\":2709:2774   */\n      tag_232\n        /* \"#utility.yul\":2767:2773   */\n      dup2\n        /* \"#utility.yul\":2762:2765   */\n      dup6\n        /* \"#utility.yul\":2755:2759   */\n      0x20\n        /* \"#utility.yul\":2748:2753   */\n      dup7\n        /* \"#utility.yul\":2744:2760   */\n      add\n        /* \"#utility.yul\":2709:2774   */\n      tag_139\n      jump\t// in\n    tag_232:\n        /* \"#utility.yul\":2799:2828   */\n      tag_233\n        /* \"#utility.yul\":2821:2827   */\n      dup2\n        /* \"#utility.yul\":2799:2828   */\n      tag_140\n      jump\t// in\n    tag_233:\n        /* \"#utility.yul\":2794:2797   */\n      dup5\n        /* \"#utility.yul\":2790:2829   */\n      add\n        /* \"#utility.yul\":2783:2829   */\n      swap2\n      pop\n        /* \"#utility.yul\":2550:2835   */\n      pop\n        /* \"#utility.yul\":2458:2835   */\n      swap3\n      swap2\n      pop\n      pop\n      jump\t// out\n        /* \"#utility.yul\":2841:2959   */\n    tag_142:\n        /* \"#utility.yul\":2878:2885   */\n      0x00\n        /* \"#utility.yul\":2918:2952   */\n      0xffffffffffffffffffffffffffffffff\n        /* \"#utility.yul\":2911:2916   */\n      dup3\n        /* \"#utility.yul\":2907:2953   */\n      and\n        /* \"#utility.yul\":2896:2953   */\n      swap1\n      pop\n        /* \"#utility.yul\":2841:2959   */\n      swap2\n      swap1\n      pop\n      jump\t// out\n        /* \"#utility.yul\":2965:3083   */\n    tag_143:\n        /* \"#utility.yul\":3052:3076   */\n      tag_236\n        /* \"#utility.yul\":3070:3075   */\n      dup2\n        /* \"#utility.yul\":3052:3076   */\n      tag_142\n      jump\t// in\n    tag_236:\n        /* \"#utility.yul\":3047:3050   */\n      dup3\n        /* \"#utility.yul\":3040:3077   */\n      mstore\n        /* \"#utility.yul\":2965:3083   */\n      pop\n      pop\n      jump\t// out\n        /* \"#utility.yul\":3089:3844   */\n    tag_17:\n        /* \"#utility.yul\":3314:3318   */\n      0x00\n        /* \"#utility.yul\":3352:3355   */\n      0xa0\n        /* \"#utility.yul\":3341:3350   */\n      dup3\n        /* \"#utility.yul\":3337:3356   */\n      add\n        /* \"#utility.yul\":3329:3356   */\n      swap1\n      pop\n        /* \"#utility.yul\":3366:3437   */\n      tag_238\n        /* \"#utility.yul\":3434:3435   */\n      0x00\n        /* \"#utility.yul\":3423:3432   */\n      dup4\n        /* \"#utility.yul\":3419:3436   */\n      add\n        /* \"#utility.yul\":3410:3416   */\n      dup9\n        /* \"#utility.yul\":3366:3437   */\n      tag_135\n      jump\t// in\n    tag_238:\n        /* \"#utility.yul\":3447:3519   */\n      tag_239\n        /* \"#utility.yul\":3515:3517   */\n      0x20\n        /* \"#utility.yul\":3504:3513   */\n      dup4\n        /* \"#utility.yul\":3500:3518   */\n      add\n        /* \"#utility.yul\":3491:3497   */\n      dup8\n        /* \"#utility.yul\":3447:3519   */\n      tag_136\n      jump\t// in\n    tag_239:\n        /* \"#utility.yul\":3566:3575   */\n      dup2\n        /* \"#utility.yul\":3560:3564   */\n      dup2\n        /* \"#utility.yul\":3556:3576   */\n      sub\n        /* \"#utility.yul\":3551:3553   */\n      0x40\n        /* \"#utility.yul\":3540:3549   */\n      dup4\n        /* \"#utility.yul\":3536:3554   */\n      add\n        /* \"#utility.yul\":3529:3577   */\n      mstore\n        /* \"#utility.yul\":3594:3672   */\n      tag_240\n        /* \"#utility.yul\":3667:3671   */\n      dup2\n        /* \"#utility.yul\":3658:3664   */\n      dup7\n        /* \"#utility.yul\":3594:3672   */\n      tag_141\n      jump\t// in\n    tag_240:\n        /* \"#utility.yul\":3586:3672   */\n      swap1\n      pop\n        /* \"#utility.yul\":3682:3754   */\n      tag_241\n        /* \"#utility.yul\":3750:3752   */\n      0x60\n        /* \"#utility.yul\":3739:3748   */\n      dup4\n        /* \"#utility.yul\":3735:3753   */\n      add\n        /* \"#utility.yul\":3726:3732   */\n      dup6\n        /* \"#utility.yul\":3682:3754   */\n      tag_135\n      jump\t// in\n    tag_241:\n        /* \"#utility.yul\":3764:3837   */\n      tag_242\n        /* \"#utility.yul\":3832:3835   */\n      0x80\n        /* \"#utility.yul\":3821:3830   */\n      dup4\n        /* \"#utility.yul\":3817:3836   */\n      add\n        /* \"#utility.yul\":3808:3814   */\n      dup5\n        /* \"#utility.yul\":3764:3837   */\n      tag_143\n      jump\t// in\n    tag_242:\n        /* \"#utility.yul\":3089:3844   */\n      swap7\n      swap6\n      pop\n      pop\n      pop\n      pop\n      pop\n      pop\n      jump\t// out\n        /* \"#utility.yul\":3850:4179   */\n    tag_20:\n        /* \"#utility.yul\":3909:3915   */\n      0x00\n        /* \"#utility.yul\":3958:3960   */\n      0x20\n        /* \"#utility.yul\":3946:3955   */\n      dup3\n        /* \"#utility.yul\":3937:3944   */\n      dup5\n        /* \"#utility.yul\":3933:3956   */\n      sub\n        /* \"#utility.yul\":3929:3961   */\n      slt\n        /* \"#utility.yul\":3926:4045   */\n      iszero\n      tag_244\n      jumpi\n        /* \"#utility.yul\":3964:4043   */\n      tag_245\n      tag_126\n      jump\t// in\n    tag_245:\n        /* \"#utility.yul\":3926:4045   */\n    tag_244:\n        /* \"#utility.yul\":4084:4085   */\n      0x00\n        /* \"#utility.yul\":4109:4162   */\n      tag_246\n        /* \"#utility.yul\":4154:4161   */\n      dup5\n        /* \"#utility.yul\":4145:4151   */\n      dup3\n        /* \"#utility.yul\":4134:4143   */\n      dup6\n        /* \"#utility.yul\":4130:4152   */\n      add\n        /* \"#utility.yul\":4109:4162   */\n      tag_131\n      jump\t// in\n    tag_246:\n        /* \"#utility.yul\":4099:4162   */\n      swap2\n      pop\n        /* \"#utility.yul\":4055:4172   */\n      pop\n        /* \"#utility.yul\":3850:4179   */\n      swap3\n      swap2\n      pop\n      pop\n      jump\t// out\n        /* \"#utility.yul\":4185:4320   */\n    tag_144:\n        /* \"#utility.yul\":4273:4279   */\n      0x00\n        /* \"#utility.yul\":4307:4312   */\n      dup2\n        /* \"#utility.yul\":4301:4313   */\n      mload\n        /* \"#utility.yul\":4291:4313   */\n      swap1\n      pop\n        /* \"#utility.yul\":4185:4320   */\n      swap2\n      swap1\n      pop\n      jump\t// out\n        /* \"#utility.yul\":4326:4531   */\n    tag_145:\n        /* \"#utility.yul\":4446:4457   */\n      0x00\n        /* \"#utility.yul\":4480:4486   */\n      dup3\n        /* \"#utility.yul\":4475:4478   */\n      dup3\n        /* \"#utility.yul\":4468:4487   */\n      mstore\n        /* \"#utility.yul\":4520:4524   */\n      0x20\n        /* \"#utility.yul\":4515:4518   */\n      dup3\n        /* \"#utility.yul\":4511:4525   */\n      add\n        /* \"#utility.yul\":4496:4525   */\n      swap1\n      pop\n        /* \"#utility.yul\":4326:4531   */\n      swap3\n      swap2\n      pop\n      pop\n      jump\t// out\n        /* \"#utility.yul\":4537:4690   */\n    tag_146:\n        /* \"#utility.yul\":4625:4629   */\n      0x00\n        /* \"#utility.yul\":4648:4651   */\n      dup2\n        /* \"#utility.yul\":4640:4651   */\n      swap1\n      pop\n        /* \"#utility.yul\":4678:4682   */\n      0x20\n        /* \"#utility.yul\":4673:4676   */\n      dup3\n        /* \"#utility.yul\":4669:4683   */\n      add\n        /* \"#utility.yul\":4661:4683   */\n      swap1\n      pop\n        /* \"#utility.yul\":4537:4690   */\n      swap2\n      swap1\n      pop\n      jump\t// out\n        /* \"#utility.yul\":4696:4804   */\n    tag_147:\n        /* \"#utility.yul\":4773:4797   */\n      tag_251\n        /* \"#utility.yul\":4791:4796   */\n      dup2\n        /* \"#utility.yul\":4773:4797   */\n      tag_132\n      jump\t// in\n    tag_251:\n        /* \"#utility.yul\":4768:4771   */\n      dup3\n        /* \"#utility.yul\":4761:4798   */\n      mstore\n        /* \"#utility.yul\":4696:4804   */\n      pop\n      pop\n      jump\t// out\n        /* \"#utility.yul\":4810:4918   */\n    tag_148:\n        /* \"#utility.yul\":4887:4911   */\n      tag_253\n        /* \"#utility.yul\":4905:4910   */\n      dup2\n        /* \"#utility.yul\":4887:4911   */\n      tag_129\n      jump\t// in\n    tag_253:\n        /* \"#utility.yul\":4882:4885   */\n      dup3\n        /* \"#utility.yul\":4875:4912   */\n      mstore\n        /* \"#utility.yul\":4810:4918   */\n      pop\n      pop\n      jump\t// out\n        /* \"#utility.yul\":4924:5083   */\n    tag_149:\n        /* \"#utility.yul\":4998:5009   */\n      0x00\n        /* \"#utility.yul\":5032:5038   */\n      dup3\n        /* \"#utility.yul\":5027:5030   */\n      dup3\n        /* \"#utility.yul\":5020:5039   */\n      mstore\n        /* \"#utility.yul\":5072:5076   */\n      0x20\n        /* \"#utility.yul\":5067:5070   */\n      dup3\n        /* \"#utility.yul\":5063:5077   */\n      add\n        /* \"#utility.yul\":5048:5077   */\n      swap1\n      pop\n        /* \"#utility.yul\":4924:5083   */\n      swap3\n      swap2\n      pop\n      pop\n      jump\t// out\n        /* \"#utility.yul\":5089:5446   */\n    tag_150:\n        /* \"#utility.yul\":5167:5170   */\n      0x00\n        /* \"#utility.yul\":5195:5234   */\n      tag_256\n        /* \"#utility.yul\":5228:5233   */\n      dup3\n        /* \"#utility.yul\":5195:5234   */\n      tag_137\n      jump\t// in\n    tag_256:\n        /* \"#utility.yul\":5250:5311   */\n      tag_257\n        /* \"#utility.yul\":5304:5310   */\n      dup2\n        /* \"#utility.yul\":5299:5302   */\n      dup6\n        /* \"#utility.yul\":5250:5311   */\n      tag_149\n      jump\t// in\n    tag_257:\n        /* \"#utility.yul\":5243:5311   */\n      swap4\n      pop\n        /* \"#utility.yul\":5320:5385   */\n      tag_258\n        /* \"#utility.yul\":5378:5384   */\n      dup2\n        /* \"#utility.yul\":5373:5376   */\n      dup6\n        /* \"#utility.yul\":5366:5370   */\n      0x20\n        /* \"#utility.yul\":5359:5364   */\n      dup7\n        /* \"#utility.yul\":5355:5371   */\n      add\n        /* \"#utility.yul\":5320:5385   */\n      tag_139\n      jump\t// in\n    tag_258:\n        /* \"#utility.yul\":5410:5439   */\n      tag_259\n        /* \"#utility.yul\":5432:5438   */\n      dup2\n        /* \"#utility.yul\":5410:5439   */\n      tag_140\n      jump\t// in\n    tag_259:\n        /* \"#utility.yul\":5405:5408   */\n      dup5\n        /* \"#utility.yul\":5401:5440   */\n      add\n        /* \"#utility.yul\":5394:5440   */\n      swap2\n      pop\n        /* \"#utility.yul\":5171:5446   */\n      pop\n        /* \"#utility.yul\":5089:5446   */\n      swap3\n      swap2\n      pop\n      pop\n      jump\t// out\n        /* \"#utility.yul\":5452:5560   */\n    tag_151:\n        /* \"#utility.yul\":5529:5553   */\n      tag_261\n        /* \"#utility.yul\":5547:5552   */\n      dup2\n        /* \"#utility.yul\":5529:5553   */\n      tag_142\n      jump\t// in\n    tag_261:\n        /* \"#utility.yul\":5524:5527   */\n      dup3\n        /* \"#utility.yul\":5517:5554   */\n      mstore\n        /* \"#utility.yul\":5452:5560   */\n      pop\n      pop\n      jump\t// out\n        /* \"#utility.yul\":5630:6749   */\n    tag_152:\n        /* \"#utility.yul\":5731:5734   */\n      0x00\n        /* \"#utility.yul\":5767:5771   */\n      0xa0\n        /* \"#utility.yul\":5762:5765   */\n      dup4\n        /* \"#utility.yul\":5758:5772   */\n      add\n        /* \"#utility.yul\":5852:5856   */\n      0x00\n        /* \"#utility.yul\":5845:5850   */\n      dup4\n        /* \"#utility.yul\":5841:5857   */\n      add\n        /* \"#utility.yul\":5835:5858   */\n      mload\n        /* \"#utility.yul\":5871:5934   */\n      tag_263\n        /* \"#utility.yul\":5928:5932   */\n      0x00\n        /* \"#utility.yul\":5923:5926   */\n      dup7\n        /* \"#utility.yul\":5919:5933   */\n      add\n        /* \"#utility.yul\":5905:5917   */\n      dup3\n        /* \"#utility.yul\":5871:5934   */\n      tag_147\n      jump\t// in\n    tag_263:\n        /* \"#utility.yul\":5782:5944   */\n      pop\n        /* \"#utility.yul\":6028:6032   */\n      0x20\n        /* \"#utility.yul\":6021:6026   */\n      dup4\n        /* \"#utility.yul\":6017:6033   */\n      add\n        /* \"#utility.yul\":6011:6034   */\n      mload\n        /* \"#utility.yul\":6047:6110   */\n      tag_264\n        /* \"#utility.yul\":6104:6108   */\n      0x20\n        /* \"#utility.yul\":6099:6102   */\n      dup7\n        /* \"#utility.yul\":6095:6109   */\n      add\n        /* \"#utility.yul\":6081:6093   */\n      dup3\n        /* \"#utility.yul\":6047:6110   */\n      tag_148\n      jump\t// in\n    tag_264:\n        /* \"#utility.yul\":5954:6120   */\n      pop\n        /* \"#utility.yul\":6205:6209   */\n      0x40\n        /* \"#utility.yul\":6198:6203   */\n      dup4\n        /* \"#utility.yul\":6194:6210   */\n      add\n        /* \"#utility.yul\":6188:6211   */\n      mload\n        /* \"#utility.yul\":6258:6261   */\n      dup5\n        /* \"#utility.yul\":6252:6256   */\n      dup3\n        /* \"#utility.yul\":6248:6262   */\n      sub\n        /* \"#utility.yul\":6241:6245   */\n      0x40\n        /* \"#utility.yul\":6236:6239   */\n      dup7\n        /* \"#utility.yul\":6232:6246   */\n      add\n        /* \"#utility.yul\":6225:6263   */\n      mstore\n        /* \"#utility.yul\":6284:6357   */\n      tag_265\n        /* \"#utility.yul\":6352:6356   */\n      dup3\n        /* \"#utility.yul\":6338:6350   */\n      dup3\n        /* \"#utility.yul\":6284:6357   */\n      tag_150\n      jump\t// in\n    tag_265:\n        /* \"#utility.yul\":6276:6357   */\n      swap2\n      pop\n        /* \"#utility.yul\":6130:6368   */\n      pop\n        /* \"#utility.yul\":6455:6459   */\n      0x60\n        /* \"#utility.yul\":6448:6453   */\n      dup4\n        /* \"#utility.yul\":6444:6460   */\n      add\n        /* \"#utility.yul\":6438:6461   */\n      mload\n        /* \"#utility.yul\":6474:6537   */\n      tag_266\n        /* \"#utility.yul\":6531:6535   */\n      0x60\n        /* \"#utility.yul\":6526:6529   */\n      dup7\n        /* \"#utility.yul\":6522:6536   */\n      add\n        /* \"#utility.yul\":6508:6520   */\n      dup3\n        /* \"#utility.yul\":6474:6537   */\n      tag_147\n      jump\t// in\n    tag_266:\n        /* \"#utility.yul\":6378:6547   */\n      pop\n        /* \"#utility.yul\":6630:6634   */\n      0x80\n        /* \"#utility.yul\":6623:6628   */\n      dup4\n        /* \"#utility.yul\":6619:6635   */\n      add\n        /* \"#utility.yul\":6613:6636   */\n      mload\n        /* \"#utility.yul\":6649:6712   */\n      tag_267\n        /* \"#utility.yul\":6706:6710   */\n      0x80\n        /* \"#utility.yul\":6701:6704   */\n      dup7\n        /* \"#utility.yul\":6697:6711   */\n      add\n        /* \"#utility.yul\":6683:6695   */\n      dup3\n        /* \"#utility.yul\":6649:6712   */\n      tag_151\n      jump\t// in\n    tag_267:\n        /* \"#utility.yul\":6557:6722   */\n      pop\n        /* \"#utility.yul\":6739:6743   */\n      dup1\n        /* \"#utility.yul\":6732:6743   */\n      swap2\n      pop\n        /* \"#utility.yul\":5736:6749   */\n      pop\n        /* \"#utility.yul\":5630:6749   */\n      swap3\n      swap2\n      pop\n      pop\n      jump\t// out\n        /* \"#utility.yul\":6755:6995   */\n    tag_153:\n        /* \"#utility.yul\":6866:6876   */\n      0x00\n        /* \"#utility.yul\":6901:6989   */\n      tag_269\n        /* \"#utility.yul\":6985:6988   */\n      dup4\n        /* \"#utility.yul\":6977:6983   */\n      dup4\n        /* \"#utility.yul\":6901:6989   */\n      tag_152\n      jump\t// in\n    tag_269:\n        /* \"#utility.yul\":6887:6989   */\n      swap1\n      pop\n        /* \"#utility.yul\":6755:6995   */\n      swap3\n      swap2\n      pop\n      pop\n      jump\t// out\n        /* \"#utility.yul\":7001:7135   */\n    tag_154:\n        /* \"#utility.yul\":7092:7096   */\n      0x00\n        /* \"#utility.yul\":7124:7128   */\n      0x20\n        /* \"#utility.yul\":7119:7122   */\n      dup3\n        /* \"#utility.yul\":7115:7129   */\n      add\n        /* \"#utility.yul\":7107:7129   */\n      swap1\n      pop\n        /* \"#utility.yul\":7001:7135   */\n      swap2\n      swap1\n      pop\n      jump\t// out\n        /* \"#utility.yul\":7209:8288   */\n    tag_155:\n        /* \"#utility.yul\":7370:7373   */\n      0x00\n        /* \"#utility.yul\":7399:7474   */\n      tag_272\n        /* \"#utility.yul\":7468:7473   */\n      dup3\n        /* \"#utility.yul\":7399:7474   */\n      tag_144\n      jump\t// in\n    tag_272:\n        /* \"#utility.yul\":7490:7597   */\n      tag_273\n        /* \"#utility.yul\":7590:7596   */\n      dup2\n        /* \"#utility.yul\":7585:7588   */\n      dup6\n        /* \"#utility.yul\":7490:7597   */\n      tag_145\n      jump\t// in\n    tag_273:\n        /* \"#utility.yul\":7483:7597   */\n      swap4\n      pop\n        /* \"#utility.yul\":7623:7626   */\n      dup4\n        /* \"#utility.yul\":7668:7672   */\n      0x20\n        /* \"#utility.yul\":7660:7666   */\n      dup3\n        /* \"#utility.yul\":7656:7673   */\n      mul\n        /* \"#utility.yul\":7651:7654   */\n      dup6\n        /* \"#utility.yul\":7647:7674   */\n      add\n        /* \"#utility.yul\":7698:7775   */\n      tag_274\n        /* \"#utility.yul\":7769:7774   */\n      dup6\n        /* \"#utility.yul\":7698:7775   */\n      tag_146\n      jump\t// in\n    tag_274:\n        /* \"#utility.yul\":7798:7805   */\n      dup1\n        /* \"#utility.yul\":7829:7830   */\n      0x00\n        /* \"#utility.yul\":7814:8243   */\n    tag_275:\n        /* \"#utility.yul\":7839:7845   */\n      dup6\n        /* \"#utility.yul\":7836:7837   */\n      dup2\n        /* \"#utility.yul\":7833:7846   */\n      lt\n        /* \"#utility.yul\":7814:8243   */\n      iszero\n      tag_277\n      jumpi\n        /* \"#utility.yul\":7910:7919   */\n      dup5\n        /* \"#utility.yul\":7904:7908   */\n      dup5\n        /* \"#utility.yul\":7900:7920   */\n      sub\n        /* \"#utility.yul\":7895:7898   */\n      dup10\n        /* \"#utility.yul\":7888:7921   */\n      mstore\n        /* \"#utility.yul\":7961:7967   */\n      dup2\n        /* \"#utility.yul\":7955:7968   */\n      mload\n        /* \"#utility.yul\":7989:8095   */\n      tag_278\n        /* \"#utility.yul\":8090:8094   */\n      dup6\n        /* \"#utility.yul\":8075:8088   */\n      dup3\n        /* \"#utility.yul\":7989:8095   */\n      tag_153\n      jump\t// in\n    tag_278:\n        /* \"#utility.yul\":7981:8095   */\n      swap5\n      pop\n        /* \"#utility.yul\":8118:8199   */\n      tag_279\n        /* \"#utility.yul\":8192:8198   */\n      dup4\n        /* \"#utility.yul\":8118:8199   */\n      tag_154\n      jump\t// in\n    tag_279:\n        /* \"#utility.yul\":8108:8199   */\n      swap3\n      pop\n        /* \"#utility.yul\":8228:8232   */\n      0x20\n        /* \"#utility.yul\":8223:8226   */\n      dup11\n        /* \"#utility.yul\":8219:8233   */\n      add\n        /* \"#utility.yul\":8212:8233   */\n      swap10\n      pop\n        /* \"#utility.yul\":7874:8243   */\n      pop\n        /* \"#utility.yul\":7861:7862   */\n      0x01\n        /* \"#utility.yul\":7858:7859   */\n      dup2\n        /* \"#utility.yul\":7854:7863   */\n      add\n        /* \"#utility.yul\":7849:7863   */\n      swap1\n      pop\n        /* \"#utility.yul\":7814:8243   */\n      jump(tag_275)\n    tag_277:\n        /* \"#utility.yul\":7818:7832   */\n      pop\n        /* \"#utility.yul\":8259:8263   */\n      dup3\n        /* \"#utility.yul\":8252:8263   */\n      swap8\n      pop\n        /* \"#utility.yul\":8279:8282   */\n      dup8\n        /* \"#utility.yul\":8272:8282   */\n      swap6\n      pop\n        /* \"#utility.yul\":7375:8288   */\n      pop\n      pop\n      pop\n      pop\n      pop\n        /* \"#utility.yul\":7209:8288   */\n      swap3\n      swap2\n      pop\n      pop\n      jump\t// out\n        /* \"#utility.yul\":8294:8751   */\n    tag_23:\n        /* \"#utility.yul\":8479:8483   */\n      0x00\n        /* \"#utility.yul\":8517:8519   */\n      0x20\n        /* \"#utility.yul\":8506:8515   */\n      dup3\n        /* \"#utility.yul\":8502:8520   */\n      add\n        /* \"#utility.yul\":8494:8520   */\n      swap1\n      pop\n        /* \"#utility.yul\":8566:8575   */\n      dup2\n        /* \"#utility.yul\":8560:8564   */\n      dup2\n        /* \"#utility.yul\":8556:8576   */\n      sub\n        /* \"#utility.yul\":8552:8553   */\n      0x00\n        /* \"#utility.yul\":8541:8550   */\n      dup4\n        /* \"#utility.yul\":8537:8554   */\n      add\n        /* \"#utility.yul\":8530:8577   */\n      mstore\n        /* \"#utility.yul\":8594:8744   */\n      tag_281\n        /* \"#utility.yul\":8739:8743   */\n      dup2\n        /* \"#utility.yul\":8730:8736   */\n      dup5\n        /* \"#utility.yul\":8594:8744   */\n      tag_155\n      jump\t// in\n    tag_281:\n        /* \"#utility.yul\":8586:8744   */\n      swap1\n      pop\n        /* \"#utility.yul\":8294:8751   */\n      swap3\n      swap2\n      pop\n      pop\n      jump\t// out\n        /* \"#utility.yul\":8757:8846   */\n    tag_156:\n        /* \"#utility.yul\":8793:8800   */\n      0x00\n        /* \"#utility.yul\":8833:8839   */\n      0xffff\n        /* \"#utility.yul\":8826:8831   */\n      dup3\n        /* \"#utility.yul\":8822:8840   */\n      and\n        /* \"#utility.yul\":8811:8840   */\n      swap1\n      pop\n        /* \"#utility.yul\":8757:8846   */\n      swap2\n      swap1\n      pop\n      jump\t// out\n        /* \"#utility.yul\":8852:8972   */\n    tag_157:\n        /* \"#utility.yul\":8924:8947   */\n      tag_284\n        /* \"#utility.yul\":8941:8946   */\n      dup2\n        /* \"#utility.yul\":8924:8947   */\n      tag_156\n      jump\t// in\n    tag_284:\n        /* \"#utility.yul\":8917:8922   */\n      dup2\n        /* \"#utility.yul\":8914:8948   */\n      eq\n        /* \"#utility.yul\":8904:8966   */\n      tag_285\n      jumpi\n        /* \"#utility.yul\":8962:8963   */\n      0x00\n        /* \"#utility.yul\":8959:8960   */\n      dup1\n        /* \"#utility.yul\":8952:8964   */\n      revert\n        /* \"#utility.yul\":8904:8966   */\n    tag_285:\n        /* \"#utility.yul\":8852:8972   */\n      pop\n      jump\t// out\n        /* \"#utility.yul\":8978:9115   */\n    tag_158:\n        /* \"#utility.yul\":9023:9028   */\n      0x00\n        /* \"#utility.yul\":9061:9067   */\n      dup2\n        /* \"#utility.yul\":9048:9068   */\n      calldataload\n        /* \"#utility.yul\":9039:9068   */\n      swap1\n      pop\n        /* \"#utility.yul\":9077:9109   */\n      tag_287\n        /* \"#utility.yul\":9103:9108   */\n      dup2\n        /* \"#utility.yul\":9077:9109   */\n      tag_157\n      jump\t// in\n    tag_287:\n        /* \"#utility.yul\":8978:9115   */\n      swap3\n      swap2\n      pop\n      pop\n      jump\t// out\n        /* \"#utility.yul\":9121:9448   */\n    tag_29:\n        /* \"#utility.yul\":9179:9185   */\n      0x00\n        /* \"#utility.yul\":9228:9230   */\n      0x20\n        /* \"#utility.yul\":9216:9225   */\n      dup3\n        /* \"#utility.yul\":9207:9214   */\n      dup5\n        /* \"#utility.yul\":9203:9226   */\n      sub\n        /* \"#utility.yul\":9199:9231   */\n      slt\n        /* \"#utility.yul\":9196:9315   */\n      iszero\n      tag_289\n      jumpi\n        /* \"#utility.yul\":9234:9313   */\n      tag_290\n      tag_126\n      jump\t// in\n    tag_290:\n        /* \"#utility.yul\":9196:9315   */\n    tag_289:\n        /* \"#utility.yul\":9354:9355   */\n      0x00\n        /* \"#utility.yul\":9379:9431   */\n      tag_291\n        /* \"#utility.yul\":9423:9430   */\n      dup5\n        /* \"#utility.yul\":9414:9420   */\n      dup3\n        /* \"#utility.yul\":9403:9412   */\n      dup6\n        /* \"#utility.yul\":9399:9421   */\n      add\n        /* \"#utility.yul\":9379:9431   */\n      tag_158\n      jump\t// in\n    tag_291:\n        /* \"#utility.yul\":9369:9431   */\n      swap2\n      pop\n        /* \"#utility.yul\":9325:9441   */\n      pop\n        /* \"#utility.yul\":9121:9448   */\n      swap3\n      swap2\n      pop\n      pop\n      jump\t// out\n        /* \"#utility.yul\":9454:9576   */\n    tag_159:\n        /* \"#utility.yul\":9527:9551   */\n      tag_293\n        /* \"#utility.yul\":9545:9550   */\n      dup2\n        /* \"#utility.yul\":9527:9551   */\n      tag_142\n      jump\t// in\n    tag_293:\n        /* \"#utility.yul\":9520:9525   */\n      dup2\n        /* \"#utility.yul\":9517:9552   */\n      eq\n        /* \"#utility.yul\":9507:9570   */\n      tag_294\n      jumpi\n        /* \"#utility.yul\":9566:9567   */\n      0x00\n        /* \"#utility.yul\":9563:9564   */\n      dup1\n        /* \"#utility.yul\":9556:9568   */\n      revert\n        /* \"#utility.yul\":9507:9570   */\n    tag_294:\n        /* \"#utility.yul\":9454:9576   */\n      pop\n      jump\t// out\n        /* \"#utility.yul\":9582:9721   */\n    tag_160:\n        /* \"#utility.yul\":9628:9633   */\n      0x00\n        /* \"#utility.yul\":9666:9672   */\n      dup2\n        /* \"#utility.yul\":9653:9673   */\n      calldataload\n        /* \"#utility.yul\":9644:9673   */\n      swap1\n      pop\n        /* \"#utility.yul\":9682:9715   */\n      tag_296\n        /* \"#utility.yul\":9709:9714   */\n      dup2\n        /* \"#utility.yul\":9682:9715   */\n      tag_159\n      jump\t// in\n    tag_296:\n        /* \"#utility.yul\":9582:9721   */\n      swap3\n      swap2\n      pop\n      pop\n      jump\t// out\n        /* \"#utility.yul\":9727:10056   */\n    tag_33:\n        /* \"#utility.yul\":9786:9792   */\n      0x00\n        /* \"#utility.yul\":9835:9837   */\n      0x20\n        /* \"#utility.yul\":9823:9832   */\n      dup3\n        /* \"#utility.yul\":9814:9821   */\n      dup5\n        /* \"#utility.yul\":9810:9833   */\n      sub\n        /* \"#utility.yul\":9806:9838   */\n      slt\n        /* \"#utility.yul\":9803:9922   */\n      iszero\n      tag_298\n      jumpi\n        /* \"#utility.yul\":9841:9920   */\n      tag_299\n      tag_126\n      jump\t// in\n    tag_299:\n        /* \"#utility.yul\":9803:9922   */\n    tag_298:\n        /* \"#utility.yul\":9961:9962   */\n      0x00\n        /* \"#utility.yul\":9986:10039   */\n      tag_300\n        /* \"#utility.yul\":10031:10038   */\n      dup5\n        /* \"#utility.yul\":10022:10028   */\n      dup3\n        /* \"#utility.yul\":10011:10020   */\n      dup6\n        /* \"#utility.yul\":10007:10029   */\n      add\n        /* \"#utility.yul\":9986:10039   */\n      tag_160\n      jump\t// in\n    tag_300:\n        /* \"#utility.yul\":9976:10039   */\n      swap2\n      pop\n        /* \"#utility.yul\":9932:10049   */\n      pop\n        /* \"#utility.yul\":9727:10056   */\n      swap3\n      swap2\n      pop\n      pop\n      jump\t// out\n        /* \"#utility.yul\":10126:11255   */\n    tag_161:\n        /* \"#utility.yul\":10237:10240   */\n      0x00\n        /* \"#utility.yul\":10273:10277   */\n      0xa0\n        /* \"#utility.yul\":10268:10271   */\n      dup4\n        /* \"#utility.yul\":10264:10278   */\n      add\n        /* \"#utility.yul\":10358:10362   */\n      0x00\n        /* \"#utility.yul\":10351:10356   */\n      dup4\n        /* \"#utility.yul\":10347:10363   */\n      add\n        /* \"#utility.yul\":10341:10364   */\n      mload\n        /* \"#utility.yul\":10377:10440   */\n      tag_302\n        /* \"#utility.yul\":10434:10438   */\n      0x00\n        /* \"#utility.yul\":10429:10432   */\n      dup7\n        /* \"#utility.yul\":10425:10439   */\n      add\n        /* \"#utility.yul\":10411:10423   */\n      dup3\n        /* \"#utility.yul\":10377:10440   */\n      tag_147\n      jump\t// in\n    tag_302:\n        /* \"#utility.yul\":10288:10450   */\n      pop\n        /* \"#utility.yul\":10534:10538   */\n      0x20\n        /* \"#utility.yul\":10527:10532   */\n      dup4\n        /* \"#utility.yul\":10523:10539   */\n      add\n        /* \"#utility.yul\":10517:10540   */\n      mload\n        /* \"#utility.yul\":10553:10616   */\n      tag_303\n        /* \"#utility.yul\":10610:10614   */\n      0x20\n        /* \"#utility.yul\":10605:10608   */\n      dup7\n        /* \"#utility.yul\":10601:10615   */\n      add\n        /* \"#utility.yul\":10587:10599   */\n      dup3\n        /* \"#utility.yul\":10553:10616   */\n      tag_148\n      jump\t// in\n    tag_303:\n        /* \"#utility.yul\":10460:10626   */\n      pop\n        /* \"#utility.yul\":10711:10715   */\n      0x40\n        /* \"#utility.yul\":10704:10709   */\n      dup4\n        /* \"#utility.yul\":10700:10716   */\n      add\n        /* \"#utility.yul\":10694:10717   */\n      mload\n        /* \"#utility.yul\":10764:10767   */\n      dup5\n        /* \"#utility.yul\":10758:10762   */\n      dup3\n        /* \"#utility.yul\":10754:10768   */\n      sub\n        /* \"#utility.yul\":10747:10751   */\n      0x40\n        /* \"#utility.yul\":10742:10745   */\n      dup7\n        /* \"#utility.yul\":10738:10752   */\n      add\n        /* \"#utility.yul\":10731:10769   */\n      mstore\n        /* \"#utility.yul\":10790:10863   */\n      tag_304\n        /* \"#utility.yul\":10858:10862   */\n      dup3\n        /* \"#utility.yul\":10844:10856   */\n      dup3\n        /* \"#utility.yul\":10790:10863   */\n      tag_150\n      jump\t// in\n    tag_304:\n        /* \"#utility.yul\":10782:10863   */\n      swap2\n      pop\n        /* \"#utility.yul\":10636:10874   */\n      pop\n        /* \"#utility.yul\":10961:10965   */\n      0x60\n        /* \"#utility.yul\":10954:10959   */\n      dup4\n        /* \"#utility.yul\":10950:10966   */\n      add\n        /* \"#utility.yul\":10944:10967   */\n      mload\n        /* \"#utility.yul\":10980:11043   */\n      tag_305\n        /* \"#utility.yul\":11037:11041   */\n      0x60\n        /* \"#utility.yul\":11032:11035   */\n      dup7\n        /* \"#utility.yul\":11028:11042   */\n      add\n        /* \"#utility.yul\":11014:11026   */\n      dup3\n        /* \"#utility.yul\":10980:11043   */\n      tag_147\n      jump\t// in\n    tag_305:\n        /* \"#utility.yul\":10884:11053   */\n      pop\n        /* \"#utility.yul\":11136:11140   */\n      0x80\n        /* \"#utility.yul\":11129:11134   */\n      dup4\n        /* \"#utility.yul\":11125:11141   */\n      add\n        /* \"#utility.yul\":11119:11142   */\n      mload\n        /* \"#utility.yul\":11155:11218   */\n      tag_306\n        /* \"#utility.yul\":11212:11216   */\n      0x80\n        /* \"#utility.yul\":11207:11210   */\n      dup7\n        /* \"#utility.yul\":11203:11217   */\n      add\n        /* \"#utility.yul\":11189:11201   */\n      dup3\n        /* \"#utility.yul\":11155:11218   */\n      tag_151\n      jump\t// in\n    tag_306:\n        /* \"#utility.yul\":11063:11228   */\n      pop\n        /* \"#utility.yul\":11245:11249   */\n      dup1\n        /* \"#utility.yul\":11238:11249   */\n      swap2\n      pop\n        /* \"#utility.yul\":10242:11255   */\n      pop\n        /* \"#utility.yul\":10126:11255   */\n      swap3\n      swap2\n      pop\n      pop\n      jump\t// out\n        /* \"#utility.yul\":11261:11618   */\n    tag_36:\n        /* \"#utility.yul\":11396:11400   */\n      0x00\n        /* \"#utility.yul\":11434:11436   */\n      0x20\n        /* \"#utility.yul\":11423:11432   */\n      dup3\n        /* \"#utility.yul\":11419:11437   */\n      add\n        /* \"#utility.yul\":11411:11437   */\n      swap1\n      pop\n        /* \"#utility.yul\":11483:11492   */\n      dup2\n        /* \"#utility.yul\":11477:11481   */\n      dup2\n        /* \"#utility.yul\":11473:11493   */\n      sub\n        /* \"#utility.yul\":11469:11470   */\n      0x00\n        /* \"#utility.yul\":11458:11467   */\n      dup4\n        /* \"#utility.yul\":11454:11471   */\n      add\n        /* \"#utility.yul\":11447:11494   */\n      mstore\n        /* \"#utility.yul\":11511:11611   */\n      tag_308\n        /* \"#utility.yul\":11606:11610   */\n      dup2\n        /* \"#utility.yul\":11597:11603   */\n      dup5\n        /* \"#utility.yul\":11511:11611   */\n      tag_161\n      jump\t// in\n    tag_308:\n        /* \"#utility.yul\":11503:11611   */\n      swap1\n      pop\n        /* \"#utility.yul\":11261:11618   */\n      swap3\n      swap2\n      pop\n      pop\n      jump\t// out\n        /* \"#utility.yul\":11624:11741   */\n    tag_162:\n        /* \"#utility.yul\":11733:11734   */\n      0x00\n        /* \"#utility.yul\":11730:11731   */\n      dup1\n        /* \"#utility.yul\":11723:11735   */\n      revert\n        /* \"#utility.yul\":11747:11864   */\n    tag_163:\n        /* \"#utility.yul\":11856:11857   */\n      0x00\n        /* \"#utility.yul\":11853:11854   */\n      dup1\n        /* \"#utility.yul\":11846:11858   */\n      revert\n        /* \"#utility.yul\":11870:12050   */\n    tag_164:\n        /* \"#utility.yul\":11918:11995   */\n      0x4e487b7100000000000000000000000000000000000000000000000000000000\n        /* \"#utility.yul\":11915:11916   */\n      0x00\n        /* \"#utility.yul\":11908:11996   */\n      mstore\n        /* \"#utility.yul\":12015:12019   */\n      0x41\n        /* \"#utility.yul\":12012:12013   */\n      0x04\n        /* \"#utility.yul\":12005:12020   */\n      mstore\n        /* \"#utility.yul\":12039:12043   */\n      0x24\n        /* \"#utility.yul\":12036:12037   */\n      0x00\n        /* \"#utility.yul\":12029:12044   */\n      revert\n        /* \"#utility.yul\":12056:12337   */\n    tag_165:\n        /* \"#utility.yul\":12139:12166   */\n      tag_313\n        /* \"#utility.yul\":12161:12165   */\n      dup3\n        /* \"#utility.yul\":12139:12166   */\n      tag_140\n      jump\t// in\n    tag_313:\n        /* \"#utility.yul\":12131:12137   */\n      dup2\n        /* \"#utility.yul\":12127:12167   */\n      add\n        /* \"#utility.yul\":12269:12275   */\n      dup2\n        /* \"#utility.yul\":12257:12267   */\n      dup2\n        /* \"#utility.yul\":12254:12276   */\n      lt\n        /* \"#utility.yul\":12233:12251   */\n      0xffffffffffffffff\n        /* \"#utility.yul\":12221:12231   */\n      dup3\n        /* \"#utility.yul\":12218:12252   */\n      gt\n        /* \"#utility.yul\":12215:12277   */\n      or\n        /* \"#utility.yul\":12212:12300   */\n      iszero\n      tag_314\n      jumpi\n        /* \"#utility.yul\":12280:12298   */\n      tag_315\n      tag_164\n      jump\t// in\n    tag_315:\n        /* \"#utility.yul\":12212:12300   */\n    tag_314:\n        /* \"#utility.yul\":12320:12330   */\n      dup1\n        /* \"#utility.yul\":12316:12318   */\n      0x40\n        /* \"#utility.yul\":12309:12331   */\n      mstore\n        /* \"#utility.yul\":12099:12337   */\n      pop\n        /* \"#utility.yul\":12056:12337   */\n      pop\n      pop\n      jump\t// out\n        /* \"#utility.yul\":12343:12472   */\n    tag_166:\n        /* \"#utility.yul\":12377:12383   */\n      0x00\n        /* \"#utility.yul\":12404:12424   */\n      tag_317\n      tag_125\n      jump\t// in\n    tag_317:\n        /* \"#utility.yul\":12394:12424   */\n      swap1\n      pop\n        /* \"#utility.yul\":12433:12466   */\n      tag_318\n        /* \"#utility.yul\":12461:12465   */\n      dup3\n        /* \"#utility.yul\":12453:12459   */\n      dup3\n        /* \"#utility.yul\":12433:12466   */\n      tag_165\n      jump\t// in\n    tag_318:\n        /* \"#utility.yul\":12343:12472   */\n      swap2\n      swap1\n      pop\n      jump\t// out\n        /* \"#utility.yul\":12478:12786   */\n    tag_167:\n        /* \"#utility.yul\":12540:12544   */\n      0x00\n        /* \"#utility.yul\":12630:12648   */\n      0xffffffffffffffff\n        /* \"#utility.yul\":12622:12628   */\n      dup3\n        /* \"#utility.yul\":12619:12649   */\n      gt\n        /* \"#utility.yul\":12616:12672   */\n      iszero\n      tag_320\n      jumpi\n        /* \"#utility.yul\":12652:12670   */\n      tag_321\n      tag_164\n      jump\t// in\n    tag_321:\n        /* \"#utility.yul\":12616:12672   */\n    tag_320:\n        /* \"#utility.yul\":12690:12719   */\n      tag_322\n        /* \"#utility.yul\":12712:12718   */\n      dup3\n        /* \"#utility.yul\":12690:12719   */\n      tag_140\n      jump\t// in\n    tag_322:\n        /* \"#utility.yul\":12682:12719   */\n      swap1\n      pop\n        /* \"#utility.yul\":12774:12778   */\n      0x20\n        /* \"#utility.yul\":12768:12772   */\n      dup2\n        /* \"#utility.yul\":12764:12779   */\n      add\n        /* \"#utility.yul\":12756:12779   */\n      swap1\n      pop\n        /* \"#utility.yul\":12478:12786   */\n      swap2\n      swap1\n      pop\n      jump\t// out\n        /* \"#utility.yul\":12792:12940   */\n    tag_168:\n        /* \"#utility.yul\":12890:12896   */\n      dup3\n        /* \"#utility.yul\":12885:12888   */\n      dup2\n        /* \"#utility.yul\":12880:12883   */\n      dup4\n        /* \"#utility.yul\":12867:12897   */\n      calldatacopy\n        /* \"#utility.yul\":12931:12932   */\n      0x00\n        /* \"#utility.yul\":12922:12928   */\n      dup4\n        /* \"#utility.yul\":12917:12920   */\n      dup4\n        /* \"#utility.yul\":12913:12929   */\n      add\n        /* \"#utility.yul\":12906:12933   */\n      mstore\n        /* \"#utility.yul\":12792:12940   */\n      pop\n      pop\n      pop\n      jump\t// out\n        /* \"#utility.yul\":12946:13371   */\n    tag_169:\n        /* \"#utility.yul\":13024:13029   */\n      0x00\n        /* \"#utility.yul\":13049:13115   */\n      tag_325\n        /* \"#utility.yul\":13065:13114   */\n      tag_326\n        /* \"#utility.yul\":13107:13113   */\n      dup5\n        /* \"#utility.yul\":13065:13114   */\n      tag_167\n      jump\t// in\n    tag_326:\n        /* \"#utility.yul\":13049:13115   */\n      tag_166\n      jump\t// in\n    tag_325:\n        /* \"#utility.yul\":13040:13115   */\n      swap1\n      pop\n        /* \"#utility.yul\":13138:13144   */\n      dup3\n        /* \"#utility.yul\":13131:13136   */\n      dup2\n        /* \"#utility.yul\":13124:13145   */\n      mstore\n        /* \"#utility.yul\":13176:13180   */\n      0x20\n        /* \"#utility.yul\":13169:13174   */\n      dup2\n        /* \"#utility.yul\":13165:13181   */\n      add\n        /* \"#utility.yul\":13214:13217   */\n      dup5\n        /* \"#utility.yul\":13205:13211   */\n      dup5\n        /* \"#utility.yul\":13200:13203   */\n      dup5\n        /* \"#utility.yul\":13196:13212   */\n      add\n        /* \"#utility.yul\":13193:13218   */\n      gt\n        /* \"#utility.yul\":13190:13302   */\n      iszero\n      tag_327\n      jumpi\n        /* \"#utility.yul\":13221:13300   */\n      tag_328\n      tag_163\n      jump\t// in\n    tag_328:\n        /* \"#utility.yul\":13190:13302   */\n    tag_327:\n        /* \"#utility.yul\":13311:13365   */\n      tag_329\n        /* \"#utility.yul\":13358:13364   */\n      dup5\n        /* \"#utility.yul\":13353:13356   */\n      dup3\n        /* \"#utility.yul\":13348:13351   */\n      dup6\n        /* \"#utility.yul\":13311:13365   */\n      tag_168\n      jump\t// in\n    tag_329:\n        /* \"#utility.yul\":13030:13371   */\n      pop\n        /* \"#utility.yul\":12946:13371   */\n      swap4\n      swap3\n      pop\n      pop\n      pop\n      jump\t// out\n        /* \"#utility.yul\":13391:13731   */\n    tag_170:\n        /* \"#utility.yul\":13447:13452   */\n      0x00\n        /* \"#utility.yul\":13496:13499   */\n      dup3\n        /* \"#utility.yul\":13489:13493   */\n      0x1f\n        /* \"#utility.yul\":13481:13487   */\n      dup4\n        /* \"#utility.yul\":13477:13494   */\n      add\n        /* \"#utility.yul\":13473:13500   */\n      slt\n        /* \"#utility.yul\":13463:13585   */\n      tag_331\n      jumpi\n        /* \"#utility.yul\":13504:13583   */\n      tag_332\n      tag_162\n      jump\t// in\n    tag_332:\n        /* \"#utility.yul\":13463:13585   */\n    tag_331:\n        /* \"#utility.yul\":13621:13627   */\n      dup2\n        /* \"#utility.yul\":13608:13628   */\n      calldataload\n        /* \"#utility.yul\":13646:13725   */\n      tag_333\n        /* \"#utility.yul\":13721:13724   */\n      dup5\n        /* \"#utility.yul\":13713:13719   */\n      dup3\n        /* \"#utility.yul\":13706:13710   */\n      0x20\n        /* \"#utility.yul\":13698:13704   */\n      dup7\n        /* \"#utility.yul\":13694:13711   */\n      add\n        /* \"#utility.yul\":13646:13725   */\n      tag_169\n      jump\t// in\n    tag_333:\n        /* \"#utility.yul\":13637:13725   */\n      swap2\n      pop\n        /* \"#utility.yul\":13453:13731   */\n      pop\n        /* \"#utility.yul\":13391:13731   */\n      swap3\n      swap2\n      pop\n      pop\n      jump\t// out\n        /* \"#utility.yul\":13737:14246   */\n    tag_42:\n        /* \"#utility.yul\":13806:13812   */\n      0x00\n        /* \"#utility.yul\":13855:13857   */\n      0x20\n        /* \"#utility.yul\":13843:13852   */\n      dup3\n        /* \"#utility.yul\":13834:13841   */\n      dup5\n        /* \"#utility.yul\":13830:13853   */\n      sub\n        /* \"#utility.yul\":13826:13858   */\n      slt\n        /* \"#utility.yul\":13823:13942   */\n      iszero\n      tag_335\n      jumpi\n        /* \"#utility.yul\":13861:13940   */\n      tag_336\n      tag_126\n      jump\t// in\n    tag_336:\n        /* \"#utility.yul\":13823:13942   */\n    tag_335:\n        /* \"#utility.yul\":14009:14010   */\n      0x00\n        /* \"#utility.yul\":13998:14007   */\n      dup3\n        /* \"#utility.yul\":13994:14011   */\n      add\n        /* \"#utility.yul\":13981:14012   */\n      calldataload\n        /* \"#utility.yul\":14039:14057   */\n      0xffffffffffffffff\n        /* \"#utility.yul\":14031:14037   */\n      dup2\n        /* \"#utility.yul\":14028:14058   */\n      gt\n        /* \"#utility.yul\":14025:14142   */\n      iszero\n      tag_337\n      jumpi\n        /* \"#utility.yul\":14061:14140   */\n      tag_338\n      tag_127\n      jump\t// in\n    tag_338:\n        /* \"#utility.yul\":14025:14142   */\n    tag_337:\n        /* \"#utility.yul\":14166:14229   */\n      tag_339\n        /* \"#utility.yul\":14221:14228   */\n      dup5\n        /* \"#utility.yul\":14212:14218   */\n      dup3\n        /* \"#utility.yul\":14201:14210   */\n      dup6\n        /* \"#utility.yul\":14197:14219   */\n      add\n        /* \"#utility.yul\":14166:14229   */\n      tag_170\n      jump\t// in\n    tag_339:\n        /* \"#utility.yul\":14156:14229   */\n      swap2\n      pop\n        /* \"#utility.yul\":13952:14239   */\n      pop\n        /* \"#utility.yul\":13737:14246   */\n      swap3\n      swap2\n      pop\n      pop\n      jump\t// out\n        /* \"#utility.yul\":14252:14474   */\n    tag_47:\n        /* \"#utility.yul\":14345:14349   */\n      0x00\n        /* \"#utility.yul\":14383:14385   */\n      0x20\n        /* \"#utility.yul\":14372:14381   */\n      dup3\n        /* \"#utility.yul\":14368:14386   */\n      add\n        /* \"#utility.yul\":14360:14386   */\n      swap1\n      pop\n        /* \"#utility.yul\":14396:14467   */\n      tag_341\n        /* \"#utility.yul\":14464:14465   */\n      0x00\n        /* \"#utility.yul\":14453:14462   */\n      dup4\n        /* \"#utility.yul\":14449:14466   */\n      add\n        /* \"#utility.yul\":14440:14446   */\n      dup5\n        /* \"#utility.yul\":14396:14467   */\n      tag_136\n      jump\t// in\n    tag_341:\n        /* \"#utility.yul\":14252:14474   */\n      swap3\n      swap2\n      pop\n      pop\n      jump\t// out\n        /* \"#utility.yul\":14480:14660   */\n    tag_171:\n        /* \"#utility.yul\":14528:14605   */\n      0x4e487b7100000000000000000000000000000000000000000000000000000000\n        /* \"#utility.yul\":14525:14526   */\n      0x00\n        /* \"#utility.yul\":14518:14606   */\n      mstore\n        /* \"#utility.yul\":14625:14629   */\n      0x22\n        /* \"#utility.yul\":14622:14623   */\n      0x04\n        /* \"#utility.yul\":14615:14630   */\n      mstore\n        /* \"#utility.yul\":14649:14653   */\n      0x24\n        /* \"#utility.yul\":14646:14647   */\n      0x00\n        /* \"#utility.yul\":14639:14654   */\n      revert\n        /* \"#utility.yul\":14666:14986   */\n    tag_51:\n        /* \"#utility.yul\":14710:14716   */\n      0x00\n        /* \"#utility.yul\":14747:14748   */\n      0x02\n        /* \"#utility.yul\":14741:14745   */\n      dup3\n        /* \"#utility.yul\":14737:14749   */\n      div\n        /* \"#utility.yul\":14727:14749   */\n      swap1\n      pop\n        /* \"#utility.yul\":14794:14795   */\n      0x01\n        /* \"#utility.yul\":14788:14792   */\n      dup3\n        /* \"#utility.yul\":14784:14796   */\n      and\n        /* \"#utility.yul\":14815:14833   */\n      dup1\n        /* \"#utility.yul\":14805:14886   */\n      tag_344\n      jumpi\n        /* \"#utility.yul\":14871:14875   */\n      0x7f\n        /* \"#utility.yul\":14863:14869   */\n      dup3\n        /* \"#utility.yul\":14859:14876   */\n      and\n        /* \"#utility.yul\":14849:14876   */\n      swap2\n      pop\n        /* \"#utility.yul\":14805:14886   */\n    tag_344:\n        /* \"#utility.yul\":14933:14935   */\n      0x20\n        /* \"#utility.yul\":14925:14931   */\n      dup3\n        /* \"#utility.yul\":14922:14936   */\n      lt\n        /* \"#utility.yul\":14902:14920   */\n      dup2\n        /* \"#utility.yul\":14899:14937   */\n      sub\n        /* \"#utility.yul\":14896:14980   */\n      tag_345\n      jumpi\n        /* \"#utility.yul\":14952:14970   */\n      tag_346\n      tag_171\n      jump\t// in\n    tag_346:\n        /* \"#utility.yul\":14896:14980   */\n    tag_345:\n        /* \"#utility.yul\":14717:14986   */\n      pop\n        /* \"#utility.yul\":14666:14986   */\n      swap2\n      swap1\n      pop\n      jump\t// out\n        /* \"#utility.yul\":14992:15172   */\n    tag_68:\n        /* \"#utility.yul\":15040:15117   */\n      0x4e487b7100000000000000000000000000000000000000000000000000000000\n        /* \"#utility.yul\":15037:15038   */\n      0x00\n        /* \"#utility.yul\":15030:15118   */\n      mstore\n        /* \"#utility.yul\":15137:15141   */\n      0x32\n        /* \"#utility.yul\":15134:15135   */\n      0x04\n        /* \"#utility.yul\":15127:15142   */\n      mstore\n        /* \"#utility.yul\":15161:15165   */\n      0x24\n        /* \"#utility.yul\":15158:15159   */\n      0x00\n        /* \"#utility.yul\":15151:15166   */\n      revert\n        /* \"#utility.yul\":15178:15343   */\n    tag_172:\n        /* \"#utility.yul\":15318:15335   */\n      0x5477656574206e6f7420666f756e640000000000000000000000000000000000\n        /* \"#utility.yul\":15314:15315   */\n      0x00\n        /* \"#utility.yul\":15306:15312   */\n      dup3\n        /* \"#utility.yul\":15302:15316   */\n      add\n        /* \"#utility.yul\":15295:15336   */\n      mstore\n        /* \"#utility.yul\":15178:15343   */\n      pop\n      jump\t// out\n        /* \"#utility.yul\":15349:15715   */\n    tag_173:\n        /* \"#utility.yul\":15491:15494   */\n      0x00\n        /* \"#utility.yul\":15512:15579   */\n      tag_350\n        /* \"#utility.yul\":15576:15578   */\n      0x0f\n        /* \"#utility.yul\":15571:15574   */\n      dup4\n        /* \"#utility.yul\":15512:15579   */\n      tag_138\n      jump\t// in\n    tag_350:\n        /* \"#utility.yul\":15505:15579   */\n      swap2\n      pop\n        /* \"#utility.yul\":15588:15681   */\n      tag_351\n        /* \"#utility.yul\":15677:15680   */\n      dup3\n        /* \"#utility.yul\":15588:15681   */\n      tag_172\n      jump\t// in\n    tag_351:\n        /* \"#utility.yul\":15706:15708   */\n      0x20\n        /* \"#utility.yul\":15701:15704   */\n      dup3\n        /* \"#utility.yul\":15697:15709   */\n      add\n        /* \"#utility.yul\":15690:15709   */\n      swap1\n      pop\n        /* \"#utility.yul\":15349:15715   */\n      swap2\n      swap1\n      pop\n      jump\t// out\n        /* \"#utility.yul\":15721:16140   */\n    tag_72:\n        /* \"#utility.yul\":15887:15891   */\n      0x00\n        /* \"#utility.yul\":15925:15927   */\n      0x20\n        /* \"#utility.yul\":15914:15923   */\n      dup3\n        /* \"#utility.yul\":15910:15928   */\n      add\n        /* \"#utility.yul\":15902:15928   */\n      swap1\n      pop\n        /* \"#utility.yul\":15974:15983   */\n      dup2\n        /* \"#utility.yul\":15968:15972   */\n      dup2\n        /* \"#utility.yul\":15964:15984   */\n      sub\n        /* \"#utility.yul\":15960:15961   */\n      0x00\n        /* \"#utility.yul\":15949:15958   */\n      dup4\n        /* \"#utility.yul\":15945:15962   */\n      add\n        /* \"#utility.yul\":15938:15985   */\n      mstore\n        /* \"#utility.yul\":16002:16133   */\n      tag_353\n        /* \"#utility.yul\":16128:16132   */\n      dup2\n        /* \"#utility.yul\":16002:16133   */\n      tag_173\n      jump\t// in\n    tag_353:\n        /* \"#utility.yul\":15994:16133   */\n      swap1\n      pop\n        /* \"#utility.yul\":15721:16140   */\n      swap2\n      swap1\n      pop\n      jump\t// out\n        /* \"#utility.yul\":16146:16311   */\n    tag_174:\n        /* \"#utility.yul\":16286:16303   */\n      0x4d616e6e6e21205265616c6c793f3f0000000000000000000000000000000000\n        /* \"#utility.yul\":16282:16283   */\n      0x00\n        /* \"#utility.yul\":16274:16280   */\n      dup3\n        /* \"#utility.yul\":16270:16284   */\n      add\n        /* \"#utility.yul\":16263:16304   */\n      mstore\n        /* \"#utility.yul\":16146:16311   */\n      pop\n      jump\t// out\n        /* \"#utility.yul\":16317:16683   */\n    tag_175:\n        /* \"#utility.yul\":16459:16462   */\n      0x00\n        /* \"#utility.yul\":16480:16547   */\n      tag_356\n        /* \"#utility.yul\":16544:16546   */\n      0x0f\n        /* \"#utility.yul\":16539:16542   */\n      dup4\n        /* \"#utility.yul\":16480:16547   */\n      tag_138\n      jump\t// in\n    tag_356:\n        /* \"#utility.yul\":16473:16547   */\n      swap2\n      pop\n        /* \"#utility.yul\":16556:16649   */\n      tag_357\n        /* \"#utility.yul\":16645:16648   */\n      dup3\n        /* \"#utility.yul\":16556:16649   */\n      tag_174\n      jump\t// in\n    tag_357:\n        /* \"#utility.yul\":16674:16676   */\n      0x20\n        /* \"#utility.yul\":16669:16672   */\n      dup3\n        /* \"#utility.yul\":16665:16677   */\n      add\n        /* \"#utility.yul\":16658:16677   */\n      swap1\n      pop\n        /* \"#utility.yul\":16317:16683   */\n      swap2\n      swap1\n      pop\n      jump\t// out\n        /* \"#utility.yul\":16689:17108   */\n    tag_78:\n        /* \"#utility.yul\":16855:16859   */\n      0x00\n        /* \"#utility.yul\":16893:16895   */\n      0x20\n        /* \"#utility.yul\":16882:16891   */\n      dup3\n        /* \"#utility.yul\":16878:16896   */\n      add\n        /* \"#utility.yul\":16870:16896   */\n      swap1\n      pop\n        /* \"#utility.yul\":16942:16951   */\n      dup2\n        /* \"#utility.yul\":16936:16940   */\n      dup2\n        /* \"#utility.yul\":16932:16952   */\n      sub\n        /* \"#utility.yul\":16928:16929   */\n      0x00\n        /* \"#utility.yul\":16917:16926   */\n      dup4\n        /* \"#utility.yul\":16913:16930   */\n      add\n        /* \"#utility.yul\":16906:16953   */\n      mstore\n        /* \"#utility.yul\":16970:17101   */\n      tag_359\n        /* \"#utility.yul\":17096:17100   */\n      dup2\n        /* \"#utility.yul\":16970:17101   */\n      tag_175\n      jump\t// in\n    tag_359:\n        /* \"#utility.yul\":16962:17101   */\n      swap1\n      pop\n        /* \"#utility.yul\":16689:17108   */\n      swap2\n      swap1\n      pop\n      jump\t// out\n        /* \"#utility.yul\":17114:17294   */\n    tag_176:\n        /* \"#utility.yul\":17162:17239   */\n      0x4e487b7100000000000000000000000000000000000000000000000000000000\n        /* \"#utility.yul\":17159:17160   */\n      0x00\n        /* \"#utility.yul\":17152:17240   */\n      mstore\n        /* \"#utility.yul\":17259:17263   */\n      0x11\n        /* \"#utility.yul\":17256:17257   */\n      0x04\n        /* \"#utility.yul\":17249:17264   */\n      mstore\n        /* \"#utility.yul\":17283:17287   */\n      0x24\n        /* \"#utility.yul\":17280:17281   */\n      0x00\n        /* \"#utility.yul\":17273:17288   */\n      revert\n        /* \"#utility.yul\":17300:17471   */\n    tag_83:\n        /* \"#utility.yul\":17339:17342   */\n      0x00\n        /* \"#utility.yul\":17362:17386   */\n      tag_362\n        /* \"#utility.yul\":17380:17385   */\n      dup3\n        /* \"#utility.yul\":17362:17386   */\n      tag_142\n      jump\t// in\n    tag_362:\n        /* \"#utility.yul\":17353:17386   */\n      swap2\n      pop\n        /* \"#utility.yul\":17408:17412   */\n      0x00\n        /* \"#utility.yul\":17401:17406   */\n      dup3\n        /* \"#utility.yul\":17398:17413   */\n      sub\n        /* \"#utility.yul\":17395:17436   */\n      tag_363\n      jumpi\n        /* \"#utility.yul\":17416:17434   */\n      tag_364\n      tag_176\n      jump\t// in\n    tag_364:\n        /* \"#utility.yul\":17395:17436   */\n    tag_363:\n        /* \"#utility.yul\":17463:17464   */\n      0x01\n        /* \"#utility.yul\":17456:17461   */\n      dup3\n        /* \"#utility.yul\":17452:17465   */\n      sub\n        /* \"#utility.yul\":17445:17465   */\n      swap1\n      pop\n        /* \"#utility.yul\":17300:17471   */\n      swap2\n      swap1\n      pop\n      jump\t// out\n        /* \"#utility.yul\":17477:17654   */\n    tag_177:\n        /* \"#utility.yul\":17617:17646   */\n      0x596f7520617265206e6f7420746865206f776e65722064756465210000000000\n        /* \"#utility.yul\":17613:17614   */\n      0x00\n        /* \"#utility.yul\":17605:17611   */\n      dup3\n        /* \"#utility.yul\":17601:17615   */\n      add\n        /* \"#utility.yul\":17594:17647   */\n      mstore\n        /* \"#utility.yul\":17477:17654   */\n      pop\n      jump\t// out\n        /* \"#utility.yul\":17660:18026   */\n    tag_178:\n        /* \"#utility.yul\":17802:17805   */\n      0x00\n        /* \"#utility.yul\":17823:17890   */\n      tag_367\n        /* \"#utility.yul\":17887:17889   */\n      0x1b\n        /* \"#utility.yul\":17882:17885   */\n      dup4\n        /* \"#utility.yul\":17823:17890   */\n      tag_138\n      jump\t// in\n    tag_367:\n        /* \"#utility.yul\":17816:17890   */\n      swap2\n      pop\n        /* \"#utility.yul\":17899:17992   */\n      tag_368\n        /* \"#utility.yul\":17988:17991   */\n      dup3\n        /* \"#utility.yul\":17899:17992   */\n      tag_177\n      jump\t// in\n    tag_368:\n        /* \"#utility.yul\":18017:18019   */\n      0x20\n        /* \"#utility.yul\":18012:18015   */\n      dup3\n        /* \"#utility.yul\":18008:18020   */\n      add\n        /* \"#utility.yul\":18001:18020   */\n      swap1\n      pop\n        /* \"#utility.yul\":17660:18026   */\n      swap2\n      swap1\n      pop\n      jump\t// out\n        /* \"#utility.yul\":18032:18451   */\n    tag_87:\n        /* \"#utility.yul\":18198:18202   */\n      0x00\n        /* \"#utility.yul\":18236:18238   */\n      0x20\n        /* \"#utility.yul\":18225:18234   */\n      dup3\n        /* \"#utility.yul\":18221:18239   */\n      add\n        /* \"#utility.yul\":18213:18239   */\n      swap1\n      pop\n        /* \"#utility.yul\":18285:18294   */\n      dup2\n        /* \"#utility.yul\":18279:18283   */\n      dup2\n        /* \"#utility.yul\":18275:18295   */\n      sub\n        /* \"#utility.yul\":18271:18272   */\n      0x00\n        /* \"#utility.yul\":18260:18269   */\n      dup4\n        /* \"#utility.yul\":18256:18273   */\n      add\n        /* \"#utility.yul\":18249:18296   */\n      mstore\n        /* \"#utility.yul\":18313:18444   */\n      tag_370\n        /* \"#utility.yul\":18439:18443   */\n      dup2\n        /* \"#utility.yul\":18313:18444   */\n      tag_178\n      jump\t// in\n    tag_370:\n        /* \"#utility.yul\":18305:18444   */\n      swap1\n      pop\n        /* \"#utility.yul\":18032:18451   */\n      swap2\n      swap1\n      pop\n      jump\t// out\n        /* \"#utility.yul\":18457:18658   */\n    tag_110:\n        /* \"#utility.yul\":18496:18499   */\n      0x00\n        /* \"#utility.yul\":18519:18543   */\n      tag_372\n        /* \"#utility.yul\":18537:18542   */\n      dup3\n        /* \"#utility.yul\":18519:18543   */\n      tag_142\n      jump\t// in\n    tag_372:\n        /* \"#utility.yul\":18510:18543   */\n      swap2\n      pop\n        /* \"#utility.yul\":18565:18599   */\n      0xffffffffffffffffffffffffffffffff\n        /* \"#utility.yul\":18558:18563   */\n      dup3\n        /* \"#utility.yul\":18555:18600   */\n      sub\n        /* \"#utility.yul\":18552:18623   */\n      tag_373\n      jumpi\n        /* \"#utility.yul\":18603:18621   */\n      tag_374\n      tag_176\n      jump\t// in\n    tag_374:\n        /* \"#utility.yul\":18552:18623   */\n    tag_373:\n        /* \"#utility.yul\":18650:18651   */\n      0x01\n        /* \"#utility.yul\":18643:18648   */\n      dup3\n        /* \"#utility.yul\":18639:18652   */\n      add\n        /* \"#utility.yul\":18632:18652   */\n      swap1\n      pop\n        /* \"#utility.yul\":18457:18658   */\n      swap2\n      swap1\n      pop\n      jump\t// out\n        /* \"#utility.yul\":18664:18724   */\n    tag_179:\n        /* \"#utility.yul\":18692:18695   */\n      0x00\n        /* \"#utility.yul\":18713:18718   */\n      dup2\n        /* \"#utility.yul\":18706:18718   */\n      swap1\n      pop\n        /* \"#utility.yul\":18664:18724   */\n      swap2\n      swap1\n      pop\n      jump\t// out\n        /* \"#utility.yul\":18730:18872   */\n    tag_180:\n        /* \"#utility.yul\":18780:18789   */\n      0x00\n        /* \"#utility.yul\":18813:18866   */\n      tag_377\n        /* \"#utility.yul\":18831:18865   */\n      tag_378\n        /* \"#utility.yul\":18840:18864   */\n      tag_379\n        /* \"#utility.yul\":18858:18863   */\n      dup5\n        /* \"#utility.yul\":18840:18864   */\n      tag_142\n      jump\t// in\n    tag_379:\n        /* \"#utility.yul\":18831:18865   */\n      tag_179\n      jump\t// in\n    tag_378:\n        /* \"#utility.yul\":18813:18866   */\n      tag_132\n      jump\t// in\n    tag_377:\n        /* \"#utility.yul\":18800:18866   */\n      swap1\n      pop\n        /* \"#utility.yul\":18730:18872   */\n      swap2\n      swap1\n      pop\n      jump\t// out\n        /* \"#utility.yul\":18878:19009   */\n    tag_181:\n        /* \"#utility.yul\":18965:19002   */\n      tag_381\n        /* \"#utility.yul\":18996:19001   */\n      dup2\n        /* \"#utility.yul\":18965:19002   */\n      tag_180\n      jump\t// in\n    tag_381:\n        /* \"#utility.yul\":18960:18963   */\n      dup3\n        /* \"#utility.yul\":18953:19003   */\n      mstore\n        /* \"#utility.yul\":18878:19009   */\n      pop\n      pop\n      jump\t// out\n        /* \"#utility.yul\":19015:19457   */\n    tag_115:\n        /* \"#utility.yul\":19164:19168   */\n      0x00\n        /* \"#utility.yul\":19202:19204   */\n      0x60\n        /* \"#utility.yul\":19191:19200   */\n      dup3\n        /* \"#utility.yul\":19187:19205   */\n      add\n        /* \"#utility.yul\":19179:19205   */\n      swap1\n      pop\n        /* \"#utility.yul\":19215:19286   */\n      tag_383\n        /* \"#utility.yul\":19283:19284   */\n      0x00\n        /* \"#utility.yul\":19272:19281   */\n      dup4\n        /* \"#utility.yul\":19268:19285   */\n      add\n        /* \"#utility.yul\":19259:19265   */\n      dup7\n        /* \"#utility.yul\":19215:19286   */\n      tag_136\n      jump\t// in\n    tag_383:\n        /* \"#utility.yul\":19296:19368   */\n      tag_384\n        /* \"#utility.yul\":19364:19366   */\n      0x20\n        /* \"#utility.yul\":19353:19362   */\n      dup4\n        /* \"#utility.yul\":19349:19367   */\n      add\n        /* \"#utility.yul\":19340:19346   */\n      dup6\n        /* \"#utility.yul\":19296:19368   */\n      tag_135\n      jump\t// in\n    tag_384:\n        /* \"#utility.yul\":19378:19450   */\n      tag_385\n        /* \"#utility.yul\":19446:19448   */\n      0x40\n        /* \"#utility.yul\":19435:19444   */\n      dup4\n        /* \"#utility.yul\":19431:19449   */\n      add\n        /* \"#utility.yul\":19422:19428   */\n      dup5\n        /* \"#utility.yul\":19378:19450   */\n      tag_181\n      jump\t// in\n    tag_385:\n        /* \"#utility.yul\":19015:19457   */\n      swap5\n      swap4\n      pop\n      pop\n      pop\n      pop\n      jump\t// out\n        /* \"#utility.yul\":19463:19626   */\n    tag_182:\n        /* \"#utility.yul\":19603:19618   */\n      0x546f6f206c6f6e672062726f2100000000000000000000000000000000000000\n        /* \"#utility.yul\":19599:19600   */\n      0x00\n        /* \"#utility.yul\":19591:19597   */\n      dup3\n        /* \"#utility.yul\":19587:19601   */\n      add\n        /* \"#utility.yul\":19580:19619   */\n      mstore\n        /* \"#utility.yul\":19463:19626   */\n      pop\n      jump\t// out\n        /* \"#utility.yul\":19632:19998   */\n    tag_183:\n        /* \"#utility.yul\":19774:19777   */\n      0x00\n        /* \"#utility.yul\":19795:19862   */\n      tag_388\n        /* \"#utility.yul\":19859:19861   */\n      0x0d\n        /* \"#utility.yul\":19854:19857   */\n      dup4\n        /* \"#utility.yul\":19795:19862   */\n      tag_138\n      jump\t// in\n    tag_388:\n        /* \"#utility.yul\":19788:19862   */\n      swap2\n      pop\n        /* \"#utility.yul\":19871:19964   */\n      tag_389\n        /* \"#utility.yul\":19960:19963   */\n      dup3\n        /* \"#utility.yul\":19871:19964   */\n      tag_182\n      jump\t// in\n    tag_389:\n        /* \"#utility.yul\":19989:19991   */\n      0x20\n        /* \"#utility.yul\":19984:19987   */\n      dup3\n        /* \"#utility.yul\":19980:19992   */\n      add\n        /* \"#utility.yul\":19973:19992   */\n      swap1\n      pop\n        /* \"#utility.yul\":19632:19998   */\n      swap2\n      swap1\n      pop\n      jump\t// out\n        /* \"#utility.yul\":20004:20423   */\n    tag_119:\n        /* \"#utility.yul\":20170:20174   */\n      0x00\n        /* \"#utility.yul\":20208:20210   */\n      0x20\n        /* \"#utility.yul\":20197:20206   */\n      dup3\n        /* \"#utility.yul\":20193:20211   */\n      add\n        /* \"#utility.yul\":20185:20211   */\n      swap1\n      pop\n        /* \"#utility.yul\":20257:20266   */\n      dup2\n        /* \"#utility.yul\":20251:20255   */\n      dup2\n        /* \"#utility.yul\":20247:20267   */\n      sub\n        /* \"#utility.yul\":20243:20244   */\n      0x00\n        /* \"#utility.yul\":20232:20241   */\n      dup4\n        /* \"#utility.yul\":20228:20245   */\n      add\n        /* \"#utility.yul\":20221:20268   */\n      mstore\n        /* \"#utility.yul\":20285:20416   */\n      tag_391\n        /* \"#utility.yul\":20411:20415   */\n      dup2\n        /* \"#utility.yul\":20285:20416   */\n      tag_183\n      jump\t// in\n    tag_391:\n        /* \"#utility.yul\":20277:20416   */\n      swap1\n      pop\n        /* \"#utility.yul\":20004:20423   */\n      swap2\n      swap1\n      pop\n      jump\t// out\n        /* \"#utility.yul\":20429:20570   */\n    tag_184:\n        /* \"#utility.yul\":20478:20482   */\n      0x00\n        /* \"#utility.yul\":20501:20504   */\n      dup2\n        /* \"#utility.yul\":20493:20504   */\n      swap1\n      pop\n        /* \"#utility.yul\":20524:20527   */\n      dup2\n        /* \"#utility.yul\":20521:20522   */\n      0x00\n        /* \"#utility.yul\":20514:20528   */\n      mstore\n        /* \"#utility.yul\":20558:20562   */\n      0x20\n        /* \"#utility.yul\":20555:20556   */\n      0x00\n        /* \"#utility.yul\":20545:20563   */\n      keccak256\n        /* \"#utility.yul\":20537:20563   */\n      swap1\n      pop\n        /* \"#utility.yul\":20429:20570   */\n      swap2\n      swap1\n      pop\n      jump\t// out\n        /* \"#utility.yul\":20576:20669   */\n    tag_185:\n        /* \"#utility.yul\":20613:20619   */\n      0x00\n        /* \"#utility.yul\":20660:20662   */\n      0x20\n        /* \"#utility.yul\":20655:20657   */\n      0x1f\n        /* \"#utility.yul\":20648:20653   */\n      dup4\n        /* \"#utility.yul\":20644:20658   */\n      add\n        /* \"#utility.yul\":20640:20663   */\n      div\n        /* \"#utility.yul\":20630:20663   */\n      swap1\n      pop\n        /* \"#utility.yul\":20576:20669   */\n      swap2\n      swap1\n      pop\n      jump\t// out\n        /* \"#utility.yul\":20675:20782   */\n    tag_186:\n        /* \"#utility.yul\":20719:20727   */\n      0x00\n        /* \"#utility.yul\":20769:20774   */\n      dup3\n        /* \"#utility.yul\":20763:20767   */\n      dup3\n        /* \"#utility.yul\":20759:20775   */\n      shl\n        /* \"#utility.yul\":20738:20775   */\n      swap1\n      pop\n        /* \"#utility.yul\":20675:20782   */\n      swap3\n      swap2\n      pop\n      pop\n      jump\t// out\n        /* \"#utility.yul\":20788:21181   */\n    tag_187:\n        /* \"#utility.yul\":20857:20863   */\n      0x00\n        /* \"#utility.yul\":20907:20908   */\n      0x08\n        /* \"#utility.yul\":20895:20905   */\n      dup4\n        /* \"#utility.yul\":20891:20909   */\n      mul\n        /* \"#utility.yul\":20930:21027   */\n      tag_396\n        /* \"#utility.yul\":20960:21026   */\n      0xffffffffffffffffffffffffffffffffffffffffffffffffffffffffffffffff\n        /* \"#utility.yul\":20949:20958   */\n      dup3\n        /* \"#utility.yul\":20930:21027   */\n      tag_186\n      jump\t// in\n    tag_396:\n        /* \"#utility.yul\":21048:21087   */\n      tag_397\n        /* \"#utility.yul\":21078:21086   */\n      dup7\n        /* \"#utility.yul\":21067:21076   */\n      dup4\n        /* \"#utility.yul\":21048:21087   */\n      tag_186\n      jump\t// in\n    tag_397:\n        /* \"#utility.yul\":21036:21087   */\n      swap6\n      pop\n        /* \"#utility.yul\":21120:21124   */\n      dup1\n        /* \"#utility.yul\":21116:21125   */\n      not\n        /* \"#utility.yul\":21109:21114   */\n      dup5\n        /* \"#utility.yul\":21105:21126   */\n      and\n        /* \"#utility.yul\":21096:21126   */\n      swap4\n      pop\n        /* \"#utility.yul\":21169:21173   */\n      dup1\n        /* \"#utility.yul\":21159:21167   */\n      dup7\n        /* \"#utility.yul\":21155:21174   */\n      and\n        /* \"#utility.yul\":21148:21153   */\n      dup5\n        /* \"#utility.yul\":21145:21175   */\n      or\n        /* \"#utility.yul\":21135:21175   */\n      swap3\n      pop\n        /* \"#utility.yul\":20864:21181   */\n      pop\n      pop\n        /* \"#utility.yul\":20788:21181   */\n      swap4\n      swap3\n      pop\n      pop\n      pop\n      jump\t// out\n        /* \"#utility.yul\":21187:21329   */\n    tag_188:\n        /* \"#utility.yul\":21237:21246   */\n      0x00\n        /* \"#utility.yul\":21270:21323   */\n      tag_399\n        /* \"#utility.yul\":21288:21322   */\n      tag_400\n        /* \"#utility.yul\":21297:21321   */\n      tag_401\n        /* \"#utility.yul\":21315:21320   */\n      dup5\n        /* \"#utility.yul\":21297:21321   */\n      tag_132\n      jump\t// in\n    tag_401:\n        /* \"#utility.yul\":21288:21322   */\n      tag_179\n      jump\t// in\n    tag_400:\n        /* \"#utility.yul\":21270:21323   */\n      tag_132\n      jump\t// in\n    tag_399:\n        /* \"#utility.yul\":21257:21323   */\n      swap1\n      pop\n        /* \"#utility.yul\":21187:21329   */\n      swap2\n      swap1\n      pop\n      jump\t// out\n        /* \"#utility.yul\":21335:21410   */\n    tag_189:\n        /* \"#utility.yul\":21378:21381   */\n      0x00\n        /* \"#utility.yul\":21399:21404   */\n      dup2\n        /* \"#utility.yul\":21392:21404   */\n      swap1\n      pop\n        /* \"#utility.yul\":21335:21410   */\n      swap2\n      swap1\n      pop\n      jump\t// out\n        /* \"#utility.yul\":21416:21685   */\n    tag_190:\n        /* \"#utility.yul\":21526:21565   */\n      tag_404\n        /* \"#utility.yul\":21557:21564   */\n      dup4\n        /* \"#utility.yul\":21526:21565   */\n      tag_188\n      jump\t// in\n    tag_404:\n        /* \"#utility.yul\":21587:21678   */\n      tag_405\n        /* \"#utility.yul\":21636:21677   */\n      tag_406\n        /* \"#utility.yul\":21660:21676   */\n      dup3\n        /* \"#utility.yul\":21636:21677   */\n      tag_189\n      jump\t// in\n    tag_406:\n        /* \"#utility.yul\":21628:21634   */\n      dup5\n        /* \"#utility.yul\":21621:21625   */\n      dup5\n        /* \"#utility.yul\":21615:21626   */\n      sload\n        /* \"#utility.yul\":21587:21678   */\n      tag_187\n      jump\t// in\n    tag_405:\n        /* \"#utility.yul\":21581:21585   */\n      dup3\n        /* \"#utility.yul\":21574:21679   */\n      sstore\n        /* \"#utility.yul\":21492:21685   */\n      pop\n        /* \"#utility.yul\":21416:21685   */\n      pop\n      pop\n      pop\n      jump\t// out\n        /* \"#utility.yul\":21691:21764   */\n    tag_191:\n        /* \"#utility.yul\":21736:21739   */\n      0x00\n        /* \"#utility.yul\":21691:21764   */\n      swap1\n      jump\t// out\n        /* \"#utility.yul\":21770:21959   */\n    tag_192:\n        /* \"#utility.yul\":21847:21879   */\n      tag_409\n      tag_191\n      jump\t// in\n    tag_409:\n        /* \"#utility.yul\":21888:21953   */\n      tag_410\n        /* \"#utility.yul\":21946:21952   */\n      dup2\n        /* \"#utility.yul\":21938:21944   */\n      dup5\n        /* \"#utility.yul\":21932:21936   */\n      dup5\n        /* \"#utility.yul\":21888:21953   */\n      tag_190\n      jump\t// in\n    tag_410:\n        /* \"#utility.yul\":21823:21959   */\n      pop\n        /* \"#utility.yul\":21770:21959   */\n      pop\n      pop\n      jump\t// out\n        /* \"#utility.yul\":21965:22151   */\n    tag_193:\n        /* \"#utility.yul\":22025:22145   */\n    tag_412:\n        /* \"#utility.yul\":22042:22045   */\n      dup2\n        /* \"#utility.yul\":22035:22040   */\n      dup2\n        /* \"#utility.yul\":22032:22046   */\n      lt\n        /* \"#utility.yul\":22025:22145   */\n      iszero\n      tag_414\n      jumpi\n        /* \"#utility.yul\":22096:22135   */\n      tag_415\n        /* \"#utility.yul\":22133:22134   */\n      0x00\n        /* \"#utility.yul\":22126:22131   */\n      dup3\n        /* \"#utility.yul\":22096:22135   */\n      tag_192\n      jump\t// in\n    tag_415:\n        /* \"#utility.yul\":22069:22070   */\n      0x01\n        /* \"#utility.yul\":22062:22067   */\n      dup2\n        /* \"#utility.yul\":22058:22071   */\n      add\n        /* \"#utility.yul\":22049:22071   */\n      swap1\n      pop\n        /* \"#utility.yul\":22025:22145   */\n      jump(tag_412)\n    tag_414:\n        /* \"#utility.yul\":21965:22151   */\n      pop\n      pop\n      jump\t// out\n        /* \"#utility.yul\":22157:22700   */\n    tag_194:\n        /* \"#utility.yul\":22258:22260   */\n      0x1f\n        /* \"#utility.yul\":22253:22256   */\n      dup3\n        /* \"#utility.yul\":22250:22261   */\n      gt\n        /* \"#utility.yul\":22247:22693   */\n      iszero\n      tag_417\n      jumpi\n        /* \"#utility.yul\":22292:22330   */\n      tag_418\n        /* \"#utility.yul\":22324:22329   */\n      dup2\n        /* \"#utility.yul\":22292:22330   */\n      tag_184\n      jump\t// in\n    tag_418:\n        /* \"#utility.yul\":22376:22405   */\n      tag_419\n        /* \"#utility.yul\":22394:22404   */\n      dup5\n        /* \"#utility.yul\":22376:22405   */\n      tag_185\n      jump\t// in\n    tag_419:\n        /* \"#utility.yul\":22366:22374   */\n      dup2\n        /* \"#utility.yul\":22362:22406   */\n      add\n        /* \"#utility.yul\":22559:22561   */\n      0x20\n        /* \"#utility.yul\":22547:22557   */\n      dup6\n        /* \"#utility.yul\":22544:22562   */\n      lt\n        /* \"#utility.yul\":22541:22590   */\n      iszero\n      tag_420\n      jumpi\n        /* \"#utility.yul\":22580:22588   */\n      dup2\n        /* \"#utility.yul\":22565:22588   */\n      swap1\n      pop\n        /* \"#utility.yul\":22541:22590   */\n    tag_420:\n        /* \"#utility.yul\":22603:22683   */\n      tag_421\n        /* \"#utility.yul\":22659:22681   */\n      tag_422\n        /* \"#utility.yul\":22677:22680   */\n      dup6\n        /* \"#utility.yul\":22659:22681   */\n      tag_185\n      jump\t// in\n    tag_422:\n        /* \"#utility.yul\":22649:22657   */\n      dup4\n        /* \"#utility.yul\":22645:22682   */\n      add\n        /* \"#utility.yul\":22632:22643   */\n      dup3\n        /* \"#utility.yul\":22603:22683   */\n      tag_193\n      jump\t// in\n    tag_421:\n        /* \"#utility.yul\":22262:22693   */\n      pop\n      pop\n        /* \"#utility.yul\":22247:22693   */\n    tag_417:\n        /* \"#utility.yul\":22157:22700   */\n      pop\n      pop\n      pop\n      jump\t// out\n        /* \"#utility.yul\":22706:22823   */\n    tag_195:\n        /* \"#utility.yul\":22760:22768   */\n      0x00\n        /* \"#utility.yul\":22810:22815   */\n      dup3\n        /* \"#utility.yul\":22804:22808   */\n      dup3\n        /* \"#utility.yul\":22800:22816   */\n      shr\n        /* \"#utility.yul\":22779:22816   */\n      swap1\n      pop\n        /* \"#utility.yul\":22706:22823   */\n      swap3\n      swap2\n      pop\n      pop\n      jump\t// out\n        /* \"#utility.yul\":22829:22998   */\n    tag_196:\n        /* \"#utility.yul\":22873:22879   */\n      0x00\n        /* \"#utility.yul\":22906:22957   */\n      tag_425\n        /* \"#utility.yul\":22954:22955   */\n      0x00\n        /* \"#utility.yul\":22950:22956   */\n      not\n        /* \"#utility.yul\":22942:22947   */\n      dup5\n        /* \"#utility.yul\":22939:22940   */\n      0x08\n        /* \"#utility.yul\":22935:22948   */\n      mul\n        /* \"#utility.yul\":22906:22957   */\n      tag_195\n      jump\t// in\n    tag_425:\n        /* \"#utility.yul\":22902:22958   */\n      not\n        /* \"#utility.yul\":22987:22991   */\n      dup1\n        /* \"#utility.yul\":22981:22985   */\n      dup4\n        /* \"#utility.yul\":22977:22992   */\n      and\n        /* \"#utility.yul\":22967:22992   */\n      swap2\n      pop\n        /* \"#utility.yul\":22880:22998   */\n      pop\n        /* \"#utility.yul\":22829:22998   */\n      swap3\n      swap2\n      pop\n      pop\n      jump\t// out\n        /* \"#utility.yul\":23003:23298   */\n    tag_197:\n        /* \"#utility.yul\":23079:23083   */\n      0x00\n        /* \"#utility.yul\":23225:23254   */\n      tag_427\n        /* \"#utility.yul\":23250:23253   */\n      dup4\n        /* \"#utility.yul\":23244:23248   */\n      dup4\n        /* \"#utility.yul\":23225:23254   */\n      tag_196\n      jump\t// in\n    tag_427:\n        /* \"#utility.yul\":23217:23254   */\n      swap2\n      pop\n        /* \"#utility.yul\":23287:23290   */\n      dup3\n        /* \"#utility.yul\":23284:23285   */\n      0x02\n        /* \"#utility.yul\":23280:23291   */\n      mul\n        /* \"#utility.yul\":23274:23278   */\n      dup3\n        /* \"#utility.yul\":23271:23292   */\n      or\n        /* \"#utility.yul\":23263:23292   */\n      swap1\n      pop\n        /* \"#utility.yul\":23003:23298   */\n      swap3\n      swap2\n      pop\n      pop\n      jump\t// out\n        /* \"#utility.yul\":23303:24698   */\n    tag_122:\n        /* \"#utility.yul\":23420:23457   */\n      tag_429\n        /* \"#utility.yul\":23453:23456   */\n      dup3\n        /* \"#utility.yul\":23420:23457   */\n      tag_137\n      jump\t// in\n    tag_429:\n        /* \"#utility.yul\":23522:23540   */\n      0xffffffffffffffff\n        /* \"#utility.yul\":23514:23520   */\n      dup2\n        /* \"#utility.yul\":23511:23541   */\n      gt\n        /* \"#utility.yul\":23508:23564   */\n      iszero\n      tag_430\n      jumpi\n        /* \"#utility.yul\":23544:23562   */\n      tag_431\n      tag_164\n      jump\t// in\n    tag_431:\n        /* \"#utility.yul\":23508:23564   */\n    tag_430:\n        /* \"#utility.yul\":23588:23626   */\n      tag_432\n        /* \"#utility.yul\":23620:23624   */\n      dup3\n        /* \"#utility.yul\":23614:23625   */\n      sload\n        /* \"#utility.yul\":23588:23626   */\n      tag_51\n      jump\t// in\n    tag_432:\n        /* \"#utility.yul\":23673:23740   */\n      tag_433\n        /* \"#utility.yul\":23733:23739   */\n      dup3\n        /* \"#utility.yul\":23725:23731   */\n      dup3\n        /* \"#utility.yul\":23719:23723   */\n      dup6\n        /* \"#utility.yul\":23673:23740   */\n      tag_194\n      jump\t// in\n    tag_433:\n        /* \"#utility.yul\":23767:23768   */\n      0x00\n        /* \"#utility.yul\":23791:23795   */\n      0x20\n        /* \"#utility.yul\":23778:23795   */\n      swap1\n      pop\n        /* \"#utility.yul\":23823:23825   */\n      0x1f\n        /* \"#utility.yul\":23815:23821   */\n      dup4\n        /* \"#utility.yul\":23812:23826   */\n      gt\n        /* \"#utility.yul\":23840:23841   */\n      0x01\n        /* \"#utility.yul\":23835:24453   */\n      dup2\n      eq\n      tag_435\n      jumpi\n        /* \"#utility.yul\":24497:24498   */\n      0x00\n        /* \"#utility.yul\":24514:24520   */\n      dup5\n        /* \"#utility.yul\":24511:24588   */\n      iszero\n      tag_436\n      jumpi\n        /* \"#utility.yul\":24563:24572   */\n      dup3\n        /* \"#utility.yul\":24558:24561   */\n      dup8\n        /* \"#utility.yul\":24554:24573   */\n      add\n        /* \"#utility.yul\":24548:24574   */\n      mload\n        /* \"#utility.yul\":24539:24574   */\n      swap1\n      pop\n        /* \"#utility.yul\":24511:24588   */\n    tag_436:\n        /* \"#utility.yul\":24614:24681   */\n      tag_437\n        /* \"#utility.yul\":24674:24680   */\n      dup6\n        /* \"#utility.yul\":24667:24672   */\n      dup3\n        /* \"#utility.yul\":24614:24681   */\n      tag_197\n      jump\t// in\n    tag_437:\n        /* \"#utility.yul\":24608:24612   */\n      dup7\n        /* \"#utility.yul\":24601:24682   */\n      sstore\n        /* \"#utility.yul\":24470:24692   */\n      pop\n        /* \"#utility.yul\":23805:24692   */\n      jump(tag_434)\n        /* \"#utility.yul\":23835:24453   */\n    tag_435:\n        /* \"#utility.yul\":23887:23891   */\n      0x1f\n        /* \"#utility.yul\":23883:23892   */\n      not\n        /* \"#utility.yul\":23875:23881   */\n      dup5\n        /* \"#utility.yul\":23871:23893   */\n      and\n        /* \"#utility.yul\":23921:23958   */\n      tag_438\n        /* \"#utility.yul\":23953:23957   */\n      dup7\n        /* \"#utility.yul\":23921:23958   */\n      tag_184\n      jump\t// in\n    tag_438:\n        /* \"#utility.yul\":23980:23981   */\n      0x00\n        /* \"#utility.yul\":23994:24202   */\n    tag_439:\n        /* \"#utility.yul\":24008:24015   */\n      dup3\n        /* \"#utility.yul\":24005:24006   */\n      dup2\n        /* \"#utility.yul\":24002:24016   */\n      lt\n        /* \"#utility.yul\":23994:24202   */\n      iszero\n      tag_441\n      jumpi\n        /* \"#utility.yul\":24087:24096   */\n      dup5\n        /* \"#utility.yul\":24082:24085   */\n      dup10\n        /* \"#utility.yul\":24078:24097   */\n      add\n        /* \"#utility.yul\":24072:24098   */\n      mload\n        /* \"#utility.yul\":24064:24070   */\n      dup3\n        /* \"#utility.yul\":24057:24099   */\n      sstore\n        /* \"#utility.yul\":24138:24139   */\n      0x01\n        /* \"#utility.yul\":24130:24136   */\n      dup3\n        /* \"#utility.yul\":24126:24140   */\n      add\n        /* \"#utility.yul\":24116:24140   */\n      swap2\n      pop\n        /* \"#utility.yul\":24185:24187   */\n      0x20\n        /* \"#utility.yul\":24174:24183   */\n      dup6\n        /* \"#utility.yul\":24170:24188   */\n      add\n        /* \"#utility.yul\":24157:24188   */\n      swap5\n      pop\n        /* \"#utility.yul\":24031:24035   */\n      0x20\n        /* \"#utility.yul\":24028:24029   */\n      dup2\n        /* \"#utility.yul\":24024:24036   */\n      add\n        /* \"#utility.yul\":24019:24036   */\n      swap1\n      pop\n        /* \"#utility.yul\":23994:24202   */\n      jump(tag_439)\n    tag_441:\n        /* \"#utility.yul\":24230:24236   */\n      dup7\n        /* \"#utility.yul\":24221:24228   */\n      dup4\n        /* \"#utility.yul\":24218:24237   */\n      lt\n        /* \"#utility.yul\":24215:24394   */\n      iszero\n      tag_442\n      jumpi\n        /* \"#utility.yul\":24288:24297   */\n      dup5\n        /* \"#utility.yul\":24283:24286   */\n      dup10\n        /* \"#utility.yul\":24279:24298   */\n      add\n        /* \"#utility.yul\":24273:24299   */\n      mload\n        /* \"#utility.yul\":24331:24379   */\n      tag_443\n        /* \"#utility.yul\":24373:24377   */\n      0x1f\n        /* \"#utility.yul\":24365:24371   */\n      dup10\n        /* \"#utility.yul\":24361:24378   */\n      and\n        /* \"#utility.yul\":24350:24359   */\n      dup3\n        /* \"#utility.yul\":24331:24379   */\n      tag_196\n      jump\t// in\n    tag_443:\n        /* \"#utility.yul\":24323:24329   */\n      dup4\n        /* \"#utility.yul\":24316:24380   */\n      sstore\n        /* \"#utility.yul\":24238:24394   */\n      pop\n        /* \"#utility.yul\":24215:24394   */\n    tag_442:\n        /* \"#utility.yul\":24440:24441   */\n      0x01\n        /* \"#utility.yul\":24436:24437   */\n      0x02\n        /* \"#utility.yul\":24428:24434   */\n      dup9\n        /* \"#utility.yul\":24424:24438   */\n      mul\n        /* \"#utility.yul\":24420:24442   */\n      add\n        /* \"#utility.yul\":24414:24418   */\n      dup9\n        /* \"#utility.yul\":24407:24443   */\n      sstore\n        /* \"#utility.yul\":23842:24453   */\n      pop\n      pop\n      pop\n        /* \"#utility.yul\":23805:24692   */\n    tag_434:\n      pop\n        /* \"#utility.yul\":23395:24698   */\n      pop\n      pop\n      pop\n        /* \"#utility.yul\":23303:24698   */\n      pop\n      pop\n      jump\t// out\n        /* \"#utility.yul\":24704:25348   */\n    tag_124:\n        /* \"#utility.yul\":24901:24905   */\n      0x00\n        /* \"#utility.yul\":24939:24942   */\n      0x80\n        /* \"#utility.yul\":24928:24937   */\n      dup3\n        /* \"#utility.yul\":24924:24943   */\n      add\n        /* \"#utility.yul\":24916:24943   */\n      swap1\n      pop\n        /* \"#utility.yul\":24953:25024   */\n      tag_445\n        /* \"#utility.yul\":25021:25022   */\n      0x00\n        /* \"#utility.yul\":25010:25019   */\n      dup4\n        /* \"#utility.yul\":25006:25023   */\n      add\n        /* \"#utility.yul\":24997:25003   */\n      dup8\n        /* \"#utility.yul\":24953:25024   */\n      tag_135\n      jump\t// in\n    tag_445:\n        /* \"#utility.yul\":25034:25106   */\n      tag_446\n        /* \"#utility.yul\":25102:25104   */\n      0x20\n        /* \"#utility.yul\":25091:25100   */\n      dup4\n        /* \"#utility.yul\":25087:25105   */\n      add\n        /* \"#utility.yul\":25078:25084   */\n      dup7\n        /* \"#utility.yul\":25034:25106   */\n      tag_136\n      jump\t// in\n    tag_446:\n        /* \"#utility.yul\":25153:25162   */\n      dup2\n        /* \"#utility.yul\":25147:25151   */\n      dup2\n        /* \"#utility.yul\":25143:25163   */\n      sub\n        /* \"#utility.yul\":25138:25140   */\n      0x40\n        /* \"#utility.yul\":25127:25136   */\n      dup4\n        /* \"#utility.yul\":25123:25141   */\n      add\n        /* \"#utility.yul\":25116:25164   */\n      mstore\n        /* \"#utility.yul\":25181:25259   */\n      tag_447\n        /* \"#utility.yul\":25254:25258   */\n      dup2\n        /* \"#utility.yul\":25245:25251   */\n      dup6\n        /* \"#utility.yul\":25181:25259   */\n      tag_141\n      jump\t// in\n    tag_447:\n        /* \"#utility.yul\":25173:25259   */\n      swap1\n      pop\n        /* \"#utility.yul\":25269:25341   */\n      tag_448\n        /* \"#utility.yul\":25337:25339   */\n      0x60\n        /* \"#utility.yul\":25326:25335   */\n      dup4\n        /* \"#utility.yul\":25322:25340   */\n      add\n        /* \"#utility.yul\":25313:25319   */\n      dup5\n        /* \"#utility.yul\":25269:25341   */\n      tag_135\n      jump\t// in\n    tag_448:\n        /* \"#utility.yul\":24704:25348   */\n      swap6\n      swap5\n      pop\n      pop\n      pop\n      pop\n      pop\n      jump\t// out\n\n    auxdata: 0xa2646970667358221220a5606bf0927753f115f57076289b7d5d52f4f312082705ac94c11718f6ce9da964736f6c634300081a0033\n}\n",
				"bytecode": {
					"linkReferences": {},
					"object": "60806040526101185f806101000a81548161ffff021916908361ffff160217905550348015602b575f80fd5b503360025f6101000a81548173ffffffffffffffffffffffffffffffffffffffff021916908373ffffffffffffffffffffffffffffffffffffffff160217905550611ae6806100795f395ff3fe608060405234801561000f575f80fd5b5060043610610086575f3560e01c80635dfd9be2116100595780635dfd9be21461012657806363378216146101565780637c9cd2bc146101725780638da5cb5b1461018e57610086565b806305a1b4a91461008a57806312e7ee1c146100be5780633d9b569f146100ee57806358bfa4ab1461010a575b5f80fd5b6100a4600480360381019061009f9190610ece565b6101ac565b6040516100b5959493929190610fc4565b60405180910390f35b6100d860048036038101906100d3919061101c565b6102b8565b6040516100e591906111ea565b60405180910390f35b61010860048036038101906101039190610ece565b610492565b005b610124600480360381019061011f9190611241565b6106e3565b005b610140600480360381019061013b9190611296565b610790565b60405161014d9190611334565b60405180910390f35b610170600480360381019061016b9190610ece565b610958565b005b61018c60048036038101906101879190611480565b610b6f565b005b610196610db8565b6040516101a391906114c7565b60405180910390f35b6001602052815f5260405f2081815481106101c5575f80fd5b905f5260205f2090600502015f9150915050805f015490806001015f9054906101000a900473ffffffffffffffffffffffffffffffffffffffff16908060020180546102109061150d565b80601f016020809104026020016040519081016040528092919081815260200182805461023c9061150d565b80156102875780601f1061025e57610100808354040283529160200191610287565b820191905f5260205f20905b81548152906001019060200180831161026a57829003601f168201915b505050505090806003015490806004015f9054906101000a90046fffffffffffffffffffffffffffffffff16905085565b606060015f8373ffffffffffffffffffffffffffffffffffffffff1673ffffffffffffffffffffffffffffffffffffffff1681526020019081526020015f20805480602002602001604051908101604052809291908181526020015f905b82821015610487578382905f5260205f2090600502016040518060a00160405290815f8201548152602001600182015f9054906101000a900473ffffffffffffffffffffffffffffffffffffffff1673ffffffffffffffffffffffffffffffffffffffff1673ffffffffffffffffffffffffffffffffffffffff1681526020016002820180546103a59061150d565b80601f01602080910402602001604051908101604052809291908181526020018280546103d19061150d565b801561041c5780601f106103f35761010080835404028352916020019161041c565b820191905f5260205f20905b8154815290600101906020018083116103ff57829003601f168201915b5050505050815260200160038201548152602001600482015f9054906101000a90046fffffffffffffffffffffffffffffffff166fffffffffffffffffffffffffffffffff166fffffffffffffffffffffffffffffffff168152505081526020019060010190610316565b505050509050919050565b8060015f60025f9054906101000a900473ffffffffffffffffffffffffffffffffffffffff1673ffffffffffffffffffffffffffffffffffffffff1673ffffffffffffffffffffffffffffffffffffffff1681526020019081526020015f2082815481106105035761050261153d565b5b905f5260205f2090600502015f015414610552576040517f08c379a0000000000000000000000000000000000000000000000000000000008152600401610549906115b4565b60405180910390fd5b5f60015f8473ffffffffffffffffffffffffffffffffffffffff1673ffffffffffffffffffffffffffffffffffffffff1681526020019081526020015f2082815481106105a2576105a161153d565b5b905f5260205f2090600502016004015f9054906101000a90046fffffffffffffffffffffffffffffffff166fffffffffffffffffffffffffffffffff161161061f576040517f08c379a00000000000000000000000000000000000000000000000000000000081526004016106169061161c565b60405180910390fd5b60015f8373ffffffffffffffffffffffffffffffffffffffff1673ffffffffffffffffffffffffffffffffffffffff1681526020019081526020015f20818154811061066e5761066d61153d565b5b905f5260205f2090600502016004015f81819054906101000a90046fffffffffffffffffffffffffffffffff16809291906106a890611667565b91906101000a8154816fffffffffffffffffffffffffffffffff02191690836fffffffffffffffffffffffffffffffff160217905550505050565b3373ffffffffffffffffffffffffffffffffffffffff1660025f9054906101000a900473ffffffffffffffffffffffffffffffffffffffff1673ffffffffffffffffffffffffffffffffffffffff1614610772576040517f08c379a0000000000000000000000000000000000000000000000000000000008152600401610769906116d8565b60405180910390fd5b805f806101000a81548161ffff021916908361ffff16021790555050565b610798610ddd565b60015f3373ffffffffffffffffffffffffffffffffffffffff1673ffffffffffffffffffffffffffffffffffffffff1681526020019081526020015f20826fffffffffffffffffffffffffffffffff16815481106107f9576107f861153d565b5b905f5260205f2090600502016040518060a00160405290815f8201548152602001600182015f9054906101000a900473ffffffffffffffffffffffffffffffffffffffff1673ffffffffffffffffffffffffffffffffffffffff1673ffffffffffffffffffffffffffffffffffffffff16815260200160028201805461087e9061150d565b80601f01602080910402602001604051908101604052809291908181526020018280546108aa9061150d565b80156108f55780601f106108cc576101008083540402835291602001916108f5565b820191905f5260205f20905b8154815290600101906020018083116108d857829003601f168201915b5050505050815260200160038201548152602001600482015f9054906101000a90046fffffffffffffffffffffffffffffffff166fffffffffffffffffffffffffffffffff166fffffffffffffffffffffffffffffffff16815250509050919050565b8060015f8473ffffffffffffffffffffffffffffffffffffffff1673ffffffffffffffffffffffffffffffffffffffff1681526020019081526020015f2082815481106109a8576109a761153d565b5b905f5260205f2090600502015f0154146109f7576040517f08c379a00000000000000000000000000000000000000000000000000000000081526004016109ee906115b4565b60405180910390fd5b60015f8373ffffffffffffffffffffffffffffffffffffffff1673ffffffffffffffffffffffffffffffffffffffff1681526020019081526020015f208181548110610a4657610a4561153d565b5b905f5260205f2090600502016004015f81819054906101000a90046fffffffffffffffffffffffffffffffff1680929190610a80906116f6565b91906101000a8154816fffffffffffffffffffffffffffffffff02191690836fffffffffffffffffffffffffffffffff160217905550507fe6b0cbccb8d65ef5d85320d23fe25d0bac1845950ee8a2379b37a67c3e18836e338260015f8673ffffffffffffffffffffffffffffffffffffffff1673ffffffffffffffffffffffffffffffffffffffff1681526020019081526020015f208481548110610b2957610b2861153d565b5b905f5260205f2090600502016004015f9054906101000a90046fffffffffffffffffffffffffffffffff16604051610b6393929190611766565b60405180910390a15050565b5f8054906101000a900461ffff1661ffff1681511115610bc4576040517f08c379a0000000000000000000000000000000000000000000000000000000008152600401610bbb906117e5565b60405180910390fd5b5f6040518060a0016040528060015f3373ffffffffffffffffffffffffffffffffffffffff1673ffffffffffffffffffffffffffffffffffffffff1681526020019081526020015f208054905081526020013373ffffffffffffffffffffffffffffffffffffffff1681526020018381526020014281526020015f6fffffffffffffffffffffffffffffffff16815250905060015f3373ffffffffffffffffffffffffffffffffffffffff1673ffffffffffffffffffffffffffffffffffffffff1681526020019081526020015f2081908060018154018082558091505060019003905f5260205f2090600502015f909190919091505f820151815f01556020820151816001015f6101000a81548173ffffffffffffffffffffffffffffffffffffffff021916908373ffffffffffffffffffffffffffffffffffffffff1602179055506040820151816002019081610d1d9190611997565b50606082015181600301556080820151816004015f6101000a8154816fffffffffffffffffffffffffffffffff02191690836fffffffffffffffffffffffffffffffff16021790555050507f16fd3c13e9d46923e0a8bce11c7b473ec508a72e6c96cd2404b29ce972afc29e815f0151826020015183604001518460600151604051610dac9493929190611a66565b60405180910390a15050565b60025f9054906101000a900473ffffffffffffffffffffffffffffffffffffffff1681565b6040518060a001604052805f81526020015f73ffffffffffffffffffffffffffffffffffffffff168152602001606081526020015f81526020015f6fffffffffffffffffffffffffffffffff1681525090565b5f604051905090565b5f80fd5b5f80fd5b5f73ffffffffffffffffffffffffffffffffffffffff82169050919050565b5f610e6a82610e41565b9050919050565b610e7a81610e60565b8114610e84575f80fd5b50565b5f81359050610e9581610e71565b92915050565b5f819050919050565b610ead81610e9b565b8114610eb7575f80fd5b50565b5f81359050610ec881610ea4565b92915050565b5f8060408385031215610ee457610ee3610e39565b5b5f610ef185828601610e87565b9250506020610f0285828601610eba565b9150509250929050565b610f1581610e9b565b82525050565b610f2481610e60565b82525050565b5f81519050919050565b5f82825260208201905092915050565b8281835e5f83830152505050565b5f601f19601f8301169050919050565b5f610f6c82610f2a565b610f768185610f34565b9350610f86818560208601610f44565b610f8f81610f52565b840191505092915050565b5f6fffffffffffffffffffffffffffffffff82169050919050565b610fbe81610f9a565b82525050565b5f60a082019050610fd75f830188610f0c565b610fe46020830187610f1b565b8181036040830152610ff68186610f62565b90506110056060830185610f0c565b6110126080830184610fb5565b9695505050505050565b5f6020828403121561103157611030610e39565b5b5f61103e84828501610e87565b91505092915050565b5f81519050919050565b5f82825260208201905092915050565b5f819050602082019050919050565b61107981610e9b565b82525050565b61108881610e60565b82525050565b5f82825260208201905092915050565b5f6110a882610f2a565b6110b2818561108e565b93506110c2818560208601610f44565b6110cb81610f52565b840191505092915050565b6110df81610f9a565b82525050565b5f60a083015f8301516110fa5f860182611070565b50602083015161110d602086018261107f565b5060408301518482036040860152611125828261109e565b915050606083015161113a6060860182611070565b50608083015161114d60808601826110d6565b508091505092915050565b5f61116383836110e5565b905092915050565b5f602082019050919050565b5f61118182611047565b61118b8185611051565b93508360208202850161119d85611061565b805f5b858110156111d857848403895281516111b98582611158565b94506111c48361116b565b925060208a019950506001810190506111a0565b50829750879550505050505092915050565b5f6020820190508181035f8301526112028184611177565b905092915050565b5f61ffff82169050919050565b6112208161120a565b811461122a575f80fd5b50565b5f8135905061123b81611217565b92915050565b5f6020828403121561125657611255610e39565b5b5f6112638482850161122d565b91505092915050565b61127581610f9a565b811461127f575f80fd5b50565b5f813590506112908161126c565b92915050565b5f602082840312156112ab576112aa610e39565b5b5f6112b884828501611282565b91505092915050565b5f60a083015f8301516112d65f860182611070565b5060208301516112e9602086018261107f565b5060408301518482036040860152611301828261109e565b91505060608301516113166060860182611070565b50608083015161132960808601826110d6565b508091505092915050565b5f6020820190508181035f83015261134c81846112c1565b905092915050565b5f80fd5b5f80fd5b7f4e487b71000000000000000000000000000000000000000000000000000000005f52604160045260245ffd5b61139282610f52565b810181811067ffffffffffffffff821117156113b1576113b061135c565b5b80604052505050565b5f6113c3610e30565b90506113cf8282611389565b919050565b5f67ffffffffffffffff8211156113ee576113ed61135c565b5b6113f782610f52565b9050602081019050919050565b828183375f83830152505050565b5f61142461141f846113d4565b6113ba565b9050828152602081018484840111156114405761143f611358565b5b61144b848285611404565b509392505050565b5f82601f83011261146757611466611354565b5b8135611477848260208601611412565b91505092915050565b5f6020828403121561149557611494610e39565b5b5f82013567ffffffffffffffff8111156114b2576114b1610e3d565b5b6114be84828501611453565b91505092915050565b5f6020820190506114da5f830184610f1b565b92915050565b7f4e487b71000000000000000000000000000000000000000000000000000000005f52602260045260245ffd5b5f600282049050600182168061152457607f821691505b602082108103611537576115366114e0565b5b50919050565b7f4e487b71000000000000000000000000000000000000000000000000000000005f52603260045260245ffd5b7f5477656574206e6f7420666f756e6400000000000000000000000000000000005f82015250565b5f61159e600f83610f34565b91506115a98261156a565b602082019050919050565b5f6020820190508181035f8301526115cb81611592565b9050919050565b7f4d616e6e6e21205265616c6c793f3f00000000000000000000000000000000005f82015250565b5f611606600f83610f34565b9150611611826115d2565b602082019050919050565b5f6020820190508181035f830152611633816115fa565b9050919050565b7f4e487b71000000000000000000000000000000000000000000000000000000005f52601160045260245ffd5b5f61167182610f9a565b91505f82036116835761168261163a565b5b600182039050919050565b7f596f7520617265206e6f7420746865206f776e657220647564652100000000005f82015250565b5f6116c2601b83610f34565b91506116cd8261168e565b602082019050919050565b5f6020820190508181035f8301526116ef816116b6565b9050919050565b5f61170082610f9a565b91506fffffffffffffffffffffffffffffffff82036117225761172161163a565b5b600182019050919050565b5f819050919050565b5f61175061174b61174684610f9a565b61172d565b610e9b565b9050919050565b61176081611736565b82525050565b5f6060820190506117795f830186610f1b565b6117866020830185610f0c565b6117936040830184611757565b949350505050565b7f546f6f206c6f6e672062726f21000000000000000000000000000000000000005f82015250565b5f6117cf600d83610f34565b91506117da8261179b565b602082019050919050565b5f6020820190508181035f8301526117fc816117c3565b9050919050565b5f819050815f5260205f209050919050565b5f6020601f8301049050919050565b5f82821b905092915050565b5f6008830261185f7fffffffffffffffffffffffffffffffffffffffffffffffffffffffffffffffff82611824565b6118698683611824565b95508019841693508086168417925050509392505050565b5f61189b61189661189184610e9b565b61172d565b610e9b565b9050919050565b5f819050919050565b6118b483611881565b6118c86118c0826118a2565b848454611830565b825550505050565b5f90565b6118dc6118d0565b6118e78184846118ab565b505050565b5b8181101561190a576118ff5f826118d4565b6001810190506118ed565b5050565b601f82111561194f5761192081611803565b61192984611815565b81016020851015611938578190505b61194c61194485611815565b8301826118ec565b50505b505050565b5f82821c905092915050565b5f61196f5f1984600802611954565b1980831691505092915050565b5f6119878383611960565b9150826002028217905092915050565b6119a082610f2a565b67ffffffffffffffff8111156119b9576119b861135c565b5b6119c3825461150d565b6119ce82828561190e565b5f60209050601f8311600181146119ff575f84156119ed578287015190505b6119f7858261197c565b865550611a5e565b601f198416611a0d86611803565b5f5b82811015611a3457848901518255600182019150602085019450602081019050611a0f565b86831015611a515784890151611a4d601f891682611960565b8355505b6001600288020188555050505b505050505050565b5f608082019050611a795f830187610f0c565b611a866020830186610f1b565b8181036040830152611a988185610f62565b9050611aa76060830184610f0c565b9594505050505056fea2646970667358221220a5606bf0927753f115f57076289b7d5d52f4f312082705ac94c11718f6ce9da964736f6c634300081a0033",
					"opcodes": "PUSH1 0x80 PUSH1 0x40 MSTORE PUSH2 0x118 PUSH0 DUP1 PUSH2 0x100 EXP DUP2 SLOAD DUP2 PUSH2 0xFFFF MUL NOT AND SWAP1 DUP4 PUSH2 0xFFFF AND MUL OR SWAP1 SSTORE POP CALLVALUE DUP1 ISZERO PUSH1 0x2B JUMPI PUSH0 DUP1 REVERT JUMPDEST POP CALLER PUSH1 0x2 PUSH0 PUSH2 0x100 EXP DUP2 SLOAD DUP2 PUSH20 0xFFFFFFFFFFFFFFFFFFFFFFFFFFFFFFFFFFFFFFFF MUL NOT AND SWAP1 DUP4 PUSH20 0xFFFFFFFFFFFFFFFFFFFFFFFFFFFFFFFFFFFFFFFF AND MUL OR SWAP1 SSTORE POP PUSH2 0x1AE6 DUP1 PUSH2 0x79 PUSH0 CODECOPY PUSH0 RETURN INVALID PUSH1 0x80 PUSH1 0x40 MSTORE CALLVALUE DUP1 ISZERO PUSH2 0xF JUMPI PUSH0 DUP1 REVERT JUMPDEST POP PUSH1 0x4 CALLDATASIZE LT PUSH2 0x86 JUMPI PUSH0 CALLDATALOAD PUSH1 0xE0 SHR DUP1 PUSH4 0x5DFD9BE2 GT PUSH2 0x59 JUMPI DUP1 PUSH4 0x5DFD9BE2 EQ PUSH2 0x126 JUMPI DUP1 PUSH4 0x63378216 EQ PUSH2 0x156 JUMPI DUP1 PUSH4 0x7C9CD2BC EQ PUSH2 0x172 JUMPI DUP1 PUSH4 0x8DA5CB5B EQ PUSH2 0x18E JUMPI PUSH2 0x86 JUMP JUMPDEST DUP1 PUSH4 0x5A1B4A9 EQ PUSH2 0x8A JUMPI DUP1 PUSH4 0x12E7EE1C EQ PUSH2 0xBE JUMPI DUP1 PUSH4 0x3D9B569F EQ PUSH2 0xEE JUMPI DUP1 PUSH4 0x58BFA4AB EQ PUSH2 0x10A JUMPI JUMPDEST PUSH0 DUP1 REVERT JUMPDEST PUSH2 0xA4 PUSH1 0x4 DUP1 CALLDATASIZE SUB DUP2 ADD SWAP1 PUSH2 0x9F SWAP2 SWAP1 PUSH2 0xECE JUMP JUMPDEST PUSH2 0x1AC JUMP JUMPDEST PUSH1 0x40 MLOAD PUSH2 0xB5 SWAP6 SWAP5 SWAP4 SWAP3 SWAP2 SWAP1 PUSH2 0xFC4 JUMP JUMPDEST PUSH1 0x40 MLOAD DUP1 SWAP2 SUB SWAP1 RETURN JUMPDEST PUSH2 0xD8 PUSH1 0x4 DUP1 CALLDATASIZE SUB DUP2 ADD SWAP1 PUSH2 0xD3 SWAP2 SWAP1 PUSH2 0x101C JUMP JUMPDEST PUSH2 0x2B8 JUMP JUMPDEST PUSH1 0x40 MLOAD PUSH2 0xE5 SWAP2 SWAP1 PUSH2 0x11EA JUMP JUMPDEST PUSH1 0x40 MLOAD DUP1 SWAP2 SUB SWAP1 RETURN JUMPDEST PUSH2 0x108 PUSH1 0x4 DUP1 CALLDATASIZE SUB DUP2 ADD SWAP1 PUSH2 0x103 SWAP2 SWAP1 PUSH2 0xECE JUMP JUMPDEST PUSH2 0x492 JUMP JUMPDEST STOP JUMPDEST PUSH2 0x124 PUSH1 0x4 DUP1 CALLDATASIZE SUB DUP2 ADD SWAP1 PUSH2 0x11F SWAP2 SWAP1 PUSH2 0x1241 JUMP JUMPDEST PUSH2 0x6E3 JUMP JUMPDEST STOP JUMPDEST PUSH2 0x140 PUSH1 0x4 DUP1 CALLDATASIZE SUB DUP2 ADD SWAP1 PUSH2 0x13B SWAP2 SWAP1 PUSH2 0x1296 JUMP JUMPDEST PUSH2 0x790 JUMP JUMPDEST PUSH1 0x40 MLOAD PUSH2 0x14D SWAP2 SWAP1 PUSH2 0x1334 JUMP JUMPDEST PUSH1 0x40 MLOAD DUP1 SWAP2 SUB SWAP1 RETURN JUMPDEST PUSH2 0x170 PUSH1 0x4 DUP1 CALLDATASIZE SUB DUP2 ADD SWAP1 PUSH2 0x16B SWAP2 SWAP1 PUSH2 0xECE JUMP JUMPDEST PUSH2 0x958 JUMP JUMPDEST STOP JUMPDEST PUSH2 0x18C PUSH1 0x4 DUP1 CALLDATASIZE SUB DUP2 ADD SWAP1 PUSH2 0x187 SWAP2 SWAP1 PUSH2 0x1480 JUMP JUMPDEST PUSH2 0xB6F JUMP JUMPDEST STOP JUMPDEST PUSH2 0x196 PUSH2 0xDB8 JUMP JUMPDEST PUSH1 0x40 MLOAD PUSH2 0x1A3 SWAP2 SWAP1 PUSH2 0x14C7 JUMP JUMPDEST PUSH1 0x40 MLOAD DUP1 SWAP2 SUB SWAP1 RETURN JUMPDEST PUSH1 0x1 PUSH1 0x20 MSTORE DUP2 PUSH0 MSTORE PUSH1 0x40 PUSH0 KECCAK256 DUP2 DUP2 SLOAD DUP2 LT PUSH2 0x1C5 JUMPI PUSH0 DUP1 REVERT JUMPDEST SWAP1 PUSH0 MSTORE PUSH1 0x20 PUSH0 KECCAK256 SWAP1 PUSH1 0x5 MUL ADD PUSH0 SWAP2 POP SWAP2 POP POP DUP1 PUSH0 ADD SLOAD SWAP1 DUP1 PUSH1 0x1 ADD PUSH0 SWAP1 SLOAD SWAP1 PUSH2 0x100 EXP SWAP1 DIV PUSH20 0xFFFFFFFFFFFFFFFFFFFFFFFFFFFFFFFFFFFFFFFF AND SWAP1 DUP1 PUSH1 0x2 ADD DUP1 SLOAD PUSH2 0x210 SWAP1 PUSH2 0x150D JUMP JUMPDEST DUP1 PUSH1 0x1F ADD PUSH1 0x20 DUP1 SWAP2 DIV MUL PUSH1 0x20 ADD PUSH1 0x40 MLOAD SWAP1 DUP2 ADD PUSH1 0x40 MSTORE DUP1 SWAP3 SWAP2 SWAP1 DUP2 DUP2 MSTORE PUSH1 0x20 ADD DUP3 DUP1 SLOAD PUSH2 0x23C SWAP1 PUSH2 0x150D JUMP JUMPDEST DUP1 ISZERO PUSH2 0x287 JUMPI DUP1 PUSH1 0x1F LT PUSH2 0x25E JUMPI PUSH2 0x100 DUP1 DUP4 SLOAD DIV MUL DUP4 MSTORE SWAP2 PUSH1 0x20 ADD SWAP2 PUSH2 0x287 JUMP JUMPDEST DUP3 ADD SWAP2 SWAP1 PUSH0 MSTORE PUSH1 0x20 PUSH0 KECCAK256 SWAP1 JUMPDEST DUP2 SLOAD DUP2 MSTORE SWAP1 PUSH1 0x1 ADD SWAP1 PUSH1 0x20 ADD DUP1 DUP4 GT PUSH2 0x26A JUMPI DUP3 SWAP1 SUB PUSH1 0x1F AND DUP3 ADD SWAP2 JUMPDEST POP POP POP POP POP SWAP1 DUP1 PUSH1 0x3 ADD SLOAD SWAP1 DUP1 PUSH1 0x4 ADD PUSH0 SWAP1 SLOAD SWAP1 PUSH2 0x100 EXP SWAP1 DIV PUSH16 0xFFFFFFFFFFFFFFFFFFFFFFFFFFFFFFFF AND SWAP1 POP DUP6 JUMP JUMPDEST PUSH1 0x60 PUSH1 0x1 PUSH0 DUP4 PUSH20 0xFFFFFFFFFFFFFFFFFFFFFFFFFFFFFFFFFFFFFFFF AND PUSH20 0xFFFFFFFFFFFFFFFFFFFFFFFFFFFFFFFFFFFFFFFF AND DUP2 MSTORE PUSH1 0x20 ADD SWAP1 DUP2 MSTORE PUSH1 0x20 ADD PUSH0 KECCAK256 DUP1 SLOAD DUP1 PUSH1 0x20 MUL PUSH1 0x20 ADD PUSH1 0x40 MLOAD SWAP1 DUP2 ADD PUSH1 0x40 MSTORE DUP1 SWAP3 SWAP2 SWAP1 DUP2 DUP2 MSTORE PUSH1 0x20 ADD PUSH0 SWAP1 JUMPDEST DUP3 DUP3 LT ISZERO PUSH2 0x487 JUMPI DUP4 DUP3 SWAP1 PUSH0 MSTORE PUSH1 0x20 PUSH0 KECCAK256 SWAP1 PUSH1 0x5 MUL ADD PUSH1 0x40 MLOAD DUP1 PUSH1 0xA0 ADD PUSH1 0x40 MSTORE SWAP1 DUP2 PUSH0 DUP3 ADD SLOAD DUP2 MSTORE PUSH1 0x20 ADD PUSH1 0x1 DUP3 ADD PUSH0 SWAP1 SLOAD SWAP1 PUSH2 0x100 EXP SWAP1 DIV PUSH20 0xFFFFFFFFFFFFFFFFFFFFFFFFFFFFFFFFFFFFFFFF AND PUSH20 0xFFFFFFFFFFFFFFFFFFFFFFFFFFFFFFFFFFFFFFFF AND PUSH20 0xFFFFFFFFFFFFFFFFFFFFFFFFFFFFFFFFFFFFFFFF AND DUP2 MSTORE PUSH1 0x20 ADD PUSH1 0x2 DUP3 ADD DUP1 SLOAD PUSH2 0x3A5 SWAP1 PUSH2 0x150D JUMP JUMPDEST DUP1 PUSH1 0x1F ADD PUSH1 0x20 DUP1 SWAP2 DIV MUL PUSH1 0x20 ADD PUSH1 0x40 MLOAD SWAP1 DUP2 ADD PUSH1 0x40 MSTORE DUP1 SWAP3 SWAP2 SWAP1 DUP2 DUP2 MSTORE PUSH1 0x20 ADD DUP3 DUP1 SLOAD PUSH2 0x3D1 SWAP1 PUSH2 0x150D JUMP JUMPDEST DUP1 ISZERO PUSH2 0x41C JUMPI DUP1 PUSH1 0x1F LT PUSH2 0x3F3 JUMPI PUSH2 0x100 DUP1 DUP4 SLOAD DIV MUL DUP4 MSTORE SWAP2 PUSH1 0x20 ADD SWAP2 PUSH2 0x41C JUMP JUMPDEST DUP3 ADD SWAP2 SWAP1 PUSH0 MSTORE PUSH1 0x20 PUSH0 KECCAK256 SWAP1 JUMPDEST DUP2 SLOAD DUP2 MSTORE SWAP1 PUSH1 0x1 ADD SWAP1 PUSH1 0x20 ADD DUP1 DUP4 GT PUSH2 0x3FF JUMPI DUP3 SWAP1 SUB PUSH1 0x1F AND DUP3 ADD SWAP2 JUMPDEST POP POP POP POP POP DUP2 MSTORE PUSH1 0x20 ADD PUSH1 0x3 DUP3 ADD SLOAD DUP2 MSTORE PUSH1 0x20 ADD PUSH1 0x4 DUP3 ADD PUSH0 SWAP1 SLOAD SWAP1 PUSH2 0x100 EXP SWAP1 DIV PUSH16 0xFFFFFFFFFFFFFFFFFFFFFFFFFFFFFFFF AND PUSH16 0xFFFFFFFFFFFFFFFFFFFFFFFFFFFFFFFF AND PUSH16 0xFFFFFFFFFFFFFFFFFFFFFFFFFFFFFFFF AND DUP2 MSTORE POP POP DUP2 MSTORE PUSH1 0x20 ADD SWAP1 PUSH1 0x1 ADD SWAP1 PUSH2 0x316 JUMP JUMPDEST POP POP POP POP SWAP1 POP SWAP2 SWAP1 POP JUMP JUMPDEST DUP1 PUSH1 0x1 PUSH0 PUSH1 0x2 PUSH0 SWAP1 SLOAD SWAP1 PUSH2 0x100 EXP SWAP1 DIV PUSH20 0xFFFFFFFFFFFFFFFFFFFFFFFFFFFFFFFFFFFFFFFF AND PUSH20 0xFFFFFFFFFFFFFFFFFFFFFFFFFFFFFFFFFFFFFFFF AND PUSH20 0xFFFFFFFFFFFFFFFFFFFFFFFFFFFFFFFFFFFFFFFF AND DUP2 MSTORE PUSH1 0x20 ADD SWAP1 DUP2 MSTORE PUSH1 0x20 ADD PUSH0 KECCAK256 DUP3 DUP2 SLOAD DUP2 LT PUSH2 0x503 JUMPI PUSH2 0x502 PUSH2 0x153D JUMP JUMPDEST JUMPDEST SWAP1 PUSH0 MSTORE PUSH1 0x20 PUSH0 KECCAK256 SWAP1 PUSH1 0x5 MUL ADD PUSH0 ADD SLOAD EQ PUSH2 0x552 JUMPI PUSH1 0x40 MLOAD PUSH32 0x8C379A000000000000000000000000000000000000000000000000000000000 DUP2 MSTORE PUSH1 0x4 ADD PUSH2 0x549 SWAP1 PUSH2 0x15B4 JUMP JUMPDEST PUSH1 0x40 MLOAD DUP1 SWAP2 SUB SWAP1 REVERT JUMPDEST PUSH0 PUSH1 0x1 PUSH0 DUP5 PUSH20 0xFFFFFFFFFFFFFFFFFFFFFFFFFFFFFFFFFFFFFFFF AND PUSH20 0xFFFFFFFFFFFFFFFFFFFFFFFFFFFFFFFFFFFFFFFF AND DUP2 MSTORE PUSH1 0x20 ADD SWAP1 DUP2 MSTORE PUSH1 0x20 ADD PUSH0 KECCAK256 DUP3 DUP2 SLOAD DUP2 LT PUSH2 0x5A2 JUMPI PUSH2 0x5A1 PUSH2 0x153D JUMP JUMPDEST JUMPDEST SWAP1 PUSH0 MSTORE PUSH1 0x20 PUSH0 KECCAK256 SWAP1 PUSH1 0x5 MUL ADD PUSH1 0x4 ADD PUSH0 SWAP1 SLOAD SWAP1 PUSH2 0x100 EXP SWAP1 DIV PUSH16 0xFFFFFFFFFFFFFFFFFFFFFFFFFFFFFFFF AND PUSH16 0xFFFFFFFFFFFFFFFFFFFFFFFFFFFFFFFF AND GT PUSH2 0x61F JUMPI PUSH1 0x40 MLOAD PUSH32 0x8C379A000000000000000000000000000000000000000000000000000000000 DUP2 MSTORE PUSH1 0x4 ADD PUSH2 0x616 SWAP1 PUSH2 0x161C JUMP JUMPDEST PUSH1 0x40 MLOAD DUP1 SWAP2 SUB SWAP1 REVERT JUMPDEST PUSH1 0x1 PUSH0 DUP4 PUSH20 0xFFFFFFFFFFFFFFFFFFFFFFFFFFFFFFFFFFFFFFFF AND PUSH20 0xFFFFFFFFFFFFFFFFFFFFFFFFFFFFFFFFFFFFFFFF AND DUP2 MSTORE PUSH1 0x20 ADD SWAP1 DUP2 MSTORE PUSH1 0x20 ADD PUSH0 KECCAK256 DUP2 DUP2 SLOAD DUP2 LT PUSH2 0x66E JUMPI PUSH2 0x66D PUSH2 0x153D JUMP JUMPDEST JUMPDEST SWAP1 PUSH0 MSTORE PUSH1 0x20 PUSH0 KECCAK256 SWAP1 PUSH1 0x5 MUL ADD PUSH1 0x4 ADD PUSH0 DUP2 DUP2 SWAP1 SLOAD SWAP1 PUSH2 0x100 EXP SWAP1 DIV PUSH16 0xFFFFFFFFFFFFFFFFFFFFFFFFFFFFFFFF AND DUP1 SWAP3 SWAP2 SWAP1 PUSH2 0x6A8 SWAP1 PUSH2 0x1667 JUMP JUMPDEST SWAP2 SWAP1 PUSH2 0x100 EXP DUP2 SLOAD DUP2 PUSH16 0xFFFFFFFFFFFFFFFFFFFFFFFFFFFFFFFF MUL NOT AND SWAP1 DUP4 PUSH16 0xFFFFFFFFFFFFFFFFFFFFFFFFFFFFFFFF AND MUL OR SWAP1 SSTORE POP POP POP POP JUMP JUMPDEST CALLER PUSH20 0xFFFFFFFFFFFFFFFFFFFFFFFFFFFFFFFFFFFFFFFF AND PUSH1 0x2 PUSH0 SWAP1 SLOAD SWAP1 PUSH2 0x100 EXP SWAP1 DIV PUSH20 0xFFFFFFFFFFFFFFFFFFFFFFFFFFFFFFFFFFFFFFFF AND PUSH20 0xFFFFFFFFFFFFFFFFFFFFFFFFFFFFFFFFFFFFFFFF AND EQ PUSH2 0x772 JUMPI PUSH1 0x40 MLOAD PUSH32 0x8C379A000000000000000000000000000000000000000000000000000000000 DUP2 MSTORE PUSH1 0x4 ADD PUSH2 0x769 SWAP1 PUSH2 0x16D8 JUMP JUMPDEST PUSH1 0x40 MLOAD DUP1 SWAP2 SUB SWAP1 REVERT JUMPDEST DUP1 PUSH0 DUP1 PUSH2 0x100 EXP DUP2 SLOAD DUP2 PUSH2 0xFFFF MUL NOT AND SWAP1 DUP4 PUSH2 0xFFFF AND MUL OR SWAP1 SSTORE POP POP JUMP JUMPDEST PUSH2 0x798 PUSH2 0xDDD JUMP JUMPDEST PUSH1 0x1 PUSH0 CALLER PUSH20 0xFFFFFFFFFFFFFFFFFFFFFFFFFFFFFFFFFFFFFFFF AND PUSH20 0xFFFFFFFFFFFFFFFFFFFFFFFFFFFFFFFFFFFFFFFF AND DUP2 MSTORE PUSH1 0x20 ADD SWAP1 DUP2 MSTORE PUSH1 0x20 ADD PUSH0 KECCAK256 DUP3 PUSH16 0xFFFFFFFFFFFFFFFFFFFFFFFFFFFFFFFF AND DUP2 SLOAD DUP2 LT PUSH2 0x7F9 JUMPI PUSH2 0x7F8 PUSH2 0x153D JUMP JUMPDEST JUMPDEST SWAP1 PUSH0 MSTORE PUSH1 0x20 PUSH0 KECCAK256 SWAP1 PUSH1 0x5 MUL ADD PUSH1 0x40 MLOAD DUP1 PUSH1 0xA0 ADD PUSH1 0x40 MSTORE SWAP1 DUP2 PUSH0 DUP3 ADD SLOAD DUP2 MSTORE PUSH1 0x20 ADD PUSH1 0x1 DUP3 ADD PUSH0 SWAP1 SLOAD SWAP1 PUSH2 0x100 EXP SWAP1 DIV PUSH20 0xFFFFFFFFFFFFFFFFFFFFFFFFFFFFFFFFFFFFFFFF AND PUSH20 0xFFFFFFFFFFFFFFFFFFFFFFFFFFFFFFFFFFFFFFFF AND PUSH20 0xFFFFFFFFFFFFFFFFFFFFFFFFFFFFFFFFFFFFFFFF AND DUP2 MSTORE PUSH1 0x20 ADD PUSH1 0x2 DUP3 ADD DUP1 SLOAD PUSH2 0x87E SWAP1 PUSH2 0x150D JUMP JUMPDEST DUP1 PUSH1 0x1F ADD PUSH1 0x20 DUP1 SWAP2 DIV MUL PUSH1 0x20 ADD PUSH1 0x40 MLOAD SWAP1 DUP2 ADD PUSH1 0x40 MSTORE DUP1 SWAP3 SWAP2 SWAP1 DUP2 DUP2 MSTORE PUSH1 0x20 ADD DUP3 DUP1 SLOAD PUSH2 0x8AA SWAP1 PUSH2 0x150D JUMP JUMPDEST DUP1 ISZERO PUSH2 0x8F5 JUMPI DUP1 PUSH1 0x1F LT PUSH2 0x8CC JUMPI PUSH2 0x100 DUP1 DUP4 SLOAD DIV MUL DUP4 MSTORE SWAP2 PUSH1 0x20 ADD SWAP2 PUSH2 0x8F5 JUMP JUMPDEST DUP3 ADD SWAP2 SWAP1 PUSH0 MSTORE PUSH1 0x20 PUSH0 KECCAK256 SWAP1 JUMPDEST DUP2 SLOAD DUP2 MSTORE SWAP1 PUSH1 0x1 ADD SWAP1 PUSH1 0x20 ADD DUP1 DUP4 GT PUSH2 0x8D8 JUMPI DUP3 SWAP1 SUB PUSH1 0x1F AND DUP3 ADD SWAP2 JUMPDEST POP POP POP POP POP DUP2 MSTORE PUSH1 0x20 ADD PUSH1 0x3 DUP3 ADD SLOAD DUP2 MSTORE PUSH1 0x20 ADD PUSH1 0x4 DUP3 ADD PUSH0 SWAP1 SLOAD SWAP1 PUSH2 0x100 EXP SWAP1 DIV PUSH16 0xFFFFFFFFFFFFFFFFFFFFFFFFFFFFFFFF AND PUSH16 0xFFFFFFFFFFFFFFFFFFFFFFFFFFFFFFFF AND PUSH16 0xFFFFFFFFFFFFFFFFFFFFFFFFFFFFFFFF AND DUP2 MSTORE POP POP SWAP1 POP SWAP2 SWAP1 POP JUMP JUMPDEST DUP1 PUSH1 0x1 PUSH0 DUP5 PUSH20 0xFFFFFFFFFFFFFFFFFFFFFFFFFFFFFFFFFFFFFFFF AND PUSH20 0xFFFFFFFFFFFFFFFFFFFFFFFFFFFFFFFFFFFFFFFF AND DUP2 MSTORE PUSH1 0x20 ADD SWAP1 DUP2 MSTORE PUSH1 0x20 ADD PUSH0 KECCAK256 DUP3 DUP2 SLOAD DUP2 LT PUSH2 0x9A8 JUMPI PUSH2 0x9A7 PUSH2 0x153D JUMP JUMPDEST JUMPDEST SWAP1 PUSH0 MSTORE PUSH1 0x20 PUSH0 KECCAK256 SWAP1 PUSH1 0x5 MUL ADD PUSH0 ADD SLOAD EQ PUSH2 0x9F7 JUMPI PUSH1 0x40 MLOAD PUSH32 0x8C379A000000000000000000000000000000000000000000000000000000000 DUP2 MSTORE PUSH1 0x4 ADD PUSH2 0x9EE SWAP1 PUSH2 0x15B4 JUMP JUMPDEST PUSH1 0x40 MLOAD DUP1 SWAP2 SUB SWAP1 REVERT JUMPDEST PUSH1 0x1 PUSH0 DUP4 PUSH20 0xFFFFFFFFFFFFFFFFFFFFFFFFFFFFFFFFFFFFFFFF AND PUSH20 0xFFFFFFFFFFFFFFFFFFFFFFFFFFFFFFFFFFFFFFFF AND DUP2 MSTORE PUSH1 0x20 ADD SWAP1 DUP2 MSTORE PUSH1 0x20 ADD PUSH0 KECCAK256 DUP2 DUP2 SLOAD DUP2 LT PUSH2 0xA46 JUMPI PUSH2 0xA45 PUSH2 0x153D JUMP JUMPDEST JUMPDEST SWAP1 PUSH0 MSTORE PUSH1 0x20 PUSH0 KECCAK256 SWAP1 PUSH1 0x5 MUL ADD PUSH1 0x4 ADD PUSH0 DUP2 DUP2 SWAP1 SLOAD SWAP1 PUSH2 0x100 EXP SWAP1 DIV PUSH16 0xFFFFFFFFFFFFFFFFFFFFFFFFFFFFFFFF AND DUP1 SWAP3 SWAP2 SWAP1 PUSH2 0xA80 SWAP1 PUSH2 0x16F6 JUMP JUMPDEST SWAP2 SWAP1 PUSH2 0x100 EXP DUP2 SLOAD DUP2 PUSH16 0xFFFFFFFFFFFFFFFFFFFFFFFFFFFFFFFF MUL NOT AND SWAP1 DUP4 PUSH16 0xFFFFFFFFFFFFFFFFFFFFFFFFFFFFFFFF AND MUL OR SWAP1 SSTORE POP POP PUSH32 0xE6B0CBCCB8D65EF5D85320D23FE25D0BAC1845950EE8A2379B37A67C3E18836E CALLER DUP3 PUSH1 0x1 PUSH0 DUP7 PUSH20 0xFFFFFFFFFFFFFFFFFFFFFFFFFFFFFFFFFFFFFFFF AND PUSH20 0xFFFFFFFFFFFFFFFFFFFFFFFFFFFFFFFFFFFFFFFF AND DUP2 MSTORE PUSH1 0x20 ADD SWAP1 DUP2 MSTORE PUSH1 0x20 ADD PUSH0 KECCAK256 DUP5 DUP2 SLOAD DUP2 LT PUSH2 0xB29 JUMPI PUSH2 0xB28 PUSH2 0x153D JUMP JUMPDEST JUMPDEST SWAP1 PUSH0 MSTORE PUSH1 0x20 PUSH0 KECCAK256 SWAP1 PUSH1 0x5 MUL ADD PUSH1 0x4 ADD PUSH0 SWAP1 SLOAD SWAP1 PUSH2 0x100 EXP SWAP1 DIV PUSH16 0xFFFFFFFFFFFFFFFFFFFFFFFFFFFFFFFF AND PUSH1 0x40 MLOAD PUSH2 0xB63 SWAP4 SWAP3 SWAP2 SWAP1 PUSH2 0x1766 JUMP JUMPDEST PUSH1 0x40 MLOAD DUP1 SWAP2 SUB SWAP1 LOG1 POP POP JUMP JUMPDEST PUSH0 DUP1 SLOAD SWAP1 PUSH2 0x100 EXP SWAP1 DIV PUSH2 0xFFFF AND PUSH2 0xFFFF AND DUP2 MLOAD GT ISZERO PUSH2 0xBC4 JUMPI PUSH1 0x40 MLOAD PUSH32 0x8C379A000000000000000000000000000000000000000000000000000000000 DUP2 MSTORE PUSH1 0x4 ADD PUSH2 0xBBB SWAP1 PUSH2 0x17E5 JUMP JUMPDEST PUSH1 0x40 MLOAD DUP1 SWAP2 SUB SWAP1 REVERT JUMPDEST PUSH0 PUSH1 0x40 MLOAD DUP1 PUSH1 0xA0 ADD PUSH1 0x40 MSTORE DUP1 PUSH1 0x1 PUSH0 CALLER PUSH20 0xFFFFFFFFFFFFFFFFFFFFFFFFFFFFFFFFFFFFFFFF AND PUSH20 0xFFFFFFFFFFFFFFFFFFFFFFFFFFFFFFFFFFFFFFFF AND DUP2 MSTORE PUSH1 0x20 ADD SWAP1 DUP2 MSTORE PUSH1 0x20 ADD PUSH0 KECCAK256 DUP1 SLOAD SWAP1 POP DUP2 MSTORE PUSH1 0x20 ADD CALLER PUSH20 0xFFFFFFFFFFFFFFFFFFFFFFFFFFFFFFFFFFFFFFFF AND DUP2 MSTORE PUSH1 0x20 ADD DUP4 DUP2 MSTORE PUSH1 0x20 ADD TIMESTAMP DUP2 MSTORE PUSH1 0x20 ADD PUSH0 PUSH16 0xFFFFFFFFFFFFFFFFFFFFFFFFFFFFFFFF AND DUP2 MSTORE POP SWAP1 POP PUSH1 0x1 PUSH0 CALLER PUSH20 0xFFFFFFFFFFFFFFFFFFFFFFFFFFFFFFFFFFFFFFFF AND PUSH20 0xFFFFFFFFFFFFFFFFFFFFFFFFFFFFFFFFFFFFFFFF AND DUP2 MSTORE PUSH1 0x20 ADD SWAP1 DUP2 MSTORE PUSH1 0x20 ADD PUSH0 KECCAK256 DUP2 SWAP1 DUP1 PUSH1 0x1 DUP2 SLOAD ADD DUP1 DUP3 SSTORE DUP1 SWAP2 POP POP PUSH1 0x1 SWAP1 SUB SWAP1 PUSH0 MSTORE PUSH1 0x20 PUSH0 KECCAK256 SWAP1 PUSH1 0x5 MUL ADD PUSH0 SWAP1 SWAP2 SWAP1 SWAP2 SWAP1 SWAP2 POP PUSH0 DUP3 ADD MLOAD DUP2 PUSH0 ADD SSTORE PUSH1 0x20 DUP3 ADD MLOAD DUP2 PUSH1 0x1 ADD PUSH0 PUSH2 0x100 EXP DUP2 SLOAD DUP2 PUSH20 0xFFFFFFFFFFFFFFFFFFFFFFFFFFFFFFFFFFFFFFFF MUL NOT AND SWAP1 DUP4 PUSH20 0xFFFFFFFFFFFFFFFFFFFFFFFFFFFFFFFFFFFFFFFF AND MUL OR SWAP1 SSTORE POP PUSH1 0x40 DUP3 ADD MLOAD DUP2 PUSH1 0x2 ADD SWAP1 DUP2 PUSH2 0xD1D SWAP2 SWAP1 PUSH2 0x1997 JUMP JUMPDEST POP PUSH1 0x60 DUP3 ADD MLOAD DUP2 PUSH1 0x3 ADD SSTORE PUSH1 0x80 DUP3 ADD MLOAD DUP2 PUSH1 0x4 ADD PUSH0 PUSH2 0x100 EXP DUP2 SLOAD DUP2 PUSH16 0xFFFFFFFFFFFFFFFFFFFFFFFFFFFFFFFF MUL NOT AND SWAP1 DUP4 PUSH16 0xFFFFFFFFFFFFFFFFFFFFFFFFFFFFFFFF AND MUL OR SWAP1 SSTORE POP POP POP PUSH32 0x16FD3C13E9D46923E0A8BCE11C7B473EC508A72E6C96CD2404B29CE972AFC29E DUP2 PUSH0 ADD MLOAD DUP3 PUSH1 0x20 ADD MLOAD DUP4 PUSH1 0x40 ADD MLOAD DUP5 PUSH1 0x60 ADD MLOAD PUSH1 0x40 MLOAD PUSH2 0xDAC SWAP5 SWAP4 SWAP3 SWAP2 SWAP1 PUSH2 0x1A66 JUMP JUMPDEST PUSH1 0x40 MLOAD DUP1 SWAP2 SUB SWAP1 LOG1 POP POP JUMP JUMPDEST PUSH1 0x2 PUSH0 SWAP1 SLOAD SWAP1 PUSH2 0x100 EXP SWAP1 DIV PUSH20 0xFFFFFFFFFFFFFFFFFFFFFFFFFFFFFFFFFFFFFFFF AND DUP2 JUMP JUMPDEST PUSH1 0x40 MLOAD DUP1 PUSH1 0xA0 ADD PUSH1 0x40 MSTORE DUP1 PUSH0 DUP2 MSTORE PUSH1 0x20 ADD PUSH0 PUSH20 0xFFFFFFFFFFFFFFFFFFFFFFFFFFFFFFFFFFFFFFFF AND DUP2 MSTORE PUSH1 0x20 ADD PUSH1 0x60 DUP2 MSTORE PUSH1 0x20 ADD PUSH0 DUP2 MSTORE PUSH1 0x20 ADD PUSH0 PUSH16 0xFFFFFFFFFFFFFFFFFFFFFFFFFFFFFFFF AND DUP2 MSTORE POP SWAP1 JUMP JUMPDEST PUSH0 PUSH1 0x40 MLOAD SWAP1 POP SWAP1 JUMP JUMPDEST PUSH0 DUP1 REVERT JUMPDEST PUSH0 DUP1 REVERT JUMPDEST PUSH0 PUSH20 0xFFFFFFFFFFFFFFFFFFFFFFFFFFFFFFFFFFFFFFFF DUP3 AND SWAP1 POP SWAP2 SWAP1 POP JUMP JUMPDEST PUSH0 PUSH2 0xE6A DUP3 PUSH2 0xE41 JUMP JUMPDEST SWAP1 POP SWAP2 SWAP1 POP JUMP JUMPDEST PUSH2 0xE7A DUP2 PUSH2 0xE60 JUMP JUMPDEST DUP2 EQ PUSH2 0xE84 JUMPI PUSH0 DUP1 REVERT JUMPDEST POP JUMP JUMPDEST PUSH0 DUP2 CALLDATALOAD SWAP1 POP PUSH2 0xE95 DUP2 PUSH2 0xE71 JUMP JUMPDEST SWAP3 SWAP2 POP POP JUMP JUMPDEST PUSH0 DUP2 SWAP1 POP SWAP2 SWAP1 POP JUMP JUMPDEST PUSH2 0xEAD DUP2 PUSH2 0xE9B JUMP JUMPDEST DUP2 EQ PUSH2 0xEB7 JUMPI PUSH0 DUP1 REVERT JUMPDEST POP JUMP JUMPDEST PUSH0 DUP2 CALLDATALOAD SWAP1 POP PUSH2 0xEC8 DUP2 PUSH2 0xEA4 JUMP JUMPDEST SWAP3 SWAP2 POP POP JUMP JUMPDEST PUSH0 DUP1 PUSH1 0x40 DUP4 DUP6 SUB SLT ISZERO PUSH2 0xEE4 JUMPI PUSH2 0xEE3 PUSH2 0xE39 JUMP JUMPDEST JUMPDEST PUSH0 PUSH2 0xEF1 DUP6 DUP3 DUP7 ADD PUSH2 0xE87 JUMP JUMPDEST SWAP3 POP POP PUSH1 0x20 PUSH2 0xF02 DUP6 DUP3 DUP7 ADD PUSH2 0xEBA JUMP JUMPDEST SWAP2 POP POP SWAP3 POP SWAP3 SWAP1 POP JUMP JUMPDEST PUSH2 0xF15 DUP2 PUSH2 0xE9B JUMP JUMPDEST DUP3 MSTORE POP POP JUMP JUMPDEST PUSH2 0xF24 DUP2 PUSH2 0xE60 JUMP JUMPDEST DUP3 MSTORE POP POP JUMP JUMPDEST PUSH0 DUP2 MLOAD SWAP1 POP SWAP2 SWAP1 POP JUMP JUMPDEST PUSH0 DUP3 DUP3 MSTORE PUSH1 0x20 DUP3 ADD SWAP1 POP SWAP3 SWAP2 POP POP JUMP JUMPDEST DUP3 DUP2 DUP4 MCOPY PUSH0 DUP4 DUP4 ADD MSTORE POP POP POP JUMP JUMPDEST PUSH0 PUSH1 0x1F NOT PUSH1 0x1F DUP4 ADD AND SWAP1 POP SWAP2 SWAP1 POP JUMP JUMPDEST PUSH0 PUSH2 0xF6C DUP3 PUSH2 0xF2A JUMP JUMPDEST PUSH2 0xF76 DUP2 DUP6 PUSH2 0xF34 JUMP JUMPDEST SWAP4 POP PUSH2 0xF86 DUP2 DUP6 PUSH1 0x20 DUP7 ADD PUSH2 0xF44 JUMP JUMPDEST PUSH2 0xF8F DUP2 PUSH2 0xF52 JUMP JUMPDEST DUP5 ADD SWAP2 POP POP SWAP3 SWAP2 POP POP JUMP JUMPDEST PUSH0 PUSH16 0xFFFFFFFFFFFFFFFFFFFFFFFFFFFFFFFF DUP3 AND SWAP1 POP SWAP2 SWAP1 POP JUMP JUMPDEST PUSH2 0xFBE DUP2 PUSH2 0xF9A JUMP JUMPDEST DUP3 MSTORE POP POP JUMP JUMPDEST PUSH0 PUSH1 0xA0 DUP3 ADD SWAP1 POP PUSH2 0xFD7 PUSH0 DUP4 ADD DUP9 PUSH2 0xF0C JUMP JUMPDEST PUSH2 0xFE4 PUSH1 0x20 DUP4 ADD DUP8 PUSH2 0xF1B JUMP JUMPDEST DUP2 DUP2 SUB PUSH1 0x40 DUP4 ADD MSTORE PUSH2 0xFF6 DUP2 DUP7 PUSH2 0xF62 JUMP JUMPDEST SWAP1 POP PUSH2 0x1005 PUSH1 0x60 DUP4 ADD DUP6 PUSH2 0xF0C JUMP JUMPDEST PUSH2 0x1012 PUSH1 0x80 DUP4 ADD DUP5 PUSH2 0xFB5 JUMP JUMPDEST SWAP7 SWAP6 POP POP POP POP POP POP JUMP JUMPDEST PUSH0 PUSH1 0x20 DUP3 DUP5 SUB SLT ISZERO PUSH2 0x1031 JUMPI PUSH2 0x1030 PUSH2 0xE39 JUMP JUMPDEST JUMPDEST PUSH0 PUSH2 0x103E DUP5 DUP3 DUP6 ADD PUSH2 0xE87 JUMP JUMPDEST SWAP2 POP POP SWAP3 SWAP2 POP POP JUMP JUMPDEST PUSH0 DUP2 MLOAD SWAP1 POP SWAP2 SWAP1 POP JUMP JUMPDEST PUSH0 DUP3 DUP3 MSTORE PUSH1 0x20 DUP3 ADD SWAP1 POP SWAP3 SWAP2 POP POP JUMP JUMPDEST PUSH0 DUP2 SWAP1 POP PUSH1 0x20 DUP3 ADD SWAP1 POP SWAP2 SWAP1 POP JUMP JUMPDEST PUSH2 0x1079 DUP2 PUSH2 0xE9B JUMP JUMPDEST DUP3 MSTORE POP POP JUMP JUMPDEST PUSH2 0x1088 DUP2 PUSH2 0xE60 JUMP JUMPDEST DUP3 MSTORE POP POP JUMP JUMPDEST PUSH0 DUP3 DUP3 MSTORE PUSH1 0x20 DUP3 ADD SWAP1 POP SWAP3 SWAP2 POP POP JUMP JUMPDEST PUSH0 PUSH2 0x10A8 DUP3 PUSH2 0xF2A JUMP JUMPDEST PUSH2 0x10B2 DUP2 DUP6 PUSH2 0x108E JUMP JUMPDEST SWAP4 POP PUSH2 0x10C2 DUP2 DUP6 PUSH1 0x20 DUP7 ADD PUSH2 0xF44 JUMP JUMPDEST PUSH2 0x10CB DUP2 PUSH2 0xF52 JUMP JUMPDEST DUP5 ADD SWAP2 POP POP SWAP3 SWAP2 POP POP JUMP JUMPDEST PUSH2 0x10DF DUP2 PUSH2 0xF9A JUMP JUMPDEST DUP3 MSTORE POP POP JUMP JUMPDEST PUSH0 PUSH1 0xA0 DUP4 ADD PUSH0 DUP4 ADD MLOAD PUSH2 0x10FA PUSH0 DUP7 ADD DUP3 PUSH2 0x1070 JUMP JUMPDEST POP PUSH1 0x20 DUP4 ADD MLOAD PUSH2 0x110D PUSH1 0x20 DUP7 ADD DUP3 PUSH2 0x107F JUMP JUMPDEST POP PUSH1 0x40 DUP4 ADD MLOAD DUP5 DUP3 SUB PUSH1 0x40 DUP7 ADD MSTORE PUSH2 0x1125 DUP3 DUP3 PUSH2 0x109E JUMP JUMPDEST SWAP2 POP POP PUSH1 0x60 DUP4 ADD MLOAD PUSH2 0x113A PUSH1 0x60 DUP7 ADD DUP3 PUSH2 0x1070 JUMP JUMPDEST POP PUSH1 0x80 DUP4 ADD MLOAD PUSH2 0x114D PUSH1 0x80 DUP7 ADD DUP3 PUSH2 0x10D6 JUMP JUMPDEST POP DUP1 SWAP2 POP POP SWAP3 SWAP2 POP POP JUMP JUMPDEST PUSH0 PUSH2 0x1163 DUP4 DUP4 PUSH2 0x10E5 JUMP JUMPDEST SWAP1 POP SWAP3 SWAP2 POP POP JUMP JUMPDEST PUSH0 PUSH1 0x20 DUP3 ADD SWAP1 POP SWAP2 SWAP1 POP JUMP JUMPDEST PUSH0 PUSH2 0x1181 DUP3 PUSH2 0x1047 JUMP JUMPDEST PUSH2 0x118B DUP2 DUP6 PUSH2 0x1051 JUMP JUMPDEST SWAP4 POP DUP4 PUSH1 0x20 DUP3 MUL DUP6 ADD PUSH2 0x119D DUP6 PUSH2 0x1061 JUMP JUMPDEST DUP1 PUSH0 JUMPDEST DUP6 DUP2 LT ISZERO PUSH2 0x11D8 JUMPI DUP5 DUP5 SUB DUP10 MSTORE DUP2 MLOAD PUSH2 0x11B9 DUP6 DUP3 PUSH2 0x1158 JUMP JUMPDEST SWAP5 POP PUSH2 0x11C4 DUP4 PUSH2 0x116B JUMP JUMPDEST SWAP3 POP PUSH1 0x20 DUP11 ADD SWAP10 POP POP PUSH1 0x1 DUP2 ADD SWAP1 POP PUSH2 0x11A0 JUMP JUMPDEST POP DUP3 SWAP8 POP DUP8 SWAP6 POP POP POP POP POP POP SWAP3 SWAP2 POP POP JUMP JUMPDEST PUSH0 PUSH1 0x20 DUP3 ADD SWAP1 POP DUP2 DUP2 SUB PUSH0 DUP4 ADD MSTORE PUSH2 0x1202 DUP2 DUP5 PUSH2 0x1177 JUMP JUMPDEST SWAP1 POP SWAP3 SWAP2 POP POP JUMP JUMPDEST PUSH0 PUSH2 0xFFFF DUP3 AND SWAP1 POP SWAP2 SWAP1 POP JUMP JUMPDEST PUSH2 0x1220 DUP2 PUSH2 0x120A JUMP JUMPDEST DUP2 EQ PUSH2 0x122A JUMPI PUSH0 DUP1 REVERT JUMPDEST POP JUMP JUMPDEST PUSH0 DUP2 CALLDATALOAD SWAP1 POP PUSH2 0x123B DUP2 PUSH2 0x1217 JUMP JUMPDEST SWAP3 SWAP2 POP POP JUMP JUMPDEST PUSH0 PUSH1 0x20 DUP3 DUP5 SUB SLT ISZERO PUSH2 0x1256 JUMPI PUSH2 0x1255 PUSH2 0xE39 JUMP JUMPDEST JUMPDEST PUSH0 PUSH2 0x1263 DUP5 DUP3 DUP6 ADD PUSH2 0x122D JUMP JUMPDEST SWAP2 POP POP SWAP3 SWAP2 POP POP JUMP JUMPDEST PUSH2 0x1275 DUP2 PUSH2 0xF9A JUMP JUMPDEST DUP2 EQ PUSH2 0x127F JUMPI PUSH0 DUP1 REVERT JUMPDEST POP JUMP JUMPDEST PUSH0 DUP2 CALLDATALOAD SWAP1 POP PUSH2 0x1290 DUP2 PUSH2 0x126C JUMP JUMPDEST SWAP3 SWAP2 POP POP JUMP JUMPDEST PUSH0 PUSH1 0x20 DUP3 DUP5 SUB SLT ISZERO PUSH2 0x12AB JUMPI PUSH2 0x12AA PUSH2 0xE39 JUMP JUMPDEST JUMPDEST PUSH0 PUSH2 0x12B8 DUP5 DUP3 DUP6 ADD PUSH2 0x1282 JUMP JUMPDEST SWAP2 POP POP SWAP3 SWAP2 POP POP JUMP JUMPDEST PUSH0 PUSH1 0xA0 DUP4 ADD PUSH0 DUP4 ADD MLOAD PUSH2 0x12D6 PUSH0 DUP7 ADD DUP3 PUSH2 0x1070 JUMP JUMPDEST POP PUSH1 0x20 DUP4 ADD MLOAD PUSH2 0x12E9 PUSH1 0x20 DUP7 ADD DUP3 PUSH2 0x107F JUMP JUMPDEST POP PUSH1 0x40 DUP4 ADD MLOAD DUP5 DUP3 SUB PUSH1 0x40 DUP7 ADD MSTORE PUSH2 0x1301 DUP3 DUP3 PUSH2 0x109E JUMP JUMPDEST SWAP2 POP POP PUSH1 0x60 DUP4 ADD MLOAD PUSH2 0x1316 PUSH1 0x60 DUP7 ADD DUP3 PUSH2 0x1070 JUMP JUMPDEST POP PUSH1 0x80 DUP4 ADD MLOAD PUSH2 0x1329 PUSH1 0x80 DUP7 ADD DUP3 PUSH2 0x10D6 JUMP JUMPDEST POP DUP1 SWAP2 POP POP SWAP3 SWAP2 POP POP JUMP JUMPDEST PUSH0 PUSH1 0x20 DUP3 ADD SWAP1 POP DUP2 DUP2 SUB PUSH0 DUP4 ADD MSTORE PUSH2 0x134C DUP2 DUP5 PUSH2 0x12C1 JUMP JUMPDEST SWAP1 POP SWAP3 SWAP2 POP POP JUMP JUMPDEST PUSH0 DUP1 REVERT JUMPDEST PUSH0 DUP1 REVERT JUMPDEST PUSH32 0x4E487B7100000000000000000000000000000000000000000000000000000000 PUSH0 MSTORE PUSH1 0x41 PUSH1 0x4 MSTORE PUSH1 0x24 PUSH0 REVERT JUMPDEST PUSH2 0x1392 DUP3 PUSH2 0xF52 JUMP JUMPDEST DUP2 ADD DUP2 DUP2 LT PUSH8 0xFFFFFFFFFFFFFFFF DUP3 GT OR ISZERO PUSH2 0x13B1 JUMPI PUSH2 0x13B0 PUSH2 0x135C JUMP JUMPDEST JUMPDEST DUP1 PUSH1 0x40 MSTORE POP POP POP JUMP JUMPDEST PUSH0 PUSH2 0x13C3 PUSH2 0xE30 JUMP JUMPDEST SWAP1 POP PUSH2 0x13CF DUP3 DUP3 PUSH2 0x1389 JUMP JUMPDEST SWAP2 SWAP1 POP JUMP JUMPDEST PUSH0 PUSH8 0xFFFFFFFFFFFFFFFF DUP3 GT ISZERO PUSH2 0x13EE JUMPI PUSH2 0x13ED PUSH2 0x135C JUMP JUMPDEST JUMPDEST PUSH2 0x13F7 DUP3 PUSH2 0xF52 JUMP JUMPDEST SWAP1 POP PUSH1 0x20 DUP2 ADD SWAP1 POP SWAP2 SWAP1 POP JUMP JUMPDEST DUP3 DUP2 DUP4 CALLDATACOPY PUSH0 DUP4 DUP4 ADD MSTORE POP POP POP JUMP JUMPDEST PUSH0 PUSH2 0x1424 PUSH2 0x141F DUP5 PUSH2 0x13D4 JUMP JUMPDEST PUSH2 0x13BA JUMP JUMPDEST SWAP1 POP DUP3 DUP2 MSTORE PUSH1 0x20 DUP2 ADD DUP5 DUP5 DUP5 ADD GT ISZERO PUSH2 0x1440 JUMPI PUSH2 0x143F PUSH2 0x1358 JUMP JUMPDEST JUMPDEST PUSH2 0x144B DUP5 DUP3 DUP6 PUSH2 0x1404 JUMP JUMPDEST POP SWAP4 SWAP3 POP POP POP JUMP JUMPDEST PUSH0 DUP3 PUSH1 0x1F DUP4 ADD SLT PUSH2 0x1467 JUMPI PUSH2 0x1466 PUSH2 0x1354 JUMP JUMPDEST JUMPDEST DUP2 CALLDATALOAD PUSH2 0x1477 DUP5 DUP3 PUSH1 0x20 DUP7 ADD PUSH2 0x1412 JUMP JUMPDEST SWAP2 POP POP SWAP3 SWAP2 POP POP JUMP JUMPDEST PUSH0 PUSH1 0x20 DUP3 DUP5 SUB SLT ISZERO PUSH2 0x1495 JUMPI PUSH2 0x1494 PUSH2 0xE39 JUMP JUMPDEST JUMPDEST PUSH0 DUP3 ADD CALLDATALOAD PUSH8 0xFFFFFFFFFFFFFFFF DUP2 GT ISZERO PUSH2 0x14B2 JUMPI PUSH2 0x14B1 PUSH2 0xE3D JUMP JUMPDEST JUMPDEST PUSH2 0x14BE DUP5 DUP3 DUP6 ADD PUSH2 0x1453 JUMP JUMPDEST SWAP2 POP POP SWAP3 SWAP2 POP POP JUMP JUMPDEST PUSH0 PUSH1 0x20 DUP3 ADD SWAP1 POP PUSH2 0x14DA PUSH0 DUP4 ADD DUP5 PUSH2 0xF1B JUMP JUMPDEST SWAP3 SWAP2 POP POP JUMP JUMPDEST PUSH32 0x4E487B7100000000000000000000000000000000000000000000000000000000 PUSH0 MSTORE PUSH1 0x22 PUSH1 0x4 MSTORE PUSH1 0x24 PUSH0 REVERT JUMPDEST PUSH0 PUSH1 0x2 DUP3 DIV SWAP1 POP PUSH1 0x1 DUP3 AND DUP1 PUSH2 0x1524 JUMPI PUSH1 0x7F DUP3 AND SWAP2 POP JUMPDEST PUSH1 0x20 DUP3 LT DUP2 SUB PUSH2 0x1537 JUMPI PUSH2 0x1536 PUSH2 0x14E0 JUMP JUMPDEST JUMPDEST POP SWAP2 SWAP1 POP JUMP JUMPDEST PUSH32 0x4E487B7100000000000000000000000000000000000000000000000000000000 PUSH0 MSTORE PUSH1 0x32 PUSH1 0x4 MSTORE PUSH1 0x24 PUSH0 REVERT JUMPDEST PUSH32 0x5477656574206E6F7420666F756E640000000000000000000000000000000000 PUSH0 DUP3 ADD MSTORE POP JUMP JUMPDEST PUSH0 PUSH2 0x159E PUSH1 0xF DUP4 PUSH2 0xF34 JUMP JUMPDEST SWAP2 POP PUSH2 0x15A9 DUP3 PUSH2 0x156A JUMP JUMPDEST PUSH1 0x20 DUP3 ADD SWAP1 POP SWAP2 SWAP1 POP JUMP JUMPDEST PUSH0 PUSH1 0x20 DUP3 ADD SWAP1 POP DUP2 DUP2 SUB PUSH0 DUP4 ADD MSTORE PUSH2 0x15CB DUP2 PUSH2 0x1592 JUMP JUMPDEST SWAP1 POP SWAP2 SWAP1 POP JUMP JUMPDEST PUSH32 0x4D616E6E6E21205265616C6C793F3F0000000000000000000000000000000000 PUSH0 DUP3 ADD MSTORE POP JUMP JUMPDEST PUSH0 PUSH2 0x1606 PUSH1 0xF DUP4 PUSH2 0xF34 JUMP JUMPDEST SWAP2 POP PUSH2 0x1611 DUP3 PUSH2 0x15D2 JUMP JUMPDEST PUSH1 0x20 DUP3 ADD SWAP1 POP SWAP2 SWAP1 POP JUMP JUMPDEST PUSH0 PUSH1 0x20 DUP3 ADD SWAP1 POP DUP2 DUP2 SUB PUSH0 DUP4 ADD MSTORE PUSH2 0x1633 DUP2 PUSH2 0x15FA JUMP JUMPDEST SWAP1 POP SWAP2 SWAP1 POP JUMP JUMPDEST PUSH32 0x4E487B7100000000000000000000000000000000000000000000000000000000 PUSH0 MSTORE PUSH1 0x11 PUSH1 0x4 MSTORE PUSH1 0x24 PUSH0 REVERT JUMPDEST PUSH0 PUSH2 0x1671 DUP3 PUSH2 0xF9A JUMP JUMPDEST SWAP2 POP PUSH0 DUP3 SUB PUSH2 0x1683 JUMPI PUSH2 0x1682 PUSH2 0x163A JUMP JUMPDEST JUMPDEST PUSH1 0x1 DUP3 SUB SWAP1 POP SWAP2 SWAP1 POP JUMP JUMPDEST PUSH32 0x596F7520617265206E6F7420746865206F776E65722064756465210000000000 PUSH0 DUP3 ADD MSTORE POP JUMP JUMPDEST PUSH0 PUSH2 0x16C2 PUSH1 0x1B DUP4 PUSH2 0xF34 JUMP JUMPDEST SWAP2 POP PUSH2 0x16CD DUP3 PUSH2 0x168E JUMP JUMPDEST PUSH1 0x20 DUP3 ADD SWAP1 POP SWAP2 SWAP1 POP JUMP JUMPDEST PUSH0 PUSH1 0x20 DUP3 ADD SWAP1 POP DUP2 DUP2 SUB PUSH0 DUP4 ADD MSTORE PUSH2 0x16EF DUP2 PUSH2 0x16B6 JUMP JUMPDEST SWAP1 POP SWAP2 SWAP1 POP JUMP JUMPDEST PUSH0 PUSH2 0x1700 DUP3 PUSH2 0xF9A JUMP JUMPDEST SWAP2 POP PUSH16 0xFFFFFFFFFFFFFFFFFFFFFFFFFFFFFFFF DUP3 SUB PUSH2 0x1722 JUMPI PUSH2 0x1721 PUSH2 0x163A JUMP JUMPDEST JUMPDEST PUSH1 0x1 DUP3 ADD SWAP1 POP SWAP2 SWAP1 POP JUMP JUMPDEST PUSH0 DUP2 SWAP1 POP SWAP2 SWAP1 POP JUMP JUMPDEST PUSH0 PUSH2 0x1750 PUSH2 0x174B PUSH2 0x1746 DUP5 PUSH2 0xF9A JUMP JUMPDEST PUSH2 0x172D JUMP JUMPDEST PUSH2 0xE9B JUMP JUMPDEST SWAP1 POP SWAP2 SWAP1 POP JUMP JUMPDEST PUSH2 0x1760 DUP2 PUSH2 0x1736 JUMP JUMPDEST DUP3 MSTORE POP POP JUMP JUMPDEST PUSH0 PUSH1 0x60 DUP3 ADD SWAP1 POP PUSH2 0x1779 PUSH0 DUP4 ADD DUP7 PUSH2 0xF1B JUMP JUMPDEST PUSH2 0x1786 PUSH1 0x20 DUP4 ADD DUP6 PUSH2 0xF0C JUMP JUMPDEST PUSH2 0x1793 PUSH1 0x40 DUP4 ADD DUP5 PUSH2 0x1757 JUMP JUMPDEST SWAP5 SWAP4 POP POP POP POP JUMP JUMPDEST PUSH32 0x546F6F206C6F6E672062726F2100000000000000000000000000000000000000 PUSH0 DUP3 ADD MSTORE POP JUMP JUMPDEST PUSH0 PUSH2 0x17CF PUSH1 0xD DUP4 PUSH2 0xF34 JUMP JUMPDEST SWAP2 POP PUSH2 0x17DA DUP3 PUSH2 0x179B JUMP JUMPDEST PUSH1 0x20 DUP3 ADD SWAP1 POP SWAP2 SWAP1 POP JUMP JUMPDEST PUSH0 PUSH1 0x20 DUP3 ADD SWAP1 POP DUP2 DUP2 SUB PUSH0 DUP4 ADD MSTORE PUSH2 0x17FC DUP2 PUSH2 0x17C3 JUMP JUMPDEST SWAP1 POP SWAP2 SWAP1 POP JUMP JUMPDEST PUSH0 DUP2 SWAP1 POP DUP2 PUSH0 MSTORE PUSH1 0x20 PUSH0 KECCAK256 SWAP1 POP SWAP2 SWAP1 POP JUMP JUMPDEST PUSH0 PUSH1 0x20 PUSH1 0x1F DUP4 ADD DIV SWAP1 POP SWAP2 SWAP1 POP JUMP JUMPDEST PUSH0 DUP3 DUP3 SHL SWAP1 POP SWAP3 SWAP2 POP POP JUMP JUMPDEST PUSH0 PUSH1 0x8 DUP4 MUL PUSH2 0x185F PUSH32 0xFFFFFFFFFFFFFFFFFFFFFFFFFFFFFFFFFFFFFFFFFFFFFFFFFFFFFFFFFFFFFFFF DUP3 PUSH2 0x1824 JUMP JUMPDEST PUSH2 0x1869 DUP7 DUP4 PUSH2 0x1824 JUMP JUMPDEST SWAP6 POP DUP1 NOT DUP5 AND SWAP4 POP DUP1 DUP7 AND DUP5 OR SWAP3 POP POP POP SWAP4 SWAP3 POP POP POP JUMP JUMPDEST PUSH0 PUSH2 0x189B PUSH2 0x1896 PUSH2 0x1891 DUP5 PUSH2 0xE9B JUMP JUMPDEST PUSH2 0x172D JUMP JUMPDEST PUSH2 0xE9B JUMP JUMPDEST SWAP1 POP SWAP2 SWAP1 POP JUMP JUMPDEST PUSH0 DUP2 SWAP1 POP SWAP2 SWAP1 POP JUMP JUMPDEST PUSH2 0x18B4 DUP4 PUSH2 0x1881 JUMP JUMPDEST PUSH2 0x18C8 PUSH2 0x18C0 DUP3 PUSH2 0x18A2 JUMP JUMPDEST DUP5 DUP5 SLOAD PUSH2 0x1830 JUMP JUMPDEST DUP3 SSTORE POP POP POP POP JUMP JUMPDEST PUSH0 SWAP1 JUMP JUMPDEST PUSH2 0x18DC PUSH2 0x18D0 JUMP JUMPDEST PUSH2 0x18E7 DUP2 DUP5 DUP5 PUSH2 0x18AB JUMP JUMPDEST POP POP POP JUMP JUMPDEST JUMPDEST DUP2 DUP2 LT ISZERO PUSH2 0x190A JUMPI PUSH2 0x18FF PUSH0 DUP3 PUSH2 0x18D4 JUMP JUMPDEST PUSH1 0x1 DUP2 ADD SWAP1 POP PUSH2 0x18ED JUMP JUMPDEST POP POP JUMP JUMPDEST PUSH1 0x1F DUP3 GT ISZERO PUSH2 0x194F JUMPI PUSH2 0x1920 DUP2 PUSH2 0x1803 JUMP JUMPDEST PUSH2 0x1929 DUP5 PUSH2 0x1815 JUMP JUMPDEST DUP2 ADD PUSH1 0x20 DUP6 LT ISZERO PUSH2 0x1938 JUMPI DUP2 SWAP1 POP JUMPDEST PUSH2 0x194C PUSH2 0x1944 DUP6 PUSH2 0x1815 JUMP JUMPDEST DUP4 ADD DUP3 PUSH2 0x18EC JUMP JUMPDEST POP POP JUMPDEST POP POP POP JUMP JUMPDEST PUSH0 DUP3 DUP3 SHR SWAP1 POP SWAP3 SWAP2 POP POP JUMP JUMPDEST PUSH0 PUSH2 0x196F PUSH0 NOT DUP5 PUSH1 0x8 MUL PUSH2 0x1954 JUMP JUMPDEST NOT DUP1 DUP4 AND SWAP2 POP POP SWAP3 SWAP2 POP POP JUMP JUMPDEST PUSH0 PUSH2 0x1987 DUP4 DUP4 PUSH2 0x1960 JUMP JUMPDEST SWAP2 POP DUP3 PUSH1 0x2 MUL DUP3 OR SWAP1 POP SWAP3 SWAP2 POP POP JUMP JUMPDEST PUSH2 0x19A0 DUP3 PUSH2 0xF2A JUMP JUMPDEST PUSH8 0xFFFFFFFFFFFFFFFF DUP2 GT ISZERO PUSH2 0x19B9 JUMPI PUSH2 0x19B8 PUSH2 0x135C JUMP JUMPDEST JUMPDEST PUSH2 0x19C3 DUP3 SLOAD PUSH2 0x150D JUMP JUMPDEST PUSH2 0x19CE DUP3 DUP3 DUP6 PUSH2 0x190E JUMP JUMPDEST PUSH0 PUSH1 0x20 SWAP1 POP PUSH1 0x1F DUP4 GT PUSH1 0x1 DUP2 EQ PUSH2 0x19FF JUMPI PUSH0 DUP5 ISZERO PUSH2 0x19ED JUMPI DUP3 DUP8 ADD MLOAD SWAP1 POP JUMPDEST PUSH2 0x19F7 DUP6 DUP3 PUSH2 0x197C JUMP JUMPDEST DUP7 SSTORE POP PUSH2 0x1A5E JUMP JUMPDEST PUSH1 0x1F NOT DUP5 AND PUSH2 0x1A0D DUP7 PUSH2 0x1803 JUMP JUMPDEST PUSH0 JUMPDEST DUP3 DUP2 LT ISZERO PUSH2 0x1A34 JUMPI DUP5 DUP10 ADD MLOAD DUP3 SSTORE PUSH1 0x1 DUP3 ADD SWAP2 POP PUSH1 0x20 DUP6 ADD SWAP5 POP PUSH1 0x20 DUP2 ADD SWAP1 POP PUSH2 0x1A0F JUMP JUMPDEST DUP7 DUP4 LT ISZERO PUSH2 0x1A51 JUMPI DUP5 DUP10 ADD MLOAD PUSH2 0x1A4D PUSH1 0x1F DUP10 AND DUP3 PUSH2 0x1960 JUMP JUMPDEST DUP4 SSTORE POP JUMPDEST PUSH1 0x1 PUSH1 0x2 DUP9 MUL ADD DUP9 SSTORE POP POP POP JUMPDEST POP POP POP POP POP POP JUMP JUMPDEST PUSH0 PUSH1 0x80 DUP3 ADD SWAP1 POP PUSH2 0x1A79 PUSH0 DUP4 ADD DUP8 PUSH2 0xF0C JUMP JUMPDEST PUSH2 0x1A86 PUSH1 0x20 DUP4 ADD DUP7 PUSH2 0xF1B JUMP JUMPDEST DUP2 DUP2 SUB PUSH1 0x40 DUP4 ADD MSTORE PUSH2 0x1A98 DUP2 DUP6 PUSH2 0xF62 JUMP JUMPDEST SWAP1 POP PUSH2 0x1AA7 PUSH1 0x60 DUP4 ADD DUP5 PUSH2 0xF0C JUMP JUMPDEST SWAP6 SWAP5 POP POP POP POP POP JUMP INVALID LOG2 PUSH5 0x6970667358 0x22 SLT KECCAK256 0xA5 PUSH1 0x6B CREATE SWAP3 PUSH24 0x53F115F57076289B7D5D52F4F312082705AC94C11718F6CE SWAP14 0xA9 PUSH5 0x736F6C6343 STOP ADDMOD BYTE STOP CALLER "
				},
				"gasEstimates": {
					"creation": {
						"codeDepositCost": "1377200",
						"executionCost": "49967",
						"totalCost": "1427167"
					},
					"external": {
						"changeTweetLength(uint16)": "26909",
						"createTweet(string)": "infinite",
						"getAllTweets(address)": "infinite",
						"getTweet(uint128)": "infinite",
						"likeTweet(address,uint256)": "infinite",
						"owner()": "2574",
						"tweets(address,uint256)": "infinite",
						"unlikeTweet(address,uint256)": "40485"
					}
				},
				"methodIdentifiers": {
					"changeTweetLength(uint16)": "58bfa4ab",
					"createTweet(string)": "7c9cd2bc",
					"getAllTweets(address)": "12e7ee1c",
					"getTweet(uint128)": "5dfd9be2",
					"likeTweet(address,uint256)": "63378216",
					"owner()": "8da5cb5b",
					"tweets(address,uint256)": "05a1b4a9",
					"unlikeTweet(address,uint256)": "3d9b569f"
				}
			},
			"storageLayout": {
				"storage": [
					{
						"astId": 15,
						"contract": "contracts/06TwitterEvents.sol:TwitterStruct",
						"label": "MAX_TWEET_LENGTH",
						"offset": 0,
						"slot": "0",
						"type": "t_uint16"
					},
					{
						"astId": 21,
						"contract": "contracts/06TwitterEvents.sol:TwitterStruct",
						"label": "tweets",
						"offset": 0,
						"slot": "1",
						"type": "t_mapping(t_address,t_array(t_struct(Tweet)12_storage)dyn_storage)"
					},
					{
						"astId": 23,
						"contract": "contracts/06TwitterEvents.sol:TwitterStruct",
						"label": "owner",
						"offset": 0,
						"slot": "2",
						"type": "t_address"
					}
				],
				"types": {
					"t_address": {
						"encoding": "inplace",
						"label": "address",
						"numberOfBytes": "20"
					},
					"t_array(t_struct(Tweet)12_storage)dyn_storage": {
						"base": "t_struct(Tweet)12_storage",
						"encoding": "dynamic_array",
						"label": "struct TwitterStruct.Tweet[]",
						"numberOfBytes": "32"
					},
					"t_mapping(t_address,t_array(t_struct(Tweet)12_storage)dyn_storage)": {
						"encoding": "mapping",
						"key": "t_address",
						"label": "mapping(address => struct TwitterStruct.Tweet[])",
						"numberOfBytes": "32",
						"value": "t_array(t_struct(Tweet)12_storage)dyn_storage"
					},
					"t_string_storage": {
						"encoding": "bytes",
						"label": "string",
						"numberOfBytes": "32"
					},
					"t_struct(Tweet)12_storage": {
						"encoding": "inplace",
						"label": "struct TwitterStruct.Tweet",
						"members": [
							{
								"astId": 3,
								"contract": "contracts/06TwitterEvents.sol:TwitterStruct",
								"label": "id",
								"offset": 0,
								"slot": "0",
								"type": "t_uint256"
							},
							{
								"astId": 5,
								"contract": "contracts/06TwitterEvents.sol:TwitterStruct",
								"label": "author",
								"offset": 0,
								"slot": "1",
								"type": "t_address"
							},
							{
								"astId": 7,
								"contract": "contracts/06TwitterEvents.sol:TwitterStruct",
								"label": "content",
								"offset": 0,
								"slot": "2",
								"type": "t_string_storage"
							},
							{
								"astId": 9,
								"contract": "contracts/06TwitterEvents.sol:TwitterStruct",
								"label": "timestamp",
								"offset": 0,
								"slot": "3",
								"type": "t_uint256"
							},
							{
								"astId": 11,
								"contract": "contracts/06TwitterEvents.sol:TwitterStruct",
								"label": "likes",
								"offset": 0,
								"slot": "4",
								"type": "t_uint128"
							}
						],
						"numberOfBytes": "160"
					},
					"t_uint128": {
						"encoding": "inplace",
						"label": "uint128",
						"numberOfBytes": "16"
					},
					"t_uint16": {
						"encoding": "inplace",
						"label": "uint16",
						"numberOfBytes": "2"
					},
					"t_uint256": {
						"encoding": "inplace",
						"label": "uint256",
						"numberOfBytes": "32"
					}
				}
			},
			"userdoc": {
				"kind": "user",
				"methods": {},
				"version": 1
			}
		}
	}
}